{
	"2day/tieredRewardSystem.sol": {
		"TieredRewardSystem": {
			"abi": [
				{
					"inputs": [
						{
							"internalType": "address",
							"name": "user",
							"type": "address"
						},
						{
							"internalType": "uint256",
							"name": "requested",
							"type": "uint256"
						},
						{
							"internalType": "uint256",
							"name": "available",
							"type": "uint256"
						}
					],
					"name": "InsufficientPoints",
					"type": "error"
				},
				{
					"inputs": [
						{
							"internalType": "uint256",
							"name": "points",
							"type": "uint256"
						}
					],
					"name": "InvalidPointsAmount",
					"type": "error"
				},
				{
					"anonymous": false,
					"inputs": [
						{
							"indexed": true,
							"internalType": "address",
							"name": "user",
							"type": "address"
						},
						{
							"indexed": false,
							"internalType": "uint256",
							"name": "points",
							"type": "uint256"
						}
					],
					"name": "PointsRedeemed",
					"type": "event"
				},
				{
					"anonymous": false,
					"inputs": [
						{
							"indexed": true,
							"internalType": "address",
							"name": "user",
							"type": "address"
						},
						{
							"indexed": true,
							"internalType": "address",
							"name": "to",
							"type": "address"
						},
						{
							"indexed": false,
							"internalType": "uint256",
							"name": "points",
							"type": "uint256"
						}
					],
					"name": "PointsTransfered",
					"type": "event"
				},
				{
					"anonymous": false,
					"inputs": [
						{
							"indexed": true,
							"internalType": "address",
							"name": "user",
							"type": "address"
						},
						{
							"indexed": false,
							"internalType": "enum TieredRewardSystem.Tier",
							"name": "tier",
							"type": "uint8"
						}
					],
					"name": "TierAssigned",
					"type": "event"
				},
				{
					"anonymous": false,
					"inputs": [
						{
							"indexed": true,
							"internalType": "address",
							"name": "user",
							"type": "address"
						},
						{
							"indexed": false,
							"internalType": "uint256",
							"name": "points",
							"type": "uint256"
						}
					],
					"name": "pointsEarned",
					"type": "event"
				},
				{
					"inputs": [],
					"name": "BRONZE_MULTIPLIER",
					"outputs": [
						{
							"internalType": "uint256",
							"name": "",
							"type": "uint256"
						}
					],
					"stateMutability": "view",
					"type": "function"
				},
				{
					"inputs": [],
					"name": "GOLD_MULTIPLIER",
					"outputs": [
						{
							"internalType": "uint256",
							"name": "",
							"type": "uint256"
						}
					],
					"stateMutability": "view",
					"type": "function"
				},
				{
					"inputs": [],
					"name": "SILVER_MULTIPLIER",
					"outputs": [
						{
							"internalType": "uint256",
							"name": "",
							"type": "uint256"
						}
					],
					"stateMutability": "view",
					"type": "function"
				},
				{
					"inputs": [
						{
							"internalType": "address",
							"name": "user",
							"type": "address"
						},
						{
							"internalType": "enum TieredRewardSystem.Tier",
							"name": "tier",
							"type": "uint8"
						}
					],
					"name": "assignTier",
					"outputs": [],
					"stateMutability": "nonpayable",
					"type": "function"
				},
				{
					"inputs": [
						{
							"internalType": "address",
							"name": "user",
							"type": "address"
						},
						{
							"internalType": "uint256",
							"name": "points",
							"type": "uint256"
						}
					],
					"name": "earnPoints",
					"outputs": [],
					"stateMutability": "nonpayable",
					"type": "function"
				},
				{
					"inputs": [
						{
							"internalType": "address",
							"name": "user",
							"type": "address"
						}
					],
					"name": "getBalance",
					"outputs": [
						{
							"internalType": "uint256",
							"name": "",
							"type": "uint256"
						}
					],
					"stateMutability": "view",
					"type": "function"
				},
				{
					"inputs": [
						{
							"internalType": "uint256",
							"name": "points",
							"type": "uint256"
						}
					],
					"name": "redeemPoints",
					"outputs": [],
					"stateMutability": "nonpayable",
					"type": "function"
				},
				{
					"inputs": [
						{
							"internalType": "address",
							"name": "",
							"type": "address"
						}
					],
					"name": "rewardBalances",
					"outputs": [
						{
							"internalType": "uint256",
							"name": "",
							"type": "uint256"
						}
					],
					"stateMutability": "view",
					"type": "function"
				},
				{
					"inputs": [
						{
							"internalType": "address",
							"name": "to",
							"type": "address"
						},
						{
							"internalType": "uint256",
							"name": "points",
							"type": "uint256"
						}
					],
					"name": "transferPoints",
					"outputs": [],
					"stateMutability": "nonpayable",
					"type": "function"
				},
				{
					"inputs": [
						{
							"internalType": "address",
							"name": "",
							"type": "address"
						}
					],
					"name": "userTiers",
					"outputs": [
						{
							"internalType": "enum TieredRewardSystem.Tier",
							"name": "",
							"type": "uint8"
						}
					],
					"stateMutability": "view",
					"type": "function"
				}
			],
			"devdoc": {
				"kind": "dev",
				"methods": {},
				"version": 1
			},
			"evm": {
				"assembly": "    /* \"2day/tieredRewardSystem.sol\":59:1270  contract TieredRewardSystem is RewardSystem{... */\n  mstore(0x40, 0x80)\n  callvalue\n  dup1\n  iszero\n  tag_1\n  jumpi\n  0x00\n  dup1\n  revert\ntag_1:\n  pop\n  dataSize(sub_0)\n  dup1\n  dataOffset(sub_0)\n  0x00\n  codecopy\n  0x00\n  return\nstop\n\nsub_0: assembly {\n        /* \"2day/tieredRewardSystem.sol\":59:1270  contract TieredRewardSystem is RewardSystem{... */\n      mstore(0x40, 0x80)\n      callvalue\n      dup1\n      iszero\n      tag_1\n      jumpi\n      0x00\n      dup1\n      revert\n    tag_1:\n      pop\n      jumpi(tag_2, lt(calldatasize, 0x04))\n      shr(0xe0, calldataload(0x00))\n      dup1\n      0xbb2c7348\n      gt\n      tag_13\n      jumpi\n      dup1\n      0xbb2c7348\n      eq\n      tag_8\n      jumpi\n      dup1\n      0xd5a7760d\n      eq\n      tag_9\n      jumpi\n      dup1\n      0xd909d5e3\n      eq\n      tag_10\n      jumpi\n      dup1\n      0xe92e92e7\n      eq\n      tag_11\n      jumpi\n      dup1\n      0xf8b2cb4f\n      eq\n      tag_12\n      jumpi\n      jump(tag_2)\n    tag_13:\n      dup1\n      0x24063c82\n      eq\n      tag_3\n      jumpi\n      dup1\n      0x326f823f\n      eq\n      tag_4\n      jumpi\n      dup1\n      0x3ed6c8f9\n      eq\n      tag_5\n      jumpi\n      dup1\n      0x40bdcb12\n      eq\n      tag_6\n      jumpi\n      dup1\n      0x93c8dc6d\n      eq\n      tag_7\n      jumpi\n    tag_2:\n      0x00\n      dup1\n      revert\n        /* \"2day/tieredRewardSystem.sol\":196:237  mapping(address => Tier) public userTiers */\n    tag_3:\n      tag_14\n      0x04\n      dup1\n      calldatasize\n      sub\n      dup2\n      add\n      swap1\n      tag_15\n      swap2\n      swap1\n      tag_16\n      jump\t// in\n    tag_15:\n      tag_17\n      jump\t// in\n    tag_14:\n      mload(0x40)\n      tag_18\n      swap2\n      swap1\n      tag_19\n      jump\t// in\n    tag_18:\n      mload(0x40)\n      dup1\n      swap2\n      sub\n      swap1\n      return\n        /* \"2day/RewardSystem.sol\":1034:1396  function transferPoints(address to, uint256 points) public virtual {... */\n    tag_4:\n      tag_20\n      0x04\n      dup1\n      calldatasize\n      sub\n      dup2\n      add\n      swap1\n      tag_21\n      swap2\n      swap1\n      tag_22\n      jump\t// in\n    tag_21:\n      tag_23\n      jump\t// in\n    tag_20:\n      stop\n        /* \"2day/tieredRewardSystem.sol\":483:631  function assignTier (address user, Tier tier) external {... */\n    tag_5:\n      tag_24\n      0x04\n      dup1\n      calldatasize\n      sub\n      dup2\n      add\n      swap1\n      tag_25\n      swap2\n      swap1\n      tag_26\n      jump\t// in\n    tag_25:\n      tag_27\n      jump\t// in\n    tag_24:\n      stop\n        /* \"2day/tieredRewardSystem.sol\":248:293  uint256 public constant BRONZE_MULTIPLIER = 1 */\n    tag_6:\n      tag_28\n      tag_29\n      jump\t// in\n    tag_28:\n      mload(0x40)\n      tag_30\n      swap2\n      swap1\n      tag_31\n      jump\t// in\n    tag_30:\n      mload(0x40)\n      dup1\n      swap2\n      sub\n      swap1\n      return\n        /* \"2day/RewardSystem.sol\":64:113  mapping(address => uint256) public rewardBalances */\n    tag_7:\n      tag_32\n      0x04\n      dup1\n      calldatasize\n      sub\n      dup2\n      add\n      swap1\n      tag_33\n      swap2\n      swap1\n      tag_16\n      jump\t// in\n    tag_33:\n      tag_34\n      jump\t// in\n    tag_32:\n      mload(0x40)\n      tag_35\n      swap2\n      swap1\n      tag_31\n      jump\t// in\n    tag_35:\n      mload(0x40)\n      dup1\n      swap2\n      sub\n      swap1\n      return\n        /* \"2day/tieredRewardSystem.sol\":305:350  uint256 public constant SILVER_MULTIPLIER = 2 */\n    tag_8:\n      tag_36\n      tag_37\n      jump\t// in\n    tag_36:\n      mload(0x40)\n      tag_38\n      swap2\n      swap1\n      tag_31\n      jump\t// in\n    tag_38:\n      mload(0x40)\n      dup1\n      swap2\n      sub\n      swap1\n      return\n        /* \"2day/tieredRewardSystem.sol\":362:405  uint256 public constant GOLD_MULTIPLIER = 3 */\n    tag_9:\n      tag_39\n      tag_40\n      jump\t// in\n    tag_39:\n      mload(0x40)\n      tag_41\n      swap2\n      swap1\n      tag_31\n      jump\t// in\n    tag_41:\n      mload(0x40)\n      dup1\n      swap2\n      sub\n      swap1\n      return\n        /* \"2day/tieredRewardSystem.sol\":643:878  function earnPoints(address user, uint256 points) public override {... */\n    tag_10:\n      tag_42\n      0x04\n      dup1\n      calldatasize\n      sub\n      dup2\n      add\n      swap1\n      tag_43\n      swap2\n      swap1\n      tag_22\n      jump\t// in\n    tag_43:\n      tag_44\n      jump\t// in\n    tag_42:\n      stop\n        /* \"2day/RewardSystem.sol\":723:1026  function redeemPoints(uint256 points) public virtual {... */\n    tag_11:\n      tag_45\n      0x04\n      dup1\n      calldatasize\n      sub\n      dup2\n      add\n      swap1\n      tag_46\n      swap2\n      swap1\n      tag_47\n      jump\t// in\n    tag_46:\n      tag_48\n      jump\t// in\n    tag_45:\n      stop\n        /* \"2day/RewardSystem.sol\":1402:1520  function getBalance(address user) public view virtual returns (uint256) {... */\n    tag_12:\n      tag_49\n      0x04\n      dup1\n      calldatasize\n      sub\n      dup2\n      add\n      swap1\n      tag_50\n      swap2\n      swap1\n      tag_16\n      jump\t// in\n    tag_50:\n      tag_51\n      jump\t// in\n    tag_49:\n      mload(0x40)\n      tag_52\n      swap2\n      swap1\n      tag_31\n      jump\t// in\n    tag_52:\n      mload(0x40)\n      dup1\n      swap2\n      sub\n      swap1\n      return\n        /* \"2day/tieredRewardSystem.sol\":196:237  mapping(address => Tier) public userTiers */\n    tag_17:\n      mstore(0x20, 0x01)\n      dup1\n      0x00\n      mstore\n      keccak256(0x00, 0x40)\n      0x00\n      swap2\n      pop\n      sload\n      swap1\n      0x0100\n      exp\n      swap1\n      div\n      0xff\n      and\n      dup2\n      jump\t// out\n        /* \"2day/RewardSystem.sol\":1034:1396  function transferPoints(address to, uint256 points) public virtual {... */\n    tag_23:\n        /* \"2day/RewardSystem.sol\":1145:1146  0 */\n      0x00\n        /* \"2day/RewardSystem.sol\":1116:1130  rewardBalances */\n      dup1\n        /* \"2day/RewardSystem.sol\":1116:1142  rewardBalances[msg.sender] */\n      0x00\n        /* \"2day/RewardSystem.sol\":1131:1141  msg.sender */\n      caller\n        /* \"2day/RewardSystem.sol\":1116:1142  rewardBalances[msg.sender] */\n      0xffffffffffffffffffffffffffffffffffffffff\n      and\n      0xffffffffffffffffffffffffffffffffffffffff\n      and\n      dup2\n      mstore\n      0x20\n      add\n      swap1\n      dup2\n      mstore\n      0x20\n      add\n      0x00\n      keccak256\n      sload\n        /* \"2day/RewardSystem.sol\":1116:1146  rewardBalances[msg.sender] < 0 */\n      lt\n        /* \"2day/RewardSystem.sol\":1112:1247  if (rewardBalances[msg.sender] < 0){... */\n      iszero\n      tag_54\n      jumpi\n        /* \"2day/RewardSystem.sol\":1188:1198  msg.sender */\n      caller\n        /* \"2day/RewardSystem.sol\":1200:1206  points */\n      dup2\n        /* \"2day/RewardSystem.sol\":1208:1222  rewardBalances */\n      0x00\n        /* \"2day/RewardSystem.sol\":1208:1234  rewardBalances[msg.sender] */\n      dup1\n        /* \"2day/RewardSystem.sol\":1223:1233  msg.sender */\n      caller\n        /* \"2day/RewardSystem.sol\":1208:1234  rewardBalances[msg.sender] */\n      0xffffffffffffffffffffffffffffffffffffffff\n      and\n      0xffffffffffffffffffffffffffffffffffffffff\n      and\n      dup2\n      mstore\n      0x20\n      add\n      swap1\n      dup2\n      mstore\n      0x20\n      add\n      0x00\n      keccak256\n      sload\n        /* \"2day/RewardSystem.sol\":1169:1235  InsufficientPoints(msg.sender, points, rewardBalances[msg.sender]) */\n      mload(0x40)\n      0x36cbdfbf00000000000000000000000000000000000000000000000000000000\n      dup2\n      mstore\n      0x04\n      add\n      tag_55\n      swap4\n      swap3\n      swap2\n      swap1\n      tag_56\n      jump\t// in\n    tag_55:\n      mload(0x40)\n      dup1\n      swap2\n      sub\n      swap1\n      revert\n        /* \"2day/RewardSystem.sol\":1112:1247  if (rewardBalances[msg.sender] < 0){... */\n    tag_54:\n        /* \"2day/RewardSystem.sol\":1287:1293  points */\n      dup1\n        /* \"2day/RewardSystem.sol\":1257:1271  rewardBalances */\n      0x00\n        /* \"2day/RewardSystem.sol\":1257:1283  rewardBalances[msg.sender] */\n      dup1\n        /* \"2day/RewardSystem.sol\":1272:1282  msg.sender */\n      caller\n        /* \"2day/RewardSystem.sol\":1257:1283  rewardBalances[msg.sender] */\n      0xffffffffffffffffffffffffffffffffffffffff\n      and\n      0xffffffffffffffffffffffffffffffffffffffff\n      and\n      dup2\n      mstore\n      0x20\n      add\n      swap1\n      dup2\n      mstore\n      0x20\n      add\n      0x00\n      keccak256\n      0x00\n        /* \"2day/RewardSystem.sol\":1257:1293  rewardBalances[msg.sender] -= points */\n      dup3\n      dup3\n      sload\n      tag_57\n      swap2\n      swap1\n      tag_58\n      jump\t// in\n    tag_57:\n      swap3\n      pop\n      pop\n      dup2\n      swap1\n      sstore\n      pop\n        /* \"2day/RewardSystem.sol\":1326:1332  points */\n      dup1\n        /* \"2day/RewardSystem.sol\":1304:1318  rewardBalances */\n      0x00\n        /* \"2day/RewardSystem.sol\":1304:1322  rewardBalances[to] */\n      dup1\n        /* \"2day/RewardSystem.sol\":1319:1321  to */\n      dup5\n        /* \"2day/RewardSystem.sol\":1304:1322  rewardBalances[to] */\n      0xffffffffffffffffffffffffffffffffffffffff\n      and\n      0xffffffffffffffffffffffffffffffffffffffff\n      and\n      dup2\n      mstore\n      0x20\n      add\n      swap1\n      dup2\n      mstore\n      0x20\n      add\n      0x00\n      keccak256\n      0x00\n        /* \"2day/RewardSystem.sol\":1304:1332  rewardBalances[to] += points */\n      dup3\n      dup3\n      sload\n      tag_59\n      swap2\n      swap1\n      tag_60\n      jump\t// in\n    tag_59:\n      swap3\n      pop\n      pop\n      dup2\n      swap1\n      sstore\n      pop\n        /* \"2day/RewardSystem.sol\":1377:1379  to */\n      dup2\n        /* \"2day/RewardSystem.sol\":1348:1388  PointsTransfered(msg.sender, to, points) */\n      0xffffffffffffffffffffffffffffffffffffffff\n      and\n        /* \"2day/RewardSystem.sol\":1365:1375  msg.sender */\n      caller\n        /* \"2day/RewardSystem.sol\":1348:1388  PointsTransfered(msg.sender, to, points) */\n      0xffffffffffffffffffffffffffffffffffffffff\n      and\n      0x82135f60e186f55e24c0b945c6b5ec1c309125a2243b306e18d7e9b5cc53d6a7\n        /* \"2day/RewardSystem.sol\":1381:1387  points */\n      dup4\n        /* \"2day/RewardSystem.sol\":1348:1388  PointsTransfered(msg.sender, to, points) */\n      mload(0x40)\n      tag_61\n      swap2\n      swap1\n      tag_31\n      jump\t// in\n    tag_61:\n      mload(0x40)\n      dup1\n      swap2\n      sub\n      swap1\n      log3\n        /* \"2day/RewardSystem.sol\":1034:1396  function transferPoints(address to, uint256 points) public virtual {... */\n      pop\n      pop\n      jump\t// out\n        /* \"2day/tieredRewardSystem.sol\":483:631  function assignTier (address user, Tier tier) external {... */\n    tag_27:\n        /* \"2day/tieredRewardSystem.sol\":571:575  tier */\n      dup1\n        /* \"2day/tieredRewardSystem.sol\":553:562  userTiers */\n      0x01\n        /* \"2day/tieredRewardSystem.sol\":553:568  userTiers[user] */\n      0x00\n        /* \"2day/tieredRewardSystem.sol\":563:567  user */\n      dup5\n        /* \"2day/tieredRewardSystem.sol\":553:568  userTiers[user] */\n      0xffffffffffffffffffffffffffffffffffffffff\n      and\n      0xffffffffffffffffffffffffffffffffffffffff\n      and\n      dup2\n      mstore\n      0x20\n      add\n      swap1\n      dup2\n      mstore\n      0x20\n      add\n      0x00\n      keccak256\n      0x00\n        /* \"2day/tieredRewardSystem.sol\":553:575  userTiers[user] = tier */\n      0x0100\n      exp\n      dup2\n      sload\n      dup2\n      0xff\n      mul\n      not\n      and\n      swap1\n      dup4\n      0x03\n      dup2\n      gt\n      iszero\n      tag_63\n      jumpi\n      tag_64\n      tag_65\n      jump\t// in\n    tag_64:\n    tag_63:\n      mul\n      or\n      swap1\n      sstore\n      pop\n        /* \"2day/tieredRewardSystem.sol\":608:612  user */\n      dup2\n        /* \"2day/tieredRewardSystem.sol\":595:619  TierAssigned(user, tier) */\n      0xffffffffffffffffffffffffffffffffffffffff\n      and\n      0x25a8e6b917872d4f0242d981f1efb363113f216dc7314bde01c287968defb51d\n        /* \"2day/tieredRewardSystem.sol\":614:618  tier */\n      dup3\n        /* \"2day/tieredRewardSystem.sol\":595:619  TierAssigned(user, tier) */\n      mload(0x40)\n      tag_66\n      swap2\n      swap1\n      tag_19\n      jump\t// in\n    tag_66:\n      mload(0x40)\n      dup1\n      swap2\n      sub\n      swap1\n      log2\n        /* \"2day/tieredRewardSystem.sol\":483:631  function assignTier (address user, Tier tier) external {... */\n      pop\n      pop\n      jump\t// out\n        /* \"2day/tieredRewardSystem.sol\":248:293  uint256 public constant BRONZE_MULTIPLIER = 1 */\n    tag_29:\n        /* \"2day/tieredRewardSystem.sol\":292:293  1 */\n      0x01\n        /* \"2day/tieredRewardSystem.sol\":248:293  uint256 public constant BRONZE_MULTIPLIER = 1 */\n      dup2\n      jump\t// out\n        /* \"2day/RewardSystem.sol\":64:113  mapping(address => uint256) public rewardBalances */\n    tag_34:\n      mstore(0x20, 0x00)\n      dup1\n      0x00\n      mstore\n      keccak256(0x00, 0x40)\n      0x00\n      swap2\n      pop\n      swap1\n      pop\n      sload\n      dup2\n      jump\t// out\n        /* \"2day/tieredRewardSystem.sol\":305:350  uint256 public constant SILVER_MULTIPLIER = 2 */\n    tag_37:\n        /* \"2day/tieredRewardSystem.sol\":349:350  2 */\n      0x02\n        /* \"2day/tieredRewardSystem.sol\":305:350  uint256 public constant SILVER_MULTIPLIER = 2 */\n      dup2\n      jump\t// out\n        /* \"2day/tieredRewardSystem.sol\":362:405  uint256 public constant GOLD_MULTIPLIER = 3 */\n    tag_40:\n        /* \"2day/tieredRewardSystem.sol\":404:405  3 */\n      0x03\n        /* \"2day/tieredRewardSystem.sol\":362:405  uint256 public constant GOLD_MULTIPLIER = 3 */\n      dup2\n      jump\t// out\n        /* \"2day/tieredRewardSystem.sol\":643:878  function earnPoints(address user, uint256 points) public override {... */\n    tag_44:\n        /* \"2day/tieredRewardSystem.sol\":724:733  Tier tier */\n      0x00\n        /* \"2day/tieredRewardSystem.sol\":736:745  userTiers */\n      0x01\n        /* \"2day/tieredRewardSystem.sol\":736:751  userTiers[user] */\n      0x00\n        /* \"2day/tieredRewardSystem.sol\":746:750  user */\n      dup5\n        /* \"2day/tieredRewardSystem.sol\":736:751  userTiers[user] */\n      0xffffffffffffffffffffffffffffffffffffffff\n      and\n      0xffffffffffffffffffffffffffffffffffffffff\n      and\n      dup2\n      mstore\n      0x20\n      add\n      swap1\n      dup2\n      mstore\n      0x20\n      add\n      0x00\n      keccak256\n      0x00\n      swap1\n      sload\n      swap1\n      0x0100\n      exp\n      swap1\n      div\n      0xff\n      and\n        /* \"2day/tieredRewardSystem.sol\":724:751  Tier tier = userTiers[user] */\n      swap1\n      pop\n        /* \"2day/tieredRewardSystem.sol\":766:784  uint256 multiplier */\n      0x00\n        /* \"2day/tieredRewardSystem.sol\":787:808  _tierMultiplier(tier) */\n      tag_68\n        /* \"2day/tieredRewardSystem.sol\":803:807  tier */\n      dup3\n        /* \"2day/tieredRewardSystem.sol\":787:802  _tierMultiplier */\n      tag_69\n        /* \"2day/tieredRewardSystem.sol\":787:808  _tierMultiplier(tier) */\n      jump\t// in\n    tag_68:\n        /* \"2day/tieredRewardSystem.sol\":766:808  uint256 multiplier = _tierMultiplier(tier) */\n      swap1\n      pop\n        /* \"2day/tieredRewardSystem.sol\":823:866  super.earnPoints(user, points * multiplier) */\n      tag_70\n        /* \"2day/tieredRewardSystem.sol\":840:844  user */\n      dup5\n        /* \"2day/tieredRewardSystem.sol\":855:865  multiplier */\n      dup3\n        /* \"2day/tieredRewardSystem.sol\":846:852  points */\n      dup6\n        /* \"2day/tieredRewardSystem.sol\":846:865  points * multiplier */\n      tag_71\n      swap2\n      swap1\n      tag_72\n      jump\t// in\n    tag_71:\n        /* \"2day/tieredRewardSystem.sol\":823:839  super.earnPoints */\n      tag_73\n        /* \"2day/tieredRewardSystem.sol\":823:866  super.earnPoints(user, points * multiplier) */\n      jump\t// in\n    tag_70:\n        /* \"2day/tieredRewardSystem.sol\":709:878  {... */\n      pop\n      pop\n        /* \"2day/tieredRewardSystem.sol\":643:878  function earnPoints(address user, uint256 points) public override {... */\n      pop\n      pop\n      jump\t// out\n        /* \"2day/RewardSystem.sol\":723:1026  function redeemPoints(uint256 points) public virtual {... */\n    tag_48:\n        /* \"2day/RewardSystem.sol\":820:821  0 */\n      0x00\n        /* \"2day/RewardSystem.sol\":791:805  rewardBalances */\n      dup1\n        /* \"2day/RewardSystem.sol\":791:817  rewardBalances[msg.sender] */\n      0x00\n        /* \"2day/RewardSystem.sol\":806:816  msg.sender */\n      caller\n        /* \"2day/RewardSystem.sol\":791:817  rewardBalances[msg.sender] */\n      0xffffffffffffffffffffffffffffffffffffffff\n      and\n      0xffffffffffffffffffffffffffffffffffffffff\n      and\n      dup2\n      mstore\n      0x20\n      add\n      swap1\n      dup2\n      mstore\n      0x20\n      add\n      0x00\n      keccak256\n      sload\n        /* \"2day/RewardSystem.sol\":791:821  rewardBalances[msg.sender] < 0 */\n      lt\n        /* \"2day/RewardSystem.sol\":787:922  if (rewardBalances[msg.sender] < 0){... */\n      iszero\n      tag_75\n      jumpi\n        /* \"2day/RewardSystem.sol\":863:873  msg.sender */\n      caller\n        /* \"2day/RewardSystem.sol\":875:881  points */\n      dup2\n        /* \"2day/RewardSystem.sol\":883:897  rewardBalances */\n      0x00\n        /* \"2day/RewardSystem.sol\":883:909  rewardBalances[msg.sender] */\n      dup1\n        /* \"2day/RewardSystem.sol\":898:908  msg.sender */\n      caller\n        /* \"2day/RewardSystem.sol\":883:909  rewardBalances[msg.sender] */\n      0xffffffffffffffffffffffffffffffffffffffff\n      and\n      0xffffffffffffffffffffffffffffffffffffffff\n      and\n      dup2\n      mstore\n      0x20\n      add\n      swap1\n      dup2\n      mstore\n      0x20\n      add\n      0x00\n      keccak256\n      sload\n        /* \"2day/RewardSystem.sol\":844:910  InsufficientPoints(msg.sender, points, rewardBalances[msg.sender]) */\n      mload(0x40)\n      0x36cbdfbf00000000000000000000000000000000000000000000000000000000\n      dup2\n      mstore\n      0x04\n      add\n      tag_76\n      swap4\n      swap3\n      swap2\n      swap1\n      tag_56\n      jump\t// in\n    tag_76:\n      mload(0x40)\n      dup1\n      swap2\n      sub\n      swap1\n      revert\n        /* \"2day/RewardSystem.sol\":787:922  if (rewardBalances[msg.sender] < 0){... */\n    tag_75:\n        /* \"2day/RewardSystem.sol\":962:968  points */\n      dup1\n        /* \"2day/RewardSystem.sol\":932:946  rewardBalances */\n      0x00\n        /* \"2day/RewardSystem.sol\":932:958  rewardBalances[msg.sender] */\n      dup1\n        /* \"2day/RewardSystem.sol\":947:957  msg.sender */\n      caller\n        /* \"2day/RewardSystem.sol\":932:958  rewardBalances[msg.sender] */\n      0xffffffffffffffffffffffffffffffffffffffff\n      and\n      0xffffffffffffffffffffffffffffffffffffffff\n      and\n      dup2\n      mstore\n      0x20\n      add\n      swap1\n      dup2\n      mstore\n      0x20\n      add\n      0x00\n      keccak256\n      0x00\n        /* \"2day/RewardSystem.sol\":932:968  rewardBalances[msg.sender] -= points */\n      dup3\n      dup3\n      sload\n      tag_77\n      swap2\n      swap1\n      tag_58\n      jump\t// in\n    tag_77:\n      swap3\n      pop\n      pop\n      dup2\n      swap1\n      sstore\n      pop\n        /* \"2day/RewardSystem.sol\":999:1009  msg.sender */\n      caller\n        /* \"2day/RewardSystem.sol\":984:1018  PointsRedeemed(msg.sender, points) */\n      0xffffffffffffffffffffffffffffffffffffffff\n      and\n      0xc37df5d14f305277c1289e9a188a097cda6684189c95f785feb056cb77a8c910\n        /* \"2day/RewardSystem.sol\":1011:1017  points */\n      dup3\n        /* \"2day/RewardSystem.sol\":984:1018  PointsRedeemed(msg.sender, points) */\n      mload(0x40)\n      tag_78\n      swap2\n      swap1\n      tag_31\n      jump\t// in\n    tag_78:\n      mload(0x40)\n      dup1\n      swap2\n      sub\n      swap1\n      log2\n        /* \"2day/RewardSystem.sol\":723:1026  function redeemPoints(uint256 points) public virtual {... */\n      pop\n      jump\t// out\n        /* \"2day/RewardSystem.sol\":1402:1520  function getBalance(address user) public view virtual returns (uint256) {... */\n    tag_51:\n        /* \"2day/RewardSystem.sol\":1465:1472  uint256 */\n      0x00\n        /* \"2day/RewardSystem.sol\":1492:1506  rewardBalances */\n      dup1\n        /* \"2day/RewardSystem.sol\":1492:1512  rewardBalances[user] */\n      0x00\n        /* \"2day/RewardSystem.sol\":1507:1511  user */\n      dup4\n        /* \"2day/RewardSystem.sol\":1492:1512  rewardBalances[user] */\n      0xffffffffffffffffffffffffffffffffffffffff\n      and\n      0xffffffffffffffffffffffffffffffffffffffff\n      and\n      dup2\n      mstore\n      0x20\n      add\n      swap1\n      dup2\n      mstore\n      0x20\n      add\n      0x00\n      keccak256\n      sload\n        /* \"2day/RewardSystem.sol\":1485:1512  return rewardBalances[user] */\n      swap1\n      pop\n        /* \"2day/RewardSystem.sol\":1402:1520  function getBalance(address user) public view virtual returns (uint256) {... */\n      swap2\n      swap1\n      pop\n      jump\t// out\n        /* \"2day/tieredRewardSystem.sol\":890:1263  function _tierMultiplier ( Tier tier) internal pure returns(uint256){... */\n    tag_69:\n        /* \"2day/tieredRewardSystem.sol\":950:957  uint256 */\n      0x00\n        /* \"2day/tieredRewardSystem.sol\":985:996  Tier.BRONZE */\n      0x01\n        /* \"2day/tieredRewardSystem.sol\":977:996  tier == Tier.BRONZE */\n      0x03\n      dup2\n      gt\n      iszero\n      tag_81\n      jumpi\n      tag_82\n      tag_65\n      jump\t// in\n    tag_82:\n    tag_81:\n        /* \"2day/tieredRewardSystem.sol\":977:981  tier */\n      dup3\n        /* \"2day/tieredRewardSystem.sol\":977:996  tier == Tier.BRONZE */\n      0x03\n      dup2\n      gt\n      iszero\n      tag_83\n      jumpi\n      tag_84\n      tag_65\n      jump\t// in\n    tag_84:\n    tag_83:\n      sub\n        /* \"2day/tieredRewardSystem.sol\":973:1043  if (tier == Tier.BRONZE){... */\n      tag_85\n      jumpi\n        /* \"2day/tieredRewardSystem.sol\":292:293  1 */\n      0x01\n        /* \"2day/tieredRewardSystem.sol\":1016:1040  return BRONZE_MULTIPLIER */\n      swap1\n      pop\n      jump(tag_80)\n        /* \"2day/tieredRewardSystem.sol\":973:1043  if (tier == Tier.BRONZE){... */\n    tag_85:\n        /* \"2day/tieredRewardSystem.sol\":1069:1080  Tier.SILVER */\n      0x02\n        /* \"2day/tieredRewardSystem.sol\":1061:1080  tier == Tier.SILVER */\n      0x03\n      dup2\n      gt\n      iszero\n      tag_86\n      jumpi\n      tag_87\n      tag_65\n      jump\t// in\n    tag_87:\n    tag_86:\n        /* \"2day/tieredRewardSystem.sol\":1061:1065  tier */\n      dup3\n        /* \"2day/tieredRewardSystem.sol\":1061:1080  tier == Tier.SILVER */\n      0x03\n      dup2\n      gt\n      iszero\n      tag_88\n      jumpi\n      tag_89\n      tag_65\n      jump\t// in\n    tag_89:\n    tag_88:\n      sub\n        /* \"2day/tieredRewardSystem.sol\":1057:1126  if (tier == Tier.SILVER){... */\n      tag_90\n      jumpi\n        /* \"2day/tieredRewardSystem.sol\":349:350  2 */\n      0x02\n        /* \"2day/tieredRewardSystem.sol\":1100:1124  return SILVER_MULTIPLIER */\n      swap1\n      pop\n      jump(tag_80)\n        /* \"2day/tieredRewardSystem.sol\":1057:1126  if (tier == Tier.SILVER){... */\n    tag_90:\n        /* \"2day/tieredRewardSystem.sol\":1152:1161  Tier.GOLD */\n      0x03\n        /* \"2day/tieredRewardSystem.sol\":1144:1161  tier == Tier.GOLD */\n      dup1\n      dup2\n      gt\n      iszero\n      tag_91\n      jumpi\n      tag_92\n      tag_65\n      jump\t// in\n    tag_92:\n    tag_91:\n        /* \"2day/tieredRewardSystem.sol\":1144:1148  tier */\n      dup3\n        /* \"2day/tieredRewardSystem.sol\":1144:1161  tier == Tier.GOLD */\n      0x03\n      dup2\n      gt\n      iszero\n      tag_93\n      jumpi\n      tag_94\n      tag_65\n      jump\t// in\n    tag_94:\n    tag_93:\n      sub\n        /* \"2day/tieredRewardSystem.sol\":1140:1224  if (tier == Tier.GOLD){... */\n      tag_95\n      jumpi\n        /* \"2day/tieredRewardSystem.sol\":404:405  3 */\n      0x03\n        /* \"2day/tieredRewardSystem.sol\":1181:1203  return GOLD_MULTIPLIER */\n      swap1\n      pop\n      jump(tag_80)\n        /* \"2day/tieredRewardSystem.sol\":1140:1224  if (tier == Tier.GOLD){... */\n    tag_95:\n        /* \"2day/tieredRewardSystem.sol\":1250:1251  0 */\n      0x00\n        /* \"2day/tieredRewardSystem.sol\":1243:1251  return 0 */\n      swap1\n      pop\n        /* \"2day/tieredRewardSystem.sol\":890:1263  function _tierMultiplier ( Tier tier) internal pure returns(uint256){... */\n    tag_80:\n      swap2\n      swap1\n      pop\n      jump\t// out\n        /* \"2day/RewardSystem.sol\":472:715  function earnPoints(address user, uint256 points) public virtual {... */\n    tag_73:\n        /* \"2day/RewardSystem.sol\":562:563  0 */\n      0x00\n        /* \"2day/RewardSystem.sol\":552:558  points */\n      dup2\n        /* \"2day/RewardSystem.sol\":552:563  points == 0 */\n      sub\n        /* \"2day/RewardSystem.sol\":548:625  if (points == 0){... */\n      tag_97\n      jumpi\n        /* \"2day/RewardSystem.sol\":606:612  points */\n      dup1\n        /* \"2day/RewardSystem.sol\":586:613  InvalidPointsAmount(points) */\n      mload(0x40)\n      0x310cfcd400000000000000000000000000000000000000000000000000000000\n      dup2\n      mstore\n      0x04\n      add\n      tag_98\n      swap2\n      swap1\n      tag_31\n      jump\t// in\n    tag_98:\n      mload(0x40)\n      dup1\n      swap2\n      sub\n      swap1\n      revert\n        /* \"2day/RewardSystem.sol\":548:625  if (points == 0){... */\n    tag_97:\n        /* \"2day/RewardSystem.sol\":659:665  points */\n      dup1\n        /* \"2day/RewardSystem.sol\":635:649  rewardBalances */\n      0x00\n        /* \"2day/RewardSystem.sol\":635:655  rewardBalances[user] */\n      dup1\n        /* \"2day/RewardSystem.sol\":650:654  user */\n      dup5\n        /* \"2day/RewardSystem.sol\":635:655  rewardBalances[user] */\n      0xffffffffffffffffffffffffffffffffffffffff\n      and\n      0xffffffffffffffffffffffffffffffffffffffff\n      and\n      dup2\n      mstore\n      0x20\n      add\n      swap1\n      dup2\n      mstore\n      0x20\n      add\n      0x00\n      keccak256\n      0x00\n        /* \"2day/RewardSystem.sol\":635:665  rewardBalances[user] += points */\n      dup3\n      dup3\n      sload\n      tag_99\n      swap2\n      swap1\n      tag_60\n      jump\t// in\n    tag_99:\n      swap3\n      pop\n      pop\n      dup2\n      swap1\n      sstore\n      pop\n        /* \"2day/RewardSystem.sol\":694:698  user */\n      dup2\n        /* \"2day/RewardSystem.sol\":681:707  pointsEarned(user, points) */\n      0xffffffffffffffffffffffffffffffffffffffff\n      and\n      0x90f535e077976390966b7d9deff7f1b8e948a4ab41a5fa7f0e0013cbc9352e04\n        /* \"2day/RewardSystem.sol\":700:706  points */\n      dup3\n        /* \"2day/RewardSystem.sol\":681:707  pointsEarned(user, points) */\n      mload(0x40)\n      tag_100\n      swap2\n      swap1\n      tag_31\n      jump\t// in\n    tag_100:\n      mload(0x40)\n      dup1\n      swap2\n      sub\n      swap1\n      log2\n        /* \"2day/RewardSystem.sol\":472:715  function earnPoints(address user, uint256 points) public virtual {... */\n      pop\n      pop\n      jump\t// out\n        /* \"#utility.yul\":88:205   */\n    tag_102:\n        /* \"#utility.yul\":197:198   */\n      0x00\n        /* \"#utility.yul\":194:195   */\n      dup1\n        /* \"#utility.yul\":187:199   */\n      revert\n        /* \"#utility.yul\":334:460   */\n    tag_104:\n        /* \"#utility.yul\":371:378   */\n      0x00\n        /* \"#utility.yul\":411:453   */\n      0xffffffffffffffffffffffffffffffffffffffff\n        /* \"#utility.yul\":404:409   */\n      dup3\n        /* \"#utility.yul\":400:454   */\n      and\n        /* \"#utility.yul\":389:454   */\n      swap1\n      pop\n        /* \"#utility.yul\":334:460   */\n      swap2\n      swap1\n      pop\n      jump\t// out\n        /* \"#utility.yul\":466:562   */\n    tag_105:\n        /* \"#utility.yul\":503:510   */\n      0x00\n        /* \"#utility.yul\":532:556   */\n      tag_126\n        /* \"#utility.yul\":550:555   */\n      dup3\n        /* \"#utility.yul\":532:556   */\n      tag_104\n      jump\t// in\n    tag_126:\n        /* \"#utility.yul\":521:556   */\n      swap1\n      pop\n        /* \"#utility.yul\":466:562   */\n      swap2\n      swap1\n      pop\n      jump\t// out\n        /* \"#utility.yul\":568:690   */\n    tag_106:\n        /* \"#utility.yul\":641:665   */\n      tag_128\n        /* \"#utility.yul\":659:664   */\n      dup2\n        /* \"#utility.yul\":641:665   */\n      tag_105\n      jump\t// in\n    tag_128:\n        /* \"#utility.yul\":634:639   */\n      dup2\n        /* \"#utility.yul\":631:666   */\n      eq\n        /* \"#utility.yul\":621:684   */\n      tag_129\n      jumpi\n        /* \"#utility.yul\":680:681   */\n      0x00\n        /* \"#utility.yul\":677:678   */\n      dup1\n        /* \"#utility.yul\":670:682   */\n      revert\n        /* \"#utility.yul\":621:684   */\n    tag_129:\n        /* \"#utility.yul\":568:690   */\n      pop\n      jump\t// out\n        /* \"#utility.yul\":696:835   */\n    tag_107:\n        /* \"#utility.yul\":742:747   */\n      0x00\n        /* \"#utility.yul\":780:786   */\n      dup2\n        /* \"#utility.yul\":767:787   */\n      calldataload\n        /* \"#utility.yul\":758:787   */\n      swap1\n      pop\n        /* \"#utility.yul\":796:829   */\n      tag_131\n        /* \"#utility.yul\":823:828   */\n      dup2\n        /* \"#utility.yul\":796:829   */\n      tag_106\n      jump\t// in\n    tag_131:\n        /* \"#utility.yul\":696:835   */\n      swap3\n      swap2\n      pop\n      pop\n      jump\t// out\n        /* \"#utility.yul\":841:1170   */\n    tag_16:\n        /* \"#utility.yul\":900:906   */\n      0x00\n        /* \"#utility.yul\":949:951   */\n      0x20\n        /* \"#utility.yul\":937:946   */\n      dup3\n        /* \"#utility.yul\":928:935   */\n      dup5\n        /* \"#utility.yul\":924:947   */\n      sub\n        /* \"#utility.yul\":920:952   */\n      slt\n        /* \"#utility.yul\":917:1036   */\n      iszero\n      tag_133\n      jumpi\n        /* \"#utility.yul\":955:1034   */\n      tag_134\n      tag_102\n      jump\t// in\n    tag_134:\n        /* \"#utility.yul\":917:1036   */\n    tag_133:\n        /* \"#utility.yul\":1075:1076   */\n      0x00\n        /* \"#utility.yul\":1100:1153   */\n      tag_135\n        /* \"#utility.yul\":1145:1152   */\n      dup5\n        /* \"#utility.yul\":1136:1142   */\n      dup3\n        /* \"#utility.yul\":1125:1134   */\n      dup6\n        /* \"#utility.yul\":1121:1143   */\n      add\n        /* \"#utility.yul\":1100:1153   */\n      tag_107\n      jump\t// in\n    tag_135:\n        /* \"#utility.yul\":1090:1153   */\n      swap2\n      pop\n        /* \"#utility.yul\":1046:1163   */\n      pop\n        /* \"#utility.yul\":841:1170   */\n      swap3\n      swap2\n      pop\n      pop\n      jump\t// out\n        /* \"#utility.yul\":1176:1356   */\n    tag_65:\n        /* \"#utility.yul\":1224:1301   */\n      0x4e487b7100000000000000000000000000000000000000000000000000000000\n        /* \"#utility.yul\":1221:1222   */\n      0x00\n        /* \"#utility.yul\":1214:1302   */\n      mstore\n        /* \"#utility.yul\":1321:1325   */\n      0x21\n        /* \"#utility.yul\":1318:1319   */\n      0x04\n        /* \"#utility.yul\":1311:1326   */\n      mstore\n        /* \"#utility.yul\":1345:1349   */\n      0x24\n        /* \"#utility.yul\":1342:1343   */\n      0x00\n        /* \"#utility.yul\":1335:1350   */\n      revert\n        /* \"#utility.yul\":1362:1475   */\n    tag_108:\n        /* \"#utility.yul\":1443:1444   */\n      0x04\n        /* \"#utility.yul\":1436:1441   */\n      dup2\n        /* \"#utility.yul\":1433:1445   */\n      lt\n        /* \"#utility.yul\":1423:1469   */\n      tag_138\n      jumpi\n        /* \"#utility.yul\":1449:1467   */\n      tag_139\n      tag_65\n      jump\t// in\n    tag_139:\n        /* \"#utility.yul\":1423:1469   */\n    tag_138:\n        /* \"#utility.yul\":1362:1475   */\n      pop\n      jump\t// out\n        /* \"#utility.yul\":1481:1608   */\n    tag_109:\n        /* \"#utility.yul\":1526:1533   */\n      0x00\n        /* \"#utility.yul\":1555:1560   */\n      dup2\n        /* \"#utility.yul\":1544:1560   */\n      swap1\n      pop\n        /* \"#utility.yul\":1561:1602   */\n      tag_141\n        /* \"#utility.yul\":1596:1601   */\n      dup3\n        /* \"#utility.yul\":1561:1602   */\n      tag_108\n      jump\t// in\n    tag_141:\n        /* \"#utility.yul\":1481:1608   */\n      swap2\n      swap1\n      pop\n      jump\t// out\n        /* \"#utility.yul\":1614:1741   */\n    tag_110:\n        /* \"#utility.yul\":1670:1679   */\n      0x00\n        /* \"#utility.yul\":1703:1735   */\n      tag_143\n        /* \"#utility.yul\":1729:1734   */\n      dup3\n        /* \"#utility.yul\":1703:1735   */\n      tag_109\n      jump\t// in\n    tag_143:\n        /* \"#utility.yul\":1690:1735   */\n      swap1\n      pop\n        /* \"#utility.yul\":1614:1741   */\n      swap2\n      swap1\n      pop\n      jump\t// out\n        /* \"#utility.yul\":1747:1890   */\n    tag_111:\n        /* \"#utility.yul\":1840:1883   */\n      tag_145\n        /* \"#utility.yul\":1877:1882   */\n      dup2\n        /* \"#utility.yul\":1840:1883   */\n      tag_110\n      jump\t// in\n    tag_145:\n        /* \"#utility.yul\":1835:1838   */\n      dup3\n        /* \"#utility.yul\":1828:1884   */\n      mstore\n        /* \"#utility.yul\":1747:1890   */\n      pop\n      pop\n      jump\t// out\n        /* \"#utility.yul\":1896:2130   */\n    tag_19:\n        /* \"#utility.yul\":1995:1999   */\n      0x00\n        /* \"#utility.yul\":2033:2035   */\n      0x20\n        /* \"#utility.yul\":2022:2031   */\n      dup3\n        /* \"#utility.yul\":2018:2036   */\n      add\n        /* \"#utility.yul\":2010:2036   */\n      swap1\n      pop\n        /* \"#utility.yul\":2046:2123   */\n      tag_147\n        /* \"#utility.yul\":2120:2121   */\n      0x00\n        /* \"#utility.yul\":2109:2118   */\n      dup4\n        /* \"#utility.yul\":2105:2122   */\n      add\n        /* \"#utility.yul\":2096:2102   */\n      dup5\n        /* \"#utility.yul\":2046:2123   */\n      tag_111\n      jump\t// in\n    tag_147:\n        /* \"#utility.yul\":1896:2130   */\n      swap3\n      swap2\n      pop\n      pop\n      jump\t// out\n        /* \"#utility.yul\":2136:2213   */\n    tag_112:\n        /* \"#utility.yul\":2173:2180   */\n      0x00\n        /* \"#utility.yul\":2202:2207   */\n      dup2\n        /* \"#utility.yul\":2191:2207   */\n      swap1\n      pop\n        /* \"#utility.yul\":2136:2213   */\n      swap2\n      swap1\n      pop\n      jump\t// out\n        /* \"#utility.yul\":2219:2341   */\n    tag_113:\n        /* \"#utility.yul\":2292:2316   */\n      tag_150\n        /* \"#utility.yul\":2310:2315   */\n      dup2\n        /* \"#utility.yul\":2292:2316   */\n      tag_112\n      jump\t// in\n    tag_150:\n        /* \"#utility.yul\":2285:2290   */\n      dup2\n        /* \"#utility.yul\":2282:2317   */\n      eq\n        /* \"#utility.yul\":2272:2335   */\n      tag_151\n      jumpi\n        /* \"#utility.yul\":2331:2332   */\n      0x00\n        /* \"#utility.yul\":2328:2329   */\n      dup1\n        /* \"#utility.yul\":2321:2333   */\n      revert\n        /* \"#utility.yul\":2272:2335   */\n    tag_151:\n        /* \"#utility.yul\":2219:2341   */\n      pop\n      jump\t// out\n        /* \"#utility.yul\":2347:2486   */\n    tag_114:\n        /* \"#utility.yul\":2393:2398   */\n      0x00\n        /* \"#utility.yul\":2431:2437   */\n      dup2\n        /* \"#utility.yul\":2418:2438   */\n      calldataload\n        /* \"#utility.yul\":2409:2438   */\n      swap1\n      pop\n        /* \"#utility.yul\":2447:2480   */\n      tag_153\n        /* \"#utility.yul\":2474:2479   */\n      dup2\n        /* \"#utility.yul\":2447:2480   */\n      tag_113\n      jump\t// in\n    tag_153:\n        /* \"#utility.yul\":2347:2486   */\n      swap3\n      swap2\n      pop\n      pop\n      jump\t// out\n        /* \"#utility.yul\":2492:2966   */\n    tag_22:\n        /* \"#utility.yul\":2560:2566   */\n      0x00\n        /* \"#utility.yul\":2568:2574   */\n      dup1\n        /* \"#utility.yul\":2617:2619   */\n      0x40\n        /* \"#utility.yul\":2605:2614   */\n      dup4\n        /* \"#utility.yul\":2596:2603   */\n      dup6\n        /* \"#utility.yul\":2592:2615   */\n      sub\n        /* \"#utility.yul\":2588:2620   */\n      slt\n        /* \"#utility.yul\":2585:2704   */\n      iszero\n      tag_155\n      jumpi\n        /* \"#utility.yul\":2623:2702   */\n      tag_156\n      tag_102\n      jump\t// in\n    tag_156:\n        /* \"#utility.yul\":2585:2704   */\n    tag_155:\n        /* \"#utility.yul\":2743:2744   */\n      0x00\n        /* \"#utility.yul\":2768:2821   */\n      tag_157\n        /* \"#utility.yul\":2813:2820   */\n      dup6\n        /* \"#utility.yul\":2804:2810   */\n      dup3\n        /* \"#utility.yul\":2793:2802   */\n      dup7\n        /* \"#utility.yul\":2789:2811   */\n      add\n        /* \"#utility.yul\":2768:2821   */\n      tag_107\n      jump\t// in\n    tag_157:\n        /* \"#utility.yul\":2758:2821   */\n      swap3\n      pop\n        /* \"#utility.yul\":2714:2831   */\n      pop\n        /* \"#utility.yul\":2870:2872   */\n      0x20\n        /* \"#utility.yul\":2896:2949   */\n      tag_158\n        /* \"#utility.yul\":2941:2948   */\n      dup6\n        /* \"#utility.yul\":2932:2938   */\n      dup3\n        /* \"#utility.yul\":2921:2930   */\n      dup7\n        /* \"#utility.yul\":2917:2939   */\n      add\n        /* \"#utility.yul\":2896:2949   */\n      tag_114\n      jump\t// in\n    tag_158:\n        /* \"#utility.yul\":2886:2949   */\n      swap2\n      pop\n        /* \"#utility.yul\":2841:2959   */\n      pop\n        /* \"#utility.yul\":2492:2966   */\n      swap3\n      pop\n      swap3\n      swap1\n      pop\n      jump\t// out\n        /* \"#utility.yul\":2972:3079   */\n    tag_115:\n        /* \"#utility.yul\":3053:3054   */\n      0x04\n        /* \"#utility.yul\":3046:3051   */\n      dup2\n        /* \"#utility.yul\":3043:3055   */\n      lt\n        /* \"#utility.yul\":3033:3073   */\n      tag_160\n      jumpi\n        /* \"#utility.yul\":3069:3070   */\n      0x00\n        /* \"#utility.yul\":3066:3067   */\n      dup1\n        /* \"#utility.yul\":3059:3071   */\n      revert\n        /* \"#utility.yul\":3033:3073   */\n    tag_160:\n        /* \"#utility.yul\":2972:3079   */\n      pop\n      jump\t// out\n        /* \"#utility.yul\":3085:3240   */\n    tag_116:\n        /* \"#utility.yul\":3139:3144   */\n      0x00\n        /* \"#utility.yul\":3177:3183   */\n      dup2\n        /* \"#utility.yul\":3164:3184   */\n      calldataload\n        /* \"#utility.yul\":3155:3184   */\n      swap1\n      pop\n        /* \"#utility.yul\":3193:3234   */\n      tag_162\n        /* \"#utility.yul\":3228:3233   */\n      dup2\n        /* \"#utility.yul\":3193:3234   */\n      tag_115\n      jump\t// in\n    tag_162:\n        /* \"#utility.yul\":3085:3240   */\n      swap3\n      swap2\n      pop\n      pop\n      jump\t// out\n        /* \"#utility.yul\":3246:3736   */\n    tag_26:\n        /* \"#utility.yul\":3322:3328   */\n      0x00\n        /* \"#utility.yul\":3330:3336   */\n      dup1\n        /* \"#utility.yul\":3379:3381   */\n      0x40\n        /* \"#utility.yul\":3367:3376   */\n      dup4\n        /* \"#utility.yul\":3358:3365   */\n      dup6\n        /* \"#utility.yul\":3354:3377   */\n      sub\n        /* \"#utility.yul\":3350:3382   */\n      slt\n        /* \"#utility.yul\":3347:3466   */\n      iszero\n      tag_164\n      jumpi\n        /* \"#utility.yul\":3385:3464   */\n      tag_165\n      tag_102\n      jump\t// in\n    tag_165:\n        /* \"#utility.yul\":3347:3466   */\n    tag_164:\n        /* \"#utility.yul\":3505:3506   */\n      0x00\n        /* \"#utility.yul\":3530:3583   */\n      tag_166\n        /* \"#utility.yul\":3575:3582   */\n      dup6\n        /* \"#utility.yul\":3566:3572   */\n      dup3\n        /* \"#utility.yul\":3555:3564   */\n      dup7\n        /* \"#utility.yul\":3551:3573   */\n      add\n        /* \"#utility.yul\":3530:3583   */\n      tag_107\n      jump\t// in\n    tag_166:\n        /* \"#utility.yul\":3520:3583   */\n      swap3\n      pop\n        /* \"#utility.yul\":3476:3593   */\n      pop\n        /* \"#utility.yul\":3632:3634   */\n      0x20\n        /* \"#utility.yul\":3658:3719   */\n      tag_167\n        /* \"#utility.yul\":3711:3718   */\n      dup6\n        /* \"#utility.yul\":3702:3708   */\n      dup3\n        /* \"#utility.yul\":3691:3700   */\n      dup7\n        /* \"#utility.yul\":3687:3709   */\n      add\n        /* \"#utility.yul\":3658:3719   */\n      tag_116\n      jump\t// in\n    tag_167:\n        /* \"#utility.yul\":3648:3719   */\n      swap2\n      pop\n        /* \"#utility.yul\":3603:3729   */\n      pop\n        /* \"#utility.yul\":3246:3736   */\n      swap3\n      pop\n      swap3\n      swap1\n      pop\n      jump\t// out\n        /* \"#utility.yul\":3742:3860   */\n    tag_117:\n        /* \"#utility.yul\":3829:3853   */\n      tag_169\n        /* \"#utility.yul\":3847:3852   */\n      dup2\n        /* \"#utility.yul\":3829:3853   */\n      tag_112\n      jump\t// in\n    tag_169:\n        /* \"#utility.yul\":3824:3827   */\n      dup3\n        /* \"#utility.yul\":3817:3854   */\n      mstore\n        /* \"#utility.yul\":3742:3860   */\n      pop\n      pop\n      jump\t// out\n        /* \"#utility.yul\":3866:4088   */\n    tag_31:\n        /* \"#utility.yul\":3959:3963   */\n      0x00\n        /* \"#utility.yul\":3997:3999   */\n      0x20\n        /* \"#utility.yul\":3986:3995   */\n      dup3\n        /* \"#utility.yul\":3982:4000   */\n      add\n        /* \"#utility.yul\":3974:4000   */\n      swap1\n      pop\n        /* \"#utility.yul\":4010:4081   */\n      tag_171\n        /* \"#utility.yul\":4078:4079   */\n      0x00\n        /* \"#utility.yul\":4067:4076   */\n      dup4\n        /* \"#utility.yul\":4063:4080   */\n      add\n        /* \"#utility.yul\":4054:4060   */\n      dup5\n        /* \"#utility.yul\":4010:4081   */\n      tag_117\n      jump\t// in\n    tag_171:\n        /* \"#utility.yul\":3866:4088   */\n      swap3\n      swap2\n      pop\n      pop\n      jump\t// out\n        /* \"#utility.yul\":4094:4423   */\n    tag_47:\n        /* \"#utility.yul\":4153:4159   */\n      0x00\n        /* \"#utility.yul\":4202:4204   */\n      0x20\n        /* \"#utility.yul\":4190:4199   */\n      dup3\n        /* \"#utility.yul\":4181:4188   */\n      dup5\n        /* \"#utility.yul\":4177:4200   */\n      sub\n        /* \"#utility.yul\":4173:4205   */\n      slt\n        /* \"#utility.yul\":4170:4289   */\n      iszero\n      tag_173\n      jumpi\n        /* \"#utility.yul\":4208:4287   */\n      tag_174\n      tag_102\n      jump\t// in\n    tag_174:\n        /* \"#utility.yul\":4170:4289   */\n    tag_173:\n        /* \"#utility.yul\":4328:4329   */\n      0x00\n        /* \"#utility.yul\":4353:4406   */\n      tag_175\n        /* \"#utility.yul\":4398:4405   */\n      dup5\n        /* \"#utility.yul\":4389:4395   */\n      dup3\n        /* \"#utility.yul\":4378:4387   */\n      dup6\n        /* \"#utility.yul\":4374:4396   */\n      add\n        /* \"#utility.yul\":4353:4406   */\n      tag_114\n      jump\t// in\n    tag_175:\n        /* \"#utility.yul\":4343:4406   */\n      swap2\n      pop\n        /* \"#utility.yul\":4299:4416   */\n      pop\n        /* \"#utility.yul\":4094:4423   */\n      swap3\n      swap2\n      pop\n      pop\n      jump\t// out\n        /* \"#utility.yul\":4429:4547   */\n    tag_118:\n        /* \"#utility.yul\":4516:4540   */\n      tag_177\n        /* \"#utility.yul\":4534:4539   */\n      dup2\n        /* \"#utility.yul\":4516:4540   */\n      tag_105\n      jump\t// in\n    tag_177:\n        /* \"#utility.yul\":4511:4514   */\n      dup3\n        /* \"#utility.yul\":4504:4541   */\n      mstore\n        /* \"#utility.yul\":4429:4547   */\n      pop\n      pop\n      jump\t// out\n        /* \"#utility.yul\":4553:4995   */\n    tag_56:\n        /* \"#utility.yul\":4702:4706   */\n      0x00\n        /* \"#utility.yul\":4740:4742   */\n      0x60\n        /* \"#utility.yul\":4729:4738   */\n      dup3\n        /* \"#utility.yul\":4725:4743   */\n      add\n        /* \"#utility.yul\":4717:4743   */\n      swap1\n      pop\n        /* \"#utility.yul\":4753:4824   */\n      tag_179\n        /* \"#utility.yul\":4821:4822   */\n      0x00\n        /* \"#utility.yul\":4810:4819   */\n      dup4\n        /* \"#utility.yul\":4806:4823   */\n      add\n        /* \"#utility.yul\":4797:4803   */\n      dup7\n        /* \"#utility.yul\":4753:4824   */\n      tag_118\n      jump\t// in\n    tag_179:\n        /* \"#utility.yul\":4834:4906   */\n      tag_180\n        /* \"#utility.yul\":4902:4904   */\n      0x20\n        /* \"#utility.yul\":4891:4900   */\n      dup4\n        /* \"#utility.yul\":4887:4905   */\n      add\n        /* \"#utility.yul\":4878:4884   */\n      dup6\n        /* \"#utility.yul\":4834:4906   */\n      tag_117\n      jump\t// in\n    tag_180:\n        /* \"#utility.yul\":4916:4988   */\n      tag_181\n        /* \"#utility.yul\":4984:4986   */\n      0x40\n        /* \"#utility.yul\":4973:4982   */\n      dup4\n        /* \"#utility.yul\":4969:4987   */\n      add\n        /* \"#utility.yul\":4960:4966   */\n      dup5\n        /* \"#utility.yul\":4916:4988   */\n      tag_117\n      jump\t// in\n    tag_181:\n        /* \"#utility.yul\":4553:4995   */\n      swap5\n      swap4\n      pop\n      pop\n      pop\n      pop\n      jump\t// out\n        /* \"#utility.yul\":5001:5181   */\n    tag_119:\n        /* \"#utility.yul\":5049:5126   */\n      0x4e487b7100000000000000000000000000000000000000000000000000000000\n        /* \"#utility.yul\":5046:5047   */\n      0x00\n        /* \"#utility.yul\":5039:5127   */\n      mstore\n        /* \"#utility.yul\":5146:5150   */\n      0x11\n        /* \"#utility.yul\":5143:5144   */\n      0x04\n        /* \"#utility.yul\":5136:5151   */\n      mstore\n        /* \"#utility.yul\":5170:5174   */\n      0x24\n        /* \"#utility.yul\":5167:5168   */\n      0x00\n        /* \"#utility.yul\":5160:5175   */\n      revert\n        /* \"#utility.yul\":5187:5381   */\n    tag_58:\n        /* \"#utility.yul\":5227:5231   */\n      0x00\n        /* \"#utility.yul\":5247:5267   */\n      tag_184\n        /* \"#utility.yul\":5265:5266   */\n      dup3\n        /* \"#utility.yul\":5247:5267   */\n      tag_112\n      jump\t// in\n    tag_184:\n        /* \"#utility.yul\":5242:5267   */\n      swap2\n      pop\n        /* \"#utility.yul\":5281:5301   */\n      tag_185\n        /* \"#utility.yul\":5299:5300   */\n      dup4\n        /* \"#utility.yul\":5281:5301   */\n      tag_112\n      jump\t// in\n    tag_185:\n        /* \"#utility.yul\":5276:5301   */\n      swap3\n      pop\n        /* \"#utility.yul\":5325:5326   */\n      dup3\n        /* \"#utility.yul\":5322:5323   */\n      dup3\n        /* \"#utility.yul\":5318:5327   */\n      sub\n        /* \"#utility.yul\":5310:5327   */\n      swap1\n      pop\n        /* \"#utility.yul\":5349:5350   */\n      dup2\n        /* \"#utility.yul\":5343:5347   */\n      dup2\n        /* \"#utility.yul\":5340:5351   */\n      gt\n        /* \"#utility.yul\":5337:5374   */\n      iszero\n      tag_186\n      jumpi\n        /* \"#utility.yul\":5354:5372   */\n      tag_187\n      tag_119\n      jump\t// in\n    tag_187:\n        /* \"#utility.yul\":5337:5374   */\n    tag_186:\n        /* \"#utility.yul\":5187:5381   */\n      swap3\n      swap2\n      pop\n      pop\n      jump\t// out\n        /* \"#utility.yul\":5387:5578   */\n    tag_60:\n        /* \"#utility.yul\":5427:5430   */\n      0x00\n        /* \"#utility.yul\":5446:5466   */\n      tag_189\n        /* \"#utility.yul\":5464:5465   */\n      dup3\n        /* \"#utility.yul\":5446:5466   */\n      tag_112\n      jump\t// in\n    tag_189:\n        /* \"#utility.yul\":5441:5466   */\n      swap2\n      pop\n        /* \"#utility.yul\":5480:5500   */\n      tag_190\n        /* \"#utility.yul\":5498:5499   */\n      dup4\n        /* \"#utility.yul\":5480:5500   */\n      tag_112\n      jump\t// in\n    tag_190:\n        /* \"#utility.yul\":5475:5500   */\n      swap3\n      pop\n        /* \"#utility.yul\":5523:5524   */\n      dup3\n        /* \"#utility.yul\":5520:5521   */\n      dup3\n        /* \"#utility.yul\":5516:5525   */\n      add\n        /* \"#utility.yul\":5509:5525   */\n      swap1\n      pop\n        /* \"#utility.yul\":5544:5547   */\n      dup1\n        /* \"#utility.yul\":5541:5542   */\n      dup3\n        /* \"#utility.yul\":5538:5548   */\n      gt\n        /* \"#utility.yul\":5535:5571   */\n      iszero\n      tag_191\n      jumpi\n        /* \"#utility.yul\":5551:5569   */\n      tag_192\n      tag_119\n      jump\t// in\n    tag_192:\n        /* \"#utility.yul\":5535:5571   */\n    tag_191:\n        /* \"#utility.yul\":5387:5578   */\n      swap3\n      swap2\n      pop\n      pop\n      jump\t// out\n        /* \"#utility.yul\":5584:5994   */\n    tag_72:\n        /* \"#utility.yul\":5624:5631   */\n      0x00\n        /* \"#utility.yul\":5647:5667   */\n      tag_194\n        /* \"#utility.yul\":5665:5666   */\n      dup3\n        /* \"#utility.yul\":5647:5667   */\n      tag_112\n      jump\t// in\n    tag_194:\n        /* \"#utility.yul\":5642:5667   */\n      swap2\n      pop\n        /* \"#utility.yul\":5681:5701   */\n      tag_195\n        /* \"#utility.yul\":5699:5700   */\n      dup4\n        /* \"#utility.yul\":5681:5701   */\n      tag_112\n      jump\t// in\n    tag_195:\n        /* \"#utility.yul\":5676:5701   */\n      swap3\n      pop\n        /* \"#utility.yul\":5736:5737   */\n      dup3\n        /* \"#utility.yul\":5733:5734   */\n      dup3\n        /* \"#utility.yul\":5729:5738   */\n      mul\n        /* \"#utility.yul\":5758:5788   */\n      tag_196\n        /* \"#utility.yul\":5776:5787   */\n      dup2\n        /* \"#utility.yul\":5758:5788   */\n      tag_112\n      jump\t// in\n    tag_196:\n        /* \"#utility.yul\":5747:5788   */\n      swap2\n      pop\n        /* \"#utility.yul\":5937:5938   */\n      dup3\n        /* \"#utility.yul\":5928:5935   */\n      dup3\n        /* \"#utility.yul\":5924:5939   */\n      div\n        /* \"#utility.yul\":5921:5922   */\n      dup5\n        /* \"#utility.yul\":5918:5940   */\n      eq\n        /* \"#utility.yul\":5898:5899   */\n      dup4\n        /* \"#utility.yul\":5891:5900   */\n      iszero\n        /* \"#utility.yul\":5871:5954   */\n      or\n        /* \"#utility.yul\":5848:5987   */\n      tag_197\n      jumpi\n        /* \"#utility.yul\":5967:5985   */\n      tag_198\n      tag_119\n      jump\t// in\n    tag_198:\n        /* \"#utility.yul\":5848:5987   */\n    tag_197:\n        /* \"#utility.yul\":5632:5994   */\n      pop\n        /* \"#utility.yul\":5584:5994   */\n      swap3\n      swap2\n      pop\n      pop\n      jump\t// out\n\n    auxdata: 0xa2646970667358221220e8b3afb4f00e66513b0c723a7dca2d7463145f361a59462ff577e49479d811e164736f6c634300081a0033\n}\n",
				"bytecode": {
					"linkReferences": {},
					"object": "6080604052348015600e575f80fd5b50610bf38061001c5f395ff3fe608060405234801561000f575f80fd5b506004361061009c575f3560e01c8063bb2c734811610064578063bb2c734814610156578063d5a7760d14610174578063d909d5e314610192578063e92e92e7146101ae578063f8b2cb4f146101ca5761009c565b806324063c82146100a0578063326f823f146100d05780633ed6c8f9146100ec57806340bdcb121461010857806393c8dc6d14610126575b5f80fd5b6100ba60048036038101906100b591906108c9565b6101fa565b6040516100c79190610967565b60405180910390f35b6100ea60048036038101906100e591906109b3565b610217565b005b61010660048036038101906101019190610a14565b6103e5565b005b61011061049b565b60405161011d9190610a61565b60405180910390f35b610140600480360381019061013b91906108c9565b6104a0565b60405161014d9190610a61565b60405180910390f35b61015e6104b4565b60405161016b9190610a61565b60405180910390f35b61017c6104b9565b6040516101899190610a61565b60405180910390f35b6101ac60048036038101906101a791906109b3565b6104be565b005b6101c860048036038101906101c39190610a7a565b610532565b005b6101e460048036038101906101df91906108c9565b610696565b6040516101f19190610a61565b60405180910390f35b6001602052805f5260405f205f915054906101000a900460ff1681565b5f805f3373ffffffffffffffffffffffffffffffffffffffff1673ffffffffffffffffffffffffffffffffffffffff1681526020019081526020015f205410156102d85733815f803373ffffffffffffffffffffffffffffffffffffffff1673ffffffffffffffffffffffffffffffffffffffff1681526020019081526020015f20546040517f36cbdfbf0000000000000000000000000000000000000000000000000000000081526004016102cf93929190610ab4565b60405180910390fd5b805f803373ffffffffffffffffffffffffffffffffffffffff1673ffffffffffffffffffffffffffffffffffffffff1681526020019081526020015f205f8282546103239190610b16565b92505081905550805f808473ffffffffffffffffffffffffffffffffffffffff1673ffffffffffffffffffffffffffffffffffffffff1681526020019081526020015f205f8282546103759190610b49565b925050819055508173ffffffffffffffffffffffffffffffffffffffff163373ffffffffffffffffffffffffffffffffffffffff167f82135f60e186f55e24c0b945c6b5ec1c309125a2243b306e18d7e9b5cc53d6a7836040516103d99190610a61565b60405180910390a35050565b8060015f8473ffffffffffffffffffffffffffffffffffffffff1673ffffffffffffffffffffffffffffffffffffffff1681526020019081526020015f205f6101000a81548160ff02191690836003811115610444576104436108f4565b5b02179055508173ffffffffffffffffffffffffffffffffffffffff167f25a8e6b917872d4f0242d981f1efb363113f216dc7314bde01c287968defb51d8260405161048f9190610967565b60405180910390a25050565b600181565b5f602052805f5260405f205f915090505481565b600281565b600381565b5f60015f8473ffffffffffffffffffffffffffffffffffffffff1673ffffffffffffffffffffffffffffffffffffffff1681526020019081526020015f205f9054906101000a900460ff1690505f610515826106db565b905061052c8482856105279190610b7c565b610783565b50505050565b5f805f3373ffffffffffffffffffffffffffffffffffffffff1673ffffffffffffffffffffffffffffffffffffffff1681526020019081526020015f205410156105f35733815f803373ffffffffffffffffffffffffffffffffffffffff1673ffffffffffffffffffffffffffffffffffffffff1681526020019081526020015f20546040517f36cbdfbf0000000000000000000000000000000000000000000000000000000081526004016105ea93929190610ab4565b60405180910390fd5b805f803373ffffffffffffffffffffffffffffffffffffffff1673ffffffffffffffffffffffffffffffffffffffff1681526020019081526020015f205f82825461063e9190610b16565b925050819055503373ffffffffffffffffffffffffffffffffffffffff167fc37df5d14f305277c1289e9a188a097cda6684189c95f785feb056cb77a8c9108260405161068b9190610a61565b60405180910390a250565b5f805f8373ffffffffffffffffffffffffffffffffffffffff1673ffffffffffffffffffffffffffffffffffffffff1681526020019081526020015f20549050919050565b5f600160038111156106f0576106ef6108f4565b5b826003811115610703576107026108f4565b5b03610711576001905061077e565b60026003811115610725576107246108f4565b5b826003811115610738576107376108f4565b5b03610746576002905061077e565b600380811115610759576107586108f4565b5b82600381111561076c5761076b6108f4565b5b0361077a576003905061077e565b5f90505b919050565b5f81036107c757806040517f310cfcd40000000000000000000000000000000000000000000000000000000081526004016107be9190610a61565b60405180910390fd5b805f808473ffffffffffffffffffffffffffffffffffffffff1673ffffffffffffffffffffffffffffffffffffffff1681526020019081526020015f205f8282546108129190610b49565b925050819055508173ffffffffffffffffffffffffffffffffffffffff167f90f535e077976390966b7d9deff7f1b8e948a4ab41a5fa7f0e0013cbc9352e048260405161085f9190610a61565b60405180910390a25050565b5f80fd5b5f73ffffffffffffffffffffffffffffffffffffffff82169050919050565b5f6108988261086f565b9050919050565b6108a88161088e565b81146108b2575f80fd5b50565b5f813590506108c38161089f565b92915050565b5f602082840312156108de576108dd61086b565b5b5f6108eb848285016108b5565b91505092915050565b7f4e487b71000000000000000000000000000000000000000000000000000000005f52602160045260245ffd5b60048110610932576109316108f4565b5b50565b5f81905061094282610921565b919050565b5f61095182610935565b9050919050565b61096181610947565b82525050565b5f60208201905061097a5f830184610958565b92915050565b5f819050919050565b61099281610980565b811461099c575f80fd5b50565b5f813590506109ad81610989565b92915050565b5f80604083850312156109c9576109c861086b565b5b5f6109d6858286016108b5565b92505060206109e78582860161099f565b9150509250929050565b600481106109fd575f80fd5b50565b5f81359050610a0e816109f1565b92915050565b5f8060408385031215610a2a57610a2961086b565b5b5f610a37858286016108b5565b9250506020610a4885828601610a00565b9150509250929050565b610a5b81610980565b82525050565b5f602082019050610a745f830184610a52565b92915050565b5f60208284031215610a8f57610a8e61086b565b5b5f610a9c8482850161099f565b91505092915050565b610aae8161088e565b82525050565b5f606082019050610ac75f830186610aa5565b610ad46020830185610a52565b610ae16040830184610a52565b949350505050565b7f4e487b71000000000000000000000000000000000000000000000000000000005f52601160045260245ffd5b5f610b2082610980565b9150610b2b83610980565b9250828203905081811115610b4357610b42610ae9565b5b92915050565b5f610b5382610980565b9150610b5e83610980565b9250828201905080821115610b7657610b75610ae9565b5b92915050565b5f610b8682610980565b9150610b9183610980565b9250828202610b9f81610980565b91508282048414831517610bb657610bb5610ae9565b5b509291505056fea2646970667358221220e8b3afb4f00e66513b0c723a7dca2d7463145f361a59462ff577e49479d811e164736f6c634300081a0033",
					"opcodes": "PUSH1 0x80 PUSH1 0x40 MSTORE CALLVALUE DUP1 ISZERO PUSH1 0xE JUMPI PUSH0 DUP1 REVERT JUMPDEST POP PUSH2 0xBF3 DUP1 PUSH2 0x1C PUSH0 CODECOPY PUSH0 RETURN INVALID PUSH1 0x80 PUSH1 0x40 MSTORE CALLVALUE DUP1 ISZERO PUSH2 0xF JUMPI PUSH0 DUP1 REVERT JUMPDEST POP PUSH1 0x4 CALLDATASIZE LT PUSH2 0x9C JUMPI PUSH0 CALLDATALOAD PUSH1 0xE0 SHR DUP1 PUSH4 0xBB2C7348 GT PUSH2 0x64 JUMPI DUP1 PUSH4 0xBB2C7348 EQ PUSH2 0x156 JUMPI DUP1 PUSH4 0xD5A7760D EQ PUSH2 0x174 JUMPI DUP1 PUSH4 0xD909D5E3 EQ PUSH2 0x192 JUMPI DUP1 PUSH4 0xE92E92E7 EQ PUSH2 0x1AE JUMPI DUP1 PUSH4 0xF8B2CB4F EQ PUSH2 0x1CA JUMPI PUSH2 0x9C JUMP JUMPDEST DUP1 PUSH4 0x24063C82 EQ PUSH2 0xA0 JUMPI DUP1 PUSH4 0x326F823F EQ PUSH2 0xD0 JUMPI DUP1 PUSH4 0x3ED6C8F9 EQ PUSH2 0xEC JUMPI DUP1 PUSH4 0x40BDCB12 EQ PUSH2 0x108 JUMPI DUP1 PUSH4 0x93C8DC6D EQ PUSH2 0x126 JUMPI JUMPDEST PUSH0 DUP1 REVERT JUMPDEST PUSH2 0xBA PUSH1 0x4 DUP1 CALLDATASIZE SUB DUP2 ADD SWAP1 PUSH2 0xB5 SWAP2 SWAP1 PUSH2 0x8C9 JUMP JUMPDEST PUSH2 0x1FA JUMP JUMPDEST PUSH1 0x40 MLOAD PUSH2 0xC7 SWAP2 SWAP1 PUSH2 0x967 JUMP JUMPDEST PUSH1 0x40 MLOAD DUP1 SWAP2 SUB SWAP1 RETURN JUMPDEST PUSH2 0xEA PUSH1 0x4 DUP1 CALLDATASIZE SUB DUP2 ADD SWAP1 PUSH2 0xE5 SWAP2 SWAP1 PUSH2 0x9B3 JUMP JUMPDEST PUSH2 0x217 JUMP JUMPDEST STOP JUMPDEST PUSH2 0x106 PUSH1 0x4 DUP1 CALLDATASIZE SUB DUP2 ADD SWAP1 PUSH2 0x101 SWAP2 SWAP1 PUSH2 0xA14 JUMP JUMPDEST PUSH2 0x3E5 JUMP JUMPDEST STOP JUMPDEST PUSH2 0x110 PUSH2 0x49B JUMP JUMPDEST PUSH1 0x40 MLOAD PUSH2 0x11D SWAP2 SWAP1 PUSH2 0xA61 JUMP JUMPDEST PUSH1 0x40 MLOAD DUP1 SWAP2 SUB SWAP1 RETURN JUMPDEST PUSH2 0x140 PUSH1 0x4 DUP1 CALLDATASIZE SUB DUP2 ADD SWAP1 PUSH2 0x13B SWAP2 SWAP1 PUSH2 0x8C9 JUMP JUMPDEST PUSH2 0x4A0 JUMP JUMPDEST PUSH1 0x40 MLOAD PUSH2 0x14D SWAP2 SWAP1 PUSH2 0xA61 JUMP JUMPDEST PUSH1 0x40 MLOAD DUP1 SWAP2 SUB SWAP1 RETURN JUMPDEST PUSH2 0x15E PUSH2 0x4B4 JUMP JUMPDEST PUSH1 0x40 MLOAD PUSH2 0x16B SWAP2 SWAP1 PUSH2 0xA61 JUMP JUMPDEST PUSH1 0x40 MLOAD DUP1 SWAP2 SUB SWAP1 RETURN JUMPDEST PUSH2 0x17C PUSH2 0x4B9 JUMP JUMPDEST PUSH1 0x40 MLOAD PUSH2 0x189 SWAP2 SWAP1 PUSH2 0xA61 JUMP JUMPDEST PUSH1 0x40 MLOAD DUP1 SWAP2 SUB SWAP1 RETURN JUMPDEST PUSH2 0x1AC PUSH1 0x4 DUP1 CALLDATASIZE SUB DUP2 ADD SWAP1 PUSH2 0x1A7 SWAP2 SWAP1 PUSH2 0x9B3 JUMP JUMPDEST PUSH2 0x4BE JUMP JUMPDEST STOP JUMPDEST PUSH2 0x1C8 PUSH1 0x4 DUP1 CALLDATASIZE SUB DUP2 ADD SWAP1 PUSH2 0x1C3 SWAP2 SWAP1 PUSH2 0xA7A JUMP JUMPDEST PUSH2 0x532 JUMP JUMPDEST STOP JUMPDEST PUSH2 0x1E4 PUSH1 0x4 DUP1 CALLDATASIZE SUB DUP2 ADD SWAP1 PUSH2 0x1DF SWAP2 SWAP1 PUSH2 0x8C9 JUMP JUMPDEST PUSH2 0x696 JUMP JUMPDEST PUSH1 0x40 MLOAD PUSH2 0x1F1 SWAP2 SWAP1 PUSH2 0xA61 JUMP JUMPDEST PUSH1 0x40 MLOAD DUP1 SWAP2 SUB SWAP1 RETURN JUMPDEST PUSH1 0x1 PUSH1 0x20 MSTORE DUP1 PUSH0 MSTORE PUSH1 0x40 PUSH0 KECCAK256 PUSH0 SWAP2 POP SLOAD SWAP1 PUSH2 0x100 EXP SWAP1 DIV PUSH1 0xFF AND DUP2 JUMP JUMPDEST PUSH0 DUP1 PUSH0 CALLER PUSH20 0xFFFFFFFFFFFFFFFFFFFFFFFFFFFFFFFFFFFFFFFF AND PUSH20 0xFFFFFFFFFFFFFFFFFFFFFFFFFFFFFFFFFFFFFFFF AND DUP2 MSTORE PUSH1 0x20 ADD SWAP1 DUP2 MSTORE PUSH1 0x20 ADD PUSH0 KECCAK256 SLOAD LT ISZERO PUSH2 0x2D8 JUMPI CALLER DUP2 PUSH0 DUP1 CALLER PUSH20 0xFFFFFFFFFFFFFFFFFFFFFFFFFFFFFFFFFFFFFFFF AND PUSH20 0xFFFFFFFFFFFFFFFFFFFFFFFFFFFFFFFFFFFFFFFF AND DUP2 MSTORE PUSH1 0x20 ADD SWAP1 DUP2 MSTORE PUSH1 0x20 ADD PUSH0 KECCAK256 SLOAD PUSH1 0x40 MLOAD PUSH32 0x36CBDFBF00000000000000000000000000000000000000000000000000000000 DUP2 MSTORE PUSH1 0x4 ADD PUSH2 0x2CF SWAP4 SWAP3 SWAP2 SWAP1 PUSH2 0xAB4 JUMP JUMPDEST PUSH1 0x40 MLOAD DUP1 SWAP2 SUB SWAP1 REVERT JUMPDEST DUP1 PUSH0 DUP1 CALLER PUSH20 0xFFFFFFFFFFFFFFFFFFFFFFFFFFFFFFFFFFFFFFFF AND PUSH20 0xFFFFFFFFFFFFFFFFFFFFFFFFFFFFFFFFFFFFFFFF AND DUP2 MSTORE PUSH1 0x20 ADD SWAP1 DUP2 MSTORE PUSH1 0x20 ADD PUSH0 KECCAK256 PUSH0 DUP3 DUP3 SLOAD PUSH2 0x323 SWAP2 SWAP1 PUSH2 0xB16 JUMP JUMPDEST SWAP3 POP POP DUP2 SWAP1 SSTORE POP DUP1 PUSH0 DUP1 DUP5 PUSH20 0xFFFFFFFFFFFFFFFFFFFFFFFFFFFFFFFFFFFFFFFF AND PUSH20 0xFFFFFFFFFFFFFFFFFFFFFFFFFFFFFFFFFFFFFFFF AND DUP2 MSTORE PUSH1 0x20 ADD SWAP1 DUP2 MSTORE PUSH1 0x20 ADD PUSH0 KECCAK256 PUSH0 DUP3 DUP3 SLOAD PUSH2 0x375 SWAP2 SWAP1 PUSH2 0xB49 JUMP JUMPDEST SWAP3 POP POP DUP2 SWAP1 SSTORE POP DUP2 PUSH20 0xFFFFFFFFFFFFFFFFFFFFFFFFFFFFFFFFFFFFFFFF AND CALLER PUSH20 0xFFFFFFFFFFFFFFFFFFFFFFFFFFFFFFFFFFFFFFFF AND PUSH32 0x82135F60E186F55E24C0B945C6B5EC1C309125A2243B306E18D7E9B5CC53D6A7 DUP4 PUSH1 0x40 MLOAD PUSH2 0x3D9 SWAP2 SWAP1 PUSH2 0xA61 JUMP JUMPDEST PUSH1 0x40 MLOAD DUP1 SWAP2 SUB SWAP1 LOG3 POP POP JUMP JUMPDEST DUP1 PUSH1 0x1 PUSH0 DUP5 PUSH20 0xFFFFFFFFFFFFFFFFFFFFFFFFFFFFFFFFFFFFFFFF AND PUSH20 0xFFFFFFFFFFFFFFFFFFFFFFFFFFFFFFFFFFFFFFFF AND DUP2 MSTORE PUSH1 0x20 ADD SWAP1 DUP2 MSTORE PUSH1 0x20 ADD PUSH0 KECCAK256 PUSH0 PUSH2 0x100 EXP DUP2 SLOAD DUP2 PUSH1 0xFF MUL NOT AND SWAP1 DUP4 PUSH1 0x3 DUP2 GT ISZERO PUSH2 0x444 JUMPI PUSH2 0x443 PUSH2 0x8F4 JUMP JUMPDEST JUMPDEST MUL OR SWAP1 SSTORE POP DUP2 PUSH20 0xFFFFFFFFFFFFFFFFFFFFFFFFFFFFFFFFFFFFFFFF AND PUSH32 0x25A8E6B917872D4F0242D981F1EFB363113F216DC7314BDE01C287968DEFB51D DUP3 PUSH1 0x40 MLOAD PUSH2 0x48F SWAP2 SWAP1 PUSH2 0x967 JUMP JUMPDEST PUSH1 0x40 MLOAD DUP1 SWAP2 SUB SWAP1 LOG2 POP POP JUMP JUMPDEST PUSH1 0x1 DUP2 JUMP JUMPDEST PUSH0 PUSH1 0x20 MSTORE DUP1 PUSH0 MSTORE PUSH1 0x40 PUSH0 KECCAK256 PUSH0 SWAP2 POP SWAP1 POP SLOAD DUP2 JUMP JUMPDEST PUSH1 0x2 DUP2 JUMP JUMPDEST PUSH1 0x3 DUP2 JUMP JUMPDEST PUSH0 PUSH1 0x1 PUSH0 DUP5 PUSH20 0xFFFFFFFFFFFFFFFFFFFFFFFFFFFFFFFFFFFFFFFF AND PUSH20 0xFFFFFFFFFFFFFFFFFFFFFFFFFFFFFFFFFFFFFFFF AND DUP2 MSTORE PUSH1 0x20 ADD SWAP1 DUP2 MSTORE PUSH1 0x20 ADD PUSH0 KECCAK256 PUSH0 SWAP1 SLOAD SWAP1 PUSH2 0x100 EXP SWAP1 DIV PUSH1 0xFF AND SWAP1 POP PUSH0 PUSH2 0x515 DUP3 PUSH2 0x6DB JUMP JUMPDEST SWAP1 POP PUSH2 0x52C DUP5 DUP3 DUP6 PUSH2 0x527 SWAP2 SWAP1 PUSH2 0xB7C JUMP JUMPDEST PUSH2 0x783 JUMP JUMPDEST POP POP POP POP JUMP JUMPDEST PUSH0 DUP1 PUSH0 CALLER PUSH20 0xFFFFFFFFFFFFFFFFFFFFFFFFFFFFFFFFFFFFFFFF AND PUSH20 0xFFFFFFFFFFFFFFFFFFFFFFFFFFFFFFFFFFFFFFFF AND DUP2 MSTORE PUSH1 0x20 ADD SWAP1 DUP2 MSTORE PUSH1 0x20 ADD PUSH0 KECCAK256 SLOAD LT ISZERO PUSH2 0x5F3 JUMPI CALLER DUP2 PUSH0 DUP1 CALLER PUSH20 0xFFFFFFFFFFFFFFFFFFFFFFFFFFFFFFFFFFFFFFFF AND PUSH20 0xFFFFFFFFFFFFFFFFFFFFFFFFFFFFFFFFFFFFFFFF AND DUP2 MSTORE PUSH1 0x20 ADD SWAP1 DUP2 MSTORE PUSH1 0x20 ADD PUSH0 KECCAK256 SLOAD PUSH1 0x40 MLOAD PUSH32 0x36CBDFBF00000000000000000000000000000000000000000000000000000000 DUP2 MSTORE PUSH1 0x4 ADD PUSH2 0x5EA SWAP4 SWAP3 SWAP2 SWAP1 PUSH2 0xAB4 JUMP JUMPDEST PUSH1 0x40 MLOAD DUP1 SWAP2 SUB SWAP1 REVERT JUMPDEST DUP1 PUSH0 DUP1 CALLER PUSH20 0xFFFFFFFFFFFFFFFFFFFFFFFFFFFFFFFFFFFFFFFF AND PUSH20 0xFFFFFFFFFFFFFFFFFFFFFFFFFFFFFFFFFFFFFFFF AND DUP2 MSTORE PUSH1 0x20 ADD SWAP1 DUP2 MSTORE PUSH1 0x20 ADD PUSH0 KECCAK256 PUSH0 DUP3 DUP3 SLOAD PUSH2 0x63E SWAP2 SWAP1 PUSH2 0xB16 JUMP JUMPDEST SWAP3 POP POP DUP2 SWAP1 SSTORE POP CALLER PUSH20 0xFFFFFFFFFFFFFFFFFFFFFFFFFFFFFFFFFFFFFFFF AND PUSH32 0xC37DF5D14F305277C1289E9A188A097CDA6684189C95F785FEB056CB77A8C910 DUP3 PUSH1 0x40 MLOAD PUSH2 0x68B SWAP2 SWAP1 PUSH2 0xA61 JUMP JUMPDEST PUSH1 0x40 MLOAD DUP1 SWAP2 SUB SWAP1 LOG2 POP JUMP JUMPDEST PUSH0 DUP1 PUSH0 DUP4 PUSH20 0xFFFFFFFFFFFFFFFFFFFFFFFFFFFFFFFFFFFFFFFF AND PUSH20 0xFFFFFFFFFFFFFFFFFFFFFFFFFFFFFFFFFFFFFFFF AND DUP2 MSTORE PUSH1 0x20 ADD SWAP1 DUP2 MSTORE PUSH1 0x20 ADD PUSH0 KECCAK256 SLOAD SWAP1 POP SWAP2 SWAP1 POP JUMP JUMPDEST PUSH0 PUSH1 0x1 PUSH1 0x3 DUP2 GT ISZERO PUSH2 0x6F0 JUMPI PUSH2 0x6EF PUSH2 0x8F4 JUMP JUMPDEST JUMPDEST DUP3 PUSH1 0x3 DUP2 GT ISZERO PUSH2 0x703 JUMPI PUSH2 0x702 PUSH2 0x8F4 JUMP JUMPDEST JUMPDEST SUB PUSH2 0x711 JUMPI PUSH1 0x1 SWAP1 POP PUSH2 0x77E JUMP JUMPDEST PUSH1 0x2 PUSH1 0x3 DUP2 GT ISZERO PUSH2 0x725 JUMPI PUSH2 0x724 PUSH2 0x8F4 JUMP JUMPDEST JUMPDEST DUP3 PUSH1 0x3 DUP2 GT ISZERO PUSH2 0x738 JUMPI PUSH2 0x737 PUSH2 0x8F4 JUMP JUMPDEST JUMPDEST SUB PUSH2 0x746 JUMPI PUSH1 0x2 SWAP1 POP PUSH2 0x77E JUMP JUMPDEST PUSH1 0x3 DUP1 DUP2 GT ISZERO PUSH2 0x759 JUMPI PUSH2 0x758 PUSH2 0x8F4 JUMP JUMPDEST JUMPDEST DUP3 PUSH1 0x3 DUP2 GT ISZERO PUSH2 0x76C JUMPI PUSH2 0x76B PUSH2 0x8F4 JUMP JUMPDEST JUMPDEST SUB PUSH2 0x77A JUMPI PUSH1 0x3 SWAP1 POP PUSH2 0x77E JUMP JUMPDEST PUSH0 SWAP1 POP JUMPDEST SWAP2 SWAP1 POP JUMP JUMPDEST PUSH0 DUP2 SUB PUSH2 0x7C7 JUMPI DUP1 PUSH1 0x40 MLOAD PUSH32 0x310CFCD400000000000000000000000000000000000000000000000000000000 DUP2 MSTORE PUSH1 0x4 ADD PUSH2 0x7BE SWAP2 SWAP1 PUSH2 0xA61 JUMP JUMPDEST PUSH1 0x40 MLOAD DUP1 SWAP2 SUB SWAP1 REVERT JUMPDEST DUP1 PUSH0 DUP1 DUP5 PUSH20 0xFFFFFFFFFFFFFFFFFFFFFFFFFFFFFFFFFFFFFFFF AND PUSH20 0xFFFFFFFFFFFFFFFFFFFFFFFFFFFFFFFFFFFFFFFF AND DUP2 MSTORE PUSH1 0x20 ADD SWAP1 DUP2 MSTORE PUSH1 0x20 ADD PUSH0 KECCAK256 PUSH0 DUP3 DUP3 SLOAD PUSH2 0x812 SWAP2 SWAP1 PUSH2 0xB49 JUMP JUMPDEST SWAP3 POP POP DUP2 SWAP1 SSTORE POP DUP2 PUSH20 0xFFFFFFFFFFFFFFFFFFFFFFFFFFFFFFFFFFFFFFFF AND PUSH32 0x90F535E077976390966B7D9DEFF7F1B8E948A4AB41A5FA7F0E0013CBC9352E04 DUP3 PUSH1 0x40 MLOAD PUSH2 0x85F SWAP2 SWAP1 PUSH2 0xA61 JUMP JUMPDEST PUSH1 0x40 MLOAD DUP1 SWAP2 SUB SWAP1 LOG2 POP POP JUMP JUMPDEST PUSH0 DUP1 REVERT JUMPDEST PUSH0 PUSH20 0xFFFFFFFFFFFFFFFFFFFFFFFFFFFFFFFFFFFFFFFF DUP3 AND SWAP1 POP SWAP2 SWAP1 POP JUMP JUMPDEST PUSH0 PUSH2 0x898 DUP3 PUSH2 0x86F JUMP JUMPDEST SWAP1 POP SWAP2 SWAP1 POP JUMP JUMPDEST PUSH2 0x8A8 DUP2 PUSH2 0x88E JUMP JUMPDEST DUP2 EQ PUSH2 0x8B2 JUMPI PUSH0 DUP1 REVERT JUMPDEST POP JUMP JUMPDEST PUSH0 DUP2 CALLDATALOAD SWAP1 POP PUSH2 0x8C3 DUP2 PUSH2 0x89F JUMP JUMPDEST SWAP3 SWAP2 POP POP JUMP JUMPDEST PUSH0 PUSH1 0x20 DUP3 DUP5 SUB SLT ISZERO PUSH2 0x8DE JUMPI PUSH2 0x8DD PUSH2 0x86B JUMP JUMPDEST JUMPDEST PUSH0 PUSH2 0x8EB DUP5 DUP3 DUP6 ADD PUSH2 0x8B5 JUMP JUMPDEST SWAP2 POP POP SWAP3 SWAP2 POP POP JUMP JUMPDEST PUSH32 0x4E487B7100000000000000000000000000000000000000000000000000000000 PUSH0 MSTORE PUSH1 0x21 PUSH1 0x4 MSTORE PUSH1 0x24 PUSH0 REVERT JUMPDEST PUSH1 0x4 DUP2 LT PUSH2 0x932 JUMPI PUSH2 0x931 PUSH2 0x8F4 JUMP JUMPDEST JUMPDEST POP JUMP JUMPDEST PUSH0 DUP2 SWAP1 POP PUSH2 0x942 DUP3 PUSH2 0x921 JUMP JUMPDEST SWAP2 SWAP1 POP JUMP JUMPDEST PUSH0 PUSH2 0x951 DUP3 PUSH2 0x935 JUMP JUMPDEST SWAP1 POP SWAP2 SWAP1 POP JUMP JUMPDEST PUSH2 0x961 DUP2 PUSH2 0x947 JUMP JUMPDEST DUP3 MSTORE POP POP JUMP JUMPDEST PUSH0 PUSH1 0x20 DUP3 ADD SWAP1 POP PUSH2 0x97A PUSH0 DUP4 ADD DUP5 PUSH2 0x958 JUMP JUMPDEST SWAP3 SWAP2 POP POP JUMP JUMPDEST PUSH0 DUP2 SWAP1 POP SWAP2 SWAP1 POP JUMP JUMPDEST PUSH2 0x992 DUP2 PUSH2 0x980 JUMP JUMPDEST DUP2 EQ PUSH2 0x99C JUMPI PUSH0 DUP1 REVERT JUMPDEST POP JUMP JUMPDEST PUSH0 DUP2 CALLDATALOAD SWAP1 POP PUSH2 0x9AD DUP2 PUSH2 0x989 JUMP JUMPDEST SWAP3 SWAP2 POP POP JUMP JUMPDEST PUSH0 DUP1 PUSH1 0x40 DUP4 DUP6 SUB SLT ISZERO PUSH2 0x9C9 JUMPI PUSH2 0x9C8 PUSH2 0x86B JUMP JUMPDEST JUMPDEST PUSH0 PUSH2 0x9D6 DUP6 DUP3 DUP7 ADD PUSH2 0x8B5 JUMP JUMPDEST SWAP3 POP POP PUSH1 0x20 PUSH2 0x9E7 DUP6 DUP3 DUP7 ADD PUSH2 0x99F JUMP JUMPDEST SWAP2 POP POP SWAP3 POP SWAP3 SWAP1 POP JUMP JUMPDEST PUSH1 0x4 DUP2 LT PUSH2 0x9FD JUMPI PUSH0 DUP1 REVERT JUMPDEST POP JUMP JUMPDEST PUSH0 DUP2 CALLDATALOAD SWAP1 POP PUSH2 0xA0E DUP2 PUSH2 0x9F1 JUMP JUMPDEST SWAP3 SWAP2 POP POP JUMP JUMPDEST PUSH0 DUP1 PUSH1 0x40 DUP4 DUP6 SUB SLT ISZERO PUSH2 0xA2A JUMPI PUSH2 0xA29 PUSH2 0x86B JUMP JUMPDEST JUMPDEST PUSH0 PUSH2 0xA37 DUP6 DUP3 DUP7 ADD PUSH2 0x8B5 JUMP JUMPDEST SWAP3 POP POP PUSH1 0x20 PUSH2 0xA48 DUP6 DUP3 DUP7 ADD PUSH2 0xA00 JUMP JUMPDEST SWAP2 POP POP SWAP3 POP SWAP3 SWAP1 POP JUMP JUMPDEST PUSH2 0xA5B DUP2 PUSH2 0x980 JUMP JUMPDEST DUP3 MSTORE POP POP JUMP JUMPDEST PUSH0 PUSH1 0x20 DUP3 ADD SWAP1 POP PUSH2 0xA74 PUSH0 DUP4 ADD DUP5 PUSH2 0xA52 JUMP JUMPDEST SWAP3 SWAP2 POP POP JUMP JUMPDEST PUSH0 PUSH1 0x20 DUP3 DUP5 SUB SLT ISZERO PUSH2 0xA8F JUMPI PUSH2 0xA8E PUSH2 0x86B JUMP JUMPDEST JUMPDEST PUSH0 PUSH2 0xA9C DUP5 DUP3 DUP6 ADD PUSH2 0x99F JUMP JUMPDEST SWAP2 POP POP SWAP3 SWAP2 POP POP JUMP JUMPDEST PUSH2 0xAAE DUP2 PUSH2 0x88E JUMP JUMPDEST DUP3 MSTORE POP POP JUMP JUMPDEST PUSH0 PUSH1 0x60 DUP3 ADD SWAP1 POP PUSH2 0xAC7 PUSH0 DUP4 ADD DUP7 PUSH2 0xAA5 JUMP JUMPDEST PUSH2 0xAD4 PUSH1 0x20 DUP4 ADD DUP6 PUSH2 0xA52 JUMP JUMPDEST PUSH2 0xAE1 PUSH1 0x40 DUP4 ADD DUP5 PUSH2 0xA52 JUMP JUMPDEST SWAP5 SWAP4 POP POP POP POP JUMP JUMPDEST PUSH32 0x4E487B7100000000000000000000000000000000000000000000000000000000 PUSH0 MSTORE PUSH1 0x11 PUSH1 0x4 MSTORE PUSH1 0x24 PUSH0 REVERT JUMPDEST PUSH0 PUSH2 0xB20 DUP3 PUSH2 0x980 JUMP JUMPDEST SWAP2 POP PUSH2 0xB2B DUP4 PUSH2 0x980 JUMP JUMPDEST SWAP3 POP DUP3 DUP3 SUB SWAP1 POP DUP2 DUP2 GT ISZERO PUSH2 0xB43 JUMPI PUSH2 0xB42 PUSH2 0xAE9 JUMP JUMPDEST JUMPDEST SWAP3 SWAP2 POP POP JUMP JUMPDEST PUSH0 PUSH2 0xB53 DUP3 PUSH2 0x980 JUMP JUMPDEST SWAP2 POP PUSH2 0xB5E DUP4 PUSH2 0x980 JUMP JUMPDEST SWAP3 POP DUP3 DUP3 ADD SWAP1 POP DUP1 DUP3 GT ISZERO PUSH2 0xB76 JUMPI PUSH2 0xB75 PUSH2 0xAE9 JUMP JUMPDEST JUMPDEST SWAP3 SWAP2 POP POP JUMP JUMPDEST PUSH0 PUSH2 0xB86 DUP3 PUSH2 0x980 JUMP JUMPDEST SWAP2 POP PUSH2 0xB91 DUP4 PUSH2 0x980 JUMP JUMPDEST SWAP3 POP DUP3 DUP3 MUL PUSH2 0xB9F DUP2 PUSH2 0x980 JUMP JUMPDEST SWAP2 POP DUP3 DUP3 DIV DUP5 EQ DUP4 ISZERO OR PUSH2 0xBB6 JUMPI PUSH2 0xBB5 PUSH2 0xAE9 JUMP JUMPDEST JUMPDEST POP SWAP3 SWAP2 POP POP JUMP INVALID LOG2 PUSH5 0x6970667358 0x22 SLT KECCAK256 0xE8 0xB3 0xAF 0xB4 CREATE 0xE PUSH7 0x513B0C723A7DCA 0x2D PUSH21 0x63145F361A59462FF577E49479D811E164736F6C63 NUMBER STOP ADDMOD BYTE STOP CALLER "
				},
				"gasEstimates": {
					"creation": {
						"codeDepositCost": "611800",
						"executionCost": "643",
						"totalCost": "612443"
					},
					"external": {
						"BRONZE_MULTIPLIER()": "392",
						"GOLD_MULTIPLIER()": "347",
						"SILVER_MULTIPLIER()": "325",
						"assignTier(address,uint8)": "26663",
						"earnPoints(address,uint256)": "infinite",
						"getBalance(address)": "2917",
						"redeemPoints(uint256)": "infinite",
						"rewardBalances(address)": "2890",
						"transferPoints(address,uint256)": "infinite",
						"userTiers(address)": "2922"
					},
					"internal": {
						"_tierMultiplier(enum TieredRewardSystem.Tier)": "263"
					}
				},
				"methodIdentifiers": {
					"BRONZE_MULTIPLIER()": "40bdcb12",
					"GOLD_MULTIPLIER()": "d5a7760d",
					"SILVER_MULTIPLIER()": "bb2c7348",
					"assignTier(address,uint8)": "3ed6c8f9",
					"earnPoints(address,uint256)": "d909d5e3",
					"getBalance(address)": "f8b2cb4f",
					"redeemPoints(uint256)": "e92e92e7",
					"rewardBalances(address)": "93c8dc6d",
					"transferPoints(address,uint256)": "326f823f",
					"userTiers(address)": "24063c82"
				}
			},
			"storageLayout": {
				"storage": [
					{
						"astId": 5,
						"contract": "2day/tieredRewardSystem.sol:TieredRewardSystem",
						"label": "rewardBalances",
						"offset": 0,
						"slot": "0",
						"type": "t_mapping(t_address,t_uint256)"
					},
					{
						"astId": 176,
						"contract": "2day/tieredRewardSystem.sol:TieredRewardSystem",
						"label": "userTiers",
						"offset": 0,
						"slot": "1",
						"type": "t_mapping(t_address,t_enum(Tier)171)"
					}
				],
				"types": {
					"t_address": {
						"encoding": "inplace",
						"label": "address",
						"numberOfBytes": "20"
					},
					"t_enum(Tier)171": {
						"encoding": "inplace",
						"label": "enum TieredRewardSystem.Tier",
						"numberOfBytes": "1"
					},
					"t_mapping(t_address,t_enum(Tier)171)": {
						"encoding": "mapping",
						"key": "t_address",
						"label": "mapping(address => enum TieredRewardSystem.Tier)",
						"numberOfBytes": "32",
						"value": "t_enum(Tier)171"
					},
					"t_mapping(t_address,t_uint256)": {
						"encoding": "mapping",
						"key": "t_address",
						"label": "mapping(address => uint256)",
						"numberOfBytes": "32",
						"value": "t_uint256"
					},
					"t_uint256": {
						"encoding": "inplace",
						"label": "uint256",
						"numberOfBytes": "32"
					}
				}
			},
			"userdoc": {
				"kind": "user",
				"methods": {},
				"version": 1
			}
		}
	}
}