{
	"2day/MultiSigWallet.sol": {
		"MultiSigWallet": {
			"abi": [
				{
					"inputs": [
						{
							"internalType": "address[]",
							"name": "_owners",
							"type": "address[]"
						},
						{
							"internalType": "uint256",
							"name": "_requiredApprovals",
							"type": "uint256"
						}
					],
					"stateMutability": "nonpayable",
					"type": "constructor"
				},
				{
					"inputs": [],
					"name": "AlreadyApproved",
					"type": "error"
				},
				{
					"inputs": [],
					"name": "InsufficientApprovals",
					"type": "error"
				},
				{
					"inputs": [],
					"name": "InvalidAddress",
					"type": "error"
				},
				{
					"inputs": [],
					"name": "InvalidOwner",
					"type": "error"
				},
				{
					"inputs": [],
					"name": "InvalidRequiredApprovals",
					"type": "error"
				},
				{
					"inputs": [],
					"name": "InvalidTransaction",
					"type": "error"
				},
				{
					"inputs": [],
					"name": "NotOwner",
					"type": "error"
				},
				{
					"inputs": [],
					"name": "TransactionAlreadyExecuted",
					"type": "error"
				},
				{
					"inputs": [],
					"name": "TransferFailed",
					"type": "error"
				},
				{
					"anonymous": false,
					"inputs": [
						{
							"indexed": false,
							"internalType": "uint256",
							"name": "transID",
							"type": "uint256"
						},
						{
							"indexed": false,
							"internalType": "address",
							"name": "owner",
							"type": "address"
						}
					],
					"name": "ApprovalReceived",
					"type": "event"
				},
				{
					"anonymous": false,
					"inputs": [
						{
							"indexed": false,
							"internalType": "address",
							"name": "sender",
							"type": "address"
						},
						{
							"indexed": false,
							"internalType": "uint256",
							"name": "amount",
							"type": "uint256"
						}
					],
					"name": "Deposit",
					"type": "event"
				},
				{
					"anonymous": false,
					"inputs": [
						{
							"indexed": false,
							"internalType": "uint256",
							"name": "transID",
							"type": "uint256"
						}
					],
					"name": "TransactionExecuted",
					"type": "event"
				},
				{
					"anonymous": false,
					"inputs": [
						{
							"indexed": false,
							"internalType": "uint256",
							"name": "transID",
							"type": "uint256"
						},
						{
							"indexed": false,
							"internalType": "address",
							"name": "to",
							"type": "address"
						},
						{
							"indexed": false,
							"internalType": "uint256",
							"name": "value",
							"type": "uint256"
						},
						{
							"indexed": false,
							"internalType": "bytes",
							"name": "data",
							"type": "bytes"
						}
					],
					"name": "TransactionSubmitted",
					"type": "event"
				},
				{
					"inputs": [
						{
							"internalType": "uint256",
							"name": "_transID",
							"type": "uint256"
						}
					],
					"name": "approveTransaction",
					"outputs": [],
					"stateMutability": "nonpayable",
					"type": "function"
				},
				{
					"inputs": [
						{
							"internalType": "uint256",
							"name": "_transID",
							"type": "uint256"
						}
					],
					"name": "executeTransaction",
					"outputs": [],
					"stateMutability": "nonpayable",
					"type": "function"
				},
				{
					"inputs": [
						{
							"internalType": "uint256",
							"name": "id",
							"type": "uint256"
						}
					],
					"name": "getTransaction",
					"outputs": [
						{
							"internalType": "address",
							"name": "to",
							"type": "address"
						},
						{
							"internalType": "uint256",
							"name": "value",
							"type": "uint256"
						},
						{
							"internalType": "bytes",
							"name": "data",
							"type": "bytes"
						},
						{
							"internalType": "bool",
							"name": "executed",
							"type": "bool"
						},
						{
							"internalType": "uint256",
							"name": "approvals",
							"type": "uint256"
						}
					],
					"stateMutability": "view",
					"type": "function"
				},
				{
					"inputs": [],
					"name": "getTransactionCount",
					"outputs": [
						{
							"internalType": "uint256",
							"name": "",
							"type": "uint256"
						}
					],
					"stateMutability": "view",
					"type": "function"
				},
				{
					"inputs": [
						{
							"internalType": "address",
							"name": "_to",
							"type": "address"
						},
						{
							"internalType": "uint256",
							"name": "_value",
							"type": "uint256"
						},
						{
							"internalType": "bytes",
							"name": "_data",
							"type": "bytes"
						}
					],
					"name": "submitTransaction",
					"outputs": [],
					"stateMutability": "nonpayable",
					"type": "function"
				},
				{
					"stateMutability": "payable",
					"type": "receive"
				}
			],
			"devdoc": {
				"kind": "dev",
				"methods": {},
				"version": 1
			},
			"evm": {
				"assembly": "    /* \"2day/MultiSigWallet.sol\":27:4338  contract MultiSigWallet{... */\n  mstore(0x40, 0x80)\n    /* \"2day/MultiSigWallet.sol\":1161:1843  constructor( address[] memory _owners, uint256 _requiredApprovals ){... */\n  callvalue\n  dup1\n  iszero\n  tag_1\n  jumpi\n  0x00\n  dup1\n  revert\ntag_1:\n  pop\n  mload(0x40)\n  sub(codesize, bytecodeSize)\n  dup1\n  bytecodeSize\n  dup4\n  codecopy\n  dup2\n  dup2\n  add\n  0x40\n  mstore\n  dup2\n  add\n  swap1\n  tag_2\n  swap2\n  swap1\n  tag_3\n  jump\t// in\ntag_2:\n    /* \"2day/MultiSigWallet.sol\":1261:1262  0 */\n  0x00\n    /* \"2day/MultiSigWallet.sol\":1243:1250  _owners */\n  dup3\n    /* \"2day/MultiSigWallet.sol\":1243:1257  _owners.length */\n  mload\n    /* \"2day/MultiSigWallet.sol\":1243:1262  _owners.length == 0 */\n  sub\n    /* \"2day/MultiSigWallet.sol\":1239:1312  if (_owners.length == 0) {... */\n  tag_6\n  jumpi\n    /* \"2day/MultiSigWallet.sol\":1286:1300  InvalidOwner() */\n  mload(0x40)\n  0x49e27cff00000000000000000000000000000000000000000000000000000000\n  dup2\n  mstore\n  0x04\n  add\n  mload(0x40)\n  dup1\n  swap2\n  sub\n  swap1\n  revert\n    /* \"2day/MultiSigWallet.sol\":1239:1312  if (_owners.length == 0) {... */\ntag_6:\n    /* \"2day/MultiSigWallet.sol\":1342:1349  _owners */\n  dup2\n    /* \"2day/MultiSigWallet.sol\":1332:1338  owners */\n  0x00\n    /* \"2day/MultiSigWallet.sol\":1332:1349  owners  = _owners */\n  swap1\n  dup1\n  mload\n  swap1\n  0x20\n  add\n  swap1\n  tag_7\n  swap3\n  swap2\n  swap1\n  tag_8\n  jump\t// in\ntag_7:\n  pop\n    /* \"2day/MultiSigWallet.sol\":1365:1374  uint256 i */\n  0x00\n    /* \"2day/MultiSigWallet.sol\":1360:1640  for (uint256 i = 0; i < _owners.length; i++) {... */\ntag_9:\n    /* \"2day/MultiSigWallet.sol\":1384:1391  _owners */\n  dup3\n    /* \"2day/MultiSigWallet.sol\":1384:1398  _owners.length */\n  mload\n    /* \"2day/MultiSigWallet.sol\":1380:1381  i */\n  dup2\n    /* \"2day/MultiSigWallet.sol\":1380:1398  i < _owners.length */\n  lt\n    /* \"2day/MultiSigWallet.sol\":1360:1640  for (uint256 i = 0; i < _owners.length; i++) {... */\n  iszero\n  tag_10\n  jumpi\n    /* \"2day/MultiSigWallet.sol\":1420:1433  address owner */\n  0x00\n    /* \"2day/MultiSigWallet.sol\":1436:1443  _owners */\n  dup4\n    /* \"2day/MultiSigWallet.sol\":1444:1445  i */\n  dup3\n    /* \"2day/MultiSigWallet.sol\":1436:1446  _owners[i] */\n  dup2\n  mload\n  dup2\n  lt\n  tag_12\n  jumpi\n  tag_13\n  tag_14\n  jump\t// in\ntag_13:\ntag_12:\n  0x20\n  mul\n  0x20\n  add\n  add\n  mload\n    /* \"2day/MultiSigWallet.sol\":1420:1446  address owner = _owners[i] */\n  swap1\n  pop\n    /* \"2day/MultiSigWallet.sol\":1482:1483  0 */\n  0x00\n    /* \"2day/MultiSigWallet.sol\":1465:1484  owner == address(0) */\n  0xffffffffffffffffffffffffffffffffffffffff\n  and\n    /* \"2day/MultiSigWallet.sol\":1465:1470  owner */\n  dup2\n    /* \"2day/MultiSigWallet.sol\":1465:1484  owner == address(0) */\n  0xffffffffffffffffffffffffffffffffffffffff\n  and\n  eq\n    /* \"2day/MultiSigWallet.sol\":1465:1502  owner == address(0) || isOwner[owner] */\n  dup1\n  tag_15\n  jumpi\n  pop\n    /* \"2day/MultiSigWallet.sol\":1488:1495  isOwner */\n  0x01\n    /* \"2day/MultiSigWallet.sol\":1488:1502  isOwner[owner] */\n  0x00\n    /* \"2day/MultiSigWallet.sol\":1496:1501  owner */\n  dup3\n    /* \"2day/MultiSigWallet.sol\":1488:1502  isOwner[owner] */\n  0xffffffffffffffffffffffffffffffffffffffff\n  and\n  0xffffffffffffffffffffffffffffffffffffffff\n  and\n  dup2\n  mstore\n  0x20\n  add\n  swap1\n  dup2\n  mstore\n  0x20\n  add\n  0x00\n  keccak256\n  0x00\n  swap1\n  sload\n  swap1\n  0x0100\n  exp\n  swap1\n  div\n  0xff\n  and\n    /* \"2day/MultiSigWallet.sol\":1465:1502  owner == address(0) || isOwner[owner] */\ntag_15:\n    /* \"2day/MultiSigWallet.sol\":1461:1560  if (owner == address(0) || isOwner[owner]) {... */\n  iszero\n  tag_16\n  jumpi\n    /* \"2day/MultiSigWallet.sol\":1530:1544  InvalidOwner() */\n  mload(0x40)\n  0x49e27cff00000000000000000000000000000000000000000000000000000000\n  dup2\n  mstore\n  0x04\n  add\n  mload(0x40)\n  dup1\n  swap2\n  sub\n  swap1\n  revert\n    /* \"2day/MultiSigWallet.sol\":1461:1560  if (owner == address(0) || isOwner[owner]) {... */\ntag_16:\n    /* \"2day/MultiSigWallet.sol\":1591:1595  true */\n  0x01\n    /* \"2day/MultiSigWallet.sol\":1574:1581  isOwner */\n  dup1\n    /* \"2day/MultiSigWallet.sol\":1574:1588  isOwner[owner] */\n  0x00\n    /* \"2day/MultiSigWallet.sol\":1582:1587  owner */\n  dup4\n    /* \"2day/MultiSigWallet.sol\":1574:1588  isOwner[owner] */\n  0xffffffffffffffffffffffffffffffffffffffff\n  and\n  0xffffffffffffffffffffffffffffffffffffffff\n  and\n  dup2\n  mstore\n  0x20\n  add\n  swap1\n  dup2\n  mstore\n  0x20\n  add\n  0x00\n  keccak256\n  0x00\n    /* \"2day/MultiSigWallet.sol\":1574:1595  isOwner[owner] = true */\n  0x0100\n  exp\n  dup2\n  sload\n  dup2\n  0xff\n  mul\n  not\n  and\n  swap1\n  dup4\n  iszero\n  iszero\n  mul\n  or\n  swap1\n  sstore\n  pop\n    /* \"2day/MultiSigWallet.sol\":1610:1616  owners */\n  0x00\n    /* \"2day/MultiSigWallet.sol\":1622:1627  owner */\n  dup2\n    /* \"2day/MultiSigWallet.sol\":1610:1628  owners.push(owner) */\n  swap1\n  dup1\n  0x01\n  dup2\n  sload\n  add\n  dup1\n  dup3\n  sstore\n  dup1\n  swap2\n  pop\n  pop\n  0x01\n  swap1\n  sub\n  swap1\n  0x00\n  mstore\n  keccak256(0x00, 0x20)\n  add\n  0x00\n  swap1\n  swap2\n  swap1\n  swap2\n  swap1\n  swap2\n  0x0100\n  exp\n  dup2\n  sload\n  dup2\n  0xffffffffffffffffffffffffffffffffffffffff\n  mul\n  not\n  and\n  swap1\n  dup4\n  0xffffffffffffffffffffffffffffffffffffffff\n  and\n  mul\n  or\n  swap1\n  sstore\n  pop\n    /* \"2day/MultiSigWallet.sol\":1405:1640  {... */\n  pop\n    /* \"2day/MultiSigWallet.sol\":1400:1403  i++ */\n  dup1\n  dup1\n  0x01\n  add\n  swap2\n  pop\n  pop\n    /* \"2day/MultiSigWallet.sol\":1360:1640  for (uint256 i = 0; i < _owners.length; i++) {... */\n  jump(tag_9)\ntag_10:\n  pop\n    /* \"2day/MultiSigWallet.sol\":1676:1677  0 */\n  0x00\n    /* \"2day/MultiSigWallet.sol\":1654:1672  _requiredApprovals */\n  dup2\n    /* \"2day/MultiSigWallet.sol\":1654:1677  _requiredApprovals == 0 */\n  eq\n    /* \"2day/MultiSigWallet.sol\":1654:1715  _requiredApprovals == 0 || _requiredApprovals > owners.length */\n  dup1\n  tag_18\n  jumpi\n  pop\n    /* \"2day/MultiSigWallet.sol\":1702:1708  owners */\n  0x00\n    /* \"2day/MultiSigWallet.sol\":1702:1715  owners.length */\n  dup1\n  sload\n  swap1\n  pop\n    /* \"2day/MultiSigWallet.sol\":1681:1699  _requiredApprovals */\n  dup2\n    /* \"2day/MultiSigWallet.sol\":1681:1715  _requiredApprovals > owners.length */\n  gt\n    /* \"2day/MultiSigWallet.sol\":1654:1715  _requiredApprovals == 0 || _requiredApprovals > owners.length */\ntag_18:\n    /* \"2day/MultiSigWallet.sol\":1650:1777  if (_requiredApprovals == 0 || _requiredApprovals > owners.length) {... */\n  iszero\n  tag_19\n  jumpi\n    /* \"2day/MultiSigWallet.sol\":1739:1765  InvalidRequiredApprovals() */\n  mload(0x40)\n  0x1601b89300000000000000000000000000000000000000000000000000000000\n  dup2\n  mstore\n  0x04\n  add\n  mload(0x40)\n  dup1\n  swap2\n  sub\n  swap1\n  revert\n    /* \"2day/MultiSigWallet.sol\":1650:1777  if (_requiredApprovals == 0 || _requiredApprovals > owners.length) {... */\ntag_19:\n    /* \"2day/MultiSigWallet.sol\":1807:1825  _requiredApprovals */\n  dup1\n    /* \"2day/MultiSigWallet.sol\":1787:1804  requiredApprovals */\n  0x02\n    /* \"2day/MultiSigWallet.sol\":1787:1825  requiredApprovals = _requiredApprovals */\n  dup2\n  swap1\n  sstore\n  pop\n    /* \"2day/MultiSigWallet.sol\":1161:1843  constructor( address[] memory _owners, uint256 _requiredApprovals ){... */\n  pop\n  pop\n    /* \"2day/MultiSigWallet.sol\":27:4338  contract MultiSigWallet{... */\n  jump(tag_20)\ntag_8:\n  dup3\n  dup1\n  sload\n  dup3\n  dup3\n  sstore\n  swap1\n  0x00\n  mstore\n  keccak256(0x00, 0x20)\n  swap1\n  dup2\n  add\n  swap3\n  dup3\n  iszero\n  tag_21\n  jumpi\n  swap2\n  0x20\n  mul\n  dup3\n  add\ntag_22:\n  dup3\n  dup2\n  gt\n  iszero\n  tag_23\n  jumpi\n  dup3\n  mload\n  dup3\n  exp(0x0100, 0x00)\n  dup2\n  sload\n  dup2\n  0xffffffffffffffffffffffffffffffffffffffff\n  mul\n  not\n  and\n  swap1\n  dup4\n  0xffffffffffffffffffffffffffffffffffffffff\n  and\n  mul\n  or\n  swap1\n  sstore\n  pop\n  swap2\n  0x20\n  add\n  swap2\n  swap1\n  0x01\n  add\n  swap1\n  jump(tag_22)\ntag_23:\ntag_21:\n  pop\n  swap1\n  pop\n  tag_24\n  swap2\n  swap1\n  tag_25\n  jump\t// in\ntag_24:\n  pop\n  swap1\n  jump\t// out\ntag_25:\ntag_26:\n  dup1\n  dup3\n  gt\n  iszero\n  tag_27\n  jumpi\n  0x00\n  dup2\n  0x00\n  swap1\n  sstore\n  pop\n  0x01\n  add\n  jump(tag_26)\ntag_27:\n  pop\n  swap1\n  jump\t// out\n    /* \"#utility.yul\":7:82   */\ntag_28:\n    /* \"#utility.yul\":40:46   */\n  0x00\n    /* \"#utility.yul\":73:75   */\n  0x40\n    /* \"#utility.yul\":67:76   */\n  mload\n    /* \"#utility.yul\":57:76   */\n  swap1\n  pop\n    /* \"#utility.yul\":7:82   */\n  swap1\n  jump\t// out\n    /* \"#utility.yul\":88:205   */\ntag_29:\n    /* \"#utility.yul\":197:198   */\n  0x00\n    /* \"#utility.yul\":194:195   */\n  dup1\n    /* \"#utility.yul\":187:199   */\n  revert\n    /* \"#utility.yul\":211:328   */\ntag_30:\n    /* \"#utility.yul\":320:321   */\n  0x00\n    /* \"#utility.yul\":317:318   */\n  dup1\n    /* \"#utility.yul\":310:322   */\n  revert\n    /* \"#utility.yul\":334:451   */\ntag_31:\n    /* \"#utility.yul\":443:444   */\n  0x00\n    /* \"#utility.yul\":440:441   */\n  dup1\n    /* \"#utility.yul\":433:445   */\n  revert\n    /* \"#utility.yul\":457:559   */\ntag_32:\n    /* \"#utility.yul\":498:504   */\n  0x00\n    /* \"#utility.yul\":549:551   */\n  0x1f\n    /* \"#utility.yul\":545:552   */\n  not\n    /* \"#utility.yul\":540:542   */\n  0x1f\n    /* \"#utility.yul\":533:538   */\n  dup4\n    /* \"#utility.yul\":529:543   */\n  add\n    /* \"#utility.yul\":525:553   */\n  and\n    /* \"#utility.yul\":515:553   */\n  swap1\n  pop\n    /* \"#utility.yul\":457:559   */\n  swap2\n  swap1\n  pop\n  jump\t// out\n    /* \"#utility.yul\":565:745   */\ntag_33:\n    /* \"#utility.yul\":613:690   */\n  0x4e487b7100000000000000000000000000000000000000000000000000000000\n    /* \"#utility.yul\":610:611   */\n  0x00\n    /* \"#utility.yul\":603:691   */\n  mstore\n    /* \"#utility.yul\":710:714   */\n  0x41\n    /* \"#utility.yul\":707:708   */\n  0x04\n    /* \"#utility.yul\":700:715   */\n  mstore\n    /* \"#utility.yul\":734:738   */\n  0x24\n    /* \"#utility.yul\":731:732   */\n  0x00\n    /* \"#utility.yul\":724:739   */\n  revert\n    /* \"#utility.yul\":751:1032   */\ntag_34:\n    /* \"#utility.yul\":834:861   */\n  tag_55\n    /* \"#utility.yul\":856:860   */\n  dup3\n    /* \"#utility.yul\":834:861   */\n  tag_32\n  jump\t// in\ntag_55:\n    /* \"#utility.yul\":826:832   */\n  dup2\n    /* \"#utility.yul\":822:862   */\n  add\n    /* \"#utility.yul\":964:970   */\n  dup2\n    /* \"#utility.yul\":952:962   */\n  dup2\n    /* \"#utility.yul\":949:971   */\n  lt\n    /* \"#utility.yul\":928:946   */\n  0xffffffffffffffff\n    /* \"#utility.yul\":916:926   */\n  dup3\n    /* \"#utility.yul\":913:947   */\n  gt\n    /* \"#utility.yul\":910:972   */\n  or\n    /* \"#utility.yul\":907:995   */\n  iszero\n  tag_56\n  jumpi\n    /* \"#utility.yul\":975:993   */\n  tag_57\n  tag_33\n  jump\t// in\ntag_57:\n    /* \"#utility.yul\":907:995   */\ntag_56:\n    /* \"#utility.yul\":1015:1025   */\n  dup1\n    /* \"#utility.yul\":1011:1013   */\n  0x40\n    /* \"#utility.yul\":1004:1026   */\n  mstore\n    /* \"#utility.yul\":794:1032   */\n  pop\n    /* \"#utility.yul\":751:1032   */\n  pop\n  pop\n  jump\t// out\n    /* \"#utility.yul\":1038:1167   */\ntag_35:\n    /* \"#utility.yul\":1072:1078   */\n  0x00\n    /* \"#utility.yul\":1099:1119   */\n  tag_59\n  tag_28\n  jump\t// in\ntag_59:\n    /* \"#utility.yul\":1089:1119   */\n  swap1\n  pop\n    /* \"#utility.yul\":1128:1161   */\n  tag_60\n    /* \"#utility.yul\":1156:1160   */\n  dup3\n    /* \"#utility.yul\":1148:1154   */\n  dup3\n    /* \"#utility.yul\":1128:1161   */\n  tag_34\n  jump\t// in\ntag_60:\n    /* \"#utility.yul\":1038:1167   */\n  swap2\n  swap1\n  pop\n  jump\t// out\n    /* \"#utility.yul\":1173:1484   */\ntag_36:\n    /* \"#utility.yul\":1250:1254   */\n  0x00\n    /* \"#utility.yul\":1340:1358   */\n  0xffffffffffffffff\n    /* \"#utility.yul\":1332:1338   */\n  dup3\n    /* \"#utility.yul\":1329:1359   */\n  gt\n    /* \"#utility.yul\":1326:1382   */\n  iszero\n  tag_62\n  jumpi\n    /* \"#utility.yul\":1362:1380   */\n  tag_63\n  tag_33\n  jump\t// in\ntag_63:\n    /* \"#utility.yul\":1326:1382   */\ntag_62:\n    /* \"#utility.yul\":1412:1416   */\n  0x20\n    /* \"#utility.yul\":1404:1410   */\n  dup3\n    /* \"#utility.yul\":1400:1417   */\n  mul\n    /* \"#utility.yul\":1392:1417   */\n  swap1\n  pop\n    /* \"#utility.yul\":1472:1476   */\n  0x20\n    /* \"#utility.yul\":1466:1470   */\n  dup2\n    /* \"#utility.yul\":1462:1477   */\n  add\n    /* \"#utility.yul\":1454:1477   */\n  swap1\n  pop\n    /* \"#utility.yul\":1173:1484   */\n  swap2\n  swap1\n  pop\n  jump\t// out\n    /* \"#utility.yul\":1490:1607   */\ntag_37:\n    /* \"#utility.yul\":1599:1600   */\n  0x00\n    /* \"#utility.yul\":1596:1597   */\n  dup1\n    /* \"#utility.yul\":1589:1601   */\n  revert\n    /* \"#utility.yul\":1613:1739   */\ntag_38:\n    /* \"#utility.yul\":1650:1657   */\n  0x00\n    /* \"#utility.yul\":1690:1732   */\n  0xffffffffffffffffffffffffffffffffffffffff\n    /* \"#utility.yul\":1683:1688   */\n  dup3\n    /* \"#utility.yul\":1679:1733   */\n  and\n    /* \"#utility.yul\":1668:1733   */\n  swap1\n  pop\n    /* \"#utility.yul\":1613:1739   */\n  swap2\n  swap1\n  pop\n  jump\t// out\n    /* \"#utility.yul\":1745:1841   */\ntag_39:\n    /* \"#utility.yul\":1782:1789   */\n  0x00\n    /* \"#utility.yul\":1811:1835   */\n  tag_67\n    /* \"#utility.yul\":1829:1834   */\n  dup3\n    /* \"#utility.yul\":1811:1835   */\n  tag_38\n  jump\t// in\ntag_67:\n    /* \"#utility.yul\":1800:1835   */\n  swap1\n  pop\n    /* \"#utility.yul\":1745:1841   */\n  swap2\n  swap1\n  pop\n  jump\t// out\n    /* \"#utility.yul\":1847:1969   */\ntag_40:\n    /* \"#utility.yul\":1920:1944   */\n  tag_69\n    /* \"#utility.yul\":1938:1943   */\n  dup2\n    /* \"#utility.yul\":1920:1944   */\n  tag_39\n  jump\t// in\ntag_69:\n    /* \"#utility.yul\":1913:1918   */\n  dup2\n    /* \"#utility.yul\":1910:1945   */\n  eq\n    /* \"#utility.yul\":1900:1963   */\n  tag_70\n  jumpi\n    /* \"#utility.yul\":1959:1960   */\n  0x00\n    /* \"#utility.yul\":1956:1957   */\n  dup1\n    /* \"#utility.yul\":1949:1961   */\n  revert\n    /* \"#utility.yul\":1900:1963   */\ntag_70:\n    /* \"#utility.yul\":1847:1969   */\n  pop\n  jump\t// out\n    /* \"#utility.yul\":1975:2118   */\ntag_41:\n    /* \"#utility.yul\":2032:2037   */\n  0x00\n    /* \"#utility.yul\":2063:2069   */\n  dup2\n    /* \"#utility.yul\":2057:2070   */\n  mload\n    /* \"#utility.yul\":2048:2070   */\n  swap1\n  pop\n    /* \"#utility.yul\":2079:2112   */\n  tag_72\n    /* \"#utility.yul\":2106:2111   */\n  dup2\n    /* \"#utility.yul\":2079:2112   */\n  tag_40\n  jump\t// in\ntag_72:\n    /* \"#utility.yul\":1975:2118   */\n  swap3\n  swap2\n  pop\n  pop\n  jump\t// out\n    /* \"#utility.yul\":2141:2873   */\ntag_42:\n    /* \"#utility.yul\":2248:2253   */\n  0x00\n    /* \"#utility.yul\":2273:2354   */\n  tag_74\n    /* \"#utility.yul\":2289:2353   */\n  tag_75\n    /* \"#utility.yul\":2346:2352   */\n  dup5\n    /* \"#utility.yul\":2289:2353   */\n  tag_36\n  jump\t// in\ntag_75:\n    /* \"#utility.yul\":2273:2354   */\n  tag_35\n  jump\t// in\ntag_74:\n    /* \"#utility.yul\":2264:2354   */\n  swap1\n  pop\n    /* \"#utility.yul\":2374:2379   */\n  dup1\n    /* \"#utility.yul\":2403:2409   */\n  dup4\n    /* \"#utility.yul\":2396:2401   */\n  dup3\n    /* \"#utility.yul\":2389:2410   */\n  mstore\n    /* \"#utility.yul\":2437:2441   */\n  0x20\n    /* \"#utility.yul\":2430:2435   */\n  dup3\n    /* \"#utility.yul\":2426:2442   */\n  add\n    /* \"#utility.yul\":2419:2442   */\n  swap1\n  pop\n    /* \"#utility.yul\":2490:2494   */\n  0x20\n    /* \"#utility.yul\":2482:2488   */\n  dup5\n    /* \"#utility.yul\":2478:2495   */\n  mul\n    /* \"#utility.yul\":2470:2476   */\n  dup4\n    /* \"#utility.yul\":2466:2496   */\n  add\n    /* \"#utility.yul\":2519:2522   */\n  dup6\n    /* \"#utility.yul\":2511:2517   */\n  dup2\n    /* \"#utility.yul\":2508:2523   */\n  gt\n    /* \"#utility.yul\":2505:2627   */\n  iszero\n  tag_76\n  jumpi\n    /* \"#utility.yul\":2538:2617   */\n  tag_77\n  tag_37\n  jump\t// in\ntag_77:\n    /* \"#utility.yul\":2505:2627   */\ntag_76:\n    /* \"#utility.yul\":2653:2659   */\n  dup4\n    /* \"#utility.yul\":2636:2867   */\ntag_78:\n    /* \"#utility.yul\":2670:2676   */\n  dup2\n    /* \"#utility.yul\":2665:2668   */\n  dup2\n    /* \"#utility.yul\":2662:2677   */\n  lt\n    /* \"#utility.yul\":2636:2867   */\n  iszero\n  tag_80\n  jumpi\n    /* \"#utility.yul\":2745:2748   */\n  dup1\n    /* \"#utility.yul\":2774:2822   */\n  tag_81\n    /* \"#utility.yul\":2818:2821   */\n  dup9\n    /* \"#utility.yul\":2806:2816   */\n  dup3\n    /* \"#utility.yul\":2774:2822   */\n  tag_41\n  jump\t// in\ntag_81:\n    /* \"#utility.yul\":2769:2772   */\n  dup5\n    /* \"#utility.yul\":2762:2823   */\n  mstore\n    /* \"#utility.yul\":2852:2856   */\n  0x20\n    /* \"#utility.yul\":2847:2850   */\n  dup5\n    /* \"#utility.yul\":2843:2857   */\n  add\n    /* \"#utility.yul\":2836:2857   */\n  swap4\n  pop\n    /* \"#utility.yul\":2712:2867   */\n  pop\n    /* \"#utility.yul\":2696:2700   */\n  0x20\n    /* \"#utility.yul\":2691:2694   */\n  dup2\n    /* \"#utility.yul\":2687:2701   */\n  add\n    /* \"#utility.yul\":2680:2701   */\n  swap1\n  pop\n    /* \"#utility.yul\":2636:2867   */\n  jump(tag_78)\ntag_80:\n    /* \"#utility.yul\":2640:2661   */\n  pop\n    /* \"#utility.yul\":2254:2873   */\n  pop\n  pop\n    /* \"#utility.yul\":2141:2873   */\n  swap4\n  swap3\n  pop\n  pop\n  pop\n  jump\t// out\n    /* \"#utility.yul\":2896:3281   */\ntag_43:\n    /* \"#utility.yul\":2978:2983   */\n  0x00\n    /* \"#utility.yul\":3027:3030   */\n  dup3\n    /* \"#utility.yul\":3020:3024   */\n  0x1f\n    /* \"#utility.yul\":3012:3018   */\n  dup4\n    /* \"#utility.yul\":3008:3025   */\n  add\n    /* \"#utility.yul\":3004:3031   */\n  slt\n    /* \"#utility.yul\":2994:3116   */\n  tag_83\n  jumpi\n    /* \"#utility.yul\":3035:3114   */\n  tag_84\n  tag_31\n  jump\t// in\ntag_84:\n    /* \"#utility.yul\":2994:3116   */\ntag_83:\n    /* \"#utility.yul\":3145:3151   */\n  dup2\n    /* \"#utility.yul\":3139:3152   */\n  mload\n    /* \"#utility.yul\":3170:3275   */\n  tag_85\n    /* \"#utility.yul\":3271:3274   */\n  dup5\n    /* \"#utility.yul\":3263:3269   */\n  dup3\n    /* \"#utility.yul\":3256:3260   */\n  0x20\n    /* \"#utility.yul\":3248:3254   */\n  dup7\n    /* \"#utility.yul\":3244:3261   */\n  add\n    /* \"#utility.yul\":3170:3275   */\n  tag_42\n  jump\t// in\ntag_85:\n    /* \"#utility.yul\":3161:3275   */\n  swap2\n  pop\n    /* \"#utility.yul\":2984:3281   */\n  pop\n    /* \"#utility.yul\":2896:3281   */\n  swap3\n  swap2\n  pop\n  pop\n  jump\t// out\n    /* \"#utility.yul\":3287:3364   */\ntag_44:\n    /* \"#utility.yul\":3324:3331   */\n  0x00\n    /* \"#utility.yul\":3353:3358   */\n  dup2\n    /* \"#utility.yul\":3342:3358   */\n  swap1\n  pop\n    /* \"#utility.yul\":3287:3364   */\n  swap2\n  swap1\n  pop\n  jump\t// out\n    /* \"#utility.yul\":3370:3492   */\ntag_45:\n    /* \"#utility.yul\":3443:3467   */\n  tag_88\n    /* \"#utility.yul\":3461:3466   */\n  dup2\n    /* \"#utility.yul\":3443:3467   */\n  tag_44\n  jump\t// in\ntag_88:\n    /* \"#utility.yul\":3436:3441   */\n  dup2\n    /* \"#utility.yul\":3433:3468   */\n  eq\n    /* \"#utility.yul\":3423:3486   */\n  tag_89\n  jumpi\n    /* \"#utility.yul\":3482:3483   */\n  0x00\n    /* \"#utility.yul\":3479:3480   */\n  dup1\n    /* \"#utility.yul\":3472:3484   */\n  revert\n    /* \"#utility.yul\":3423:3486   */\ntag_89:\n    /* \"#utility.yul\":3370:3492   */\n  pop\n  jump\t// out\n    /* \"#utility.yul\":3498:3641   */\ntag_46:\n    /* \"#utility.yul\":3555:3560   */\n  0x00\n    /* \"#utility.yul\":3586:3592   */\n  dup2\n    /* \"#utility.yul\":3580:3593   */\n  mload\n    /* \"#utility.yul\":3571:3593   */\n  swap1\n  pop\n    /* \"#utility.yul\":3602:3635   */\n  tag_91\n    /* \"#utility.yul\":3629:3634   */\n  dup2\n    /* \"#utility.yul\":3602:3635   */\n  tag_45\n  jump\t// in\ntag_91:\n    /* \"#utility.yul\":3498:3641   */\n  swap3\n  swap2\n  pop\n  pop\n  jump\t// out\n    /* \"#utility.yul\":3647:4357   */\ntag_3:\n    /* \"#utility.yul\":3751:3757   */\n  0x00\n    /* \"#utility.yul\":3759:3765   */\n  dup1\n    /* \"#utility.yul\":3808:3810   */\n  0x40\n    /* \"#utility.yul\":3796:3805   */\n  dup4\n    /* \"#utility.yul\":3787:3794   */\n  dup6\n    /* \"#utility.yul\":3783:3806   */\n  sub\n    /* \"#utility.yul\":3779:3811   */\n  slt\n    /* \"#utility.yul\":3776:3895   */\n  iszero\n  tag_93\n  jumpi\n    /* \"#utility.yul\":3814:3893   */\n  tag_94\n  tag_29\n  jump\t// in\ntag_94:\n    /* \"#utility.yul\":3776:3895   */\ntag_93:\n    /* \"#utility.yul\":3955:3956   */\n  0x00\n    /* \"#utility.yul\":3944:3953   */\n  dup4\n    /* \"#utility.yul\":3940:3957   */\n  add\n    /* \"#utility.yul\":3934:3958   */\n  mload\n    /* \"#utility.yul\":3985:4003   */\n  0xffffffffffffffff\n    /* \"#utility.yul\":3977:3983   */\n  dup2\n    /* \"#utility.yul\":3974:4004   */\n  gt\n    /* \"#utility.yul\":3971:4088   */\n  iszero\n  tag_95\n  jumpi\n    /* \"#utility.yul\":4007:4086   */\n  tag_96\n  tag_30\n  jump\t// in\ntag_96:\n    /* \"#utility.yul\":3971:4088   */\ntag_95:\n    /* \"#utility.yul\":4112:4201   */\n  tag_97\n    /* \"#utility.yul\":4193:4200   */\n  dup6\n    /* \"#utility.yul\":4184:4190   */\n  dup3\n    /* \"#utility.yul\":4173:4182   */\n  dup7\n    /* \"#utility.yul\":4169:4191   */\n  add\n    /* \"#utility.yul\":4112:4201   */\n  tag_43\n  jump\t// in\ntag_97:\n    /* \"#utility.yul\":4102:4201   */\n  swap3\n  pop\n    /* \"#utility.yul\":3905:4211   */\n  pop\n    /* \"#utility.yul\":4250:4252   */\n  0x20\n    /* \"#utility.yul\":4276:4340   */\n  tag_98\n    /* \"#utility.yul\":4332:4339   */\n  dup6\n    /* \"#utility.yul\":4323:4329   */\n  dup3\n    /* \"#utility.yul\":4312:4321   */\n  dup7\n    /* \"#utility.yul\":4308:4330   */\n  add\n    /* \"#utility.yul\":4276:4340   */\n  tag_46\n  jump\t// in\ntag_98:\n    /* \"#utility.yul\":4266:4340   */\n  swap2\n  pop\n    /* \"#utility.yul\":4221:4350   */\n  pop\n    /* \"#utility.yul\":3647:4357   */\n  swap3\n  pop\n  swap3\n  swap1\n  pop\n  jump\t// out\n    /* \"#utility.yul\":4363:4543   */\ntag_14:\n    /* \"#utility.yul\":4411:4488   */\n  0x4e487b7100000000000000000000000000000000000000000000000000000000\n    /* \"#utility.yul\":4408:4409   */\n  0x00\n    /* \"#utility.yul\":4401:4489   */\n  mstore\n    /* \"#utility.yul\":4508:4512   */\n  0x32\n    /* \"#utility.yul\":4505:4506   */\n  0x04\n    /* \"#utility.yul\":4498:4513   */\n  mstore\n    /* \"#utility.yul\":4532:4536   */\n  0x24\n    /* \"#utility.yul\":4529:4530   */\n  0x00\n    /* \"#utility.yul\":4522:4537   */\n  revert\n    /* \"2day/MultiSigWallet.sol\":27:4338  contract MultiSigWallet{... */\ntag_20:\n  dataSize(sub_0)\n  dup1\n  dataOffset(sub_0)\n  0x00\n  codecopy\n  0x00\n  return\nstop\n\nsub_0: assembly {\n        /* \"2day/MultiSigWallet.sol\":27:4338  contract MultiSigWallet{... */\n      mstore(0x40, 0x80)\n      jumpi(tag_1, lt(calldatasize, 0x04))\n      shr(0xe0, calldataload(0x00))\n      dup1\n      0x242232d1\n      eq\n      tag_3\n      jumpi\n      dup1\n      0x2e7700f0\n      eq\n      tag_4\n      jumpi\n      dup1\n      0x33ea3dc8\n      eq\n      tag_5\n      jumpi\n      dup1\n      0xc6427474\n      eq\n      tag_6\n      jumpi\n      dup1\n      0xee22610b\n      eq\n      tag_7\n      jumpi\n      jump(tag_2)\n    tag_1:\n      jumpi(tag_2, calldatasize)\n        /* \"2day/MultiSigWallet.sol\":1115:1145  Deposit(msg.sender, msg.value) */\n      0xe1fffcc4923d04b559f4d29a8bfc6cda04eb5b0d3c460751c2402c5c5cc9109c\n        /* \"2day/MultiSigWallet.sol\":1123:1133  msg.sender */\n      caller\n        /* \"2day/MultiSigWallet.sol\":1135:1144  msg.value */\n      callvalue\n        /* \"2day/MultiSigWallet.sol\":1115:1145  Deposit(msg.sender, msg.value) */\n      mload(0x40)\n      tag_10\n      swap3\n      swap2\n      swap1\n      tag_11\n      jump\t// in\n    tag_10:\n      mload(0x40)\n      dup1\n      swap2\n      sub\n      swap1\n      log1\n        /* \"2day/MultiSigWallet.sol\":27:4338  contract MultiSigWallet{... */\n      stop\n    tag_2:\n      0x00\n      dup1\n      revert\n        /* \"2day/MultiSigWallet.sol\":2463:3004  function approveTransaction(uint256 _transID) external onlyOwners{... */\n    tag_3:\n      callvalue\n      dup1\n      iszero\n      tag_12\n      jumpi\n      0x00\n      dup1\n      revert\n    tag_12:\n      pop\n      tag_13\n      0x04\n      dup1\n      calldatasize\n      sub\n      dup2\n      add\n      swap1\n      tag_14\n      swap2\n      swap1\n      tag_15\n      jump\t// in\n    tag_14:\n      tag_16\n      jump\t// in\n    tag_13:\n      stop\n        /* \"2day/MultiSigWallet.sol\":3722:3829  function getTransactionCount() external view returns (uint256){... */\n    tag_4:\n      callvalue\n      dup1\n      iszero\n      tag_17\n      jumpi\n      0x00\n      dup1\n      revert\n    tag_17:\n      pop\n      tag_18\n      tag_19\n      jump\t// in\n    tag_18:\n      mload(0x40)\n      tag_20\n      swap2\n      swap1\n      tag_21\n      jump\t// in\n    tag_20:\n      mload(0x40)\n      dup1\n      swap2\n      sub\n      swap1\n      return\n        /* \"2day/MultiSigWallet.sol\":3837:4335  function getTransaction(uint256 id)  public... */\n    tag_5:\n      callvalue\n      dup1\n      iszero\n      tag_22\n      jumpi\n      0x00\n      dup1\n      revert\n    tag_22:\n      pop\n      tag_23\n      0x04\n      dup1\n      calldatasize\n      sub\n      dup2\n      add\n      swap1\n      tag_24\n      swap2\n      swap1\n      tag_15\n      jump\t// in\n    tag_24:\n      tag_25\n      jump\t// in\n    tag_23:\n      mload(0x40)\n      tag_26\n      swap6\n      swap5\n      swap4\n      swap3\n      swap2\n      swap1\n      tag_27\n      jump\t// in\n    tag_26:\n      mload(0x40)\n      dup1\n      swap2\n      sub\n      swap1\n      return\n        /* \"2day/MultiSigWallet.sol\":1859:2455  function submitTransaction(address _to, uint256 _value, bytes memory _data) external onlyOwners{... */\n    tag_6:\n      callvalue\n      dup1\n      iszero\n      tag_28\n      jumpi\n      0x00\n      dup1\n      revert\n    tag_28:\n      pop\n      tag_29\n      0x04\n      dup1\n      calldatasize\n      sub\n      dup2\n      add\n      swap1\n      tag_30\n      swap2\n      swap1\n      tag_31\n      jump\t// in\n    tag_30:\n      tag_32\n      jump\t// in\n    tag_29:\n      stop\n        /* \"2day/MultiSigWallet.sol\":3012:3714  function executeTransaction(uint256 _transID) external onlyOwners{... */\n    tag_7:\n      callvalue\n      dup1\n      iszero\n      tag_33\n      jumpi\n      0x00\n      dup1\n      revert\n    tag_33:\n      pop\n      tag_34\n      0x04\n      dup1\n      calldatasize\n      sub\n      dup2\n      add\n      swap1\n      tag_35\n      swap2\n      swap1\n      tag_15\n      jump\t// in\n    tag_35:\n      tag_36\n      jump\t// in\n    tag_34:\n      stop\n        /* \"2day/MultiSigWallet.sol\":2463:3004  function approveTransaction(uint256 _transID) external onlyOwners{... */\n    tag_16:\n        /* \"2day/MultiSigWallet.sol\":438:445  isOwner */\n      0x01\n        /* \"2day/MultiSigWallet.sol\":438:457  isOwner[msg.sender] */\n      0x00\n        /* \"2day/MultiSigWallet.sol\":446:456  msg.sender */\n      caller\n        /* \"2day/MultiSigWallet.sol\":438:457  isOwner[msg.sender] */\n      0xffffffffffffffffffffffffffffffffffffffff\n      and\n      0xffffffffffffffffffffffffffffffffffffffff\n      and\n      dup2\n      mstore\n      0x20\n      add\n      swap1\n      dup2\n      mstore\n      0x20\n      add\n      0x00\n      keccak256\n      0x00\n      swap1\n      sload\n      swap1\n      0x0100\n      exp\n      swap1\n      div\n      0xff\n      and\n        /* \"2day/MultiSigWallet.sol\":433:503  if (!isOwner[msg.sender]){... */\n      tag_38\n      jumpi\n        /* \"2day/MultiSigWallet.sol\":480:490  NotOwner() */\n      mload(0x40)\n      0x30cd747100000000000000000000000000000000000000000000000000000000\n      dup2\n      mstore\n      0x04\n      add\n      mload(0x40)\n      dup1\n      swap2\n      sub\n      swap1\n      revert\n        /* \"2day/MultiSigWallet.sol\":433:503  if (!isOwner[msg.sender]){... */\n    tag_38:\n        /* \"2day/MultiSigWallet.sol\":2554:2566  transactions */\n      0x03\n        /* \"2day/MultiSigWallet.sol\":2554:2573  transactions.length */\n      dup1\n      sload\n      swap1\n      pop\n        /* \"2day/MultiSigWallet.sol\":2542:2550  _transID */\n      dup2\n        /* \"2day/MultiSigWallet.sol\":2542:2573  _transID >= transactions.length */\n      lt\n        /* \"2day/MultiSigWallet.sol\":2539:2629  if(_transID >= transactions.length){... */\n      tag_40\n      jumpi\n        /* \"2day/MultiSigWallet.sol\":2596:2616  InvalidTransaction() */\n      mload(0x40)\n      0x500a07ce00000000000000000000000000000000000000000000000000000000\n      dup2\n      mstore\n      0x04\n      add\n      mload(0x40)\n      dup1\n      swap2\n      sub\n      swap1\n      revert\n        /* \"2day/MultiSigWallet.sol\":2539:2629  if(_transID >= transactions.length){... */\n    tag_40:\n        /* \"2day/MultiSigWallet.sol\":2644:2656  transactions */\n      0x03\n        /* \"2day/MultiSigWallet.sol\":2657:2665  _transID */\n      dup2\n        /* \"2day/MultiSigWallet.sol\":2644:2666  transactions[_transID] */\n      dup2\n      sload\n      dup2\n      lt\n      tag_41\n      jumpi\n      tag_42\n      tag_43\n      jump\t// in\n    tag_42:\n    tag_41:\n      swap1\n      0x00\n      mstore\n      keccak256(0x00, 0x20)\n      swap1\n      0x05\n      mul\n      add\n        /* \"2day/MultiSigWallet.sol\":2644:2675  transactions[_transID].executed */\n      0x03\n      add\n      0x00\n      swap1\n      sload\n      swap1\n      0x0100\n      exp\n      swap1\n      div\n      0xff\n      and\n        /* \"2day/MultiSigWallet.sol\":2640:2739  if (transactions[_transID].executed){... */\n      iszero\n      tag_45\n      jumpi\n        /* \"2day/MultiSigWallet.sol\":2698:2726  TransactionAlreadyExecuted() */\n      mload(0x40)\n      0xdb5e659b00000000000000000000000000000000000000000000000000000000\n      dup2\n      mstore\n      0x04\n      add\n      mload(0x40)\n      dup1\n      swap2\n      sub\n      swap1\n      revert\n        /* \"2day/MultiSigWallet.sol\":2640:2739  if (transactions[_transID].executed){... */\n    tag_45:\n        /* \"2day/MultiSigWallet.sol\":2754:2765  txApprovals */\n      0x04\n        /* \"2day/MultiSigWallet.sol\":2754:2775  txApprovals[_transID] */\n      0x00\n        /* \"2day/MultiSigWallet.sol\":2766:2774  _transID */\n      dup3\n        /* \"2day/MultiSigWallet.sol\":2754:2775  txApprovals[_transID] */\n      dup2\n      mstore\n      0x20\n      add\n      swap1\n      dup2\n      mstore\n      0x20\n      add\n      0x00\n      keccak256\n        /* \"2day/MultiSigWallet.sol\":2754:2787  txApprovals[_transID][msg.sender] */\n      0x00\n        /* \"2day/MultiSigWallet.sol\":2776:2786  msg.sender */\n      caller\n        /* \"2day/MultiSigWallet.sol\":2754:2787  txApprovals[_transID][msg.sender] */\n      0xffffffffffffffffffffffffffffffffffffffff\n      and\n      0xffffffffffffffffffffffffffffffffffffffff\n      and\n      dup2\n      mstore\n      0x20\n      add\n      swap1\n      dup2\n      mstore\n      0x20\n      add\n      0x00\n      keccak256\n      0x00\n      swap1\n      sload\n      swap1\n      0x0100\n      exp\n      swap1\n      div\n      0xff\n      and\n        /* \"2day/MultiSigWallet.sol\":2750:2840  if (txApprovals[_transID][msg.sender]){... */\n      iszero\n      tag_46\n      jumpi\n        /* \"2day/MultiSigWallet.sol\":2810:2827  AlreadyApproved() */\n      mload(0x40)\n      0x101f817a00000000000000000000000000000000000000000000000000000000\n      dup2\n      mstore\n      0x04\n      add\n      mload(0x40)\n      dup1\n      swap2\n      sub\n      swap1\n      revert\n        /* \"2day/MultiSigWallet.sol\":2750:2840  if (txApprovals[_transID][msg.sender]){... */\n    tag_46:\n        /* \"2day/MultiSigWallet.sol\":2887:2888  1 */\n      0x01\n        /* \"2day/MultiSigWallet.sol\":2851:2863  transactions */\n      0x03\n        /* \"2day/MultiSigWallet.sol\":2864:2872  _transID */\n      dup3\n        /* \"2day/MultiSigWallet.sol\":2851:2873  transactions[_transID] */\n      dup2\n      sload\n      dup2\n      lt\n      tag_47\n      jumpi\n      tag_48\n      tag_43\n      jump\t// in\n    tag_48:\n    tag_47:\n      swap1\n      0x00\n      mstore\n      keccak256(0x00, 0x20)\n      swap1\n      0x05\n      mul\n      add\n        /* \"2day/MultiSigWallet.sol\":2851:2883  transactions[_transID].approvals */\n      0x04\n      add\n      0x00\n        /* \"2day/MultiSigWallet.sol\":2851:2888  transactions[_transID].approvals += 1 */\n      dup3\n      dup3\n      sload\n      tag_50\n      swap2\n      swap1\n      tag_51\n      jump\t// in\n    tag_50:\n      swap3\n      pop\n      pop\n      dup2\n      swap1\n      sstore\n      pop\n        /* \"2day/MultiSigWallet.sol\":2936:2940  true */\n      0x01\n        /* \"2day/MultiSigWallet.sol\":2900:2911  txApprovals */\n      0x04\n        /* \"2day/MultiSigWallet.sol\":2900:2921  txApprovals[_transID] */\n      0x00\n        /* \"2day/MultiSigWallet.sol\":2912:2920  _transID */\n      dup4\n        /* \"2day/MultiSigWallet.sol\":2900:2921  txApprovals[_transID] */\n      dup2\n      mstore\n      0x20\n      add\n      swap1\n      dup2\n      mstore\n      0x20\n      add\n      0x00\n      keccak256\n        /* \"2day/MultiSigWallet.sol\":2900:2933  txApprovals[_transID][msg.sender] */\n      0x00\n        /* \"2day/MultiSigWallet.sol\":2922:2932  msg.sender */\n      caller\n        /* \"2day/MultiSigWallet.sol\":2900:2933  txApprovals[_transID][msg.sender] */\n      0xffffffffffffffffffffffffffffffffffffffff\n      and\n      0xffffffffffffffffffffffffffffffffffffffff\n      and\n      dup2\n      mstore\n      0x20\n      add\n      swap1\n      dup2\n      mstore\n      0x20\n      add\n      0x00\n      keccak256\n      0x00\n        /* \"2day/MultiSigWallet.sol\":2900:2940  txApprovals[_transID][msg.sender] = true */\n      0x0100\n      exp\n      dup2\n      sload\n      dup2\n      0xff\n      mul\n      not\n      and\n      swap1\n      dup4\n      iszero\n      iszero\n      mul\n      or\n      swap1\n      sstore\n      pop\n        /* \"2day/MultiSigWallet.sol\":2957:2995  ApprovalReceived(_transID, msg.sender) */\n      0xbe556a88b31b59bf2916d67a1114497febeef512cc2e5fa4ad132f7865c56ac2\n        /* \"2day/MultiSigWallet.sol\":2974:2982  _transID */\n      dup2\n        /* \"2day/MultiSigWallet.sol\":2984:2994  msg.sender */\n      caller\n        /* \"2day/MultiSigWallet.sol\":2957:2995  ApprovalReceived(_transID, msg.sender) */\n      mload(0x40)\n      tag_52\n      swap3\n      swap2\n      swap1\n      tag_53\n      jump\t// in\n    tag_52:\n      mload(0x40)\n      dup1\n      swap2\n      sub\n      swap1\n      log1\n        /* \"2day/MultiSigWallet.sol\":2463:3004  function approveTransaction(uint256 _transID) external onlyOwners{... */\n      pop\n      jump\t// out\n        /* \"2day/MultiSigWallet.sol\":3722:3829  function getTransactionCount() external view returns (uint256){... */\n    tag_19:\n        /* \"2day/MultiSigWallet.sol\":3776:3783  uint256 */\n      0x00\n        /* \"2day/MultiSigWallet.sol\":3802:3814  transactions */\n      0x03\n        /* \"2day/MultiSigWallet.sol\":3802:3821  transactions.length */\n      dup1\n      sload\n      swap1\n      pop\n        /* \"2day/MultiSigWallet.sol\":3795:3821  return transactions.length */\n      swap1\n      pop\n        /* \"2day/MultiSigWallet.sol\":3722:3829  function getTransactionCount() external view returns (uint256){... */\n      swap1\n      jump\t// out\n        /* \"2day/MultiSigWallet.sol\":3837:4335  function getTransaction(uint256 id)  public... */\n    tag_25:\n        /* \"2day/MultiSigWallet.sol\":3927:3937  address to */\n      0x00\n        /* \"2day/MultiSigWallet.sol\":3952:3965  uint256 value */\n      dup1\n        /* \"2day/MultiSigWallet.sol\":3980:3997  bytes memory data */\n      0x60\n        /* \"2day/MultiSigWallet.sol\":4012:4025  bool executed */\n      0x00\n        /* \"2day/MultiSigWallet.sol\":4040:4057  uint256 approvals */\n      dup1\n        /* \"2day/MultiSigWallet.sol\":4085:4116  Transaction storage transaction */\n      0x00\n        /* \"2day/MultiSigWallet.sol\":4119:4131  transactions */\n      0x03\n        /* \"2day/MultiSigWallet.sol\":4132:4134  id */\n      dup8\n        /* \"2day/MultiSigWallet.sol\":4119:4135  transactions[id] */\n      dup2\n      sload\n      dup2\n      lt\n      tag_56\n      jumpi\n      tag_57\n      tag_43\n      jump\t// in\n    tag_57:\n    tag_56:\n      swap1\n      0x00\n      mstore\n      keccak256(0x00, 0x20)\n      swap1\n      0x05\n      mul\n      add\n        /* \"2day/MultiSigWallet.sol\":4085:4135  Transaction storage transaction = transactions[id] */\n      swap1\n      pop\n        /* \"2day/MultiSigWallet.sol\":4168:4179  transaction */\n      dup1\n        /* \"2day/MultiSigWallet.sol\":4168:4182  transaction.to */\n      0x00\n      add\n      0x00\n      swap1\n      sload\n      swap1\n      0x0100\n      exp\n      swap1\n      div\n      0xffffffffffffffffffffffffffffffffffffffff\n      and\n        /* \"2day/MultiSigWallet.sol\":4197:4208  transaction */\n      dup2\n        /* \"2day/MultiSigWallet.sol\":4197:4214  transaction.value */\n      0x01\n      add\n      sload\n        /* \"2day/MultiSigWallet.sol\":4229:4240  transaction */\n      dup3\n        /* \"2day/MultiSigWallet.sol\":4229:4245  transaction.data */\n      0x02\n      add\n        /* \"2day/MultiSigWallet.sol\":4260:4271  transaction */\n      dup4\n        /* \"2day/MultiSigWallet.sol\":4260:4280  transaction.executed */\n      0x03\n      add\n      0x00\n      swap1\n      sload\n      swap1\n      0x0100\n      exp\n      swap1\n      div\n      0xff\n      and\n        /* \"2day/MultiSigWallet.sol\":4295:4306  transaction */\n      dup5\n        /* \"2day/MultiSigWallet.sol\":4295:4316  transaction.approvals */\n      0x04\n      add\n      sload\n        /* \"2day/MultiSigWallet.sol\":4146:4327  return (... */\n      dup3\n      dup1\n      sload\n      tag_59\n      swap1\n      tag_60\n      jump\t// in\n    tag_59:\n      dup1\n      0x1f\n      add\n      0x20\n      dup1\n      swap2\n      div\n      mul\n      0x20\n      add\n      mload(0x40)\n      swap1\n      dup2\n      add\n      0x40\n      mstore\n      dup1\n      swap3\n      swap2\n      swap1\n      dup2\n      dup2\n      mstore\n      0x20\n      add\n      dup3\n      dup1\n      sload\n      tag_61\n      swap1\n      tag_60\n      jump\t// in\n    tag_61:\n      dup1\n      iszero\n      tag_62\n      jumpi\n      dup1\n      0x1f\n      lt\n      tag_63\n      jumpi\n      0x0100\n      dup1\n      dup4\n      sload\n      div\n      mul\n      dup4\n      mstore\n      swap2\n      0x20\n      add\n      swap2\n      jump(tag_62)\n    tag_63:\n      dup3\n      add\n      swap2\n      swap1\n      0x00\n      mstore\n      keccak256(0x00, 0x20)\n      swap1\n    tag_64:\n      dup2\n      sload\n      dup2\n      mstore\n      swap1\n      0x01\n      add\n      swap1\n      0x20\n      add\n      dup1\n      dup4\n      gt\n      tag_64\n      jumpi\n      dup3\n      swap1\n      sub\n      0x1f\n      and\n      dup3\n      add\n      swap2\n    tag_62:\n      pop\n      pop\n      pop\n      pop\n      pop\n      swap3\n      pop\n      swap6\n      pop\n      swap6\n      pop\n      swap6\n      pop\n      swap6\n      pop\n      swap6\n      pop\n      pop\n        /* \"2day/MultiSigWallet.sol\":3837:4335  function getTransaction(uint256 id)  public... */\n      swap2\n      swap4\n      swap6\n      swap1\n      swap3\n      swap5\n      pop\n      jump\t// out\n        /* \"2day/MultiSigWallet.sol\":1859:2455  function submitTransaction(address _to, uint256 _value, bytes memory _data) external onlyOwners{... */\n    tag_32:\n        /* \"2day/MultiSigWallet.sol\":438:445  isOwner */\n      0x01\n        /* \"2day/MultiSigWallet.sol\":438:457  isOwner[msg.sender] */\n      0x00\n        /* \"2day/MultiSigWallet.sol\":446:456  msg.sender */\n      caller\n        /* \"2day/MultiSigWallet.sol\":438:457  isOwner[msg.sender] */\n      0xffffffffffffffffffffffffffffffffffffffff\n      and\n      0xffffffffffffffffffffffffffffffffffffffff\n      and\n      dup2\n      mstore\n      0x20\n      add\n      swap1\n      dup2\n      mstore\n      0x20\n      add\n      0x00\n      keccak256\n      0x00\n      swap1\n      sload\n      swap1\n      0x0100\n      exp\n      swap1\n      div\n      0xff\n      and\n        /* \"2day/MultiSigWallet.sol\":433:503  if (!isOwner[msg.sender]){... */\n      tag_66\n      jumpi\n        /* \"2day/MultiSigWallet.sol\":480:490  NotOwner() */\n      mload(0x40)\n      0x30cd747100000000000000000000000000000000000000000000000000000000\n      dup2\n      mstore\n      0x04\n      add\n      mload(0x40)\n      dup1\n      swap2\n      sub\n      swap1\n      revert\n        /* \"2day/MultiSigWallet.sol\":433:503  if (!isOwner[msg.sender]){... */\n    tag_66:\n        /* \"2day/MultiSigWallet.sol\":1978:1979  0 */\n      0x00\n        /* \"2day/MultiSigWallet.sol\":1968:1974  _value */\n      dup3\n        /* \"2day/MultiSigWallet.sol\":1968:1979  _value == 0 */\n      sub\n        /* \"2day/MultiSigWallet.sol\":1965:2034  if(_value == 0){... */\n      tag_68\n      jumpi\n        /* \"2day/MultiSigWallet.sol\":2002:2022  InvalidTransaction() */\n      mload(0x40)\n      0x500a07ce00000000000000000000000000000000000000000000000000000000\n      dup2\n      mstore\n      0x04\n      add\n      mload(0x40)\n      dup1\n      swap2\n      sub\n      swap1\n      revert\n        /* \"2day/MultiSigWallet.sol\":1965:2034  if(_value == 0){... */\n    tag_68:\n        /* \"2day/MultiSigWallet.sol\":2062:2063  0 */\n      0x00\n        /* \"2day/MultiSigWallet.sol\":2047:2064  _to == address(0) */\n      0xffffffffffffffffffffffffffffffffffffffff\n      and\n        /* \"2day/MultiSigWallet.sol\":2047:2050  _to */\n      dup4\n        /* \"2day/MultiSigWallet.sol\":2047:2064  _to == address(0) */\n      0xffffffffffffffffffffffffffffffffffffffff\n      and\n      sub\n        /* \"2day/MultiSigWallet.sol\":2044:2115  if(_to == address(0)){... */\n      tag_69\n      jumpi\n        /* \"2day/MultiSigWallet.sol\":2087:2103  InvalidAddress() */\n      mload(0x40)\n      0xe6c4247b00000000000000000000000000000000000000000000000000000000\n      dup2\n      mstore\n      0x04\n      add\n      mload(0x40)\n      dup1\n      swap2\n      sub\n      swap1\n      revert\n        /* \"2day/MultiSigWallet.sol\":2044:2115  if(_to == address(0)){... */\n    tag_69:\n        /* \"2day/MultiSigWallet.sol\":2135:2147  transactions */\n      0x03\n        /* \"2day/MultiSigWallet.sol\":2153:2194  Transaction(_to, _value, _data, false, 1) */\n      mload(0x40)\n      dup1\n      0xa0\n      add\n      0x40\n      mstore\n      dup1\n        /* \"2day/MultiSigWallet.sol\":2165:2168  _to */\n      dup6\n        /* \"2day/MultiSigWallet.sol\":2153:2194  Transaction(_to, _value, _data, false, 1) */\n      0xffffffffffffffffffffffffffffffffffffffff\n      and\n      dup2\n      mstore\n      0x20\n      add\n        /* \"2day/MultiSigWallet.sol\":2170:2176  _value */\n      dup5\n        /* \"2day/MultiSigWallet.sol\":2153:2194  Transaction(_to, _value, _data, false, 1) */\n      dup2\n      mstore\n      0x20\n      add\n        /* \"2day/MultiSigWallet.sol\":2178:2183  _data */\n      dup4\n        /* \"2day/MultiSigWallet.sol\":2153:2194  Transaction(_to, _value, _data, false, 1) */\n      dup2\n      mstore\n      0x20\n      add\n        /* \"2day/MultiSigWallet.sol\":2185:2190  false */\n      0x00\n        /* \"2day/MultiSigWallet.sol\":2153:2194  Transaction(_to, _value, _data, false, 1) */\n      iszero\n      iszero\n      dup2\n      mstore\n      0x20\n      add\n        /* \"2day/MultiSigWallet.sol\":2192:2193  1 */\n      0x01\n        /* \"2day/MultiSigWallet.sol\":2153:2194  Transaction(_to, _value, _data, false, 1) */\n      dup2\n      mstore\n      pop\n        /* \"2day/MultiSigWallet.sol\":2135:2195  transactions.push(Transaction(_to, _value, _data, false, 1)) */\n      swap1\n      dup1\n      0x01\n      dup2\n      sload\n      add\n      dup1\n      dup3\n      sstore\n      dup1\n      swap2\n      pop\n      pop\n      0x01\n      swap1\n      sub\n      swap1\n      0x00\n      mstore\n      keccak256(0x00, 0x20)\n      swap1\n      0x05\n      mul\n      add\n      0x00\n      swap1\n      swap2\n      swap1\n      swap2\n      swap1\n      swap2\n      pop\n      0x00\n      dup3\n      add\n      mload\n      dup2\n      0x00\n      add\n      exp(0x0100, 0x00)\n      dup2\n      sload\n      dup2\n      0xffffffffffffffffffffffffffffffffffffffff\n      mul\n      not\n      and\n      swap1\n      dup4\n      0xffffffffffffffffffffffffffffffffffffffff\n      and\n      mul\n      or\n      swap1\n      sstore\n      pop\n      0x20\n      dup3\n      add\n      mload\n      dup2\n      0x01\n      add\n      sstore\n      0x40\n      dup3\n      add\n      mload\n      dup2\n      0x02\n      add\n      swap1\n      dup2\n      tag_71\n      swap2\n      swap1\n      tag_72\n      jump\t// in\n    tag_71:\n      pop\n      0x60\n      dup3\n      add\n      mload\n      dup2\n      0x03\n      add\n      exp(0x0100, 0x00)\n      dup2\n      sload\n      dup2\n      0xff\n      mul\n      not\n      and\n      swap1\n      dup4\n      iszero\n      iszero\n      mul\n      or\n      swap1\n      sstore\n      pop\n      0x80\n      dup3\n      add\n      mload\n      dup2\n      0x04\n      add\n      sstore\n      pop\n      pop\n        /* \"2day/MultiSigWallet.sol\":2206:2220  uint256 length */\n      0x00\n        /* \"2day/MultiSigWallet.sol\":2223:2235  transactions */\n      0x03\n        /* \"2day/MultiSigWallet.sol\":2223:2242  transactions.length */\n      dup1\n      sload\n      swap1\n      pop\n        /* \"2day/MultiSigWallet.sol\":2206:2242  uint256 length = transactions.length */\n      swap1\n      pop\n        /* \"2day/MultiSigWallet.sol\":2289:2290  1 */\n      0x01\n        /* \"2day/MultiSigWallet.sol\":2253:2265  transactions */\n      0x03\n        /* \"2day/MultiSigWallet.sol\":2274:2275  1 */\n      0x01\n        /* \"2day/MultiSigWallet.sol\":2266:2272  length */\n      dup4\n        /* \"2day/MultiSigWallet.sol\":2266:2275  length -1 */\n      tag_73\n      swap2\n      swap1\n      tag_74\n      jump\t// in\n    tag_73:\n        /* \"2day/MultiSigWallet.sol\":2253:2276  transactions[length -1] */\n      dup2\n      sload\n      dup2\n      lt\n      tag_75\n      jumpi\n      tag_76\n      tag_43\n      jump\t// in\n    tag_76:\n    tag_75:\n      swap1\n      0x00\n      mstore\n      keccak256(0x00, 0x20)\n      swap1\n      0x05\n      mul\n      add\n        /* \"2day/MultiSigWallet.sol\":2253:2286  transactions[length -1].approvals */\n      0x04\n      add\n        /* \"2day/MultiSigWallet.sol\":2253:2290  transactions[length -1].approvals = 1 */\n      dup2\n      swap1\n      sstore\n      pop\n        /* \"2day/MultiSigWallet.sol\":2339:2343  true */\n      0x01\n        /* \"2day/MultiSigWallet.sol\":2301:2312  txApprovals */\n      0x04\n        /* \"2day/MultiSigWallet.sol\":2301:2324  txApprovals[length - 1] */\n      0x00\n        /* \"2day/MultiSigWallet.sol\":2322:2323  1 */\n      0x01\n        /* \"2day/MultiSigWallet.sol\":2313:2319  length */\n      dup5\n        /* \"2day/MultiSigWallet.sol\":2313:2323  length - 1 */\n      tag_78\n      swap2\n      swap1\n      tag_74\n      jump\t// in\n    tag_78:\n        /* \"2day/MultiSigWallet.sol\":2301:2324  txApprovals[length - 1] */\n      dup2\n      mstore\n      0x20\n      add\n      swap1\n      dup2\n      mstore\n      0x20\n      add\n      0x00\n      keccak256\n        /* \"2day/MultiSigWallet.sol\":2301:2336  txApprovals[length - 1][msg.sender] */\n      0x00\n        /* \"2day/MultiSigWallet.sol\":2325:2335  msg.sender */\n      caller\n        /* \"2day/MultiSigWallet.sol\":2301:2336  txApprovals[length - 1][msg.sender] */\n      0xffffffffffffffffffffffffffffffffffffffff\n      and\n      0xffffffffffffffffffffffffffffffffffffffff\n      and\n      dup2\n      mstore\n      0x20\n      add\n      swap1\n      dup2\n      mstore\n      0x20\n      add\n      0x00\n      keccak256\n      0x00\n        /* \"2day/MultiSigWallet.sol\":2301:2343  txApprovals[length - 1][msg.sender] = true */\n      0x0100\n      exp\n      dup2\n      sload\n      dup2\n      0xff\n      mul\n      not\n      and\n      swap1\n      dup4\n      iszero\n      iszero\n      mul\n      or\n      swap1\n      sstore\n      pop\n        /* \"2day/MultiSigWallet.sol\":2359:2447  TransactionSubmitted(transactions[transactions.length -1].approvals, _to, _value, _data) */\n      0x3f6db45da5513bd4fe9f8a31e60ea668bdd4bca57e30a85a9a26f90c9fbcb56c\n        /* \"2day/MultiSigWallet.sol\":2380:2392  transactions */\n      0x03\n        /* \"2day/MultiSigWallet.sol\":2414:2415  1 */\n      0x01\n        /* \"2day/MultiSigWallet.sol\":2393:2405  transactions */\n      0x03\n        /* \"2day/MultiSigWallet.sol\":2393:2412  transactions.length */\n      dup1\n      sload\n      swap1\n      pop\n        /* \"2day/MultiSigWallet.sol\":2393:2415  transactions.length -1 */\n      tag_79\n      swap2\n      swap1\n      tag_74\n      jump\t// in\n    tag_79:\n        /* \"2day/MultiSigWallet.sol\":2380:2416  transactions[transactions.length -1] */\n      dup2\n      sload\n      dup2\n      lt\n      tag_80\n      jumpi\n      tag_81\n      tag_43\n      jump\t// in\n    tag_81:\n    tag_80:\n      swap1\n      0x00\n      mstore\n      keccak256(0x00, 0x20)\n      swap1\n      0x05\n      mul\n      add\n        /* \"2day/MultiSigWallet.sol\":2380:2426  transactions[transactions.length -1].approvals */\n      0x04\n      add\n      sload\n        /* \"2day/MultiSigWallet.sol\":2428:2431  _to */\n      dup6\n        /* \"2day/MultiSigWallet.sol\":2433:2439  _value */\n      dup6\n        /* \"2day/MultiSigWallet.sol\":2441:2446  _data */\n      dup6\n        /* \"2day/MultiSigWallet.sol\":2359:2447  TransactionSubmitted(transactions[transactions.length -1].approvals, _to, _value, _data) */\n      mload(0x40)\n      tag_83\n      swap5\n      swap4\n      swap3\n      swap2\n      swap1\n      tag_84\n      jump\t// in\n    tag_83:\n      mload(0x40)\n      dup1\n      swap2\n      sub\n      swap1\n      log1\n        /* \"2day/MultiSigWallet.sol\":1954:2455  {... */\n      pop\n        /* \"2day/MultiSigWallet.sol\":1859:2455  function submitTransaction(address _to, uint256 _value, bytes memory _data) external onlyOwners{... */\n      pop\n      pop\n      pop\n      jump\t// out\n        /* \"2day/MultiSigWallet.sol\":3012:3714  function executeTransaction(uint256 _transID) external onlyOwners{... */\n    tag_36:\n        /* \"2day/MultiSigWallet.sol\":438:445  isOwner */\n      0x01\n        /* \"2day/MultiSigWallet.sol\":438:457  isOwner[msg.sender] */\n      0x00\n        /* \"2day/MultiSigWallet.sol\":446:456  msg.sender */\n      caller\n        /* \"2day/MultiSigWallet.sol\":438:457  isOwner[msg.sender] */\n      0xffffffffffffffffffffffffffffffffffffffff\n      and\n      0xffffffffffffffffffffffffffffffffffffffff\n      and\n      dup2\n      mstore\n      0x20\n      add\n      swap1\n      dup2\n      mstore\n      0x20\n      add\n      0x00\n      keccak256\n      0x00\n      swap1\n      sload\n      swap1\n      0x0100\n      exp\n      swap1\n      div\n      0xff\n      and\n        /* \"2day/MultiSigWallet.sol\":433:503  if (!isOwner[msg.sender]){... */\n      tag_86\n      jumpi\n        /* \"2day/MultiSigWallet.sol\":480:490  NotOwner() */\n      mload(0x40)\n      0x30cd747100000000000000000000000000000000000000000000000000000000\n      dup2\n      mstore\n      0x04\n      add\n      mload(0x40)\n      dup1\n      swap2\n      sub\n      swap1\n      revert\n        /* \"2day/MultiSigWallet.sol\":433:503  if (!isOwner[msg.sender]){... */\n    tag_86:\n        /* \"2day/MultiSigWallet.sol\":3103:3115  transactions */\n      0x03\n        /* \"2day/MultiSigWallet.sol\":3103:3122  transactions.length */\n      dup1\n      sload\n      swap1\n      pop\n        /* \"2day/MultiSigWallet.sol\":3091:3099  _transID */\n      dup2\n        /* \"2day/MultiSigWallet.sol\":3091:3122  _transID >= transactions.length */\n      lt\n        /* \"2day/MultiSigWallet.sol\":3088:3177  if(_transID >= transactions.length){... */\n      tag_88\n      jumpi\n        /* \"2day/MultiSigWallet.sol\":3145:3165  InvalidTransaction() */\n      mload(0x40)\n      0x500a07ce00000000000000000000000000000000000000000000000000000000\n      dup2\n      mstore\n      0x04\n      add\n      mload(0x40)\n      dup1\n      swap2\n      sub\n      swap1\n      revert\n        /* \"2day/MultiSigWallet.sol\":3088:3177  if(_transID >= transactions.length){... */\n    tag_88:\n        /* \"2day/MultiSigWallet.sol\":3191:3203  transactions */\n      0x03\n        /* \"2day/MultiSigWallet.sol\":3204:3212  _transID */\n      dup2\n        /* \"2day/MultiSigWallet.sol\":3191:3213  transactions[_transID] */\n      dup2\n      sload\n      dup2\n      lt\n      tag_89\n      jumpi\n      tag_90\n      tag_43\n      jump\t// in\n    tag_90:\n    tag_89:\n      swap1\n      0x00\n      mstore\n      keccak256(0x00, 0x20)\n      swap1\n      0x05\n      mul\n      add\n        /* \"2day/MultiSigWallet.sol\":3191:3222  transactions[_transID].executed */\n      0x03\n      add\n      0x00\n      swap1\n      sload\n      swap1\n      0x0100\n      exp\n      swap1\n      div\n      0xff\n      and\n        /* \"2day/MultiSigWallet.sol\":3187:3285  if (transactions[_transID].executed){... */\n      iszero\n      tag_92\n      jumpi\n        /* \"2day/MultiSigWallet.sol\":3245:3273  TransactionAlreadyExecuted() */\n      mload(0x40)\n      0xdb5e659b00000000000000000000000000000000000000000000000000000000\n      dup2\n      mstore\n      0x04\n      add\n      mload(0x40)\n      dup1\n      swap2\n      sub\n      swap1\n      revert\n        /* \"2day/MultiSigWallet.sol\":3187:3285  if (transactions[_transID].executed){... */\n    tag_92:\n        /* \"2day/MultiSigWallet.sol\":3334:3351  requiredApprovals */\n      sload(0x02)\n        /* \"2day/MultiSigWallet.sol\":3298:3310  transactions */\n      0x03\n        /* \"2day/MultiSigWallet.sol\":3311:3319  _transID */\n      dup3\n        /* \"2day/MultiSigWallet.sol\":3298:3320  transactions[_transID] */\n      dup2\n      sload\n      dup2\n      lt\n      tag_93\n      jumpi\n      tag_94\n      tag_43\n      jump\t// in\n    tag_94:\n    tag_93:\n      swap1\n      0x00\n      mstore\n      keccak256(0x00, 0x20)\n      swap1\n      0x05\n      mul\n      add\n        /* \"2day/MultiSigWallet.sol\":3298:3330  transactions[_transID].approvals */\n      0x04\n      add\n      sload\n        /* \"2day/MultiSigWallet.sol\":3298:3352  transactions[_transID].approvals < (requiredApprovals) */\n      lt\n        /* \"2day/MultiSigWallet.sol\":3295:3410  if(transactions[_transID].approvals < (requiredApprovals)){... */\n      iszero\n      tag_96\n      jumpi\n        /* \"2day/MultiSigWallet.sol\":3375:3398  InsufficientApprovals() */\n      mload(0x40)\n      0x8af69cf100000000000000000000000000000000000000000000000000000000\n      dup2\n      mstore\n      0x04\n      add\n      mload(0x40)\n      dup1\n      swap2\n      sub\n      swap1\n      revert\n        /* \"2day/MultiSigWallet.sol\":3295:3410  if(transactions[_transID].approvals < (requiredApprovals)){... */\n    tag_96:\n        /* \"2day/MultiSigWallet.sol\":3421:3433  bool success */\n      0x00\n        /* \"2day/MultiSigWallet.sol\":3447:3459  transactions */\n      0x03\n        /* \"2day/MultiSigWallet.sol\":3460:3468  _transID */\n      dup3\n        /* \"2day/MultiSigWallet.sol\":3447:3469  transactions[_transID] */\n      dup2\n      sload\n      dup2\n      lt\n      tag_97\n      jumpi\n      tag_98\n      tag_43\n      jump\t// in\n    tag_98:\n    tag_97:\n      swap1\n      0x00\n      mstore\n      keccak256(0x00, 0x20)\n      swap1\n      0x05\n      mul\n      add\n        /* \"2day/MultiSigWallet.sol\":3447:3472  transactions[_transID].to */\n      0x00\n      add\n      0x00\n      swap1\n      sload\n      swap1\n      0x0100\n      exp\n      swap1\n      div\n      0xffffffffffffffffffffffffffffffffffffffff\n      and\n        /* \"2day/MultiSigWallet.sol\":3439:3478  payable(transactions[_transID].to).call */\n      0xffffffffffffffffffffffffffffffffffffffff\n      and\n        /* \"2day/MultiSigWallet.sol\":3487:3499  transactions */\n      0x03\n        /* \"2day/MultiSigWallet.sol\":3500:3508  _transID */\n      dup4\n        /* \"2day/MultiSigWallet.sol\":3487:3509  transactions[_transID] */\n      dup2\n      sload\n      dup2\n      lt\n      tag_100\n      jumpi\n      tag_101\n      tag_43\n      jump\t// in\n    tag_101:\n    tag_100:\n      swap1\n      0x00\n      mstore\n      keccak256(0x00, 0x20)\n      swap1\n      0x05\n      mul\n      add\n        /* \"2day/MultiSigWallet.sol\":3487:3515  transactions[_transID].value */\n      0x01\n      add\n      sload\n        /* \"2day/MultiSigWallet.sol\":3518:3530  transactions */\n      0x03\n        /* \"2day/MultiSigWallet.sol\":3531:3539  _transID */\n      dup5\n        /* \"2day/MultiSigWallet.sol\":3518:3540  transactions[_transID] */\n      dup2\n      sload\n      dup2\n      lt\n      tag_103\n      jumpi\n      tag_104\n      tag_43\n      jump\t// in\n    tag_104:\n    tag_103:\n      swap1\n      0x00\n      mstore\n      keccak256(0x00, 0x20)\n      swap1\n      0x05\n      mul\n      add\n        /* \"2day/MultiSigWallet.sol\":3518:3545  transactions[_transID].data */\n      0x02\n      add\n        /* \"2day/MultiSigWallet.sol\":3439:3546  payable(transactions[_transID].to).call{ value: transactions[_transID].value }(transactions[_transID].data) */\n      mload(0x40)\n      tag_106\n      swap2\n      swap1\n      tag_107\n      jump\t// in\n    tag_106:\n      0x00\n      mload(0x40)\n      dup1\n      dup4\n      sub\n      dup2\n      dup6\n      dup8\n      gas\n      call\n      swap3\n      pop\n      pop\n      pop\n      returndatasize\n      dup1\n      0x00\n      dup2\n      eq\n      tag_110\n      jumpi\n      mload(0x40)\n      swap2\n      pop\n      and(add(returndatasize, 0x3f), not(0x1f))\n      dup3\n      add\n      0x40\n      mstore\n      returndatasize\n      dup3\n      mstore\n      returndatasize\n      0x00\n      0x20\n      dup5\n      add\n      returndatacopy\n      jump(tag_109)\n    tag_110:\n      0x60\n      swap2\n      pop\n    tag_109:\n      pop\n        /* \"2day/MultiSigWallet.sol\":3420:3546  (bool success, ) = payable(transactions[_transID].to).call{ value: transactions[_transID].value }(transactions[_transID].data) */\n      pop\n      swap1\n      pop\n        /* \"2day/MultiSigWallet.sol\":3562:3569  success */\n      dup1\n        /* \"2day/MultiSigWallet.sol\":3557:3594  if (!success) revert TransferFailed() */\n      tag_111\n      jumpi\n        /* \"2day/MultiSigWallet.sol\":3578:3594  TransferFailed() */\n      mload(0x40)\n      0x90b8ec1800000000000000000000000000000000000000000000000000000000\n      dup2\n      mstore\n      0x04\n      add\n      mload(0x40)\n      dup1\n      swap2\n      sub\n      swap1\n      revert\n        /* \"2day/MultiSigWallet.sol\":3557:3594  if (!success) revert TransferFailed() */\n    tag_111:\n        /* \"2day/MultiSigWallet.sol\":3655:3659  true */\n      0x01\n        /* \"2day/MultiSigWallet.sol\":3621:3633  transactions */\n      0x03\n        /* \"2day/MultiSigWallet.sol\":3634:3642  _transID */\n      dup4\n        /* \"2day/MultiSigWallet.sol\":3621:3643  transactions[_transID] */\n      dup2\n      sload\n      dup2\n      lt\n      tag_112\n      jumpi\n      tag_113\n      tag_43\n      jump\t// in\n    tag_113:\n    tag_112:\n      swap1\n      0x00\n      mstore\n      keccak256(0x00, 0x20)\n      swap1\n      0x05\n      mul\n      add\n        /* \"2day/MultiSigWallet.sol\":3621:3652  transactions[_transID].executed */\n      0x03\n      add\n      0x00\n        /* \"2day/MultiSigWallet.sol\":3621:3659  transactions[_transID].executed = true */\n      0x0100\n      exp\n      dup2\n      sload\n      dup2\n      0xff\n      mul\n      not\n      and\n      swap1\n      dup4\n      iszero\n      iszero\n      mul\n      or\n      swap1\n      sstore\n      pop\n        /* \"2day/MultiSigWallet.sol\":3677:3706  TransactionExecuted(_transID) */\n      0x15ed165a284872ea7017f03df402a0cadfbfab588320ffaf83f160c2f82781c7\n        /* \"2day/MultiSigWallet.sol\":3697:3705  _transID */\n      dup3\n        /* \"2day/MultiSigWallet.sol\":3677:3706  TransactionExecuted(_transID) */\n      mload(0x40)\n      tag_115\n      swap2\n      swap1\n      tag_21\n      jump\t// in\n    tag_115:\n      mload(0x40)\n      dup1\n      swap2\n      sub\n      swap1\n      log1\n        /* \"2day/MultiSigWallet.sol\":3077:3714  {... */\n      pop\n        /* \"2day/MultiSigWallet.sol\":3012:3714  function executeTransaction(uint256 _transID) external onlyOwners{... */\n      pop\n      jump\t// out\n        /* \"#utility.yul\":7:133   */\n    tag_116:\n        /* \"#utility.yul\":44:51   */\n      0x00\n        /* \"#utility.yul\":84:126   */\n      0xffffffffffffffffffffffffffffffffffffffff\n        /* \"#utility.yul\":77:82   */\n      dup3\n        /* \"#utility.yul\":73:127   */\n      and\n        /* \"#utility.yul\":62:127   */\n      swap1\n      pop\n        /* \"#utility.yul\":7:133   */\n      swap2\n      swap1\n      pop\n      jump\t// out\n        /* \"#utility.yul\":139:235   */\n    tag_117:\n        /* \"#utility.yul\":176:183   */\n      0x00\n        /* \"#utility.yul\":205:229   */\n      tag_166\n        /* \"#utility.yul\":223:228   */\n      dup3\n        /* \"#utility.yul\":205:229   */\n      tag_116\n      jump\t// in\n    tag_166:\n        /* \"#utility.yul\":194:229   */\n      swap1\n      pop\n        /* \"#utility.yul\":139:235   */\n      swap2\n      swap1\n      pop\n      jump\t// out\n        /* \"#utility.yul\":241:359   */\n    tag_118:\n        /* \"#utility.yul\":328:352   */\n      tag_168\n        /* \"#utility.yul\":346:351   */\n      dup2\n        /* \"#utility.yul\":328:352   */\n      tag_117\n      jump\t// in\n    tag_168:\n        /* \"#utility.yul\":323:326   */\n      dup3\n        /* \"#utility.yul\":316:353   */\n      mstore\n        /* \"#utility.yul\":241:359   */\n      pop\n      pop\n      jump\t// out\n        /* \"#utility.yul\":365:442   */\n    tag_119:\n        /* \"#utility.yul\":402:409   */\n      0x00\n        /* \"#utility.yul\":431:436   */\n      dup2\n        /* \"#utility.yul\":420:436   */\n      swap1\n      pop\n        /* \"#utility.yul\":365:442   */\n      swap2\n      swap1\n      pop\n      jump\t// out\n        /* \"#utility.yul\":448:566   */\n    tag_120:\n        /* \"#utility.yul\":535:559   */\n      tag_171\n        /* \"#utility.yul\":553:558   */\n      dup2\n        /* \"#utility.yul\":535:559   */\n      tag_119\n      jump\t// in\n    tag_171:\n        /* \"#utility.yul\":530:533   */\n      dup3\n        /* \"#utility.yul\":523:560   */\n      mstore\n        /* \"#utility.yul\":448:566   */\n      pop\n      pop\n      jump\t// out\n        /* \"#utility.yul\":572:904   */\n    tag_11:\n        /* \"#utility.yul\":693:697   */\n      0x00\n        /* \"#utility.yul\":731:733   */\n      0x40\n        /* \"#utility.yul\":720:729   */\n      dup3\n        /* \"#utility.yul\":716:734   */\n      add\n        /* \"#utility.yul\":708:734   */\n      swap1\n      pop\n        /* \"#utility.yul\":744:815   */\n      tag_173\n        /* \"#utility.yul\":812:813   */\n      0x00\n        /* \"#utility.yul\":801:810   */\n      dup4\n        /* \"#utility.yul\":797:814   */\n      add\n        /* \"#utility.yul\":788:794   */\n      dup6\n        /* \"#utility.yul\":744:815   */\n      tag_118\n      jump\t// in\n    tag_173:\n        /* \"#utility.yul\":825:897   */\n      tag_174\n        /* \"#utility.yul\":893:895   */\n      0x20\n        /* \"#utility.yul\":882:891   */\n      dup4\n        /* \"#utility.yul\":878:896   */\n      add\n        /* \"#utility.yul\":869:875   */\n      dup5\n        /* \"#utility.yul\":825:897   */\n      tag_120\n      jump\t// in\n    tag_174:\n        /* \"#utility.yul\":572:904   */\n      swap4\n      swap3\n      pop\n      pop\n      pop\n      jump\t// out\n        /* \"#utility.yul\":910:985   */\n    tag_121:\n        /* \"#utility.yul\":943:949   */\n      0x00\n        /* \"#utility.yul\":976:978   */\n      0x40\n        /* \"#utility.yul\":970:979   */\n      mload\n        /* \"#utility.yul\":960:979   */\n      swap1\n      pop\n        /* \"#utility.yul\":910:985   */\n      swap1\n      jump\t// out\n        /* \"#utility.yul\":991:1108   */\n    tag_122:\n        /* \"#utility.yul\":1100:1101   */\n      0x00\n        /* \"#utility.yul\":1097:1098   */\n      dup1\n        /* \"#utility.yul\":1090:1102   */\n      revert\n        /* \"#utility.yul\":1114:1231   */\n    tag_123:\n        /* \"#utility.yul\":1223:1224   */\n      0x00\n        /* \"#utility.yul\":1220:1221   */\n      dup1\n        /* \"#utility.yul\":1213:1225   */\n      revert\n        /* \"#utility.yul\":1237:1359   */\n    tag_124:\n        /* \"#utility.yul\":1310:1334   */\n      tag_179\n        /* \"#utility.yul\":1328:1333   */\n      dup2\n        /* \"#utility.yul\":1310:1334   */\n      tag_119\n      jump\t// in\n    tag_179:\n        /* \"#utility.yul\":1303:1308   */\n      dup2\n        /* \"#utility.yul\":1300:1335   */\n      eq\n        /* \"#utility.yul\":1290:1353   */\n      tag_180\n      jumpi\n        /* \"#utility.yul\":1349:1350   */\n      0x00\n        /* \"#utility.yul\":1346:1347   */\n      dup1\n        /* \"#utility.yul\":1339:1351   */\n      revert\n        /* \"#utility.yul\":1290:1353   */\n    tag_180:\n        /* \"#utility.yul\":1237:1359   */\n      pop\n      jump\t// out\n        /* \"#utility.yul\":1365:1504   */\n    tag_125:\n        /* \"#utility.yul\":1411:1416   */\n      0x00\n        /* \"#utility.yul\":1449:1455   */\n      dup2\n        /* \"#utility.yul\":1436:1456   */\n      calldataload\n        /* \"#utility.yul\":1427:1456   */\n      swap1\n      pop\n        /* \"#utility.yul\":1465:1498   */\n      tag_182\n        /* \"#utility.yul\":1492:1497   */\n      dup2\n        /* \"#utility.yul\":1465:1498   */\n      tag_124\n      jump\t// in\n    tag_182:\n        /* \"#utility.yul\":1365:1504   */\n      swap3\n      swap2\n      pop\n      pop\n      jump\t// out\n        /* \"#utility.yul\":1510:1839   */\n    tag_15:\n        /* \"#utility.yul\":1569:1575   */\n      0x00\n        /* \"#utility.yul\":1618:1620   */\n      0x20\n        /* \"#utility.yul\":1606:1615   */\n      dup3\n        /* \"#utility.yul\":1597:1604   */\n      dup5\n        /* \"#utility.yul\":1593:1616   */\n      sub\n        /* \"#utility.yul\":1589:1621   */\n      slt\n        /* \"#utility.yul\":1586:1705   */\n      iszero\n      tag_184\n      jumpi\n        /* \"#utility.yul\":1624:1703   */\n      tag_185\n      tag_122\n      jump\t// in\n    tag_185:\n        /* \"#utility.yul\":1586:1705   */\n    tag_184:\n        /* \"#utility.yul\":1744:1745   */\n      0x00\n        /* \"#utility.yul\":1769:1822   */\n      tag_186\n        /* \"#utility.yul\":1814:1821   */\n      dup5\n        /* \"#utility.yul\":1805:1811   */\n      dup3\n        /* \"#utility.yul\":1794:1803   */\n      dup6\n        /* \"#utility.yul\":1790:1812   */\n      add\n        /* \"#utility.yul\":1769:1822   */\n      tag_125\n      jump\t// in\n    tag_186:\n        /* \"#utility.yul\":1759:1822   */\n      swap2\n      pop\n        /* \"#utility.yul\":1715:1832   */\n      pop\n        /* \"#utility.yul\":1510:1839   */\n      swap3\n      swap2\n      pop\n      pop\n      jump\t// out\n        /* \"#utility.yul\":1845:2067   */\n    tag_21:\n        /* \"#utility.yul\":1938:1942   */\n      0x00\n        /* \"#utility.yul\":1976:1978   */\n      0x20\n        /* \"#utility.yul\":1965:1974   */\n      dup3\n        /* \"#utility.yul\":1961:1979   */\n      add\n        /* \"#utility.yul\":1953:1979   */\n      swap1\n      pop\n        /* \"#utility.yul\":1989:2060   */\n      tag_188\n        /* \"#utility.yul\":2057:2058   */\n      0x00\n        /* \"#utility.yul\":2046:2055   */\n      dup4\n        /* \"#utility.yul\":2042:2059   */\n      add\n        /* \"#utility.yul\":2033:2039   */\n      dup5\n        /* \"#utility.yul\":1989:2060   */\n      tag_120\n      jump\t// in\n    tag_188:\n        /* \"#utility.yul\":1845:2067   */\n      swap3\n      swap2\n      pop\n      pop\n      jump\t// out\n        /* \"#utility.yul\":2073:2171   */\n    tag_126:\n        /* \"#utility.yul\":2124:2130   */\n      0x00\n        /* \"#utility.yul\":2158:2163   */\n      dup2\n        /* \"#utility.yul\":2152:2164   */\n      mload\n        /* \"#utility.yul\":2142:2164   */\n      swap1\n      pop\n        /* \"#utility.yul\":2073:2171   */\n      swap2\n      swap1\n      pop\n      jump\t// out\n        /* \"#utility.yul\":2177:2345   */\n    tag_127:\n        /* \"#utility.yul\":2260:2271   */\n      0x00\n        /* \"#utility.yul\":2294:2300   */\n      dup3\n        /* \"#utility.yul\":2289:2292   */\n      dup3\n        /* \"#utility.yul\":2282:2301   */\n      mstore\n        /* \"#utility.yul\":2334:2338   */\n      0x20\n        /* \"#utility.yul\":2329:2332   */\n      dup3\n        /* \"#utility.yul\":2325:2339   */\n      add\n        /* \"#utility.yul\":2310:2339   */\n      swap1\n      pop\n        /* \"#utility.yul\":2177:2345   */\n      swap3\n      swap2\n      pop\n      pop\n      jump\t// out\n        /* \"#utility.yul\":2351:2490   */\n    tag_128:\n        /* \"#utility.yul\":2440:2446   */\n      dup3\n        /* \"#utility.yul\":2435:2438   */\n      dup2\n        /* \"#utility.yul\":2430:2433   */\n      dup4\n        /* \"#utility.yul\":2424:2447   */\n      mcopy\n        /* \"#utility.yul\":2481:2482   */\n      0x00\n        /* \"#utility.yul\":2472:2478   */\n      dup4\n        /* \"#utility.yul\":2467:2470   */\n      dup4\n        /* \"#utility.yul\":2463:2479   */\n      add\n        /* \"#utility.yul\":2456:2483   */\n      mstore\n        /* \"#utility.yul\":2351:2490   */\n      pop\n      pop\n      pop\n      jump\t// out\n        /* \"#utility.yul\":2496:2598   */\n    tag_129:\n        /* \"#utility.yul\":2537:2543   */\n      0x00\n        /* \"#utility.yul\":2588:2590   */\n      0x1f\n        /* \"#utility.yul\":2584:2591   */\n      not\n        /* \"#utility.yul\":2579:2581   */\n      0x1f\n        /* \"#utility.yul\":2572:2577   */\n      dup4\n        /* \"#utility.yul\":2568:2582   */\n      add\n        /* \"#utility.yul\":2564:2592   */\n      and\n        /* \"#utility.yul\":2554:2592   */\n      swap1\n      pop\n        /* \"#utility.yul\":2496:2598   */\n      swap2\n      swap1\n      pop\n      jump\t// out\n        /* \"#utility.yul\":2604:2977   */\n    tag_130:\n        /* \"#utility.yul\":2690:2693   */\n      0x00\n        /* \"#utility.yul\":2718:2756   */\n      tag_194\n        /* \"#utility.yul\":2750:2755   */\n      dup3\n        /* \"#utility.yul\":2718:2756   */\n      tag_126\n      jump\t// in\n    tag_194:\n        /* \"#utility.yul\":2772:2842   */\n      tag_195\n        /* \"#utility.yul\":2835:2841   */\n      dup2\n        /* \"#utility.yul\":2830:2833   */\n      dup6\n        /* \"#utility.yul\":2772:2842   */\n      tag_127\n      jump\t// in\n    tag_195:\n        /* \"#utility.yul\":2765:2842   */\n      swap4\n      pop\n        /* \"#utility.yul\":2851:2916   */\n      tag_196\n        /* \"#utility.yul\":2909:2915   */\n      dup2\n        /* \"#utility.yul\":2904:2907   */\n      dup6\n        /* \"#utility.yul\":2897:2901   */\n      0x20\n        /* \"#utility.yul\":2890:2895   */\n      dup7\n        /* \"#utility.yul\":2886:2902   */\n      add\n        /* \"#utility.yul\":2851:2916   */\n      tag_128\n      jump\t// in\n    tag_196:\n        /* \"#utility.yul\":2941:2970   */\n      tag_197\n        /* \"#utility.yul\":2963:2969   */\n      dup2\n        /* \"#utility.yul\":2941:2970   */\n      tag_129\n      jump\t// in\n    tag_197:\n        /* \"#utility.yul\":2936:2939   */\n      dup5\n        /* \"#utility.yul\":2932:2971   */\n      add\n        /* \"#utility.yul\":2925:2971   */\n      swap2\n      pop\n        /* \"#utility.yul\":2694:2977   */\n      pop\n        /* \"#utility.yul\":2604:2977   */\n      swap3\n      swap2\n      pop\n      pop\n      jump\t// out\n        /* \"#utility.yul\":2983:3073   */\n    tag_131:\n        /* \"#utility.yul\":3017:3024   */\n      0x00\n        /* \"#utility.yul\":3060:3065   */\n      dup2\n        /* \"#utility.yul\":3053:3066   */\n      iszero\n        /* \"#utility.yul\":3046:3067   */\n      iszero\n        /* \"#utility.yul\":3035:3067   */\n      swap1\n      pop\n        /* \"#utility.yul\":2983:3073   */\n      swap2\n      swap1\n      pop\n      jump\t// out\n        /* \"#utility.yul\":3079:3188   */\n    tag_132:\n        /* \"#utility.yul\":3160:3181   */\n      tag_200\n        /* \"#utility.yul\":3175:3180   */\n      dup2\n        /* \"#utility.yul\":3160:3181   */\n      tag_131\n      jump\t// in\n    tag_200:\n        /* \"#utility.yul\":3155:3158   */\n      dup3\n        /* \"#utility.yul\":3148:3182   */\n      mstore\n        /* \"#utility.yul\":3079:3188   */\n      pop\n      pop\n      jump\t// out\n        /* \"#utility.yul\":3194:3933   */\n    tag_27:\n        /* \"#utility.yul\":3411:3415   */\n      0x00\n        /* \"#utility.yul\":3449:3452   */\n      0xa0\n        /* \"#utility.yul\":3438:3447   */\n      dup3\n        /* \"#utility.yul\":3434:3453   */\n      add\n        /* \"#utility.yul\":3426:3453   */\n      swap1\n      pop\n        /* \"#utility.yul\":3463:3534   */\n      tag_202\n        /* \"#utility.yul\":3531:3532   */\n      0x00\n        /* \"#utility.yul\":3520:3529   */\n      dup4\n        /* \"#utility.yul\":3516:3533   */\n      add\n        /* \"#utility.yul\":3507:3513   */\n      dup9\n        /* \"#utility.yul\":3463:3534   */\n      tag_118\n      jump\t// in\n    tag_202:\n        /* \"#utility.yul\":3544:3616   */\n      tag_203\n        /* \"#utility.yul\":3612:3614   */\n      0x20\n        /* \"#utility.yul\":3601:3610   */\n      dup4\n        /* \"#utility.yul\":3597:3615   */\n      add\n        /* \"#utility.yul\":3588:3594   */\n      dup8\n        /* \"#utility.yul\":3544:3616   */\n      tag_120\n      jump\t// in\n    tag_203:\n        /* \"#utility.yul\":3663:3672   */\n      dup2\n        /* \"#utility.yul\":3657:3661   */\n      dup2\n        /* \"#utility.yul\":3653:3673   */\n      sub\n        /* \"#utility.yul\":3648:3650   */\n      0x40\n        /* \"#utility.yul\":3637:3646   */\n      dup4\n        /* \"#utility.yul\":3633:3651   */\n      add\n        /* \"#utility.yul\":3626:3674   */\n      mstore\n        /* \"#utility.yul\":3691:3767   */\n      tag_204\n        /* \"#utility.yul\":3762:3766   */\n      dup2\n        /* \"#utility.yul\":3753:3759   */\n      dup7\n        /* \"#utility.yul\":3691:3767   */\n      tag_130\n      jump\t// in\n    tag_204:\n        /* \"#utility.yul\":3683:3767   */\n      swap1\n      pop\n        /* \"#utility.yul\":3777:3843   */\n      tag_205\n        /* \"#utility.yul\":3839:3841   */\n      0x60\n        /* \"#utility.yul\":3828:3837   */\n      dup4\n        /* \"#utility.yul\":3824:3842   */\n      add\n        /* \"#utility.yul\":3815:3821   */\n      dup6\n        /* \"#utility.yul\":3777:3843   */\n      tag_132\n      jump\t// in\n    tag_205:\n        /* \"#utility.yul\":3853:3926   */\n      tag_206\n        /* \"#utility.yul\":3921:3924   */\n      0x80\n        /* \"#utility.yul\":3910:3919   */\n      dup4\n        /* \"#utility.yul\":3906:3925   */\n      add\n        /* \"#utility.yul\":3897:3903   */\n      dup5\n        /* \"#utility.yul\":3853:3926   */\n      tag_120\n      jump\t// in\n    tag_206:\n        /* \"#utility.yul\":3194:3933   */\n      swap7\n      swap6\n      pop\n      pop\n      pop\n      pop\n      pop\n      pop\n      jump\t// out\n        /* \"#utility.yul\":3939:4061   */\n    tag_133:\n        /* \"#utility.yul\":4012:4036   */\n      tag_208\n        /* \"#utility.yul\":4030:4035   */\n      dup2\n        /* \"#utility.yul\":4012:4036   */\n      tag_117\n      jump\t// in\n    tag_208:\n        /* \"#utility.yul\":4005:4010   */\n      dup2\n        /* \"#utility.yul\":4002:4037   */\n      eq\n        /* \"#utility.yul\":3992:4055   */\n      tag_209\n      jumpi\n        /* \"#utility.yul\":4051:4052   */\n      0x00\n        /* \"#utility.yul\":4048:4049   */\n      dup1\n        /* \"#utility.yul\":4041:4053   */\n      revert\n        /* \"#utility.yul\":3992:4055   */\n    tag_209:\n        /* \"#utility.yul\":3939:4061   */\n      pop\n      jump\t// out\n        /* \"#utility.yul\":4067:4206   */\n    tag_134:\n        /* \"#utility.yul\":4113:4118   */\n      0x00\n        /* \"#utility.yul\":4151:4157   */\n      dup2\n        /* \"#utility.yul\":4138:4158   */\n      calldataload\n        /* \"#utility.yul\":4129:4158   */\n      swap1\n      pop\n        /* \"#utility.yul\":4167:4200   */\n      tag_211\n        /* \"#utility.yul\":4194:4199   */\n      dup2\n        /* \"#utility.yul\":4167:4200   */\n      tag_133\n      jump\t// in\n    tag_211:\n        /* \"#utility.yul\":4067:4206   */\n      swap3\n      swap2\n      pop\n      pop\n      jump\t// out\n        /* \"#utility.yul\":4212:4329   */\n    tag_135:\n        /* \"#utility.yul\":4321:4322   */\n      0x00\n        /* \"#utility.yul\":4318:4319   */\n      dup1\n        /* \"#utility.yul\":4311:4323   */\n      revert\n        /* \"#utility.yul\":4335:4452   */\n    tag_136:\n        /* \"#utility.yul\":4444:4445   */\n      0x00\n        /* \"#utility.yul\":4441:4442   */\n      dup1\n        /* \"#utility.yul\":4434:4446   */\n      revert\n        /* \"#utility.yul\":4458:4638   */\n    tag_137:\n        /* \"#utility.yul\":4506:4583   */\n      0x4e487b7100000000000000000000000000000000000000000000000000000000\n        /* \"#utility.yul\":4503:4504   */\n      0x00\n        /* \"#utility.yul\":4496:4584   */\n      mstore\n        /* \"#utility.yul\":4603:4607   */\n      0x41\n        /* \"#utility.yul\":4600:4601   */\n      0x04\n        /* \"#utility.yul\":4593:4608   */\n      mstore\n        /* \"#utility.yul\":4627:4631   */\n      0x24\n        /* \"#utility.yul\":4624:4625   */\n      0x00\n        /* \"#utility.yul\":4617:4632   */\n      revert\n        /* \"#utility.yul\":4644:4925   */\n    tag_138:\n        /* \"#utility.yul\":4727:4754   */\n      tag_216\n        /* \"#utility.yul\":4749:4753   */\n      dup3\n        /* \"#utility.yul\":4727:4754   */\n      tag_129\n      jump\t// in\n    tag_216:\n        /* \"#utility.yul\":4719:4725   */\n      dup2\n        /* \"#utility.yul\":4715:4755   */\n      add\n        /* \"#utility.yul\":4857:4863   */\n      dup2\n        /* \"#utility.yul\":4845:4855   */\n      dup2\n        /* \"#utility.yul\":4842:4864   */\n      lt\n        /* \"#utility.yul\":4821:4839   */\n      0xffffffffffffffff\n        /* \"#utility.yul\":4809:4819   */\n      dup3\n        /* \"#utility.yul\":4806:4840   */\n      gt\n        /* \"#utility.yul\":4803:4865   */\n      or\n        /* \"#utility.yul\":4800:4888   */\n      iszero\n      tag_217\n      jumpi\n        /* \"#utility.yul\":4868:4886   */\n      tag_218\n      tag_137\n      jump\t// in\n    tag_218:\n        /* \"#utility.yul\":4800:4888   */\n    tag_217:\n        /* \"#utility.yul\":4908:4918   */\n      dup1\n        /* \"#utility.yul\":4904:4906   */\n      0x40\n        /* \"#utility.yul\":4897:4919   */\n      mstore\n        /* \"#utility.yul\":4687:4925   */\n      pop\n        /* \"#utility.yul\":4644:4925   */\n      pop\n      pop\n      jump\t// out\n        /* \"#utility.yul\":4931:5060   */\n    tag_139:\n        /* \"#utility.yul\":4965:4971   */\n      0x00\n        /* \"#utility.yul\":4992:5012   */\n      tag_220\n      tag_121\n      jump\t// in\n    tag_220:\n        /* \"#utility.yul\":4982:5012   */\n      swap1\n      pop\n        /* \"#utility.yul\":5021:5054   */\n      tag_221\n        /* \"#utility.yul\":5049:5053   */\n      dup3\n        /* \"#utility.yul\":5041:5047   */\n      dup3\n        /* \"#utility.yul\":5021:5054   */\n      tag_138\n      jump\t// in\n    tag_221:\n        /* \"#utility.yul\":4931:5060   */\n      swap2\n      swap1\n      pop\n      jump\t// out\n        /* \"#utility.yul\":5066:5373   */\n    tag_140:\n        /* \"#utility.yul\":5127:5131   */\n      0x00\n        /* \"#utility.yul\":5217:5235   */\n      0xffffffffffffffff\n        /* \"#utility.yul\":5209:5215   */\n      dup3\n        /* \"#utility.yul\":5206:5236   */\n      gt\n        /* \"#utility.yul\":5203:5259   */\n      iszero\n      tag_223\n      jumpi\n        /* \"#utility.yul\":5239:5257   */\n      tag_224\n      tag_137\n      jump\t// in\n    tag_224:\n        /* \"#utility.yul\":5203:5259   */\n    tag_223:\n        /* \"#utility.yul\":5277:5306   */\n      tag_225\n        /* \"#utility.yul\":5299:5305   */\n      dup3\n        /* \"#utility.yul\":5277:5306   */\n      tag_129\n      jump\t// in\n    tag_225:\n        /* \"#utility.yul\":5269:5306   */\n      swap1\n      pop\n        /* \"#utility.yul\":5361:5365   */\n      0x20\n        /* \"#utility.yul\":5355:5359   */\n      dup2\n        /* \"#utility.yul\":5351:5366   */\n      add\n        /* \"#utility.yul\":5343:5366   */\n      swap1\n      pop\n        /* \"#utility.yul\":5066:5373   */\n      swap2\n      swap1\n      pop\n      jump\t// out\n        /* \"#utility.yul\":5379:5527   */\n    tag_141:\n        /* \"#utility.yul\":5477:5483   */\n      dup3\n        /* \"#utility.yul\":5472:5475   */\n      dup2\n        /* \"#utility.yul\":5467:5470   */\n      dup4\n        /* \"#utility.yul\":5454:5484   */\n      calldatacopy\n        /* \"#utility.yul\":5518:5519   */\n      0x00\n        /* \"#utility.yul\":5509:5515   */\n      dup4\n        /* \"#utility.yul\":5504:5507   */\n      dup4\n        /* \"#utility.yul\":5500:5516   */\n      add\n        /* \"#utility.yul\":5493:5520   */\n      mstore\n        /* \"#utility.yul\":5379:5527   */\n      pop\n      pop\n      pop\n      jump\t// out\n        /* \"#utility.yul\":5533:5956   */\n    tag_142:\n        /* \"#utility.yul\":5610:5615   */\n      0x00\n        /* \"#utility.yul\":5635:5700   */\n      tag_228\n        /* \"#utility.yul\":5651:5699   */\n      tag_229\n        /* \"#utility.yul\":5692:5698   */\n      dup5\n        /* \"#utility.yul\":5651:5699   */\n      tag_140\n      jump\t// in\n    tag_229:\n        /* \"#utility.yul\":5635:5700   */\n      tag_139\n      jump\t// in\n    tag_228:\n        /* \"#utility.yul\":5626:5700   */\n      swap1\n      pop\n        /* \"#utility.yul\":5723:5729   */\n      dup3\n        /* \"#utility.yul\":5716:5721   */\n      dup2\n        /* \"#utility.yul\":5709:5730   */\n      mstore\n        /* \"#utility.yul\":5761:5765   */\n      0x20\n        /* \"#utility.yul\":5754:5759   */\n      dup2\n        /* \"#utility.yul\":5750:5766   */\n      add\n        /* \"#utility.yul\":5799:5802   */\n      dup5\n        /* \"#utility.yul\":5790:5796   */\n      dup5\n        /* \"#utility.yul\":5785:5788   */\n      dup5\n        /* \"#utility.yul\":5781:5797   */\n      add\n        /* \"#utility.yul\":5778:5803   */\n      gt\n        /* \"#utility.yul\":5775:5887   */\n      iszero\n      tag_230\n      jumpi\n        /* \"#utility.yul\":5806:5885   */\n      tag_231\n      tag_136\n      jump\t// in\n    tag_231:\n        /* \"#utility.yul\":5775:5887   */\n    tag_230:\n        /* \"#utility.yul\":5896:5950   */\n      tag_232\n        /* \"#utility.yul\":5943:5949   */\n      dup5\n        /* \"#utility.yul\":5938:5941   */\n      dup3\n        /* \"#utility.yul\":5933:5936   */\n      dup6\n        /* \"#utility.yul\":5896:5950   */\n      tag_141\n      jump\t// in\n    tag_232:\n        /* \"#utility.yul\":5616:5956   */\n      pop\n        /* \"#utility.yul\":5533:5956   */\n      swap4\n      swap3\n      pop\n      pop\n      pop\n      jump\t// out\n        /* \"#utility.yul\":5975:6313   */\n    tag_143:\n        /* \"#utility.yul\":6030:6035   */\n      0x00\n        /* \"#utility.yul\":6079:6082   */\n      dup3\n        /* \"#utility.yul\":6072:6076   */\n      0x1f\n        /* \"#utility.yul\":6064:6070   */\n      dup4\n        /* \"#utility.yul\":6060:6077   */\n      add\n        /* \"#utility.yul\":6056:6083   */\n      slt\n        /* \"#utility.yul\":6046:6168   */\n      tag_234\n      jumpi\n        /* \"#utility.yul\":6087:6166   */\n      tag_235\n      tag_135\n      jump\t// in\n    tag_235:\n        /* \"#utility.yul\":6046:6168   */\n    tag_234:\n        /* \"#utility.yul\":6204:6210   */\n      dup2\n        /* \"#utility.yul\":6191:6211   */\n      calldataload\n        /* \"#utility.yul\":6229:6307   */\n      tag_236\n        /* \"#utility.yul\":6303:6306   */\n      dup5\n        /* \"#utility.yul\":6295:6301   */\n      dup3\n        /* \"#utility.yul\":6288:6292   */\n      0x20\n        /* \"#utility.yul\":6280:6286   */\n      dup7\n        /* \"#utility.yul\":6276:6293   */\n      add\n        /* \"#utility.yul\":6229:6307   */\n      tag_142\n      jump\t// in\n    tag_236:\n        /* \"#utility.yul\":6220:6307   */\n      swap2\n      pop\n        /* \"#utility.yul\":6036:6313   */\n      pop\n        /* \"#utility.yul\":5975:6313   */\n      swap3\n      swap2\n      pop\n      pop\n      jump\t// out\n        /* \"#utility.yul\":6319:7116   */\n    tag_31:\n        /* \"#utility.yul\":6405:6411   */\n      0x00\n        /* \"#utility.yul\":6413:6419   */\n      dup1\n        /* \"#utility.yul\":6421:6427   */\n      0x00\n        /* \"#utility.yul\":6470:6472   */\n      0x60\n        /* \"#utility.yul\":6458:6467   */\n      dup5\n        /* \"#utility.yul\":6449:6456   */\n      dup7\n        /* \"#utility.yul\":6445:6468   */\n      sub\n        /* \"#utility.yul\":6441:6473   */\n      slt\n        /* \"#utility.yul\":6438:6557   */\n      iszero\n      tag_238\n      jumpi\n        /* \"#utility.yul\":6476:6555   */\n      tag_239\n      tag_122\n      jump\t// in\n    tag_239:\n        /* \"#utility.yul\":6438:6557   */\n    tag_238:\n        /* \"#utility.yul\":6596:6597   */\n      0x00\n        /* \"#utility.yul\":6621:6674   */\n      tag_240\n        /* \"#utility.yul\":6666:6673   */\n      dup7\n        /* \"#utility.yul\":6657:6663   */\n      dup3\n        /* \"#utility.yul\":6646:6655   */\n      dup8\n        /* \"#utility.yul\":6642:6664   */\n      add\n        /* \"#utility.yul\":6621:6674   */\n      tag_134\n      jump\t// in\n    tag_240:\n        /* \"#utility.yul\":6611:6674   */\n      swap4\n      pop\n        /* \"#utility.yul\":6567:6684   */\n      pop\n        /* \"#utility.yul\":6723:6725   */\n      0x20\n        /* \"#utility.yul\":6749:6802   */\n      tag_241\n        /* \"#utility.yul\":6794:6801   */\n      dup7\n        /* \"#utility.yul\":6785:6791   */\n      dup3\n        /* \"#utility.yul\":6774:6783   */\n      dup8\n        /* \"#utility.yul\":6770:6792   */\n      add\n        /* \"#utility.yul\":6749:6802   */\n      tag_125\n      jump\t// in\n    tag_241:\n        /* \"#utility.yul\":6739:6802   */\n      swap3\n      pop\n        /* \"#utility.yul\":6694:6812   */\n      pop\n        /* \"#utility.yul\":6879:6881   */\n      0x40\n        /* \"#utility.yul\":6868:6877   */\n      dup5\n        /* \"#utility.yul\":6864:6882   */\n      add\n        /* \"#utility.yul\":6851:6883   */\n      calldataload\n        /* \"#utility.yul\":6910:6928   */\n      0xffffffffffffffff\n        /* \"#utility.yul\":6902:6908   */\n      dup2\n        /* \"#utility.yul\":6899:6929   */\n      gt\n        /* \"#utility.yul\":6896:7013   */\n      iszero\n      tag_242\n      jumpi\n        /* \"#utility.yul\":6932:7011   */\n      tag_243\n      tag_123\n      jump\t// in\n    tag_243:\n        /* \"#utility.yul\":6896:7013   */\n    tag_242:\n        /* \"#utility.yul\":7037:7099   */\n      tag_244\n        /* \"#utility.yul\":7091:7098   */\n      dup7\n        /* \"#utility.yul\":7082:7088   */\n      dup3\n        /* \"#utility.yul\":7071:7080   */\n      dup8\n        /* \"#utility.yul\":7067:7089   */\n      add\n        /* \"#utility.yul\":7037:7099   */\n      tag_143\n      jump\t// in\n    tag_244:\n        /* \"#utility.yul\":7027:7099   */\n      swap2\n      pop\n        /* \"#utility.yul\":6822:7109   */\n      pop\n        /* \"#utility.yul\":6319:7116   */\n      swap3\n      pop\n      swap3\n      pop\n      swap3\n      jump\t// out\n        /* \"#utility.yul\":7122:7302   */\n    tag_43:\n        /* \"#utility.yul\":7170:7247   */\n      0x4e487b7100000000000000000000000000000000000000000000000000000000\n        /* \"#utility.yul\":7167:7168   */\n      0x00\n        /* \"#utility.yul\":7160:7248   */\n      mstore\n        /* \"#utility.yul\":7267:7271   */\n      0x32\n        /* \"#utility.yul\":7264:7265   */\n      0x04\n        /* \"#utility.yul\":7257:7272   */\n      mstore\n        /* \"#utility.yul\":7291:7295   */\n      0x24\n        /* \"#utility.yul\":7288:7289   */\n      0x00\n        /* \"#utility.yul\":7281:7296   */\n      revert\n        /* \"#utility.yul\":7308:7488   */\n    tag_144:\n        /* \"#utility.yul\":7356:7433   */\n      0x4e487b7100000000000000000000000000000000000000000000000000000000\n        /* \"#utility.yul\":7353:7354   */\n      0x00\n        /* \"#utility.yul\":7346:7434   */\n      mstore\n        /* \"#utility.yul\":7453:7457   */\n      0x11\n        /* \"#utility.yul\":7450:7451   */\n      0x04\n        /* \"#utility.yul\":7443:7458   */\n      mstore\n        /* \"#utility.yul\":7477:7481   */\n      0x24\n        /* \"#utility.yul\":7474:7475   */\n      0x00\n        /* \"#utility.yul\":7467:7482   */\n      revert\n        /* \"#utility.yul\":7494:7685   */\n    tag_51:\n        /* \"#utility.yul\":7534:7537   */\n      0x00\n        /* \"#utility.yul\":7553:7573   */\n      tag_248\n        /* \"#utility.yul\":7571:7572   */\n      dup3\n        /* \"#utility.yul\":7553:7573   */\n      tag_119\n      jump\t// in\n    tag_248:\n        /* \"#utility.yul\":7548:7573   */\n      swap2\n      pop\n        /* \"#utility.yul\":7587:7607   */\n      tag_249\n        /* \"#utility.yul\":7605:7606   */\n      dup4\n        /* \"#utility.yul\":7587:7607   */\n      tag_119\n      jump\t// in\n    tag_249:\n        /* \"#utility.yul\":7582:7607   */\n      swap3\n      pop\n        /* \"#utility.yul\":7630:7631   */\n      dup3\n        /* \"#utility.yul\":7627:7628   */\n      dup3\n        /* \"#utility.yul\":7623:7632   */\n      add\n        /* \"#utility.yul\":7616:7632   */\n      swap1\n      pop\n        /* \"#utility.yul\":7651:7654   */\n      dup1\n        /* \"#utility.yul\":7648:7649   */\n      dup3\n        /* \"#utility.yul\":7645:7655   */\n      gt\n        /* \"#utility.yul\":7642:7678   */\n      iszero\n      tag_250\n      jumpi\n        /* \"#utility.yul\":7658:7676   */\n      tag_251\n      tag_144\n      jump\t// in\n    tag_251:\n        /* \"#utility.yul\":7642:7678   */\n    tag_250:\n        /* \"#utility.yul\":7494:7685   */\n      swap3\n      swap2\n      pop\n      pop\n      jump\t// out\n        /* \"#utility.yul\":7691:8023   */\n    tag_53:\n        /* \"#utility.yul\":7812:7816   */\n      0x00\n        /* \"#utility.yul\":7850:7852   */\n      0x40\n        /* \"#utility.yul\":7839:7848   */\n      dup3\n        /* \"#utility.yul\":7835:7853   */\n      add\n        /* \"#utility.yul\":7827:7853   */\n      swap1\n      pop\n        /* \"#utility.yul\":7863:7934   */\n      tag_253\n        /* \"#utility.yul\":7931:7932   */\n      0x00\n        /* \"#utility.yul\":7920:7929   */\n      dup4\n        /* \"#utility.yul\":7916:7933   */\n      add\n        /* \"#utility.yul\":7907:7913   */\n      dup6\n        /* \"#utility.yul\":7863:7934   */\n      tag_120\n      jump\t// in\n    tag_253:\n        /* \"#utility.yul\":7944:8016   */\n      tag_254\n        /* \"#utility.yul\":8012:8014   */\n      0x20\n        /* \"#utility.yul\":8001:8010   */\n      dup4\n        /* \"#utility.yul\":7997:8015   */\n      add\n        /* \"#utility.yul\":7988:7994   */\n      dup5\n        /* \"#utility.yul\":7944:8016   */\n      tag_118\n      jump\t// in\n    tag_254:\n        /* \"#utility.yul\":7691:8023   */\n      swap4\n      swap3\n      pop\n      pop\n      pop\n      jump\t// out\n        /* \"#utility.yul\":8029:8209   */\n    tag_145:\n        /* \"#utility.yul\":8077:8154   */\n      0x4e487b7100000000000000000000000000000000000000000000000000000000\n        /* \"#utility.yul\":8074:8075   */\n      0x00\n        /* \"#utility.yul\":8067:8155   */\n      mstore\n        /* \"#utility.yul\":8174:8178   */\n      0x22\n        /* \"#utility.yul\":8171:8172   */\n      0x04\n        /* \"#utility.yul\":8164:8179   */\n      mstore\n        /* \"#utility.yul\":8198:8202   */\n      0x24\n        /* \"#utility.yul\":8195:8196   */\n      0x00\n        /* \"#utility.yul\":8188:8203   */\n      revert\n        /* \"#utility.yul\":8215:8535   */\n    tag_60:\n        /* \"#utility.yul\":8259:8265   */\n      0x00\n        /* \"#utility.yul\":8296:8297   */\n      0x02\n        /* \"#utility.yul\":8290:8294   */\n      dup3\n        /* \"#utility.yul\":8286:8298   */\n      div\n        /* \"#utility.yul\":8276:8298   */\n      swap1\n      pop\n        /* \"#utility.yul\":8343:8344   */\n      0x01\n        /* \"#utility.yul\":8337:8341   */\n      dup3\n        /* \"#utility.yul\":8333:8345   */\n      and\n        /* \"#utility.yul\":8364:8382   */\n      dup1\n        /* \"#utility.yul\":8354:8435   */\n      tag_257\n      jumpi\n        /* \"#utility.yul\":8420:8424   */\n      0x7f\n        /* \"#utility.yul\":8412:8418   */\n      dup3\n        /* \"#utility.yul\":8408:8425   */\n      and\n        /* \"#utility.yul\":8398:8425   */\n      swap2\n      pop\n        /* \"#utility.yul\":8354:8435   */\n    tag_257:\n        /* \"#utility.yul\":8482:8484   */\n      0x20\n        /* \"#utility.yul\":8474:8480   */\n      dup3\n        /* \"#utility.yul\":8471:8485   */\n      lt\n        /* \"#utility.yul\":8451:8469   */\n      dup2\n        /* \"#utility.yul\":8448:8486   */\n      sub\n        /* \"#utility.yul\":8445:8529   */\n      tag_258\n      jumpi\n        /* \"#utility.yul\":8501:8519   */\n      tag_259\n      tag_145\n      jump\t// in\n    tag_259:\n        /* \"#utility.yul\":8445:8529   */\n    tag_258:\n        /* \"#utility.yul\":8266:8535   */\n      pop\n        /* \"#utility.yul\":8215:8535   */\n      swap2\n      swap1\n      pop\n      jump\t// out\n        /* \"#utility.yul\":8541:8681   */\n    tag_146:\n        /* \"#utility.yul\":8589:8593   */\n      0x00\n        /* \"#utility.yul\":8612:8615   */\n      dup2\n        /* \"#utility.yul\":8604:8615   */\n      swap1\n      pop\n        /* \"#utility.yul\":8635:8638   */\n      dup2\n        /* \"#utility.yul\":8632:8633   */\n      0x00\n        /* \"#utility.yul\":8625:8639   */\n      mstore\n        /* \"#utility.yul\":8669:8673   */\n      0x20\n        /* \"#utility.yul\":8666:8667   */\n      0x00\n        /* \"#utility.yul\":8656:8674   */\n      keccak256\n        /* \"#utility.yul\":8648:8674   */\n      swap1\n      pop\n        /* \"#utility.yul\":8541:8681   */\n      swap2\n      swap1\n      pop\n      jump\t// out\n        /* \"#utility.yul\":8687:8780   */\n    tag_147:\n        /* \"#utility.yul\":8724:8730   */\n      0x00\n        /* \"#utility.yul\":8771:8773   */\n      0x20\n        /* \"#utility.yul\":8766:8768   */\n      0x1f\n        /* \"#utility.yul\":8759:8764   */\n      dup4\n        /* \"#utility.yul\":8755:8769   */\n      add\n        /* \"#utility.yul\":8751:8774   */\n      div\n        /* \"#utility.yul\":8741:8774   */\n      swap1\n      pop\n        /* \"#utility.yul\":8687:8780   */\n      swap2\n      swap1\n      pop\n      jump\t// out\n        /* \"#utility.yul\":8786:8893   */\n    tag_148:\n        /* \"#utility.yul\":8830:8838   */\n      0x00\n        /* \"#utility.yul\":8880:8885   */\n      dup3\n        /* \"#utility.yul\":8874:8878   */\n      dup3\n        /* \"#utility.yul\":8870:8886   */\n      shl\n        /* \"#utility.yul\":8849:8886   */\n      swap1\n      pop\n        /* \"#utility.yul\":8786:8893   */\n      swap3\n      swap2\n      pop\n      pop\n      jump\t// out\n        /* \"#utility.yul\":8899:9292   */\n    tag_149:\n        /* \"#utility.yul\":8968:8974   */\n      0x00\n        /* \"#utility.yul\":9018:9019   */\n      0x08\n        /* \"#utility.yul\":9006:9016   */\n      dup4\n        /* \"#utility.yul\":9002:9020   */\n      mul\n        /* \"#utility.yul\":9041:9138   */\n      tag_264\n        /* \"#utility.yul\":9071:9137   */\n      0xffffffffffffffffffffffffffffffffffffffffffffffffffffffffffffffff\n        /* \"#utility.yul\":9060:9069   */\n      dup3\n        /* \"#utility.yul\":9041:9138   */\n      tag_148\n      jump\t// in\n    tag_264:\n        /* \"#utility.yul\":9159:9198   */\n      tag_265\n        /* \"#utility.yul\":9189:9197   */\n      dup7\n        /* \"#utility.yul\":9178:9187   */\n      dup4\n        /* \"#utility.yul\":9159:9198   */\n      tag_148\n      jump\t// in\n    tag_265:\n        /* \"#utility.yul\":9147:9198   */\n      swap6\n      pop\n        /* \"#utility.yul\":9231:9235   */\n      dup1\n        /* \"#utility.yul\":9227:9236   */\n      not\n        /* \"#utility.yul\":9220:9225   */\n      dup5\n        /* \"#utility.yul\":9216:9237   */\n      and\n        /* \"#utility.yul\":9207:9237   */\n      swap4\n      pop\n        /* \"#utility.yul\":9280:9284   */\n      dup1\n        /* \"#utility.yul\":9270:9278   */\n      dup7\n        /* \"#utility.yul\":9266:9285   */\n      and\n        /* \"#utility.yul\":9259:9264   */\n      dup5\n        /* \"#utility.yul\":9256:9286   */\n      or\n        /* \"#utility.yul\":9246:9286   */\n      swap3\n      pop\n        /* \"#utility.yul\":8975:9292   */\n      pop\n      pop\n        /* \"#utility.yul\":8899:9292   */\n      swap4\n      swap3\n      pop\n      pop\n      pop\n      jump\t// out\n        /* \"#utility.yul\":9298:9358   */\n    tag_150:\n        /* \"#utility.yul\":9326:9329   */\n      0x00\n        /* \"#utility.yul\":9347:9352   */\n      dup2\n        /* \"#utility.yul\":9340:9352   */\n      swap1\n      pop\n        /* \"#utility.yul\":9298:9358   */\n      swap2\n      swap1\n      pop\n      jump\t// out\n        /* \"#utility.yul\":9364:9506   */\n    tag_151:\n        /* \"#utility.yul\":9414:9423   */\n      0x00\n        /* \"#utility.yul\":9447:9500   */\n      tag_268\n        /* \"#utility.yul\":9465:9499   */\n      tag_269\n        /* \"#utility.yul\":9474:9498   */\n      tag_270\n        /* \"#utility.yul\":9492:9497   */\n      dup5\n        /* \"#utility.yul\":9474:9498   */\n      tag_119\n      jump\t// in\n    tag_270:\n        /* \"#utility.yul\":9465:9499   */\n      tag_150\n      jump\t// in\n    tag_269:\n        /* \"#utility.yul\":9447:9500   */\n      tag_119\n      jump\t// in\n    tag_268:\n        /* \"#utility.yul\":9434:9500   */\n      swap1\n      pop\n        /* \"#utility.yul\":9364:9506   */\n      swap2\n      swap1\n      pop\n      jump\t// out\n        /* \"#utility.yul\":9512:9587   */\n    tag_152:\n        /* \"#utility.yul\":9555:9558   */\n      0x00\n        /* \"#utility.yul\":9576:9581   */\n      dup2\n        /* \"#utility.yul\":9569:9581   */\n      swap1\n      pop\n        /* \"#utility.yul\":9512:9587   */\n      swap2\n      swap1\n      pop\n      jump\t// out\n        /* \"#utility.yul\":9593:9862   */\n    tag_153:\n        /* \"#utility.yul\":9703:9742   */\n      tag_273\n        /* \"#utility.yul\":9734:9741   */\n      dup4\n        /* \"#utility.yul\":9703:9742   */\n      tag_151\n      jump\t// in\n    tag_273:\n        /* \"#utility.yul\":9764:9855   */\n      tag_274\n        /* \"#utility.yul\":9813:9854   */\n      tag_275\n        /* \"#utility.yul\":9837:9853   */\n      dup3\n        /* \"#utility.yul\":9813:9854   */\n      tag_152\n      jump\t// in\n    tag_275:\n        /* \"#utility.yul\":9805:9811   */\n      dup5\n        /* \"#utility.yul\":9798:9802   */\n      dup5\n        /* \"#utility.yul\":9792:9803   */\n      sload\n        /* \"#utility.yul\":9764:9855   */\n      tag_149\n      jump\t// in\n    tag_274:\n        /* \"#utility.yul\":9758:9762   */\n      dup3\n        /* \"#utility.yul\":9751:9856   */\n      sstore\n        /* \"#utility.yul\":9669:9862   */\n      pop\n        /* \"#utility.yul\":9593:9862   */\n      pop\n      pop\n      pop\n      jump\t// out\n        /* \"#utility.yul\":9868:9941   */\n    tag_154:\n        /* \"#utility.yul\":9913:9916   */\n      0x00\n        /* \"#utility.yul\":9868:9941   */\n      swap1\n      jump\t// out\n        /* \"#utility.yul\":9947:10136   */\n    tag_155:\n        /* \"#utility.yul\":10024:10056   */\n      tag_278\n      tag_154\n      jump\t// in\n    tag_278:\n        /* \"#utility.yul\":10065:10130   */\n      tag_279\n        /* \"#utility.yul\":10123:10129   */\n      dup2\n        /* \"#utility.yul\":10115:10121   */\n      dup5\n        /* \"#utility.yul\":10109:10113   */\n      dup5\n        /* \"#utility.yul\":10065:10130   */\n      tag_153\n      jump\t// in\n    tag_279:\n        /* \"#utility.yul\":10000:10136   */\n      pop\n        /* \"#utility.yul\":9947:10136   */\n      pop\n      pop\n      jump\t// out\n        /* \"#utility.yul\":10142:10328   */\n    tag_156:\n        /* \"#utility.yul\":10202:10322   */\n    tag_281:\n        /* \"#utility.yul\":10219:10222   */\n      dup2\n        /* \"#utility.yul\":10212:10217   */\n      dup2\n        /* \"#utility.yul\":10209:10223   */\n      lt\n        /* \"#utility.yul\":10202:10322   */\n      iszero\n      tag_283\n      jumpi\n        /* \"#utility.yul\":10273:10312   */\n      tag_284\n        /* \"#utility.yul\":10310:10311   */\n      0x00\n        /* \"#utility.yul\":10303:10308   */\n      dup3\n        /* \"#utility.yul\":10273:10312   */\n      tag_155\n      jump\t// in\n    tag_284:\n        /* \"#utility.yul\":10246:10247   */\n      0x01\n        /* \"#utility.yul\":10239:10244   */\n      dup2\n        /* \"#utility.yul\":10235:10248   */\n      add\n        /* \"#utility.yul\":10226:10248   */\n      swap1\n      pop\n        /* \"#utility.yul\":10202:10322   */\n      jump(tag_281)\n    tag_283:\n        /* \"#utility.yul\":10142:10328   */\n      pop\n      pop\n      jump\t// out\n        /* \"#utility.yul\":10334:10875   */\n    tag_157:\n        /* \"#utility.yul\":10434:10436   */\n      0x1f\n        /* \"#utility.yul\":10429:10432   */\n      dup3\n        /* \"#utility.yul\":10426:10437   */\n      gt\n        /* \"#utility.yul\":10423:10868   */\n      iszero\n      tag_286\n      jumpi\n        /* \"#utility.yul\":10468:10505   */\n      tag_287\n        /* \"#utility.yul\":10499:10504   */\n      dup2\n        /* \"#utility.yul\":10468:10505   */\n      tag_146\n      jump\t// in\n    tag_287:\n        /* \"#utility.yul\":10551:10580   */\n      tag_288\n        /* \"#utility.yul\":10569:10579   */\n      dup5\n        /* \"#utility.yul\":10551:10580   */\n      tag_147\n      jump\t// in\n    tag_288:\n        /* \"#utility.yul\":10541:10549   */\n      dup2\n        /* \"#utility.yul\":10537:10581   */\n      add\n        /* \"#utility.yul\":10734:10736   */\n      0x20\n        /* \"#utility.yul\":10722:10732   */\n      dup6\n        /* \"#utility.yul\":10719:10737   */\n      lt\n        /* \"#utility.yul\":10716:10765   */\n      iszero\n      tag_289\n      jumpi\n        /* \"#utility.yul\":10755:10763   */\n      dup2\n        /* \"#utility.yul\":10740:10763   */\n      swap1\n      pop\n        /* \"#utility.yul\":10716:10765   */\n    tag_289:\n        /* \"#utility.yul\":10778:10858   */\n      tag_290\n        /* \"#utility.yul\":10834:10856   */\n      tag_291\n        /* \"#utility.yul\":10852:10855   */\n      dup6\n        /* \"#utility.yul\":10834:10856   */\n      tag_147\n      jump\t// in\n    tag_291:\n        /* \"#utility.yul\":10824:10832   */\n      dup4\n        /* \"#utility.yul\":10820:10857   */\n      add\n        /* \"#utility.yul\":10807:10818   */\n      dup3\n        /* \"#utility.yul\":10778:10858   */\n      tag_156\n      jump\t// in\n    tag_290:\n        /* \"#utility.yul\":10438:10868   */\n      pop\n      pop\n        /* \"#utility.yul\":10423:10868   */\n    tag_286:\n        /* \"#utility.yul\":10334:10875   */\n      pop\n      pop\n      pop\n      jump\t// out\n        /* \"#utility.yul\":10881:10998   */\n    tag_158:\n        /* \"#utility.yul\":10935:10943   */\n      0x00\n        /* \"#utility.yul\":10985:10990   */\n      dup3\n        /* \"#utility.yul\":10979:10983   */\n      dup3\n        /* \"#utility.yul\":10975:10991   */\n      shr\n        /* \"#utility.yul\":10954:10991   */\n      swap1\n      pop\n        /* \"#utility.yul\":10881:10998   */\n      swap3\n      swap2\n      pop\n      pop\n      jump\t// out\n        /* \"#utility.yul\":11004:11173   */\n    tag_159:\n        /* \"#utility.yul\":11048:11054   */\n      0x00\n        /* \"#utility.yul\":11081:11132   */\n      tag_294\n        /* \"#utility.yul\":11129:11130   */\n      0x00\n        /* \"#utility.yul\":11125:11131   */\n      not\n        /* \"#utility.yul\":11117:11122   */\n      dup5\n        /* \"#utility.yul\":11114:11115   */\n      0x08\n        /* \"#utility.yul\":11110:11123   */\n      mul\n        /* \"#utility.yul\":11081:11132   */\n      tag_158\n      jump\t// in\n    tag_294:\n        /* \"#utility.yul\":11077:11133   */\n      not\n        /* \"#utility.yul\":11162:11166   */\n      dup1\n        /* \"#utility.yul\":11156:11160   */\n      dup4\n        /* \"#utility.yul\":11152:11167   */\n      and\n        /* \"#utility.yul\":11142:11167   */\n      swap2\n      pop\n        /* \"#utility.yul\":11055:11173   */\n      pop\n        /* \"#utility.yul\":11004:11173   */\n      swap3\n      swap2\n      pop\n      pop\n      jump\t// out\n        /* \"#utility.yul\":11178:11473   */\n    tag_160:\n        /* \"#utility.yul\":11254:11258   */\n      0x00\n        /* \"#utility.yul\":11400:11429   */\n      tag_296\n        /* \"#utility.yul\":11425:11428   */\n      dup4\n        /* \"#utility.yul\":11419:11423   */\n      dup4\n        /* \"#utility.yul\":11400:11429   */\n      tag_159\n      jump\t// in\n    tag_296:\n        /* \"#utility.yul\":11392:11429   */\n      swap2\n      pop\n        /* \"#utility.yul\":11462:11465   */\n      dup3\n        /* \"#utility.yul\":11459:11460   */\n      0x02\n        /* \"#utility.yul\":11455:11466   */\n      mul\n        /* \"#utility.yul\":11449:11453   */\n      dup3\n        /* \"#utility.yul\":11446:11467   */\n      or\n        /* \"#utility.yul\":11438:11467   */\n      swap1\n      pop\n        /* \"#utility.yul\":11178:11473   */\n      swap3\n      swap2\n      pop\n      pop\n      jump\t// out\n        /* \"#utility.yul\":11478:12868   */\n    tag_72:\n        /* \"#utility.yul\":11593:11629   */\n      tag_298\n        /* \"#utility.yul\":11625:11628   */\n      dup3\n        /* \"#utility.yul\":11593:11629   */\n      tag_126\n      jump\t// in\n    tag_298:\n        /* \"#utility.yul\":11694:11712   */\n      0xffffffffffffffff\n        /* \"#utility.yul\":11686:11692   */\n      dup2\n        /* \"#utility.yul\":11683:11713   */\n      gt\n        /* \"#utility.yul\":11680:11736   */\n      iszero\n      tag_299\n      jumpi\n        /* \"#utility.yul\":11716:11734   */\n      tag_300\n      tag_137\n      jump\t// in\n    tag_300:\n        /* \"#utility.yul\":11680:11736   */\n    tag_299:\n        /* \"#utility.yul\":11760:11798   */\n      tag_301\n        /* \"#utility.yul\":11792:11796   */\n      dup3\n        /* \"#utility.yul\":11786:11797   */\n      sload\n        /* \"#utility.yul\":11760:11798   */\n      tag_60\n      jump\t// in\n    tag_301:\n        /* \"#utility.yul\":11845:11911   */\n      tag_302\n        /* \"#utility.yul\":11904:11910   */\n      dup3\n        /* \"#utility.yul\":11896:11902   */\n      dup3\n        /* \"#utility.yul\":11890:11894   */\n      dup6\n        /* \"#utility.yul\":11845:11911   */\n      tag_157\n      jump\t// in\n    tag_302:\n        /* \"#utility.yul\":11938:11939   */\n      0x00\n        /* \"#utility.yul\":11962:11966   */\n      0x20\n        /* \"#utility.yul\":11949:11966   */\n      swap1\n      pop\n        /* \"#utility.yul\":11994:11996   */\n      0x1f\n        /* \"#utility.yul\":11986:11992   */\n      dup4\n        /* \"#utility.yul\":11983:11997   */\n      gt\n        /* \"#utility.yul\":12011:12012   */\n      0x01\n        /* \"#utility.yul\":12006:12623   */\n      dup2\n      eq\n      tag_304\n      jumpi\n        /* \"#utility.yul\":12667:12668   */\n      0x00\n        /* \"#utility.yul\":12684:12690   */\n      dup5\n        /* \"#utility.yul\":12681:12758   */\n      iszero\n      tag_305\n      jumpi\n        /* \"#utility.yul\":12733:12742   */\n      dup3\n        /* \"#utility.yul\":12728:12731   */\n      dup8\n        /* \"#utility.yul\":12724:12743   */\n      add\n        /* \"#utility.yul\":12718:12744   */\n      mload\n        /* \"#utility.yul\":12709:12744   */\n      swap1\n      pop\n        /* \"#utility.yul\":12681:12758   */\n    tag_305:\n        /* \"#utility.yul\":12784:12851   */\n      tag_306\n        /* \"#utility.yul\":12844:12850   */\n      dup6\n        /* \"#utility.yul\":12837:12842   */\n      dup3\n        /* \"#utility.yul\":12784:12851   */\n      tag_160\n      jump\t// in\n    tag_306:\n        /* \"#utility.yul\":12778:12782   */\n      dup7\n        /* \"#utility.yul\":12771:12852   */\n      sstore\n        /* \"#utility.yul\":12640:12862   */\n      pop\n        /* \"#utility.yul\":11976:12862   */\n      jump(tag_303)\n        /* \"#utility.yul\":12006:12623   */\n    tag_304:\n        /* \"#utility.yul\":12058:12062   */\n      0x1f\n        /* \"#utility.yul\":12054:12063   */\n      not\n        /* \"#utility.yul\":12046:12052   */\n      dup5\n        /* \"#utility.yul\":12042:12064   */\n      and\n        /* \"#utility.yul\":12092:12128   */\n      tag_307\n        /* \"#utility.yul\":12123:12127   */\n      dup7\n        /* \"#utility.yul\":12092:12128   */\n      tag_146\n      jump\t// in\n    tag_307:\n        /* \"#utility.yul\":12150:12151   */\n      0x00\n        /* \"#utility.yul\":12164:12372   */\n    tag_308:\n        /* \"#utility.yul\":12178:12185   */\n      dup3\n        /* \"#utility.yul\":12175:12176   */\n      dup2\n        /* \"#utility.yul\":12172:12186   */\n      lt\n        /* \"#utility.yul\":12164:12372   */\n      iszero\n      tag_310\n      jumpi\n        /* \"#utility.yul\":12257:12266   */\n      dup5\n        /* \"#utility.yul\":12252:12255   */\n      dup10\n        /* \"#utility.yul\":12248:12267   */\n      add\n        /* \"#utility.yul\":12242:12268   */\n      mload\n        /* \"#utility.yul\":12234:12240   */\n      dup3\n        /* \"#utility.yul\":12227:12269   */\n      sstore\n        /* \"#utility.yul\":12308:12309   */\n      0x01\n        /* \"#utility.yul\":12300:12306   */\n      dup3\n        /* \"#utility.yul\":12296:12310   */\n      add\n        /* \"#utility.yul\":12286:12310   */\n      swap2\n      pop\n        /* \"#utility.yul\":12355:12357   */\n      0x20\n        /* \"#utility.yul\":12344:12353   */\n      dup6\n        /* \"#utility.yul\":12340:12358   */\n      add\n        /* \"#utility.yul\":12327:12358   */\n      swap5\n      pop\n        /* \"#utility.yul\":12201:12205   */\n      0x20\n        /* \"#utility.yul\":12198:12199   */\n      dup2\n        /* \"#utility.yul\":12194:12206   */\n      add\n        /* \"#utility.yul\":12189:12206   */\n      swap1\n      pop\n        /* \"#utility.yul\":12164:12372   */\n      jump(tag_308)\n    tag_310:\n        /* \"#utility.yul\":12400:12406   */\n      dup7\n        /* \"#utility.yul\":12391:12398   */\n      dup4\n        /* \"#utility.yul\":12388:12407   */\n      lt\n        /* \"#utility.yul\":12385:12564   */\n      iszero\n      tag_311\n      jumpi\n        /* \"#utility.yul\":12458:12467   */\n      dup5\n        /* \"#utility.yul\":12453:12456   */\n      dup10\n        /* \"#utility.yul\":12449:12468   */\n      add\n        /* \"#utility.yul\":12443:12469   */\n      mload\n        /* \"#utility.yul\":12501:12549   */\n      tag_312\n        /* \"#utility.yul\":12543:12547   */\n      0x1f\n        /* \"#utility.yul\":12535:12541   */\n      dup10\n        /* \"#utility.yul\":12531:12548   */\n      and\n        /* \"#utility.yul\":12520:12529   */\n      dup3\n        /* \"#utility.yul\":12501:12549   */\n      tag_159\n      jump\t// in\n    tag_312:\n        /* \"#utility.yul\":12493:12499   */\n      dup4\n        /* \"#utility.yul\":12486:12550   */\n      sstore\n        /* \"#utility.yul\":12408:12564   */\n      pop\n        /* \"#utility.yul\":12385:12564   */\n    tag_311:\n        /* \"#utility.yul\":12610:12611   */\n      0x01\n        /* \"#utility.yul\":12606:12607   */\n      0x02\n        /* \"#utility.yul\":12598:12604   */\n      dup9\n        /* \"#utility.yul\":12594:12608   */\n      mul\n        /* \"#utility.yul\":12590:12612   */\n      add\n        /* \"#utility.yul\":12584:12588   */\n      dup9\n        /* \"#utility.yul\":12577:12613   */\n      sstore\n        /* \"#utility.yul\":12013:12623   */\n      pop\n      pop\n      pop\n        /* \"#utility.yul\":11976:12862   */\n    tag_303:\n      pop\n        /* \"#utility.yul\":11568:12868   */\n      pop\n      pop\n      pop\n        /* \"#utility.yul\":11478:12868   */\n      pop\n      pop\n      jump\t// out\n        /* \"#utility.yul\":12874:13068   */\n    tag_74:\n        /* \"#utility.yul\":12914:12918   */\n      0x00\n        /* \"#utility.yul\":12934:12954   */\n      tag_314\n        /* \"#utility.yul\":12952:12953   */\n      dup3\n        /* \"#utility.yul\":12934:12954   */\n      tag_119\n      jump\t// in\n    tag_314:\n        /* \"#utility.yul\":12929:12954   */\n      swap2\n      pop\n        /* \"#utility.yul\":12968:12988   */\n      tag_315\n        /* \"#utility.yul\":12986:12987   */\n      dup4\n        /* \"#utility.yul\":12968:12988   */\n      tag_119\n      jump\t// in\n    tag_315:\n        /* \"#utility.yul\":12963:12988   */\n      swap3\n      pop\n        /* \"#utility.yul\":13012:13013   */\n      dup3\n        /* \"#utility.yul\":13009:13010   */\n      dup3\n        /* \"#utility.yul\":13005:13014   */\n      sub\n        /* \"#utility.yul\":12997:13014   */\n      swap1\n      pop\n        /* \"#utility.yul\":13036:13037   */\n      dup2\n        /* \"#utility.yul\":13030:13034   */\n      dup2\n        /* \"#utility.yul\":13027:13038   */\n      gt\n        /* \"#utility.yul\":13024:13061   */\n      iszero\n      tag_316\n      jumpi\n        /* \"#utility.yul\":13041:13059   */\n      tag_317\n      tag_144\n      jump\t// in\n    tag_317:\n        /* \"#utility.yul\":13024:13061   */\n    tag_316:\n        /* \"#utility.yul\":12874:13068   */\n      swap3\n      swap2\n      pop\n      pop\n      jump\t// out\n        /* \"#utility.yul\":13074:13714   */\n    tag_84:\n        /* \"#utility.yul\":13269:13273   */\n      0x00\n        /* \"#utility.yul\":13307:13310   */\n      0x80\n        /* \"#utility.yul\":13296:13305   */\n      dup3\n        /* \"#utility.yul\":13292:13311   */\n      add\n        /* \"#utility.yul\":13284:13311   */\n      swap1\n      pop\n        /* \"#utility.yul\":13321:13392   */\n      tag_319\n        /* \"#utility.yul\":13389:13390   */\n      0x00\n        /* \"#utility.yul\":13378:13387   */\n      dup4\n        /* \"#utility.yul\":13374:13391   */\n      add\n        /* \"#utility.yul\":13365:13371   */\n      dup8\n        /* \"#utility.yul\":13321:13392   */\n      tag_120\n      jump\t// in\n    tag_319:\n        /* \"#utility.yul\":13402:13474   */\n      tag_320\n        /* \"#utility.yul\":13470:13472   */\n      0x20\n        /* \"#utility.yul\":13459:13468   */\n      dup4\n        /* \"#utility.yul\":13455:13473   */\n      add\n        /* \"#utility.yul\":13446:13452   */\n      dup7\n        /* \"#utility.yul\":13402:13474   */\n      tag_118\n      jump\t// in\n    tag_320:\n        /* \"#utility.yul\":13484:13556   */\n      tag_321\n        /* \"#utility.yul\":13552:13554   */\n      0x40\n        /* \"#utility.yul\":13541:13550   */\n      dup4\n        /* \"#utility.yul\":13537:13555   */\n      add\n        /* \"#utility.yul\":13528:13534   */\n      dup6\n        /* \"#utility.yul\":13484:13556   */\n      tag_120\n      jump\t// in\n    tag_321:\n        /* \"#utility.yul\":13603:13612   */\n      dup2\n        /* \"#utility.yul\":13597:13601   */\n      dup2\n        /* \"#utility.yul\":13593:13613   */\n      sub\n        /* \"#utility.yul\":13588:13590   */\n      0x60\n        /* \"#utility.yul\":13577:13586   */\n      dup4\n        /* \"#utility.yul\":13573:13591   */\n      add\n        /* \"#utility.yul\":13566:13614   */\n      mstore\n        /* \"#utility.yul\":13631:13707   */\n      tag_322\n        /* \"#utility.yul\":13702:13706   */\n      dup2\n        /* \"#utility.yul\":13693:13699   */\n      dup5\n        /* \"#utility.yul\":13631:13707   */\n      tag_130\n      jump\t// in\n    tag_322:\n        /* \"#utility.yul\":13623:13707   */\n      swap1\n      pop\n        /* \"#utility.yul\":13074:13714   */\n      swap6\n      swap5\n      pop\n      pop\n      pop\n      pop\n      pop\n      jump\t// out\n        /* \"#utility.yul\":13720:13867   */\n    tag_161:\n        /* \"#utility.yul\":13821:13832   */\n      0x00\n        /* \"#utility.yul\":13858:13861   */\n      dup2\n        /* \"#utility.yul\":13843:13861   */\n      swap1\n      pop\n        /* \"#utility.yul\":13720:13867   */\n      swap3\n      swap2\n      pop\n      pop\n      jump\t// out\n        /* \"#utility.yul\":13895:14765   */\n    tag_162:\n        /* \"#utility.yul\":13996:13999   */\n      0x00\n        /* \"#utility.yul\":14033:14038   */\n      dup2\n        /* \"#utility.yul\":14027:14039   */\n      sload\n        /* \"#utility.yul\":14062:14098   */\n      tag_325\n        /* \"#utility.yul\":14088:14097   */\n      dup2\n        /* \"#utility.yul\":14062:14098   */\n      tag_60\n      jump\t// in\n    tag_325:\n        /* \"#utility.yul\":14114:14202   */\n      tag_326\n        /* \"#utility.yul\":14195:14201   */\n      dup2\n        /* \"#utility.yul\":14190:14193   */\n      dup7\n        /* \"#utility.yul\":14114:14202   */\n      tag_161\n      jump\t// in\n    tag_326:\n        /* \"#utility.yul\":14107:14202   */\n      swap5\n      pop\n        /* \"#utility.yul\":14233:14234   */\n      0x01\n        /* \"#utility.yul\":14222:14231   */\n      dup3\n        /* \"#utility.yul\":14218:14235   */\n      and\n        /* \"#utility.yul\":14249:14250   */\n      0x00\n        /* \"#utility.yul\":14244:14410   */\n      dup2\n      eq\n      tag_328\n      jumpi\n        /* \"#utility.yul\":14424:14425   */\n      0x01\n        /* \"#utility.yul\":14419:14759   */\n      dup2\n      eq\n      tag_329\n      jumpi\n        /* \"#utility.yul\":14211:14759   */\n      jump(tag_327)\n        /* \"#utility.yul\":14244:14410   */\n    tag_328:\n        /* \"#utility.yul\":14328:14332   */\n      0xff\n        /* \"#utility.yul\":14324:14333   */\n      not\n        /* \"#utility.yul\":14313:14322   */\n      dup4\n        /* \"#utility.yul\":14309:14334   */\n      and\n        /* \"#utility.yul\":14304:14307   */\n      dup7\n        /* \"#utility.yul\":14297:14335   */\n      mstore\n        /* \"#utility.yul\":14390:14396   */\n      dup2\n        /* \"#utility.yul\":14383:14397   */\n      iszero\n        /* \"#utility.yul\":14376:14398   */\n      iszero\n        /* \"#utility.yul\":14368:14374   */\n      dup3\n        /* \"#utility.yul\":14364:14399   */\n      mul\n        /* \"#utility.yul\":14359:14362   */\n      dup7\n        /* \"#utility.yul\":14355:14400   */\n      add\n        /* \"#utility.yul\":14348:14400   */\n      swap4\n      pop\n        /* \"#utility.yul\":14244:14410   */\n      jump(tag_327)\n        /* \"#utility.yul\":14419:14759   */\n    tag_329:\n        /* \"#utility.yul\":14486:14523   */\n      tag_330\n        /* \"#utility.yul\":14517:14522   */\n      dup6\n        /* \"#utility.yul\":14486:14523   */\n      tag_146\n      jump\t// in\n    tag_330:\n        /* \"#utility.yul\":14545:14546   */\n      0x00\n        /* \"#utility.yul\":14559:14713   */\n    tag_331:\n        /* \"#utility.yul\":14573:14579   */\n      dup4\n        /* \"#utility.yul\":14570:14571   */\n      dup2\n        /* \"#utility.yul\":14567:14580   */\n      lt\n        /* \"#utility.yul\":14559:14713   */\n      iszero\n      tag_333\n      jumpi\n        /* \"#utility.yul\":14647:14654   */\n      dup2\n        /* \"#utility.yul\":14641:14655   */\n      sload\n        /* \"#utility.yul\":14637:14638   */\n      dup2\n        /* \"#utility.yul\":14632:14635   */\n      dup10\n        /* \"#utility.yul\":14628:14639   */\n      add\n        /* \"#utility.yul\":14621:14656   */\n      mstore\n        /* \"#utility.yul\":14697:14698   */\n      0x01\n        /* \"#utility.yul\":14688:14695   */\n      dup3\n        /* \"#utility.yul\":14684:14699   */\n      add\n        /* \"#utility.yul\":14673:14699   */\n      swap2\n      pop\n        /* \"#utility.yul\":14595:14599   */\n      0x20\n        /* \"#utility.yul\":14592:14593   */\n      dup2\n        /* \"#utility.yul\":14588:14600   */\n      add\n        /* \"#utility.yul\":14583:14600   */\n      swap1\n      pop\n        /* \"#utility.yul\":14559:14713   */\n      jump(tag_331)\n    tag_333:\n        /* \"#utility.yul\":14742:14748   */\n      dup4\n        /* \"#utility.yul\":14737:14740   */\n      dup9\n        /* \"#utility.yul\":14733:14749   */\n      add\n        /* \"#utility.yul\":14726:14749   */\n      swap6\n      pop\n        /* \"#utility.yul\":14426:14759   */\n      pop\n      pop\n        /* \"#utility.yul\":14211:14759   */\n    tag_327:\n      pop\n        /* \"#utility.yul\":14000:14765   */\n      pop\n      pop\n        /* \"#utility.yul\":13895:14765   */\n      swap3\n      swap2\n      pop\n      pop\n      jump\t// out\n        /* \"#utility.yul\":14771:15036   */\n    tag_107:\n        /* \"#utility.yul\":14898:14901   */\n      0x00\n        /* \"#utility.yul\":14920:15010   */\n      tag_335\n        /* \"#utility.yul\":15006:15009   */\n      dup3\n        /* \"#utility.yul\":14997:15003   */\n      dup5\n        /* \"#utility.yul\":14920:15010   */\n      tag_162\n      jump\t// in\n    tag_335:\n        /* \"#utility.yul\":14913:15010   */\n      swap2\n      pop\n        /* \"#utility.yul\":15027:15030   */\n      dup2\n        /* \"#utility.yul\":15020:15030   */\n      swap1\n      pop\n        /* \"#utility.yul\":14771:15036   */\n      swap3\n      swap2\n      pop\n      pop\n      jump\t// out\n\n    auxdata: 0xa2646970667358221220214e3ccbddd2821aba406b57f70b67de05de3c8e9e5b2660791e64c6b326fefb64736f6c634300081a0033\n}\n",
				"bytecode": {
					"linkReferences": {},
					"object": "608060405234801561000f575f80fd5b5060405161198038038061198083398181016040528101906100319190610509565b5f82510361006b576040517f49e27cff00000000000000000000000000000000000000000000000000000000815260040160405180910390fd5b815f9080519060200190610080929190610279565b505f5b8251811015610222575f8382815181106100a05761009f610563565b5b602002602001015190505f73ffffffffffffffffffffffffffffffffffffffff168173ffffffffffffffffffffffffffffffffffffffff16148061012a575060015f8273ffffffffffffffffffffffffffffffffffffffff1673ffffffffffffffffffffffffffffffffffffffff1681526020019081526020015f205f9054906101000a900460ff165b15610161576040517f49e27cff00000000000000000000000000000000000000000000000000000000815260040160405180910390fd5b6001805f8373ffffffffffffffffffffffffffffffffffffffff1673ffffffffffffffffffffffffffffffffffffffff1681526020019081526020015f205f6101000a81548160ff0219169083151502179055505f81908060018154018082558091505060019003905f5260205f20015f9091909190916101000a81548173ffffffffffffffffffffffffffffffffffffffff021916908373ffffffffffffffffffffffffffffffffffffffff160217905550508080600101915050610083565b505f81148061023457505f8054905081115b1561026b576040517f1601b89300000000000000000000000000000000000000000000000000000000815260040160405180910390fd5b806002819055505050610590565b828054828255905f5260205f209081019282156102ef579160200282015b828111156102ee578251825f6101000a81548173ffffffffffffffffffffffffffffffffffffffff021916908373ffffffffffffffffffffffffffffffffffffffff16021790555091602001919060010190610297565b5b5090506102fc9190610300565b5090565b5b80821115610317575f815f905550600101610301565b5090565b5f604051905090565b5f80fd5b5f80fd5b5f80fd5b5f601f19601f8301169050919050565b7f4e487b71000000000000000000000000000000000000000000000000000000005f52604160045260245ffd5b61037682610330565b810181811067ffffffffffffffff8211171561039557610394610340565b5b80604052505050565b5f6103a761031b565b90506103b3828261036d565b919050565b5f67ffffffffffffffff8211156103d2576103d1610340565b5b602082029050602081019050919050565b5f80fd5b5f73ffffffffffffffffffffffffffffffffffffffff82169050919050565b5f610410826103e7565b9050919050565b61042081610406565b811461042a575f80fd5b50565b5f8151905061043b81610417565b92915050565b5f61045361044e846103b8565b61039e565b90508083825260208201905060208402830185811115610476576104756103e3565b5b835b8181101561049f578061048b888261042d565b845260208401935050602081019050610478565b5050509392505050565b5f82601f8301126104bd576104bc61032c565b5b81516104cd848260208601610441565b91505092915050565b5f819050919050565b6104e8816104d6565b81146104f2575f80fd5b50565b5f81519050610503816104df565b92915050565b5f806040838503121561051f5761051e610324565b5b5f83015167ffffffffffffffff81111561053c5761053b610328565b5b610548858286016104a9565b9250506020610559858286016104f5565b9150509250929050565b7f4e487b71000000000000000000000000000000000000000000000000000000005f52603260045260245ffd5b6113e38061059d5f395ff3fe60806040526004361061004d575f3560e01c8063242232d1146100915780632e7700f0146100b957806333ea3dc8146100e3578063c642747414610123578063ee22610b1461014b5761008d565b3661008d577fe1fffcc4923d04b559f4d29a8bfc6cda04eb5b0d3c460751c2402c5c5cc9109c3334604051610083929190610bc9565b60405180910390a1005b5f80fd5b34801561009c575f80fd5b506100b760048036038101906100b29190610c2b565b610173565b005b3480156100c4575f80fd5b506100cd610402565b6040516100da9190610c56565b60405180910390f35b3480156100ee575f80fd5b5061010960048036038101906101049190610c2b565b61040e565b60405161011a959493929190610cf9565b60405180910390f35b34801561012e575f80fd5b5061014960048036038101906101449190610ea7565b610517565b005b348015610156575f80fd5b50610171600480360381019061016c9190610c2b565b610851565b005b60015f3373ffffffffffffffffffffffffffffffffffffffff1673ffffffffffffffffffffffffffffffffffffffff1681526020019081526020015f205f9054906101000a900460ff166101f3576040517f30cd747100000000000000000000000000000000000000000000000000000000815260040160405180910390fd5b6003805490508110610231576040517f500a07ce00000000000000000000000000000000000000000000000000000000815260040160405180910390fd5b6003818154811061024557610244610f13565b5b905f5260205f2090600502016003015f9054906101000a900460ff1615610298576040517fdb5e659b00000000000000000000000000000000000000000000000000000000815260040160405180910390fd5b60045f8281526020019081526020015f205f3373ffffffffffffffffffffffffffffffffffffffff1673ffffffffffffffffffffffffffffffffffffffff1681526020019081526020015f205f9054906101000a900460ff1615610328576040517f101f817a00000000000000000000000000000000000000000000000000000000815260040160405180910390fd5b60016003828154811061033e5761033d610f13565b5b905f5260205f2090600502016004015f82825461035b9190610f6d565b92505081905550600160045f8381526020019081526020015f205f3373ffffffffffffffffffffffffffffffffffffffff1673ffffffffffffffffffffffffffffffffffffffff1681526020019081526020015f205f6101000a81548160ff0219169083151502179055507fbe556a88b31b59bf2916d67a1114497febeef512cc2e5fa4ad132f7865c56ac281336040516103f7929190610fa0565b60405180910390a150565b5f600380549050905090565b5f8060605f805f6003878154811061042957610428610f13565b5b905f5260205f2090600502019050805f015f9054906101000a900473ffffffffffffffffffffffffffffffffffffffff16816001015482600201836003015f9054906101000a900460ff16846004015482805461048590610ff4565b80601f01602080910402602001604051908101604052809291908181526020018280546104b190610ff4565b80156104fc5780601f106104d3576101008083540402835291602001916104fc565b820191905f5260205f20905b8154815290600101906020018083116104df57829003601f168201915b50505050509250955095509550955095505091939590929450565b60015f3373ffffffffffffffffffffffffffffffffffffffff1673ffffffffffffffffffffffffffffffffffffffff1681526020019081526020015f205f9054906101000a900460ff16610597576040517f30cd747100000000000000000000000000000000000000000000000000000000815260040160405180910390fd5b5f82036105d0576040517f500a07ce00000000000000000000000000000000000000000000000000000000815260040160405180910390fd5b5f73ffffffffffffffffffffffffffffffffffffffff168373ffffffffffffffffffffffffffffffffffffffff1603610635576040517fe6c4247b00000000000000000000000000000000000000000000000000000000815260040160405180910390fd5b60036040518060a001604052808573ffffffffffffffffffffffffffffffffffffffff1681526020018481526020018381526020015f151581526020016001815250908060018154018082558091505060019003905f5260205f2090600502015f909190919091505f820151815f015f6101000a81548173ffffffffffffffffffffffffffffffffffffffff021916908373ffffffffffffffffffffffffffffffffffffffff16021790555060208201518160010155604082015181600201908161070091906111c1565b506060820151816003015f6101000a81548160ff0219169083151502179055506080820151816004015550505f6003805490509050600160036001836107469190611290565b8154811061075757610756610f13565b5b905f5260205f20906005020160040181905550600160045f60018461077c9190611290565b81526020019081526020015f205f3373ffffffffffffffffffffffffffffffffffffffff1673ffffffffffffffffffffffffffffffffffffffff1681526020019081526020015f205f6101000a81548160ff0219169083151502179055507f3f6db45da5513bd4fe9f8a31e60ea668bdd4bca57e30a85a9a26f90c9fbcb56c6003600160038054905061080f9190611290565b815481106108205761081f610f13565b5b905f5260205f2090600502016004015485858560405161084394939291906112c3565b60405180910390a150505050565b60015f3373ffffffffffffffffffffffffffffffffffffffff1673ffffffffffffffffffffffffffffffffffffffff1681526020019081526020015f205f9054906101000a900460ff166108d1576040517f30cd747100000000000000000000000000000000000000000000000000000000815260040160405180910390fd5b600380549050811061090f576040517f500a07ce00000000000000000000000000000000000000000000000000000000815260040160405180910390fd5b6003818154811061092357610922610f13565b5b905f5260205f2090600502016003015f9054906101000a900460ff1615610976576040517fdb5e659b00000000000000000000000000000000000000000000000000000000815260040160405180910390fd5b6002546003828154811061098d5761098c610f13565b5b905f5260205f2090600502016004015410156109d5576040517f8af69cf100000000000000000000000000000000000000000000000000000000815260040160405180910390fd5b5f600382815481106109ea576109e9610f13565b5b905f5260205f2090600502015f015f9054906101000a900473ffffffffffffffffffffffffffffffffffffffff1673ffffffffffffffffffffffffffffffffffffffff1660038381548110610a4257610a41610f13565b5b905f5260205f2090600502016001015460038481548110610a6657610a65610f13565b5b905f5260205f209060050201600201604051610a829190611397565b5f6040518083038185875af1925050503d805f8114610abc576040519150601f19603f3d011682016040523d82523d5f602084013e610ac1565b606091505b5050905080610afc576040517f90b8ec1800000000000000000000000000000000000000000000000000000000815260040160405180910390fd5b600160038381548110610b1257610b11610f13565b5b905f5260205f2090600502016003015f6101000a81548160ff0219169083151502179055507f15ed165a284872ea7017f03df402a0cadfbfab588320ffaf83f160c2f82781c782604051610b669190610c56565b60405180910390a15050565b5f73ffffffffffffffffffffffffffffffffffffffff82169050919050565b5f610b9b82610b72565b9050919050565b610bab81610b91565b82525050565b5f819050919050565b610bc381610bb1565b82525050565b5f604082019050610bdc5f830185610ba2565b610be96020830184610bba565b9392505050565b5f604051905090565b5f80fd5b5f80fd5b610c0a81610bb1565b8114610c14575f80fd5b50565b5f81359050610c2581610c01565b92915050565b5f60208284031215610c4057610c3f610bf9565b5b5f610c4d84828501610c17565b91505092915050565b5f602082019050610c695f830184610bba565b92915050565b5f81519050919050565b5f82825260208201905092915050565b8281835e5f83830152505050565b5f601f19601f8301169050919050565b5f610cb182610c6f565b610cbb8185610c79565b9350610ccb818560208601610c89565b610cd481610c97565b840191505092915050565b5f8115159050919050565b610cf381610cdf565b82525050565b5f60a082019050610d0c5f830188610ba2565b610d196020830187610bba565b8181036040830152610d2b8186610ca7565b9050610d3a6060830185610cea565b610d476080830184610bba565b9695505050505050565b610d5a81610b91565b8114610d64575f80fd5b50565b5f81359050610d7581610d51565b92915050565b5f80fd5b5f80fd5b7f4e487b71000000000000000000000000000000000000000000000000000000005f52604160045260245ffd5b610db982610c97565b810181811067ffffffffffffffff82111715610dd857610dd7610d83565b5b80604052505050565b5f610dea610bf0565b9050610df68282610db0565b919050565b5f67ffffffffffffffff821115610e1557610e14610d83565b5b610e1e82610c97565b9050602081019050919050565b828183375f83830152505050565b5f610e4b610e4684610dfb565b610de1565b905082815260208101848484011115610e6757610e66610d7f565b5b610e72848285610e2b565b509392505050565b5f82601f830112610e8e57610e8d610d7b565b5b8135610e9e848260208601610e39565b91505092915050565b5f805f60608486031215610ebe57610ebd610bf9565b5b5f610ecb86828701610d67565b9350506020610edc86828701610c17565b925050604084013567ffffffffffffffff811115610efd57610efc610bfd565b5b610f0986828701610e7a565b9150509250925092565b7f4e487b71000000000000000000000000000000000000000000000000000000005f52603260045260245ffd5b7f4e487b71000000000000000000000000000000000000000000000000000000005f52601160045260245ffd5b5f610f7782610bb1565b9150610f8283610bb1565b9250828201905080821115610f9a57610f99610f40565b5b92915050565b5f604082019050610fb35f830185610bba565b610fc06020830184610ba2565b9392505050565b7f4e487b71000000000000000000000000000000000000000000000000000000005f52602260045260245ffd5b5f600282049050600182168061100b57607f821691505b60208210810361101e5761101d610fc7565b5b50919050565b5f819050815f5260205f209050919050565b5f6020601f8301049050919050565b5f82821b905092915050565b5f600883026110807fffffffffffffffffffffffffffffffffffffffffffffffffffffffffffffffff82611045565b61108a8683611045565b95508019841693508086168417925050509392505050565b5f819050919050565b5f6110c56110c06110bb84610bb1565b6110a2565b610bb1565b9050919050565b5f819050919050565b6110de836110ab565b6110f26110ea826110cc565b848454611051565b825550505050565b5f90565b6111066110fa565b6111118184846110d5565b505050565b5b81811015611134576111295f826110fe565b600181019050611117565b5050565b601f8211156111795761114a81611024565b61115384611036565b81016020851015611162578190505b61117661116e85611036565b830182611116565b50505b505050565b5f82821c905092915050565b5f6111995f198460080261117e565b1980831691505092915050565b5f6111b1838361118a565b9150826002028217905092915050565b6111ca82610c6f565b67ffffffffffffffff8111156111e3576111e2610d83565b5b6111ed8254610ff4565b6111f8828285611138565b5f60209050601f831160018114611229575f8415611217578287015190505b61122185826111a6565b865550611288565b601f19841661123786611024565b5f5b8281101561125e57848901518255600182019150602085019450602081019050611239565b8683101561127b5784890151611277601f89168261118a565b8355505b6001600288020188555050505b505050505050565b5f61129a82610bb1565b91506112a583610bb1565b92508282039050818111156112bd576112bc610f40565b5b92915050565b5f6080820190506112d65f830187610bba565b6112e36020830186610ba2565b6112f06040830185610bba565b81810360608301526113028184610ca7565b905095945050505050565b5f81905092915050565b5f815461132381610ff4565b61132d818661130d565b9450600182165f8114611347576001811461135c5761138e565b60ff198316865281151582028601935061138e565b61136585611024565b5f5b8381101561138657815481890152600182019150602081019050611367565b838801955050505b50505092915050565b5f6113a28284611317565b91508190509291505056fea2646970667358221220214e3ccbddd2821aba406b57f70b67de05de3c8e9e5b2660791e64c6b326fefb64736f6c634300081a0033",
					"opcodes": "PUSH1 0x80 PUSH1 0x40 MSTORE CALLVALUE DUP1 ISZERO PUSH2 0xF JUMPI PUSH0 DUP1 REVERT JUMPDEST POP PUSH1 0x40 MLOAD PUSH2 0x1980 CODESIZE SUB DUP1 PUSH2 0x1980 DUP4 CODECOPY DUP2 DUP2 ADD PUSH1 0x40 MSTORE DUP2 ADD SWAP1 PUSH2 0x31 SWAP2 SWAP1 PUSH2 0x509 JUMP JUMPDEST PUSH0 DUP3 MLOAD SUB PUSH2 0x6B JUMPI PUSH1 0x40 MLOAD PUSH32 0x49E27CFF00000000000000000000000000000000000000000000000000000000 DUP2 MSTORE PUSH1 0x4 ADD PUSH1 0x40 MLOAD DUP1 SWAP2 SUB SWAP1 REVERT JUMPDEST DUP2 PUSH0 SWAP1 DUP1 MLOAD SWAP1 PUSH1 0x20 ADD SWAP1 PUSH2 0x80 SWAP3 SWAP2 SWAP1 PUSH2 0x279 JUMP JUMPDEST POP PUSH0 JUMPDEST DUP3 MLOAD DUP2 LT ISZERO PUSH2 0x222 JUMPI PUSH0 DUP4 DUP3 DUP2 MLOAD DUP2 LT PUSH2 0xA0 JUMPI PUSH2 0x9F PUSH2 0x563 JUMP JUMPDEST JUMPDEST PUSH1 0x20 MUL PUSH1 0x20 ADD ADD MLOAD SWAP1 POP PUSH0 PUSH20 0xFFFFFFFFFFFFFFFFFFFFFFFFFFFFFFFFFFFFFFFF AND DUP2 PUSH20 0xFFFFFFFFFFFFFFFFFFFFFFFFFFFFFFFFFFFFFFFF AND EQ DUP1 PUSH2 0x12A JUMPI POP PUSH1 0x1 PUSH0 DUP3 PUSH20 0xFFFFFFFFFFFFFFFFFFFFFFFFFFFFFFFFFFFFFFFF AND PUSH20 0xFFFFFFFFFFFFFFFFFFFFFFFFFFFFFFFFFFFFFFFF AND DUP2 MSTORE PUSH1 0x20 ADD SWAP1 DUP2 MSTORE PUSH1 0x20 ADD PUSH0 KECCAK256 PUSH0 SWAP1 SLOAD SWAP1 PUSH2 0x100 EXP SWAP1 DIV PUSH1 0xFF AND JUMPDEST ISZERO PUSH2 0x161 JUMPI PUSH1 0x40 MLOAD PUSH32 0x49E27CFF00000000000000000000000000000000000000000000000000000000 DUP2 MSTORE PUSH1 0x4 ADD PUSH1 0x40 MLOAD DUP1 SWAP2 SUB SWAP1 REVERT JUMPDEST PUSH1 0x1 DUP1 PUSH0 DUP4 PUSH20 0xFFFFFFFFFFFFFFFFFFFFFFFFFFFFFFFFFFFFFFFF AND PUSH20 0xFFFFFFFFFFFFFFFFFFFFFFFFFFFFFFFFFFFFFFFF AND DUP2 MSTORE PUSH1 0x20 ADD SWAP1 DUP2 MSTORE PUSH1 0x20 ADD PUSH0 KECCAK256 PUSH0 PUSH2 0x100 EXP DUP2 SLOAD DUP2 PUSH1 0xFF MUL NOT AND SWAP1 DUP4 ISZERO ISZERO MUL OR SWAP1 SSTORE POP PUSH0 DUP2 SWAP1 DUP1 PUSH1 0x1 DUP2 SLOAD ADD DUP1 DUP3 SSTORE DUP1 SWAP2 POP POP PUSH1 0x1 SWAP1 SUB SWAP1 PUSH0 MSTORE PUSH1 0x20 PUSH0 KECCAK256 ADD PUSH0 SWAP1 SWAP2 SWAP1 SWAP2 SWAP1 SWAP2 PUSH2 0x100 EXP DUP2 SLOAD DUP2 PUSH20 0xFFFFFFFFFFFFFFFFFFFFFFFFFFFFFFFFFFFFFFFF MUL NOT AND SWAP1 DUP4 PUSH20 0xFFFFFFFFFFFFFFFFFFFFFFFFFFFFFFFFFFFFFFFF AND MUL OR SWAP1 SSTORE POP POP DUP1 DUP1 PUSH1 0x1 ADD SWAP2 POP POP PUSH2 0x83 JUMP JUMPDEST POP PUSH0 DUP2 EQ DUP1 PUSH2 0x234 JUMPI POP PUSH0 DUP1 SLOAD SWAP1 POP DUP2 GT JUMPDEST ISZERO PUSH2 0x26B JUMPI PUSH1 0x40 MLOAD PUSH32 0x1601B89300000000000000000000000000000000000000000000000000000000 DUP2 MSTORE PUSH1 0x4 ADD PUSH1 0x40 MLOAD DUP1 SWAP2 SUB SWAP1 REVERT JUMPDEST DUP1 PUSH1 0x2 DUP2 SWAP1 SSTORE POP POP POP PUSH2 0x590 JUMP JUMPDEST DUP3 DUP1 SLOAD DUP3 DUP3 SSTORE SWAP1 PUSH0 MSTORE PUSH1 0x20 PUSH0 KECCAK256 SWAP1 DUP2 ADD SWAP3 DUP3 ISZERO PUSH2 0x2EF JUMPI SWAP2 PUSH1 0x20 MUL DUP3 ADD JUMPDEST DUP3 DUP2 GT ISZERO PUSH2 0x2EE JUMPI DUP3 MLOAD DUP3 PUSH0 PUSH2 0x100 EXP DUP2 SLOAD DUP2 PUSH20 0xFFFFFFFFFFFFFFFFFFFFFFFFFFFFFFFFFFFFFFFF MUL NOT AND SWAP1 DUP4 PUSH20 0xFFFFFFFFFFFFFFFFFFFFFFFFFFFFFFFFFFFFFFFF AND MUL OR SWAP1 SSTORE POP SWAP2 PUSH1 0x20 ADD SWAP2 SWAP1 PUSH1 0x1 ADD SWAP1 PUSH2 0x297 JUMP JUMPDEST JUMPDEST POP SWAP1 POP PUSH2 0x2FC SWAP2 SWAP1 PUSH2 0x300 JUMP JUMPDEST POP SWAP1 JUMP JUMPDEST JUMPDEST DUP1 DUP3 GT ISZERO PUSH2 0x317 JUMPI PUSH0 DUP2 PUSH0 SWAP1 SSTORE POP PUSH1 0x1 ADD PUSH2 0x301 JUMP JUMPDEST POP SWAP1 JUMP JUMPDEST PUSH0 PUSH1 0x40 MLOAD SWAP1 POP SWAP1 JUMP JUMPDEST PUSH0 DUP1 REVERT JUMPDEST PUSH0 DUP1 REVERT JUMPDEST PUSH0 DUP1 REVERT JUMPDEST PUSH0 PUSH1 0x1F NOT PUSH1 0x1F DUP4 ADD AND SWAP1 POP SWAP2 SWAP1 POP JUMP JUMPDEST PUSH32 0x4E487B7100000000000000000000000000000000000000000000000000000000 PUSH0 MSTORE PUSH1 0x41 PUSH1 0x4 MSTORE PUSH1 0x24 PUSH0 REVERT JUMPDEST PUSH2 0x376 DUP3 PUSH2 0x330 JUMP JUMPDEST DUP2 ADD DUP2 DUP2 LT PUSH8 0xFFFFFFFFFFFFFFFF DUP3 GT OR ISZERO PUSH2 0x395 JUMPI PUSH2 0x394 PUSH2 0x340 JUMP JUMPDEST JUMPDEST DUP1 PUSH1 0x40 MSTORE POP POP POP JUMP JUMPDEST PUSH0 PUSH2 0x3A7 PUSH2 0x31B JUMP JUMPDEST SWAP1 POP PUSH2 0x3B3 DUP3 DUP3 PUSH2 0x36D JUMP JUMPDEST SWAP2 SWAP1 POP JUMP JUMPDEST PUSH0 PUSH8 0xFFFFFFFFFFFFFFFF DUP3 GT ISZERO PUSH2 0x3D2 JUMPI PUSH2 0x3D1 PUSH2 0x340 JUMP JUMPDEST JUMPDEST PUSH1 0x20 DUP3 MUL SWAP1 POP PUSH1 0x20 DUP2 ADD SWAP1 POP SWAP2 SWAP1 POP JUMP JUMPDEST PUSH0 DUP1 REVERT JUMPDEST PUSH0 PUSH20 0xFFFFFFFFFFFFFFFFFFFFFFFFFFFFFFFFFFFFFFFF DUP3 AND SWAP1 POP SWAP2 SWAP1 POP JUMP JUMPDEST PUSH0 PUSH2 0x410 DUP3 PUSH2 0x3E7 JUMP JUMPDEST SWAP1 POP SWAP2 SWAP1 POP JUMP JUMPDEST PUSH2 0x420 DUP2 PUSH2 0x406 JUMP JUMPDEST DUP2 EQ PUSH2 0x42A JUMPI PUSH0 DUP1 REVERT JUMPDEST POP JUMP JUMPDEST PUSH0 DUP2 MLOAD SWAP1 POP PUSH2 0x43B DUP2 PUSH2 0x417 JUMP JUMPDEST SWAP3 SWAP2 POP POP JUMP JUMPDEST PUSH0 PUSH2 0x453 PUSH2 0x44E DUP5 PUSH2 0x3B8 JUMP JUMPDEST PUSH2 0x39E JUMP JUMPDEST SWAP1 POP DUP1 DUP4 DUP3 MSTORE PUSH1 0x20 DUP3 ADD SWAP1 POP PUSH1 0x20 DUP5 MUL DUP4 ADD DUP6 DUP2 GT ISZERO PUSH2 0x476 JUMPI PUSH2 0x475 PUSH2 0x3E3 JUMP JUMPDEST JUMPDEST DUP4 JUMPDEST DUP2 DUP2 LT ISZERO PUSH2 0x49F JUMPI DUP1 PUSH2 0x48B DUP9 DUP3 PUSH2 0x42D JUMP JUMPDEST DUP5 MSTORE PUSH1 0x20 DUP5 ADD SWAP4 POP POP PUSH1 0x20 DUP2 ADD SWAP1 POP PUSH2 0x478 JUMP JUMPDEST POP POP POP SWAP4 SWAP3 POP POP POP JUMP JUMPDEST PUSH0 DUP3 PUSH1 0x1F DUP4 ADD SLT PUSH2 0x4BD JUMPI PUSH2 0x4BC PUSH2 0x32C JUMP JUMPDEST JUMPDEST DUP2 MLOAD PUSH2 0x4CD DUP5 DUP3 PUSH1 0x20 DUP7 ADD PUSH2 0x441 JUMP JUMPDEST SWAP2 POP POP SWAP3 SWAP2 POP POP JUMP JUMPDEST PUSH0 DUP2 SWAP1 POP SWAP2 SWAP1 POP JUMP JUMPDEST PUSH2 0x4E8 DUP2 PUSH2 0x4D6 JUMP JUMPDEST DUP2 EQ PUSH2 0x4F2 JUMPI PUSH0 DUP1 REVERT JUMPDEST POP JUMP JUMPDEST PUSH0 DUP2 MLOAD SWAP1 POP PUSH2 0x503 DUP2 PUSH2 0x4DF JUMP JUMPDEST SWAP3 SWAP2 POP POP JUMP JUMPDEST PUSH0 DUP1 PUSH1 0x40 DUP4 DUP6 SUB SLT ISZERO PUSH2 0x51F JUMPI PUSH2 0x51E PUSH2 0x324 JUMP JUMPDEST JUMPDEST PUSH0 DUP4 ADD MLOAD PUSH8 0xFFFFFFFFFFFFFFFF DUP2 GT ISZERO PUSH2 0x53C JUMPI PUSH2 0x53B PUSH2 0x328 JUMP JUMPDEST JUMPDEST PUSH2 0x548 DUP6 DUP3 DUP7 ADD PUSH2 0x4A9 JUMP JUMPDEST SWAP3 POP POP PUSH1 0x20 PUSH2 0x559 DUP6 DUP3 DUP7 ADD PUSH2 0x4F5 JUMP JUMPDEST SWAP2 POP POP SWAP3 POP SWAP3 SWAP1 POP JUMP JUMPDEST PUSH32 0x4E487B7100000000000000000000000000000000000000000000000000000000 PUSH0 MSTORE PUSH1 0x32 PUSH1 0x4 MSTORE PUSH1 0x24 PUSH0 REVERT JUMPDEST PUSH2 0x13E3 DUP1 PUSH2 0x59D PUSH0 CODECOPY PUSH0 RETURN INVALID PUSH1 0x80 PUSH1 0x40 MSTORE PUSH1 0x4 CALLDATASIZE LT PUSH2 0x4D JUMPI PUSH0 CALLDATALOAD PUSH1 0xE0 SHR DUP1 PUSH4 0x242232D1 EQ PUSH2 0x91 JUMPI DUP1 PUSH4 0x2E7700F0 EQ PUSH2 0xB9 JUMPI DUP1 PUSH4 0x33EA3DC8 EQ PUSH2 0xE3 JUMPI DUP1 PUSH4 0xC6427474 EQ PUSH2 0x123 JUMPI DUP1 PUSH4 0xEE22610B EQ PUSH2 0x14B JUMPI PUSH2 0x8D JUMP JUMPDEST CALLDATASIZE PUSH2 0x8D JUMPI PUSH32 0xE1FFFCC4923D04B559F4D29A8BFC6CDA04EB5B0D3C460751C2402C5C5CC9109C CALLER CALLVALUE PUSH1 0x40 MLOAD PUSH2 0x83 SWAP3 SWAP2 SWAP1 PUSH2 0xBC9 JUMP JUMPDEST PUSH1 0x40 MLOAD DUP1 SWAP2 SUB SWAP1 LOG1 STOP JUMPDEST PUSH0 DUP1 REVERT JUMPDEST CALLVALUE DUP1 ISZERO PUSH2 0x9C JUMPI PUSH0 DUP1 REVERT JUMPDEST POP PUSH2 0xB7 PUSH1 0x4 DUP1 CALLDATASIZE SUB DUP2 ADD SWAP1 PUSH2 0xB2 SWAP2 SWAP1 PUSH2 0xC2B JUMP JUMPDEST PUSH2 0x173 JUMP JUMPDEST STOP JUMPDEST CALLVALUE DUP1 ISZERO PUSH2 0xC4 JUMPI PUSH0 DUP1 REVERT JUMPDEST POP PUSH2 0xCD PUSH2 0x402 JUMP JUMPDEST PUSH1 0x40 MLOAD PUSH2 0xDA SWAP2 SWAP1 PUSH2 0xC56 JUMP JUMPDEST PUSH1 0x40 MLOAD DUP1 SWAP2 SUB SWAP1 RETURN JUMPDEST CALLVALUE DUP1 ISZERO PUSH2 0xEE JUMPI PUSH0 DUP1 REVERT JUMPDEST POP PUSH2 0x109 PUSH1 0x4 DUP1 CALLDATASIZE SUB DUP2 ADD SWAP1 PUSH2 0x104 SWAP2 SWAP1 PUSH2 0xC2B JUMP JUMPDEST PUSH2 0x40E JUMP JUMPDEST PUSH1 0x40 MLOAD PUSH2 0x11A SWAP6 SWAP5 SWAP4 SWAP3 SWAP2 SWAP1 PUSH2 0xCF9 JUMP JUMPDEST PUSH1 0x40 MLOAD DUP1 SWAP2 SUB SWAP1 RETURN JUMPDEST CALLVALUE DUP1 ISZERO PUSH2 0x12E JUMPI PUSH0 DUP1 REVERT JUMPDEST POP PUSH2 0x149 PUSH1 0x4 DUP1 CALLDATASIZE SUB DUP2 ADD SWAP1 PUSH2 0x144 SWAP2 SWAP1 PUSH2 0xEA7 JUMP JUMPDEST PUSH2 0x517 JUMP JUMPDEST STOP JUMPDEST CALLVALUE DUP1 ISZERO PUSH2 0x156 JUMPI PUSH0 DUP1 REVERT JUMPDEST POP PUSH2 0x171 PUSH1 0x4 DUP1 CALLDATASIZE SUB DUP2 ADD SWAP1 PUSH2 0x16C SWAP2 SWAP1 PUSH2 0xC2B JUMP JUMPDEST PUSH2 0x851 JUMP JUMPDEST STOP JUMPDEST PUSH1 0x1 PUSH0 CALLER PUSH20 0xFFFFFFFFFFFFFFFFFFFFFFFFFFFFFFFFFFFFFFFF AND PUSH20 0xFFFFFFFFFFFFFFFFFFFFFFFFFFFFFFFFFFFFFFFF AND DUP2 MSTORE PUSH1 0x20 ADD SWAP1 DUP2 MSTORE PUSH1 0x20 ADD PUSH0 KECCAK256 PUSH0 SWAP1 SLOAD SWAP1 PUSH2 0x100 EXP SWAP1 DIV PUSH1 0xFF AND PUSH2 0x1F3 JUMPI PUSH1 0x40 MLOAD PUSH32 0x30CD747100000000000000000000000000000000000000000000000000000000 DUP2 MSTORE PUSH1 0x4 ADD PUSH1 0x40 MLOAD DUP1 SWAP2 SUB SWAP1 REVERT JUMPDEST PUSH1 0x3 DUP1 SLOAD SWAP1 POP DUP2 LT PUSH2 0x231 JUMPI PUSH1 0x40 MLOAD PUSH32 0x500A07CE00000000000000000000000000000000000000000000000000000000 DUP2 MSTORE PUSH1 0x4 ADD PUSH1 0x40 MLOAD DUP1 SWAP2 SUB SWAP1 REVERT JUMPDEST PUSH1 0x3 DUP2 DUP2 SLOAD DUP2 LT PUSH2 0x245 JUMPI PUSH2 0x244 PUSH2 0xF13 JUMP JUMPDEST JUMPDEST SWAP1 PUSH0 MSTORE PUSH1 0x20 PUSH0 KECCAK256 SWAP1 PUSH1 0x5 MUL ADD PUSH1 0x3 ADD PUSH0 SWAP1 SLOAD SWAP1 PUSH2 0x100 EXP SWAP1 DIV PUSH1 0xFF AND ISZERO PUSH2 0x298 JUMPI PUSH1 0x40 MLOAD PUSH32 0xDB5E659B00000000000000000000000000000000000000000000000000000000 DUP2 MSTORE PUSH1 0x4 ADD PUSH1 0x40 MLOAD DUP1 SWAP2 SUB SWAP1 REVERT JUMPDEST PUSH1 0x4 PUSH0 DUP3 DUP2 MSTORE PUSH1 0x20 ADD SWAP1 DUP2 MSTORE PUSH1 0x20 ADD PUSH0 KECCAK256 PUSH0 CALLER PUSH20 0xFFFFFFFFFFFFFFFFFFFFFFFFFFFFFFFFFFFFFFFF AND PUSH20 0xFFFFFFFFFFFFFFFFFFFFFFFFFFFFFFFFFFFFFFFF AND DUP2 MSTORE PUSH1 0x20 ADD SWAP1 DUP2 MSTORE PUSH1 0x20 ADD PUSH0 KECCAK256 PUSH0 SWAP1 SLOAD SWAP1 PUSH2 0x100 EXP SWAP1 DIV PUSH1 0xFF AND ISZERO PUSH2 0x328 JUMPI PUSH1 0x40 MLOAD PUSH32 0x101F817A00000000000000000000000000000000000000000000000000000000 DUP2 MSTORE PUSH1 0x4 ADD PUSH1 0x40 MLOAD DUP1 SWAP2 SUB SWAP1 REVERT JUMPDEST PUSH1 0x1 PUSH1 0x3 DUP3 DUP2 SLOAD DUP2 LT PUSH2 0x33E JUMPI PUSH2 0x33D PUSH2 0xF13 JUMP JUMPDEST JUMPDEST SWAP1 PUSH0 MSTORE PUSH1 0x20 PUSH0 KECCAK256 SWAP1 PUSH1 0x5 MUL ADD PUSH1 0x4 ADD PUSH0 DUP3 DUP3 SLOAD PUSH2 0x35B SWAP2 SWAP1 PUSH2 0xF6D JUMP JUMPDEST SWAP3 POP POP DUP2 SWAP1 SSTORE POP PUSH1 0x1 PUSH1 0x4 PUSH0 DUP4 DUP2 MSTORE PUSH1 0x20 ADD SWAP1 DUP2 MSTORE PUSH1 0x20 ADD PUSH0 KECCAK256 PUSH0 CALLER PUSH20 0xFFFFFFFFFFFFFFFFFFFFFFFFFFFFFFFFFFFFFFFF AND PUSH20 0xFFFFFFFFFFFFFFFFFFFFFFFFFFFFFFFFFFFFFFFF AND DUP2 MSTORE PUSH1 0x20 ADD SWAP1 DUP2 MSTORE PUSH1 0x20 ADD PUSH0 KECCAK256 PUSH0 PUSH2 0x100 EXP DUP2 SLOAD DUP2 PUSH1 0xFF MUL NOT AND SWAP1 DUP4 ISZERO ISZERO MUL OR SWAP1 SSTORE POP PUSH32 0xBE556A88B31B59BF2916D67A1114497FEBEEF512CC2E5FA4AD132F7865C56AC2 DUP2 CALLER PUSH1 0x40 MLOAD PUSH2 0x3F7 SWAP3 SWAP2 SWAP1 PUSH2 0xFA0 JUMP JUMPDEST PUSH1 0x40 MLOAD DUP1 SWAP2 SUB SWAP1 LOG1 POP JUMP JUMPDEST PUSH0 PUSH1 0x3 DUP1 SLOAD SWAP1 POP SWAP1 POP SWAP1 JUMP JUMPDEST PUSH0 DUP1 PUSH1 0x60 PUSH0 DUP1 PUSH0 PUSH1 0x3 DUP8 DUP2 SLOAD DUP2 LT PUSH2 0x429 JUMPI PUSH2 0x428 PUSH2 0xF13 JUMP JUMPDEST JUMPDEST SWAP1 PUSH0 MSTORE PUSH1 0x20 PUSH0 KECCAK256 SWAP1 PUSH1 0x5 MUL ADD SWAP1 POP DUP1 PUSH0 ADD PUSH0 SWAP1 SLOAD SWAP1 PUSH2 0x100 EXP SWAP1 DIV PUSH20 0xFFFFFFFFFFFFFFFFFFFFFFFFFFFFFFFFFFFFFFFF AND DUP2 PUSH1 0x1 ADD SLOAD DUP3 PUSH1 0x2 ADD DUP4 PUSH1 0x3 ADD PUSH0 SWAP1 SLOAD SWAP1 PUSH2 0x100 EXP SWAP1 DIV PUSH1 0xFF AND DUP5 PUSH1 0x4 ADD SLOAD DUP3 DUP1 SLOAD PUSH2 0x485 SWAP1 PUSH2 0xFF4 JUMP JUMPDEST DUP1 PUSH1 0x1F ADD PUSH1 0x20 DUP1 SWAP2 DIV MUL PUSH1 0x20 ADD PUSH1 0x40 MLOAD SWAP1 DUP2 ADD PUSH1 0x40 MSTORE DUP1 SWAP3 SWAP2 SWAP1 DUP2 DUP2 MSTORE PUSH1 0x20 ADD DUP3 DUP1 SLOAD PUSH2 0x4B1 SWAP1 PUSH2 0xFF4 JUMP JUMPDEST DUP1 ISZERO PUSH2 0x4FC JUMPI DUP1 PUSH1 0x1F LT PUSH2 0x4D3 JUMPI PUSH2 0x100 DUP1 DUP4 SLOAD DIV MUL DUP4 MSTORE SWAP2 PUSH1 0x20 ADD SWAP2 PUSH2 0x4FC JUMP JUMPDEST DUP3 ADD SWAP2 SWAP1 PUSH0 MSTORE PUSH1 0x20 PUSH0 KECCAK256 SWAP1 JUMPDEST DUP2 SLOAD DUP2 MSTORE SWAP1 PUSH1 0x1 ADD SWAP1 PUSH1 0x20 ADD DUP1 DUP4 GT PUSH2 0x4DF JUMPI DUP3 SWAP1 SUB PUSH1 0x1F AND DUP3 ADD SWAP2 JUMPDEST POP POP POP POP POP SWAP3 POP SWAP6 POP SWAP6 POP SWAP6 POP SWAP6 POP SWAP6 POP POP SWAP2 SWAP4 SWAP6 SWAP1 SWAP3 SWAP5 POP JUMP JUMPDEST PUSH1 0x1 PUSH0 CALLER PUSH20 0xFFFFFFFFFFFFFFFFFFFFFFFFFFFFFFFFFFFFFFFF AND PUSH20 0xFFFFFFFFFFFFFFFFFFFFFFFFFFFFFFFFFFFFFFFF AND DUP2 MSTORE PUSH1 0x20 ADD SWAP1 DUP2 MSTORE PUSH1 0x20 ADD PUSH0 KECCAK256 PUSH0 SWAP1 SLOAD SWAP1 PUSH2 0x100 EXP SWAP1 DIV PUSH1 0xFF AND PUSH2 0x597 JUMPI PUSH1 0x40 MLOAD PUSH32 0x30CD747100000000000000000000000000000000000000000000000000000000 DUP2 MSTORE PUSH1 0x4 ADD PUSH1 0x40 MLOAD DUP1 SWAP2 SUB SWAP1 REVERT JUMPDEST PUSH0 DUP3 SUB PUSH2 0x5D0 JUMPI PUSH1 0x40 MLOAD PUSH32 0x500A07CE00000000000000000000000000000000000000000000000000000000 DUP2 MSTORE PUSH1 0x4 ADD PUSH1 0x40 MLOAD DUP1 SWAP2 SUB SWAP1 REVERT JUMPDEST PUSH0 PUSH20 0xFFFFFFFFFFFFFFFFFFFFFFFFFFFFFFFFFFFFFFFF AND DUP4 PUSH20 0xFFFFFFFFFFFFFFFFFFFFFFFFFFFFFFFFFFFFFFFF AND SUB PUSH2 0x635 JUMPI PUSH1 0x40 MLOAD PUSH32 0xE6C4247B00000000000000000000000000000000000000000000000000000000 DUP2 MSTORE PUSH1 0x4 ADD PUSH1 0x40 MLOAD DUP1 SWAP2 SUB SWAP1 REVERT JUMPDEST PUSH1 0x3 PUSH1 0x40 MLOAD DUP1 PUSH1 0xA0 ADD PUSH1 0x40 MSTORE DUP1 DUP6 PUSH20 0xFFFFFFFFFFFFFFFFFFFFFFFFFFFFFFFFFFFFFFFF AND DUP2 MSTORE PUSH1 0x20 ADD DUP5 DUP2 MSTORE PUSH1 0x20 ADD DUP4 DUP2 MSTORE PUSH1 0x20 ADD PUSH0 ISZERO ISZERO DUP2 MSTORE PUSH1 0x20 ADD PUSH1 0x1 DUP2 MSTORE POP SWAP1 DUP1 PUSH1 0x1 DUP2 SLOAD ADD DUP1 DUP3 SSTORE DUP1 SWAP2 POP POP PUSH1 0x1 SWAP1 SUB SWAP1 PUSH0 MSTORE PUSH1 0x20 PUSH0 KECCAK256 SWAP1 PUSH1 0x5 MUL ADD PUSH0 SWAP1 SWAP2 SWAP1 SWAP2 SWAP1 SWAP2 POP PUSH0 DUP3 ADD MLOAD DUP2 PUSH0 ADD PUSH0 PUSH2 0x100 EXP DUP2 SLOAD DUP2 PUSH20 0xFFFFFFFFFFFFFFFFFFFFFFFFFFFFFFFFFFFFFFFF MUL NOT AND SWAP1 DUP4 PUSH20 0xFFFFFFFFFFFFFFFFFFFFFFFFFFFFFFFFFFFFFFFF AND MUL OR SWAP1 SSTORE POP PUSH1 0x20 DUP3 ADD MLOAD DUP2 PUSH1 0x1 ADD SSTORE PUSH1 0x40 DUP3 ADD MLOAD DUP2 PUSH1 0x2 ADD SWAP1 DUP2 PUSH2 0x700 SWAP2 SWAP1 PUSH2 0x11C1 JUMP JUMPDEST POP PUSH1 0x60 DUP3 ADD MLOAD DUP2 PUSH1 0x3 ADD PUSH0 PUSH2 0x100 EXP DUP2 SLOAD DUP2 PUSH1 0xFF MUL NOT AND SWAP1 DUP4 ISZERO ISZERO MUL OR SWAP1 SSTORE POP PUSH1 0x80 DUP3 ADD MLOAD DUP2 PUSH1 0x4 ADD SSTORE POP POP PUSH0 PUSH1 0x3 DUP1 SLOAD SWAP1 POP SWAP1 POP PUSH1 0x1 PUSH1 0x3 PUSH1 0x1 DUP4 PUSH2 0x746 SWAP2 SWAP1 PUSH2 0x1290 JUMP JUMPDEST DUP2 SLOAD DUP2 LT PUSH2 0x757 JUMPI PUSH2 0x756 PUSH2 0xF13 JUMP JUMPDEST JUMPDEST SWAP1 PUSH0 MSTORE PUSH1 0x20 PUSH0 KECCAK256 SWAP1 PUSH1 0x5 MUL ADD PUSH1 0x4 ADD DUP2 SWAP1 SSTORE POP PUSH1 0x1 PUSH1 0x4 PUSH0 PUSH1 0x1 DUP5 PUSH2 0x77C SWAP2 SWAP1 PUSH2 0x1290 JUMP JUMPDEST DUP2 MSTORE PUSH1 0x20 ADD SWAP1 DUP2 MSTORE PUSH1 0x20 ADD PUSH0 KECCAK256 PUSH0 CALLER PUSH20 0xFFFFFFFFFFFFFFFFFFFFFFFFFFFFFFFFFFFFFFFF AND PUSH20 0xFFFFFFFFFFFFFFFFFFFFFFFFFFFFFFFFFFFFFFFF AND DUP2 MSTORE PUSH1 0x20 ADD SWAP1 DUP2 MSTORE PUSH1 0x20 ADD PUSH0 KECCAK256 PUSH0 PUSH2 0x100 EXP DUP2 SLOAD DUP2 PUSH1 0xFF MUL NOT AND SWAP1 DUP4 ISZERO ISZERO MUL OR SWAP1 SSTORE POP PUSH32 0x3F6DB45DA5513BD4FE9F8A31E60EA668BDD4BCA57E30A85A9A26F90C9FBCB56C PUSH1 0x3 PUSH1 0x1 PUSH1 0x3 DUP1 SLOAD SWAP1 POP PUSH2 0x80F SWAP2 SWAP1 PUSH2 0x1290 JUMP JUMPDEST DUP2 SLOAD DUP2 LT PUSH2 0x820 JUMPI PUSH2 0x81F PUSH2 0xF13 JUMP JUMPDEST JUMPDEST SWAP1 PUSH0 MSTORE PUSH1 0x20 PUSH0 KECCAK256 SWAP1 PUSH1 0x5 MUL ADD PUSH1 0x4 ADD SLOAD DUP6 DUP6 DUP6 PUSH1 0x40 MLOAD PUSH2 0x843 SWAP5 SWAP4 SWAP3 SWAP2 SWAP1 PUSH2 0x12C3 JUMP JUMPDEST PUSH1 0x40 MLOAD DUP1 SWAP2 SUB SWAP1 LOG1 POP POP POP POP JUMP JUMPDEST PUSH1 0x1 PUSH0 CALLER PUSH20 0xFFFFFFFFFFFFFFFFFFFFFFFFFFFFFFFFFFFFFFFF AND PUSH20 0xFFFFFFFFFFFFFFFFFFFFFFFFFFFFFFFFFFFFFFFF AND DUP2 MSTORE PUSH1 0x20 ADD SWAP1 DUP2 MSTORE PUSH1 0x20 ADD PUSH0 KECCAK256 PUSH0 SWAP1 SLOAD SWAP1 PUSH2 0x100 EXP SWAP1 DIV PUSH1 0xFF AND PUSH2 0x8D1 JUMPI PUSH1 0x40 MLOAD PUSH32 0x30CD747100000000000000000000000000000000000000000000000000000000 DUP2 MSTORE PUSH1 0x4 ADD PUSH1 0x40 MLOAD DUP1 SWAP2 SUB SWAP1 REVERT JUMPDEST PUSH1 0x3 DUP1 SLOAD SWAP1 POP DUP2 LT PUSH2 0x90F JUMPI PUSH1 0x40 MLOAD PUSH32 0x500A07CE00000000000000000000000000000000000000000000000000000000 DUP2 MSTORE PUSH1 0x4 ADD PUSH1 0x40 MLOAD DUP1 SWAP2 SUB SWAP1 REVERT JUMPDEST PUSH1 0x3 DUP2 DUP2 SLOAD DUP2 LT PUSH2 0x923 JUMPI PUSH2 0x922 PUSH2 0xF13 JUMP JUMPDEST JUMPDEST SWAP1 PUSH0 MSTORE PUSH1 0x20 PUSH0 KECCAK256 SWAP1 PUSH1 0x5 MUL ADD PUSH1 0x3 ADD PUSH0 SWAP1 SLOAD SWAP1 PUSH2 0x100 EXP SWAP1 DIV PUSH1 0xFF AND ISZERO PUSH2 0x976 JUMPI PUSH1 0x40 MLOAD PUSH32 0xDB5E659B00000000000000000000000000000000000000000000000000000000 DUP2 MSTORE PUSH1 0x4 ADD PUSH1 0x40 MLOAD DUP1 SWAP2 SUB SWAP1 REVERT JUMPDEST PUSH1 0x2 SLOAD PUSH1 0x3 DUP3 DUP2 SLOAD DUP2 LT PUSH2 0x98D JUMPI PUSH2 0x98C PUSH2 0xF13 JUMP JUMPDEST JUMPDEST SWAP1 PUSH0 MSTORE PUSH1 0x20 PUSH0 KECCAK256 SWAP1 PUSH1 0x5 MUL ADD PUSH1 0x4 ADD SLOAD LT ISZERO PUSH2 0x9D5 JUMPI PUSH1 0x40 MLOAD PUSH32 0x8AF69CF100000000000000000000000000000000000000000000000000000000 DUP2 MSTORE PUSH1 0x4 ADD PUSH1 0x40 MLOAD DUP1 SWAP2 SUB SWAP1 REVERT JUMPDEST PUSH0 PUSH1 0x3 DUP3 DUP2 SLOAD DUP2 LT PUSH2 0x9EA JUMPI PUSH2 0x9E9 PUSH2 0xF13 JUMP JUMPDEST JUMPDEST SWAP1 PUSH0 MSTORE PUSH1 0x20 PUSH0 KECCAK256 SWAP1 PUSH1 0x5 MUL ADD PUSH0 ADD PUSH0 SWAP1 SLOAD SWAP1 PUSH2 0x100 EXP SWAP1 DIV PUSH20 0xFFFFFFFFFFFFFFFFFFFFFFFFFFFFFFFFFFFFFFFF AND PUSH20 0xFFFFFFFFFFFFFFFFFFFFFFFFFFFFFFFFFFFFFFFF AND PUSH1 0x3 DUP4 DUP2 SLOAD DUP2 LT PUSH2 0xA42 JUMPI PUSH2 0xA41 PUSH2 0xF13 JUMP JUMPDEST JUMPDEST SWAP1 PUSH0 MSTORE PUSH1 0x20 PUSH0 KECCAK256 SWAP1 PUSH1 0x5 MUL ADD PUSH1 0x1 ADD SLOAD PUSH1 0x3 DUP5 DUP2 SLOAD DUP2 LT PUSH2 0xA66 JUMPI PUSH2 0xA65 PUSH2 0xF13 JUMP JUMPDEST JUMPDEST SWAP1 PUSH0 MSTORE PUSH1 0x20 PUSH0 KECCAK256 SWAP1 PUSH1 0x5 MUL ADD PUSH1 0x2 ADD PUSH1 0x40 MLOAD PUSH2 0xA82 SWAP2 SWAP1 PUSH2 0x1397 JUMP JUMPDEST PUSH0 PUSH1 0x40 MLOAD DUP1 DUP4 SUB DUP2 DUP6 DUP8 GAS CALL SWAP3 POP POP POP RETURNDATASIZE DUP1 PUSH0 DUP2 EQ PUSH2 0xABC JUMPI PUSH1 0x40 MLOAD SWAP2 POP PUSH1 0x1F NOT PUSH1 0x3F RETURNDATASIZE ADD AND DUP3 ADD PUSH1 0x40 MSTORE RETURNDATASIZE DUP3 MSTORE RETURNDATASIZE PUSH0 PUSH1 0x20 DUP5 ADD RETURNDATACOPY PUSH2 0xAC1 JUMP JUMPDEST PUSH1 0x60 SWAP2 POP JUMPDEST POP POP SWAP1 POP DUP1 PUSH2 0xAFC JUMPI PUSH1 0x40 MLOAD PUSH32 0x90B8EC1800000000000000000000000000000000000000000000000000000000 DUP2 MSTORE PUSH1 0x4 ADD PUSH1 0x40 MLOAD DUP1 SWAP2 SUB SWAP1 REVERT JUMPDEST PUSH1 0x1 PUSH1 0x3 DUP4 DUP2 SLOAD DUP2 LT PUSH2 0xB12 JUMPI PUSH2 0xB11 PUSH2 0xF13 JUMP JUMPDEST JUMPDEST SWAP1 PUSH0 MSTORE PUSH1 0x20 PUSH0 KECCAK256 SWAP1 PUSH1 0x5 MUL ADD PUSH1 0x3 ADD PUSH0 PUSH2 0x100 EXP DUP2 SLOAD DUP2 PUSH1 0xFF MUL NOT AND SWAP1 DUP4 ISZERO ISZERO MUL OR SWAP1 SSTORE POP PUSH32 0x15ED165A284872EA7017F03DF402A0CADFBFAB588320FFAF83F160C2F82781C7 DUP3 PUSH1 0x40 MLOAD PUSH2 0xB66 SWAP2 SWAP1 PUSH2 0xC56 JUMP JUMPDEST PUSH1 0x40 MLOAD DUP1 SWAP2 SUB SWAP1 LOG1 POP POP JUMP JUMPDEST PUSH0 PUSH20 0xFFFFFFFFFFFFFFFFFFFFFFFFFFFFFFFFFFFFFFFF DUP3 AND SWAP1 POP SWAP2 SWAP1 POP JUMP JUMPDEST PUSH0 PUSH2 0xB9B DUP3 PUSH2 0xB72 JUMP JUMPDEST SWAP1 POP SWAP2 SWAP1 POP JUMP JUMPDEST PUSH2 0xBAB DUP2 PUSH2 0xB91 JUMP JUMPDEST DUP3 MSTORE POP POP JUMP JUMPDEST PUSH0 DUP2 SWAP1 POP SWAP2 SWAP1 POP JUMP JUMPDEST PUSH2 0xBC3 DUP2 PUSH2 0xBB1 JUMP JUMPDEST DUP3 MSTORE POP POP JUMP JUMPDEST PUSH0 PUSH1 0x40 DUP3 ADD SWAP1 POP PUSH2 0xBDC PUSH0 DUP4 ADD DUP6 PUSH2 0xBA2 JUMP JUMPDEST PUSH2 0xBE9 PUSH1 0x20 DUP4 ADD DUP5 PUSH2 0xBBA JUMP JUMPDEST SWAP4 SWAP3 POP POP POP JUMP JUMPDEST PUSH0 PUSH1 0x40 MLOAD SWAP1 POP SWAP1 JUMP JUMPDEST PUSH0 DUP1 REVERT JUMPDEST PUSH0 DUP1 REVERT JUMPDEST PUSH2 0xC0A DUP2 PUSH2 0xBB1 JUMP JUMPDEST DUP2 EQ PUSH2 0xC14 JUMPI PUSH0 DUP1 REVERT JUMPDEST POP JUMP JUMPDEST PUSH0 DUP2 CALLDATALOAD SWAP1 POP PUSH2 0xC25 DUP2 PUSH2 0xC01 JUMP JUMPDEST SWAP3 SWAP2 POP POP JUMP JUMPDEST PUSH0 PUSH1 0x20 DUP3 DUP5 SUB SLT ISZERO PUSH2 0xC40 JUMPI PUSH2 0xC3F PUSH2 0xBF9 JUMP JUMPDEST JUMPDEST PUSH0 PUSH2 0xC4D DUP5 DUP3 DUP6 ADD PUSH2 0xC17 JUMP JUMPDEST SWAP2 POP POP SWAP3 SWAP2 POP POP JUMP JUMPDEST PUSH0 PUSH1 0x20 DUP3 ADD SWAP1 POP PUSH2 0xC69 PUSH0 DUP4 ADD DUP5 PUSH2 0xBBA JUMP JUMPDEST SWAP3 SWAP2 POP POP JUMP JUMPDEST PUSH0 DUP2 MLOAD SWAP1 POP SWAP2 SWAP1 POP JUMP JUMPDEST PUSH0 DUP3 DUP3 MSTORE PUSH1 0x20 DUP3 ADD SWAP1 POP SWAP3 SWAP2 POP POP JUMP JUMPDEST DUP3 DUP2 DUP4 MCOPY PUSH0 DUP4 DUP4 ADD MSTORE POP POP POP JUMP JUMPDEST PUSH0 PUSH1 0x1F NOT PUSH1 0x1F DUP4 ADD AND SWAP1 POP SWAP2 SWAP1 POP JUMP JUMPDEST PUSH0 PUSH2 0xCB1 DUP3 PUSH2 0xC6F JUMP JUMPDEST PUSH2 0xCBB DUP2 DUP6 PUSH2 0xC79 JUMP JUMPDEST SWAP4 POP PUSH2 0xCCB DUP2 DUP6 PUSH1 0x20 DUP7 ADD PUSH2 0xC89 JUMP JUMPDEST PUSH2 0xCD4 DUP2 PUSH2 0xC97 JUMP JUMPDEST DUP5 ADD SWAP2 POP POP SWAP3 SWAP2 POP POP JUMP JUMPDEST PUSH0 DUP2 ISZERO ISZERO SWAP1 POP SWAP2 SWAP1 POP JUMP JUMPDEST PUSH2 0xCF3 DUP2 PUSH2 0xCDF JUMP JUMPDEST DUP3 MSTORE POP POP JUMP JUMPDEST PUSH0 PUSH1 0xA0 DUP3 ADD SWAP1 POP PUSH2 0xD0C PUSH0 DUP4 ADD DUP9 PUSH2 0xBA2 JUMP JUMPDEST PUSH2 0xD19 PUSH1 0x20 DUP4 ADD DUP8 PUSH2 0xBBA JUMP JUMPDEST DUP2 DUP2 SUB PUSH1 0x40 DUP4 ADD MSTORE PUSH2 0xD2B DUP2 DUP7 PUSH2 0xCA7 JUMP JUMPDEST SWAP1 POP PUSH2 0xD3A PUSH1 0x60 DUP4 ADD DUP6 PUSH2 0xCEA JUMP JUMPDEST PUSH2 0xD47 PUSH1 0x80 DUP4 ADD DUP5 PUSH2 0xBBA JUMP JUMPDEST SWAP7 SWAP6 POP POP POP POP POP POP JUMP JUMPDEST PUSH2 0xD5A DUP2 PUSH2 0xB91 JUMP JUMPDEST DUP2 EQ PUSH2 0xD64 JUMPI PUSH0 DUP1 REVERT JUMPDEST POP JUMP JUMPDEST PUSH0 DUP2 CALLDATALOAD SWAP1 POP PUSH2 0xD75 DUP2 PUSH2 0xD51 JUMP JUMPDEST SWAP3 SWAP2 POP POP JUMP JUMPDEST PUSH0 DUP1 REVERT JUMPDEST PUSH0 DUP1 REVERT JUMPDEST PUSH32 0x4E487B7100000000000000000000000000000000000000000000000000000000 PUSH0 MSTORE PUSH1 0x41 PUSH1 0x4 MSTORE PUSH1 0x24 PUSH0 REVERT JUMPDEST PUSH2 0xDB9 DUP3 PUSH2 0xC97 JUMP JUMPDEST DUP2 ADD DUP2 DUP2 LT PUSH8 0xFFFFFFFFFFFFFFFF DUP3 GT OR ISZERO PUSH2 0xDD8 JUMPI PUSH2 0xDD7 PUSH2 0xD83 JUMP JUMPDEST JUMPDEST DUP1 PUSH1 0x40 MSTORE POP POP POP JUMP JUMPDEST PUSH0 PUSH2 0xDEA PUSH2 0xBF0 JUMP JUMPDEST SWAP1 POP PUSH2 0xDF6 DUP3 DUP3 PUSH2 0xDB0 JUMP JUMPDEST SWAP2 SWAP1 POP JUMP JUMPDEST PUSH0 PUSH8 0xFFFFFFFFFFFFFFFF DUP3 GT ISZERO PUSH2 0xE15 JUMPI PUSH2 0xE14 PUSH2 0xD83 JUMP JUMPDEST JUMPDEST PUSH2 0xE1E DUP3 PUSH2 0xC97 JUMP JUMPDEST SWAP1 POP PUSH1 0x20 DUP2 ADD SWAP1 POP SWAP2 SWAP1 POP JUMP JUMPDEST DUP3 DUP2 DUP4 CALLDATACOPY PUSH0 DUP4 DUP4 ADD MSTORE POP POP POP JUMP JUMPDEST PUSH0 PUSH2 0xE4B PUSH2 0xE46 DUP5 PUSH2 0xDFB JUMP JUMPDEST PUSH2 0xDE1 JUMP JUMPDEST SWAP1 POP DUP3 DUP2 MSTORE PUSH1 0x20 DUP2 ADD DUP5 DUP5 DUP5 ADD GT ISZERO PUSH2 0xE67 JUMPI PUSH2 0xE66 PUSH2 0xD7F JUMP JUMPDEST JUMPDEST PUSH2 0xE72 DUP5 DUP3 DUP6 PUSH2 0xE2B JUMP JUMPDEST POP SWAP4 SWAP3 POP POP POP JUMP JUMPDEST PUSH0 DUP3 PUSH1 0x1F DUP4 ADD SLT PUSH2 0xE8E JUMPI PUSH2 0xE8D PUSH2 0xD7B JUMP JUMPDEST JUMPDEST DUP2 CALLDATALOAD PUSH2 0xE9E DUP5 DUP3 PUSH1 0x20 DUP7 ADD PUSH2 0xE39 JUMP JUMPDEST SWAP2 POP POP SWAP3 SWAP2 POP POP JUMP JUMPDEST PUSH0 DUP1 PUSH0 PUSH1 0x60 DUP5 DUP7 SUB SLT ISZERO PUSH2 0xEBE JUMPI PUSH2 0xEBD PUSH2 0xBF9 JUMP JUMPDEST JUMPDEST PUSH0 PUSH2 0xECB DUP7 DUP3 DUP8 ADD PUSH2 0xD67 JUMP JUMPDEST SWAP4 POP POP PUSH1 0x20 PUSH2 0xEDC DUP7 DUP3 DUP8 ADD PUSH2 0xC17 JUMP JUMPDEST SWAP3 POP POP PUSH1 0x40 DUP5 ADD CALLDATALOAD PUSH8 0xFFFFFFFFFFFFFFFF DUP2 GT ISZERO PUSH2 0xEFD JUMPI PUSH2 0xEFC PUSH2 0xBFD JUMP JUMPDEST JUMPDEST PUSH2 0xF09 DUP7 DUP3 DUP8 ADD PUSH2 0xE7A JUMP JUMPDEST SWAP2 POP POP SWAP3 POP SWAP3 POP SWAP3 JUMP JUMPDEST PUSH32 0x4E487B7100000000000000000000000000000000000000000000000000000000 PUSH0 MSTORE PUSH1 0x32 PUSH1 0x4 MSTORE PUSH1 0x24 PUSH0 REVERT JUMPDEST PUSH32 0x4E487B7100000000000000000000000000000000000000000000000000000000 PUSH0 MSTORE PUSH1 0x11 PUSH1 0x4 MSTORE PUSH1 0x24 PUSH0 REVERT JUMPDEST PUSH0 PUSH2 0xF77 DUP3 PUSH2 0xBB1 JUMP JUMPDEST SWAP2 POP PUSH2 0xF82 DUP4 PUSH2 0xBB1 JUMP JUMPDEST SWAP3 POP DUP3 DUP3 ADD SWAP1 POP DUP1 DUP3 GT ISZERO PUSH2 0xF9A JUMPI PUSH2 0xF99 PUSH2 0xF40 JUMP JUMPDEST JUMPDEST SWAP3 SWAP2 POP POP JUMP JUMPDEST PUSH0 PUSH1 0x40 DUP3 ADD SWAP1 POP PUSH2 0xFB3 PUSH0 DUP4 ADD DUP6 PUSH2 0xBBA JUMP JUMPDEST PUSH2 0xFC0 PUSH1 0x20 DUP4 ADD DUP5 PUSH2 0xBA2 JUMP JUMPDEST SWAP4 SWAP3 POP POP POP JUMP JUMPDEST PUSH32 0x4E487B7100000000000000000000000000000000000000000000000000000000 PUSH0 MSTORE PUSH1 0x22 PUSH1 0x4 MSTORE PUSH1 0x24 PUSH0 REVERT JUMPDEST PUSH0 PUSH1 0x2 DUP3 DIV SWAP1 POP PUSH1 0x1 DUP3 AND DUP1 PUSH2 0x100B JUMPI PUSH1 0x7F DUP3 AND SWAP2 POP JUMPDEST PUSH1 0x20 DUP3 LT DUP2 SUB PUSH2 0x101E JUMPI PUSH2 0x101D PUSH2 0xFC7 JUMP JUMPDEST JUMPDEST POP SWAP2 SWAP1 POP JUMP JUMPDEST PUSH0 DUP2 SWAP1 POP DUP2 PUSH0 MSTORE PUSH1 0x20 PUSH0 KECCAK256 SWAP1 POP SWAP2 SWAP1 POP JUMP JUMPDEST PUSH0 PUSH1 0x20 PUSH1 0x1F DUP4 ADD DIV SWAP1 POP SWAP2 SWAP1 POP JUMP JUMPDEST PUSH0 DUP3 DUP3 SHL SWAP1 POP SWAP3 SWAP2 POP POP JUMP JUMPDEST PUSH0 PUSH1 0x8 DUP4 MUL PUSH2 0x1080 PUSH32 0xFFFFFFFFFFFFFFFFFFFFFFFFFFFFFFFFFFFFFFFFFFFFFFFFFFFFFFFFFFFFFFFF DUP3 PUSH2 0x1045 JUMP JUMPDEST PUSH2 0x108A DUP7 DUP4 PUSH2 0x1045 JUMP JUMPDEST SWAP6 POP DUP1 NOT DUP5 AND SWAP4 POP DUP1 DUP7 AND DUP5 OR SWAP3 POP POP POP SWAP4 SWAP3 POP POP POP JUMP JUMPDEST PUSH0 DUP2 SWAP1 POP SWAP2 SWAP1 POP JUMP JUMPDEST PUSH0 PUSH2 0x10C5 PUSH2 0x10C0 PUSH2 0x10BB DUP5 PUSH2 0xBB1 JUMP JUMPDEST PUSH2 0x10A2 JUMP JUMPDEST PUSH2 0xBB1 JUMP JUMPDEST SWAP1 POP SWAP2 SWAP1 POP JUMP JUMPDEST PUSH0 DUP2 SWAP1 POP SWAP2 SWAP1 POP JUMP JUMPDEST PUSH2 0x10DE DUP4 PUSH2 0x10AB JUMP JUMPDEST PUSH2 0x10F2 PUSH2 0x10EA DUP3 PUSH2 0x10CC JUMP JUMPDEST DUP5 DUP5 SLOAD PUSH2 0x1051 JUMP JUMPDEST DUP3 SSTORE POP POP POP POP JUMP JUMPDEST PUSH0 SWAP1 JUMP JUMPDEST PUSH2 0x1106 PUSH2 0x10FA JUMP JUMPDEST PUSH2 0x1111 DUP2 DUP5 DUP5 PUSH2 0x10D5 JUMP JUMPDEST POP POP POP JUMP JUMPDEST JUMPDEST DUP2 DUP2 LT ISZERO PUSH2 0x1134 JUMPI PUSH2 0x1129 PUSH0 DUP3 PUSH2 0x10FE JUMP JUMPDEST PUSH1 0x1 DUP2 ADD SWAP1 POP PUSH2 0x1117 JUMP JUMPDEST POP POP JUMP JUMPDEST PUSH1 0x1F DUP3 GT ISZERO PUSH2 0x1179 JUMPI PUSH2 0x114A DUP2 PUSH2 0x1024 JUMP JUMPDEST PUSH2 0x1153 DUP5 PUSH2 0x1036 JUMP JUMPDEST DUP2 ADD PUSH1 0x20 DUP6 LT ISZERO PUSH2 0x1162 JUMPI DUP2 SWAP1 POP JUMPDEST PUSH2 0x1176 PUSH2 0x116E DUP6 PUSH2 0x1036 JUMP JUMPDEST DUP4 ADD DUP3 PUSH2 0x1116 JUMP JUMPDEST POP POP JUMPDEST POP POP POP JUMP JUMPDEST PUSH0 DUP3 DUP3 SHR SWAP1 POP SWAP3 SWAP2 POP POP JUMP JUMPDEST PUSH0 PUSH2 0x1199 PUSH0 NOT DUP5 PUSH1 0x8 MUL PUSH2 0x117E JUMP JUMPDEST NOT DUP1 DUP4 AND SWAP2 POP POP SWAP3 SWAP2 POP POP JUMP JUMPDEST PUSH0 PUSH2 0x11B1 DUP4 DUP4 PUSH2 0x118A JUMP JUMPDEST SWAP2 POP DUP3 PUSH1 0x2 MUL DUP3 OR SWAP1 POP SWAP3 SWAP2 POP POP JUMP JUMPDEST PUSH2 0x11CA DUP3 PUSH2 0xC6F JUMP JUMPDEST PUSH8 0xFFFFFFFFFFFFFFFF DUP2 GT ISZERO PUSH2 0x11E3 JUMPI PUSH2 0x11E2 PUSH2 0xD83 JUMP JUMPDEST JUMPDEST PUSH2 0x11ED DUP3 SLOAD PUSH2 0xFF4 JUMP JUMPDEST PUSH2 0x11F8 DUP3 DUP3 DUP6 PUSH2 0x1138 JUMP JUMPDEST PUSH0 PUSH1 0x20 SWAP1 POP PUSH1 0x1F DUP4 GT PUSH1 0x1 DUP2 EQ PUSH2 0x1229 JUMPI PUSH0 DUP5 ISZERO PUSH2 0x1217 JUMPI DUP3 DUP8 ADD MLOAD SWAP1 POP JUMPDEST PUSH2 0x1221 DUP6 DUP3 PUSH2 0x11A6 JUMP JUMPDEST DUP7 SSTORE POP PUSH2 0x1288 JUMP JUMPDEST PUSH1 0x1F NOT DUP5 AND PUSH2 0x1237 DUP7 PUSH2 0x1024 JUMP JUMPDEST PUSH0 JUMPDEST DUP3 DUP2 LT ISZERO PUSH2 0x125E JUMPI DUP5 DUP10 ADD MLOAD DUP3 SSTORE PUSH1 0x1 DUP3 ADD SWAP2 POP PUSH1 0x20 DUP6 ADD SWAP5 POP PUSH1 0x20 DUP2 ADD SWAP1 POP PUSH2 0x1239 JUMP JUMPDEST DUP7 DUP4 LT ISZERO PUSH2 0x127B JUMPI DUP5 DUP10 ADD MLOAD PUSH2 0x1277 PUSH1 0x1F DUP10 AND DUP3 PUSH2 0x118A JUMP JUMPDEST DUP4 SSTORE POP JUMPDEST PUSH1 0x1 PUSH1 0x2 DUP9 MUL ADD DUP9 SSTORE POP POP POP JUMPDEST POP POP POP POP POP POP JUMP JUMPDEST PUSH0 PUSH2 0x129A DUP3 PUSH2 0xBB1 JUMP JUMPDEST SWAP2 POP PUSH2 0x12A5 DUP4 PUSH2 0xBB1 JUMP JUMPDEST SWAP3 POP DUP3 DUP3 SUB SWAP1 POP DUP2 DUP2 GT ISZERO PUSH2 0x12BD JUMPI PUSH2 0x12BC PUSH2 0xF40 JUMP JUMPDEST JUMPDEST SWAP3 SWAP2 POP POP JUMP JUMPDEST PUSH0 PUSH1 0x80 DUP3 ADD SWAP1 POP PUSH2 0x12D6 PUSH0 DUP4 ADD DUP8 PUSH2 0xBBA JUMP JUMPDEST PUSH2 0x12E3 PUSH1 0x20 DUP4 ADD DUP7 PUSH2 0xBA2 JUMP JUMPDEST PUSH2 0x12F0 PUSH1 0x40 DUP4 ADD DUP6 PUSH2 0xBBA JUMP JUMPDEST DUP2 DUP2 SUB PUSH1 0x60 DUP4 ADD MSTORE PUSH2 0x1302 DUP2 DUP5 PUSH2 0xCA7 JUMP JUMPDEST SWAP1 POP SWAP6 SWAP5 POP POP POP POP POP JUMP JUMPDEST PUSH0 DUP2 SWAP1 POP SWAP3 SWAP2 POP POP JUMP JUMPDEST PUSH0 DUP2 SLOAD PUSH2 0x1323 DUP2 PUSH2 0xFF4 JUMP JUMPDEST PUSH2 0x132D DUP2 DUP7 PUSH2 0x130D JUMP JUMPDEST SWAP5 POP PUSH1 0x1 DUP3 AND PUSH0 DUP2 EQ PUSH2 0x1347 JUMPI PUSH1 0x1 DUP2 EQ PUSH2 0x135C JUMPI PUSH2 0x138E JUMP JUMPDEST PUSH1 0xFF NOT DUP4 AND DUP7 MSTORE DUP2 ISZERO ISZERO DUP3 MUL DUP7 ADD SWAP4 POP PUSH2 0x138E JUMP JUMPDEST PUSH2 0x1365 DUP6 PUSH2 0x1024 JUMP JUMPDEST PUSH0 JUMPDEST DUP4 DUP2 LT ISZERO PUSH2 0x1386 JUMPI DUP2 SLOAD DUP2 DUP10 ADD MSTORE PUSH1 0x1 DUP3 ADD SWAP2 POP PUSH1 0x20 DUP2 ADD SWAP1 POP PUSH2 0x1367 JUMP JUMPDEST DUP4 DUP9 ADD SWAP6 POP POP POP JUMPDEST POP POP POP SWAP3 SWAP2 POP POP JUMP JUMPDEST PUSH0 PUSH2 0x13A2 DUP3 DUP5 PUSH2 0x1317 JUMP JUMPDEST SWAP2 POP DUP2 SWAP1 POP SWAP3 SWAP2 POP POP JUMP INVALID LOG2 PUSH5 0x6970667358 0x22 SLT KECCAK256 0x21 0x4E EXTCODECOPY 0xCB 0xDD 0xD2 DUP3 BYTE 0xBA BLOCKHASH PUSH12 0x57F70B67DE05DE3C8E9E5B26 PUSH1 0x79 0x1E PUSH5 0xC6B326FEFB PUSH5 0x736F6C6343 STOP ADDMOD BYTE STOP CALLER "
				},
				"gasEstimates": {
					"creation": {
						"codeDepositCost": "1018200",
						"executionCost": "infinite",
						"totalCost": "infinite"
					},
					"external": {
						"approveTransaction(uint256)": "infinite",
						"executeTransaction(uint256)": "infinite",
						"getTransaction(uint256)": "infinite",
						"getTransactionCount()": "2440",
						"submitTransaction(address,uint256,bytes)": "infinite"
					}
				},
				"methodIdentifiers": {
					"approveTransaction(uint256)": "242232d1",
					"executeTransaction(uint256)": "ee22610b",
					"getTransaction(uint256)": "33ea3dc8",
					"getTransactionCount()": "2e7700f0",
					"submitTransaction(address,uint256,bytes)": "c6427474"
				}
			},
			"storageLayout": {
				"storage": [
					{
						"astId": 4,
						"contract": "2day/MultiSigWallet.sol:MultiSigWallet",
						"label": "owners",
						"offset": 0,
						"slot": "0",
						"type": "t_array(t_address)dyn_storage"
					},
					{
						"astId": 8,
						"contract": "2day/MultiSigWallet.sol:MultiSigWallet",
						"label": "isOwner",
						"offset": 0,
						"slot": "1",
						"type": "t_mapping(t_address,t_bool)"
					},
					{
						"astId": 10,
						"contract": "2day/MultiSigWallet.sol:MultiSigWallet",
						"label": "requiredApprovals",
						"offset": 0,
						"slot": "2",
						"type": "t_uint256"
					},
					{
						"astId": 25,
						"contract": "2day/MultiSigWallet.sol:MultiSigWallet",
						"label": "transactions",
						"offset": 0,
						"slot": "3",
						"type": "t_array(t_struct(Transaction)21_storage)dyn_storage"
					},
					{
						"astId": 31,
						"contract": "2day/MultiSigWallet.sol:MultiSigWallet",
						"label": "txApprovals",
						"offset": 0,
						"slot": "4",
						"type": "t_mapping(t_uint256,t_mapping(t_address,t_bool))"
					}
				],
				"types": {
					"t_address": {
						"encoding": "inplace",
						"label": "address",
						"numberOfBytes": "20"
					},
					"t_array(t_address)dyn_storage": {
						"base": "t_address",
						"encoding": "dynamic_array",
						"label": "address[]",
						"numberOfBytes": "32"
					},
					"t_array(t_struct(Transaction)21_storage)dyn_storage": {
						"base": "t_struct(Transaction)21_storage",
						"encoding": "dynamic_array",
						"label": "struct MultiSigWallet.Transaction[]",
						"numberOfBytes": "32"
					},
					"t_bool": {
						"encoding": "inplace",
						"label": "bool",
						"numberOfBytes": "1"
					},
					"t_bytes_storage": {
						"encoding": "bytes",
						"label": "bytes",
						"numberOfBytes": "32"
					},
					"t_mapping(t_address,t_bool)": {
						"encoding": "mapping",
						"key": "t_address",
						"label": "mapping(address => bool)",
						"numberOfBytes": "32",
						"value": "t_bool"
					},
					"t_mapping(t_uint256,t_mapping(t_address,t_bool))": {
						"encoding": "mapping",
						"key": "t_uint256",
						"label": "mapping(uint256 => mapping(address => bool))",
						"numberOfBytes": "32",
						"value": "t_mapping(t_address,t_bool)"
					},
					"t_struct(Transaction)21_storage": {
						"encoding": "inplace",
						"label": "struct MultiSigWallet.Transaction",
						"members": [
							{
								"astId": 12,
								"contract": "2day/MultiSigWallet.sol:MultiSigWallet",
								"label": "to",
								"offset": 0,
								"slot": "0",
								"type": "t_address"
							},
							{
								"astId": 14,
								"contract": "2day/MultiSigWallet.sol:MultiSigWallet",
								"label": "value",
								"offset": 0,
								"slot": "1",
								"type": "t_uint256"
							},
							{
								"astId": 16,
								"contract": "2day/MultiSigWallet.sol:MultiSigWallet",
								"label": "data",
								"offset": 0,
								"slot": "2",
								"type": "t_bytes_storage"
							},
							{
								"astId": 18,
								"contract": "2day/MultiSigWallet.sol:MultiSigWallet",
								"label": "executed",
								"offset": 0,
								"slot": "3",
								"type": "t_bool"
							},
							{
								"astId": 20,
								"contract": "2day/MultiSigWallet.sol:MultiSigWallet",
								"label": "approvals",
								"offset": 0,
								"slot": "4",
								"type": "t_uint256"
							}
						],
						"numberOfBytes": "160"
					},
					"t_uint256": {
						"encoding": "inplace",
						"label": "uint256",
						"numberOfBytes": "32"
					}
				}
			},
			"userdoc": {
				"kind": "user",
				"methods": {},
				"version": 1
			}
		}
	}
}