{
	"increment.sol": {
		"Counter": {
			"abi": [
				{
					"inputs": [],
					"name": "decrement",
					"outputs": [],
					"stateMutability": "nonpayable",
					"type": "function"
				},
				{
					"inputs": [],
					"name": "increment",
					"outputs": [],
					"stateMutability": "nonpayable",
					"type": "function"
				},
				{
					"inputs": [],
					"name": "show",
					"outputs": [
						{
							"internalType": "uint256",
							"name": "",
							"type": "uint256"
						}
					],
					"stateMutability": "view",
					"type": "function"
				}
			],
			"devdoc": {
				"kind": "dev",
				"methods": {},
				"version": 1
			},
			"evm": {
				"assembly": "    /* \"increment.sol\":27:348  contract Counter{... */\n  mstore(0x40, 0x80)\n  callvalue\n  dup1\n  iszero\n  tag_1\n  jumpi\n  0x00\n  dup1\n  revert\ntag_1:\n  pop\n  dataSize(sub_0)\n  dup1\n  dataOffset(sub_0)\n  0x00\n  codecopy\n  0x00\n  return\nstop\n\nsub_0: assembly {\n        /* \"increment.sol\":27:348  contract Counter{... */\n      mstore(0x40, 0x80)\n      callvalue\n      dup1\n      iszero\n      tag_1\n      jumpi\n      0x00\n      dup1\n      revert\n    tag_1:\n      pop\n      jumpi(tag_2, lt(calldatasize, 0x04))\n      shr(0xe0, calldataload(0x00))\n      dup1\n      0x2baeceb7\n      eq\n      tag_3\n      jumpi\n      dup1\n      0xcc80f6f3\n      eq\n      tag_4\n      jumpi\n      dup1\n      0xd09de08a\n      eq\n      tag_5\n      jumpi\n    tag_2:\n      0x00\n      dup1\n      revert\n        /* \"increment.sol\":138:263  function decrement() external {... */\n    tag_3:\n      tag_6\n      tag_7\n      jump\t// in\n    tag_6:\n      stop\n        /* \"increment.sol\":271:345  function show() external view returns(uint){... */\n    tag_4:\n      tag_8\n      tag_9\n      jump\t// in\n    tag_8:\n      mload(0x40)\n      tag_10\n      swap2\n      swap1\n      tag_11\n      jump\t// in\n    tag_10:\n      mload(0x40)\n      dup1\n      swap2\n      sub\n      swap1\n      return\n        /* \"increment.sol\":72:130  function increment() external {... */\n    tag_5:\n      tag_12\n      tag_13\n      jump\t// in\n    tag_12:\n      stop\n        /* \"increment.sol\":138:263  function decrement() external {... */\n    tag_7:\n        /* \"increment.sol\":196:197  0 */\n      0x00\n        /* \"increment.sol\":188:193  count */\n      dup1\n      sload\n        /* \"increment.sol\":188:197  count > 0 */\n      gt\n        /* \"increment.sol\":179:235  require (count > 0, \"count should be greater than zero\") */\n      tag_15\n      jumpi\n      mload(0x40)\n      0x08c379a000000000000000000000000000000000000000000000000000000000\n      dup2\n      mstore\n      0x04\n      add\n      tag_16\n      swap1\n      tag_17\n      jump\t// in\n    tag_16:\n      mload(0x40)\n      dup1\n      swap2\n      sub\n      swap1\n      revert\n    tag_15:\n        /* \"increment.sol\":254:255  1 */\n      0x01\n        /* \"increment.sol\":246:251  count */\n      0x00\n      dup1\n        /* \"increment.sol\":246:255  count -=1 */\n      dup3\n      dup3\n      sload\n      tag_18\n      swap2\n      swap1\n      tag_19\n      jump\t// in\n    tag_18:\n      swap3\n      pop\n      pop\n      dup2\n      swap1\n      sstore\n      pop\n        /* \"increment.sol\":138:263  function decrement() external {... */\n      jump\t// out\n        /* \"increment.sol\":271:345  function show() external view returns(uint){... */\n    tag_9:\n        /* \"increment.sol\":309:313  uint */\n      0x00\n        /* \"increment.sol\":332:337  count */\n      dup1\n      sload\n        /* \"increment.sol\":325:337  return count */\n      swap1\n      pop\n        /* \"increment.sol\":271:345  function show() external view returns(uint){... */\n      swap1\n      jump\t// out\n        /* \"increment.sol\":72:130  function increment() external {... */\n    tag_13:\n        /* \"increment.sol\":121:122  1 */\n      0x01\n        /* \"increment.sol\":113:118  count */\n      0x00\n      dup1\n        /* \"increment.sol\":113:122  count +=1 */\n      dup3\n      dup3\n      sload\n      tag_22\n      swap2\n      swap1\n      tag_23\n      jump\t// in\n    tag_22:\n      swap3\n      pop\n      pop\n      dup2\n      swap1\n      sstore\n      pop\n        /* \"increment.sol\":72:130  function increment() external {... */\n      jump\t// out\n        /* \"#utility.yul\":7:84   */\n    tag_24:\n        /* \"#utility.yul\":44:51   */\n      0x00\n        /* \"#utility.yul\":73:78   */\n      dup2\n        /* \"#utility.yul\":62:78   */\n      swap1\n      pop\n        /* \"#utility.yul\":7:84   */\n      swap2\n      swap1\n      pop\n      jump\t// out\n        /* \"#utility.yul\":90:208   */\n    tag_25:\n        /* \"#utility.yul\":177:201   */\n      tag_33\n        /* \"#utility.yul\":195:200   */\n      dup2\n        /* \"#utility.yul\":177:201   */\n      tag_24\n      jump\t// in\n    tag_33:\n        /* \"#utility.yul\":172:175   */\n      dup3\n        /* \"#utility.yul\":165:202   */\n      mstore\n        /* \"#utility.yul\":90:208   */\n      pop\n      pop\n      jump\t// out\n        /* \"#utility.yul\":214:436   */\n    tag_11:\n        /* \"#utility.yul\":307:311   */\n      0x00\n        /* \"#utility.yul\":345:347   */\n      0x20\n        /* \"#utility.yul\":334:343   */\n      dup3\n        /* \"#utility.yul\":330:348   */\n      add\n        /* \"#utility.yul\":322:348   */\n      swap1\n      pop\n        /* \"#utility.yul\":358:429   */\n      tag_35\n        /* \"#utility.yul\":426:427   */\n      0x00\n        /* \"#utility.yul\":415:424   */\n      dup4\n        /* \"#utility.yul\":411:428   */\n      add\n        /* \"#utility.yul\":402:408   */\n      dup5\n        /* \"#utility.yul\":358:429   */\n      tag_25\n      jump\t// in\n    tag_35:\n        /* \"#utility.yul\":214:436   */\n      swap3\n      swap2\n      pop\n      pop\n      jump\t// out\n        /* \"#utility.yul\":442:611   */\n    tag_26:\n        /* \"#utility.yul\":526:537   */\n      0x00\n        /* \"#utility.yul\":560:566   */\n      dup3\n        /* \"#utility.yul\":555:558   */\n      dup3\n        /* \"#utility.yul\":548:567   */\n      mstore\n        /* \"#utility.yul\":600:604   */\n      0x20\n        /* \"#utility.yul\":595:598   */\n      dup3\n        /* \"#utility.yul\":591:605   */\n      add\n        /* \"#utility.yul\":576:605   */\n      swap1\n      pop\n        /* \"#utility.yul\":442:611   */\n      swap3\n      swap2\n      pop\n      pop\n      jump\t// out\n        /* \"#utility.yul\":617:837   */\n    tag_27:\n        /* \"#utility.yul\":757:791   */\n      0x636f756e742073686f756c642062652067726561746572207468616e207a6572\n        /* \"#utility.yul\":753:754   */\n      0x00\n        /* \"#utility.yul\":745:751   */\n      dup3\n        /* \"#utility.yul\":741:755   */\n      add\n        /* \"#utility.yul\":734:792   */\n      mstore\n        /* \"#utility.yul\":826:829   */\n      0x6f00000000000000000000000000000000000000000000000000000000000000\n        /* \"#utility.yul\":821:823   */\n      0x20\n        /* \"#utility.yul\":813:819   */\n      dup3\n        /* \"#utility.yul\":809:824   */\n      add\n        /* \"#utility.yul\":802:830   */\n      mstore\n        /* \"#utility.yul\":617:837   */\n      pop\n      jump\t// out\n        /* \"#utility.yul\":843:1209   */\n    tag_28:\n        /* \"#utility.yul\":985:988   */\n      0x00\n        /* \"#utility.yul\":1006:1073   */\n      tag_39\n        /* \"#utility.yul\":1070:1072   */\n      0x21\n        /* \"#utility.yul\":1065:1068   */\n      dup4\n        /* \"#utility.yul\":1006:1073   */\n      tag_26\n      jump\t// in\n    tag_39:\n        /* \"#utility.yul\":999:1073   */\n      swap2\n      pop\n        /* \"#utility.yul\":1082:1175   */\n      tag_40\n        /* \"#utility.yul\":1171:1174   */\n      dup3\n        /* \"#utility.yul\":1082:1175   */\n      tag_27\n      jump\t// in\n    tag_40:\n        /* \"#utility.yul\":1200:1202   */\n      0x40\n        /* \"#utility.yul\":1195:1198   */\n      dup3\n        /* \"#utility.yul\":1191:1203   */\n      add\n        /* \"#utility.yul\":1184:1203   */\n      swap1\n      pop\n        /* \"#utility.yul\":843:1209   */\n      swap2\n      swap1\n      pop\n      jump\t// out\n        /* \"#utility.yul\":1215:1634   */\n    tag_17:\n        /* \"#utility.yul\":1381:1385   */\n      0x00\n        /* \"#utility.yul\":1419:1421   */\n      0x20\n        /* \"#utility.yul\":1408:1417   */\n      dup3\n        /* \"#utility.yul\":1404:1422   */\n      add\n        /* \"#utility.yul\":1396:1422   */\n      swap1\n      pop\n        /* \"#utility.yul\":1468:1477   */\n      dup2\n        /* \"#utility.yul\":1462:1466   */\n      dup2\n        /* \"#utility.yul\":1458:1478   */\n      sub\n        /* \"#utility.yul\":1454:1455   */\n      0x00\n        /* \"#utility.yul\":1443:1452   */\n      dup4\n        /* \"#utility.yul\":1439:1456   */\n      add\n        /* \"#utility.yul\":1432:1479   */\n      mstore\n        /* \"#utility.yul\":1496:1627   */\n      tag_42\n        /* \"#utility.yul\":1622:1626   */\n      dup2\n        /* \"#utility.yul\":1496:1627   */\n      tag_28\n      jump\t// in\n    tag_42:\n        /* \"#utility.yul\":1488:1627   */\n      swap1\n      pop\n        /* \"#utility.yul\":1215:1634   */\n      swap2\n      swap1\n      pop\n      jump\t// out\n        /* \"#utility.yul\":1640:1820   */\n    tag_29:\n        /* \"#utility.yul\":1688:1765   */\n      0x4e487b7100000000000000000000000000000000000000000000000000000000\n        /* \"#utility.yul\":1685:1686   */\n      0x00\n        /* \"#utility.yul\":1678:1766   */\n      mstore\n        /* \"#utility.yul\":1785:1789   */\n      0x11\n        /* \"#utility.yul\":1782:1783   */\n      0x04\n        /* \"#utility.yul\":1775:1790   */\n      mstore\n        /* \"#utility.yul\":1809:1813   */\n      0x24\n        /* \"#utility.yul\":1806:1807   */\n      0x00\n        /* \"#utility.yul\":1799:1814   */\n      revert\n        /* \"#utility.yul\":1826:2020   */\n    tag_19:\n        /* \"#utility.yul\":1866:1870   */\n      0x00\n        /* \"#utility.yul\":1886:1906   */\n      tag_45\n        /* \"#utility.yul\":1904:1905   */\n      dup3\n        /* \"#utility.yul\":1886:1906   */\n      tag_24\n      jump\t// in\n    tag_45:\n        /* \"#utility.yul\":1881:1906   */\n      swap2\n      pop\n        /* \"#utility.yul\":1920:1940   */\n      tag_46\n        /* \"#utility.yul\":1938:1939   */\n      dup4\n        /* \"#utility.yul\":1920:1940   */\n      tag_24\n      jump\t// in\n    tag_46:\n        /* \"#utility.yul\":1915:1940   */\n      swap3\n      pop\n        /* \"#utility.yul\":1964:1965   */\n      dup3\n        /* \"#utility.yul\":1961:1962   */\n      dup3\n        /* \"#utility.yul\":1957:1966   */\n      sub\n        /* \"#utility.yul\":1949:1966   */\n      swap1\n      pop\n        /* \"#utility.yul\":1988:1989   */\n      dup2\n        /* \"#utility.yul\":1982:1986   */\n      dup2\n        /* \"#utility.yul\":1979:1990   */\n      gt\n        /* \"#utility.yul\":1976:2013   */\n      iszero\n      tag_47\n      jumpi\n        /* \"#utility.yul\":1993:2011   */\n      tag_48\n      tag_29\n      jump\t// in\n    tag_48:\n        /* \"#utility.yul\":1976:2013   */\n    tag_47:\n        /* \"#utility.yul\":1826:2020   */\n      swap3\n      swap2\n      pop\n      pop\n      jump\t// out\n        /* \"#utility.yul\":2026:2217   */\n    tag_23:\n        /* \"#utility.yul\":2066:2069   */\n      0x00\n        /* \"#utility.yul\":2085:2105   */\n      tag_50\n        /* \"#utility.yul\":2103:2104   */\n      dup3\n        /* \"#utility.yul\":2085:2105   */\n      tag_24\n      jump\t// in\n    tag_50:\n        /* \"#utility.yul\":2080:2105   */\n      swap2\n      pop\n        /* \"#utility.yul\":2119:2139   */\n      tag_51\n        /* \"#utility.yul\":2137:2138   */\n      dup4\n        /* \"#utility.yul\":2119:2139   */\n      tag_24\n      jump\t// in\n    tag_51:\n        /* \"#utility.yul\":2114:2139   */\n      swap3\n      pop\n        /* \"#utility.yul\":2162:2163   */\n      dup3\n        /* \"#utility.yul\":2159:2160   */\n      dup3\n        /* \"#utility.yul\":2155:2164   */\n      add\n        /* \"#utility.yul\":2148:2164   */\n      swap1\n      pop\n        /* \"#utility.yul\":2183:2186   */\n      dup1\n        /* \"#utility.yul\":2180:2181   */\n      dup3\n        /* \"#utility.yul\":2177:2187   */\n      gt\n        /* \"#utility.yul\":2174:2210   */\n      iszero\n      tag_52\n      jumpi\n        /* \"#utility.yul\":2190:2208   */\n      tag_53\n      tag_29\n      jump\t// in\n    tag_53:\n        /* \"#utility.yul\":2174:2210   */\n    tag_52:\n        /* \"#utility.yul\":2026:2217   */\n      swap3\n      swap2\n      pop\n      pop\n      jump\t// out\n\n    auxdata: 0xa2646970667358221220765f6e06236cbec602fd2ef1c7e6f79c1aa6b49d17c18d8d90073443bad38b8664736f6c634300081a0033\n}\n",
				"bytecode": {
					"linkReferences": {},
					"object": "6080604052348015600e575f80fd5b5061028c8061001c5f395ff3fe608060405234801561000f575f80fd5b506004361061003f575f3560e01c80632baeceb714610043578063cc80f6f31461004d578063d09de08a1461006b575b5f80fd5b61004b610075565b005b6100556100d2565b604051610062919061010c565b60405180910390f35b6100736100da565b005b5f8054116100b8576040517f08c379a00000000000000000000000000000000000000000000000000000000081526004016100af906101a5565b60405180910390fd5b60015f808282546100c991906101f0565b92505081905550565b5f8054905090565b60015f808282546100eb9190610223565b92505081905550565b5f819050919050565b610106816100f4565b82525050565b5f60208201905061011f5f8301846100fd565b92915050565b5f82825260208201905092915050565b7f636f756e742073686f756c642062652067726561746572207468616e207a65725f8201527f6f00000000000000000000000000000000000000000000000000000000000000602082015250565b5f61018f602183610125565b915061019a82610135565b604082019050919050565b5f6020820190508181035f8301526101bc81610183565b9050919050565b7f4e487b71000000000000000000000000000000000000000000000000000000005f52601160045260245ffd5b5f6101fa826100f4565b9150610205836100f4565b925082820390508181111561021d5761021c6101c3565b5b92915050565b5f61022d826100f4565b9150610238836100f4565b92508282019050808211156102505761024f6101c3565b5b9291505056fea2646970667358221220765f6e06236cbec602fd2ef1c7e6f79c1aa6b49d17c18d8d90073443bad38b8664736f6c634300081a0033",
					"opcodes": "PUSH1 0x80 PUSH1 0x40 MSTORE CALLVALUE DUP1 ISZERO PUSH1 0xE JUMPI PUSH0 DUP1 REVERT JUMPDEST POP PUSH2 0x28C DUP1 PUSH2 0x1C PUSH0 CODECOPY PUSH0 RETURN INVALID PUSH1 0x80 PUSH1 0x40 MSTORE CALLVALUE DUP1 ISZERO PUSH2 0xF JUMPI PUSH0 DUP1 REVERT JUMPDEST POP PUSH1 0x4 CALLDATASIZE LT PUSH2 0x3F JUMPI PUSH0 CALLDATALOAD PUSH1 0xE0 SHR DUP1 PUSH4 0x2BAECEB7 EQ PUSH2 0x43 JUMPI DUP1 PUSH4 0xCC80F6F3 EQ PUSH2 0x4D JUMPI DUP1 PUSH4 0xD09DE08A EQ PUSH2 0x6B JUMPI JUMPDEST PUSH0 DUP1 REVERT JUMPDEST PUSH2 0x4B PUSH2 0x75 JUMP JUMPDEST STOP JUMPDEST PUSH2 0x55 PUSH2 0xD2 JUMP JUMPDEST PUSH1 0x40 MLOAD PUSH2 0x62 SWAP2 SWAP1 PUSH2 0x10C JUMP JUMPDEST PUSH1 0x40 MLOAD DUP1 SWAP2 SUB SWAP1 RETURN JUMPDEST PUSH2 0x73 PUSH2 0xDA JUMP JUMPDEST STOP JUMPDEST PUSH0 DUP1 SLOAD GT PUSH2 0xB8 JUMPI PUSH1 0x40 MLOAD PUSH32 0x8C379A000000000000000000000000000000000000000000000000000000000 DUP2 MSTORE PUSH1 0x4 ADD PUSH2 0xAF SWAP1 PUSH2 0x1A5 JUMP JUMPDEST PUSH1 0x40 MLOAD DUP1 SWAP2 SUB SWAP1 REVERT JUMPDEST PUSH1 0x1 PUSH0 DUP1 DUP3 DUP3 SLOAD PUSH2 0xC9 SWAP2 SWAP1 PUSH2 0x1F0 JUMP JUMPDEST SWAP3 POP POP DUP2 SWAP1 SSTORE POP JUMP JUMPDEST PUSH0 DUP1 SLOAD SWAP1 POP SWAP1 JUMP JUMPDEST PUSH1 0x1 PUSH0 DUP1 DUP3 DUP3 SLOAD PUSH2 0xEB SWAP2 SWAP1 PUSH2 0x223 JUMP JUMPDEST SWAP3 POP POP DUP2 SWAP1 SSTORE POP JUMP JUMPDEST PUSH0 DUP2 SWAP1 POP SWAP2 SWAP1 POP JUMP JUMPDEST PUSH2 0x106 DUP2 PUSH2 0xF4 JUMP JUMPDEST DUP3 MSTORE POP POP JUMP JUMPDEST PUSH0 PUSH1 0x20 DUP3 ADD SWAP1 POP PUSH2 0x11F PUSH0 DUP4 ADD DUP5 PUSH2 0xFD JUMP JUMPDEST SWAP3 SWAP2 POP POP JUMP JUMPDEST PUSH0 DUP3 DUP3 MSTORE PUSH1 0x20 DUP3 ADD SWAP1 POP SWAP3 SWAP2 POP POP JUMP JUMPDEST PUSH32 0x636F756E742073686F756C642062652067726561746572207468616E207A6572 PUSH0 DUP3 ADD MSTORE PUSH32 0x6F00000000000000000000000000000000000000000000000000000000000000 PUSH1 0x20 DUP3 ADD MSTORE POP JUMP JUMPDEST PUSH0 PUSH2 0x18F PUSH1 0x21 DUP4 PUSH2 0x125 JUMP JUMPDEST SWAP2 POP PUSH2 0x19A DUP3 PUSH2 0x135 JUMP JUMPDEST PUSH1 0x40 DUP3 ADD SWAP1 POP SWAP2 SWAP1 POP JUMP JUMPDEST PUSH0 PUSH1 0x20 DUP3 ADD SWAP1 POP DUP2 DUP2 SUB PUSH0 DUP4 ADD MSTORE PUSH2 0x1BC DUP2 PUSH2 0x183 JUMP JUMPDEST SWAP1 POP SWAP2 SWAP1 POP JUMP JUMPDEST PUSH32 0x4E487B7100000000000000000000000000000000000000000000000000000000 PUSH0 MSTORE PUSH1 0x11 PUSH1 0x4 MSTORE PUSH1 0x24 PUSH0 REVERT JUMPDEST PUSH0 PUSH2 0x1FA DUP3 PUSH2 0xF4 JUMP JUMPDEST SWAP2 POP PUSH2 0x205 DUP4 PUSH2 0xF4 JUMP JUMPDEST SWAP3 POP DUP3 DUP3 SUB SWAP1 POP DUP2 DUP2 GT ISZERO PUSH2 0x21D JUMPI PUSH2 0x21C PUSH2 0x1C3 JUMP JUMPDEST JUMPDEST SWAP3 SWAP2 POP POP JUMP JUMPDEST PUSH0 PUSH2 0x22D DUP3 PUSH2 0xF4 JUMP JUMPDEST SWAP2 POP PUSH2 0x238 DUP4 PUSH2 0xF4 JUMP JUMPDEST SWAP3 POP DUP3 DUP3 ADD SWAP1 POP DUP1 DUP3 GT ISZERO PUSH2 0x250 JUMPI PUSH2 0x24F PUSH2 0x1C3 JUMP JUMPDEST JUMPDEST SWAP3 SWAP2 POP POP JUMP INVALID LOG2 PUSH5 0x6970667358 0x22 SLT KECCAK256 PUSH23 0x5F6E06236CBEC602FD2EF1C7E6F79C1AA6B49D17C18D8D SWAP1 SMOD CALLVALUE NUMBER 0xBA 0xD3 DUP12 DUP7 PUSH5 0x736F6C6343 STOP ADDMOD BYTE STOP CALLER "
				},
				"gasEstimates": {
					"creation": {
						"codeDepositCost": "130400",
						"executionCost": "175",
						"totalCost": "130575"
					},
					"external": {
						"decrement()": "infinite",
						"increment()": "infinite",
						"show()": "2432"
					}
				},
				"methodIdentifiers": {
					"decrement()": "2baeceb7",
					"increment()": "d09de08a",
					"show()": "cc80f6f3"
				}
			},
			"storageLayout": {
				"storage": [
					{
						"astId": 3,
						"contract": "increment.sol:Counter",
						"label": "count",
						"offset": 0,
						"slot": "0",
						"type": "t_uint256"
					}
				],
				"types": {
					"t_uint256": {
						"encoding": "inplace",
						"label": "uint256",
						"numberOfBytes": "32"
					}
				}
			},
			"userdoc": {
				"kind": "user",
				"methods": {},
				"version": 1
			}
		}
	}
}