{
	"todo.sol": {
		"ToDoList": {
			"abi": [
				{
					"inputs": [
						{
							"internalType": "uint256",
							"name": "givenTaskId",
							"type": "uint256"
						}
					],
					"name": "TaskNotExists",
					"type": "error"
				},
				{
					"anonymous": false,
					"inputs": [
						{
							"indexed": false,
							"internalType": "uint256",
							"name": "taskId",
							"type": "uint256"
						},
						{
							"indexed": false,
							"internalType": "string",
							"name": "description",
							"type": "string"
						}
					],
					"name": "TaskAdded",
					"type": "event"
				},
				{
					"anonymous": false,
					"inputs": [
						{
							"indexed": false,
							"internalType": "uint256",
							"name": "taskId",
							"type": "uint256"
						}
					],
					"name": "TaskCompleted",
					"type": "event"
				},
				{
					"anonymous": false,
					"inputs": [
						{
							"indexed": false,
							"internalType": "uint256",
							"name": "taskId",
							"type": "uint256"
						}
					],
					"name": "TaskRemoved",
					"type": "event"
				},
				{
					"inputs": [
						{
							"internalType": "string",
							"name": "_description",
							"type": "string"
						}
					],
					"name": "addTask",
					"outputs": [],
					"stateMutability": "nonpayable",
					"type": "function"
				},
				{
					"inputs": [
						{
							"internalType": "uint256",
							"name": "_taskId",
							"type": "uint256"
						}
					],
					"name": "completeTask",
					"outputs": [],
					"stateMutability": "nonpayable",
					"type": "function"
				},
				{
					"inputs": [
						{
							"internalType": "uint256",
							"name": "_taskId",
							"type": "uint256"
						}
					],
					"name": "getTask",
					"outputs": [
						{
							"internalType": "string",
							"name": "description",
							"type": "string"
						},
						{
							"internalType": "bool",
							"name": "isCompleted",
							"type": "bool"
						}
					],
					"stateMutability": "view",
					"type": "function"
				},
				{
					"inputs": [],
					"name": "getTaskIds",
					"outputs": [
						{
							"internalType": "uint256[]",
							"name": "",
							"type": "uint256[]"
						}
					],
					"stateMutability": "view",
					"type": "function"
				},
				{
					"inputs": [
						{
							"internalType": "uint256",
							"name": "_taskId",
							"type": "uint256"
						}
					],
					"name": "removeTask",
					"outputs": [],
					"stateMutability": "nonpayable",
					"type": "function"
				}
			],
			"devdoc": {
				"kind": "dev",
				"methods": {},
				"version": 1
			},
			"evm": {
				"assembly": "    /* \"todo.sol\":60:2462  contract ToDoList {... */\n  mstore(0x40, 0x80)\n    /* \"todo.sol\":300:301  1 */\n  0x01\n    /* \"todo.sol\":271:301  uint256 private nextTaskId = 1 */\n  0x02\n  sstore\n    /* \"todo.sol\":60:2462  contract ToDoList {... */\n  callvalue\n  dup1\n  iszero\n  tag_1\n  jumpi\n  0x00\n  dup1\n  revert\ntag_1:\n  pop\n  dataSize(sub_0)\n  dup1\n  dataOffset(sub_0)\n  0x00\n  codecopy\n  0x00\n  return\nstop\n\nsub_0: assembly {\n        /* \"todo.sol\":60:2462  contract ToDoList {... */\n      mstore(0x40, 0x80)\n      callvalue\n      dup1\n      iszero\n      tag_1\n      jumpi\n      0x00\n      dup1\n      revert\n    tag_1:\n      pop\n      jumpi(tag_2, lt(calldatasize, 0x04))\n      shr(0xe0, calldataload(0x00))\n      dup1\n      0x1d65e77e\n      eq\n      tag_3\n      jumpi\n      dup1\n      0x67238562\n      eq\n      tag_4\n      jumpi\n      dup1\n      0xbcd14805\n      eq\n      tag_5\n      jumpi\n      dup1\n      0xc3084117\n      eq\n      tag_6\n      jumpi\n      dup1\n      0xe1e29558\n      eq\n      tag_7\n      jumpi\n    tag_2:\n      0x00\n      dup1\n      revert\n        /* \"todo.sol\":2026:2287  function getTask(... */\n    tag_3:\n      tag_8\n      0x04\n      dup1\n      calldatasize\n      sub\n      dup2\n      add\n      swap1\n      tag_9\n      swap2\n      swap1\n      tag_10\n      jump\t// in\n    tag_9:\n      tag_11\n      jump\t// in\n    tag_8:\n      mload(0x40)\n      tag_12\n      swap3\n      swap2\n      swap1\n      tag_13\n      jump\t// in\n    tag_12:\n      mload(0x40)\n      dup1\n      swap2\n      sub\n      swap1\n      return\n        /* \"todo.sol\":682:1007  function addTask(string memory _description) external {... */\n    tag_4:\n      tag_14\n      0x04\n      dup1\n      calldatasize\n      sub\n      dup2\n      add\n      swap1\n      tag_15\n      swap2\n      swap1\n      tag_16\n      jump\t// in\n    tag_15:\n      tag_17\n      jump\t// in\n    tag_14:\n      stop\n        /* \"todo.sol\":1872:1968  function getTaskIds() external view returns (uint256[] memory) {... */\n    tag_5:\n      tag_18\n      tag_19\n      jump\t// in\n    tag_18:\n      mload(0x40)\n      tag_20\n      swap2\n      swap1\n      tag_21\n      jump\t// in\n    tag_20:\n      mload(0x40)\n      dup1\n      swap2\n      sub\n      swap1\n      return\n        /* \"todo.sol\":1277:1819  function removeTask(uint256 _taskId) external {... */\n    tag_6:\n      tag_22\n      0x04\n      dup1\n      calldatasize\n      sub\n      dup2\n      add\n      swap1\n      tag_23\n      swap2\n      swap1\n      tag_10\n      jump\t// in\n    tag_23:\n      tag_24\n      jump\t// in\n    tag_22:\n      stop\n        /* \"todo.sol\":1060:1235  function completeTask(uint256 _taskId) external {... */\n    tag_7:\n      tag_25\n      0x04\n      dup1\n      calldatasize\n      sub\n      dup2\n      add\n      swap1\n      tag_26\n      swap2\n      swap1\n      tag_10\n      jump\t// in\n    tag_26:\n      tag_27\n      jump\t// in\n    tag_25:\n      stop\n        /* \"todo.sol\":2026:2287  function getTask(... */\n    tag_11:\n        /* \"todo.sol\":2099:2124  string memory description */\n      0x60\n        /* \"todo.sol\":2126:2142  bool isCompleted */\n      0x00\n        /* \"todo.sol\":2155:2181  _ensureTaskExists(_taskId) */\n      tag_29\n        /* \"todo.sol\":2173:2180  _taskId */\n      dup4\n        /* \"todo.sol\":2155:2172  _ensureTaskExists */\n      tag_30\n        /* \"todo.sol\":2155:2181  _ensureTaskExists(_taskId) */\n      jump\t// in\n    tag_29:\n        /* \"todo.sol\":2192:2208  Task memory task */\n      0x00\n        /* \"todo.sol\":2211:2216  tasks */\n      dup1\n        /* \"todo.sol\":2211:2225  tasks[_taskId] */\n      0x00\n        /* \"todo.sol\":2217:2224  _taskId */\n      dup6\n        /* \"todo.sol\":2211:2225  tasks[_taskId] */\n      dup2\n      mstore\n      0x20\n      add\n      swap1\n      dup2\n      mstore\n      0x20\n      add\n      0x00\n      keccak256\n        /* \"todo.sol\":2192:2225  Task memory task = tasks[_taskId] */\n      mload(0x40)\n      dup1\n      0x60\n      add\n      0x40\n      mstore\n      swap1\n      dup2\n      0x00\n      dup3\n      add\n      sload\n      dup2\n      mstore\n      0x20\n      add\n      0x01\n      dup3\n      add\n      dup1\n      sload\n      tag_31\n      swap1\n      tag_32\n      jump\t// in\n    tag_31:\n      dup1\n      0x1f\n      add\n      0x20\n      dup1\n      swap2\n      div\n      mul\n      0x20\n      add\n      mload(0x40)\n      swap1\n      dup2\n      add\n      0x40\n      mstore\n      dup1\n      swap3\n      swap2\n      swap1\n      dup2\n      dup2\n      mstore\n      0x20\n      add\n      dup3\n      dup1\n      sload\n      tag_33\n      swap1\n      tag_32\n      jump\t// in\n    tag_33:\n      dup1\n      iszero\n      tag_34\n      jumpi\n      dup1\n      0x1f\n      lt\n      tag_35\n      jumpi\n      0x0100\n      dup1\n      dup4\n      sload\n      div\n      mul\n      dup4\n      mstore\n      swap2\n      0x20\n      add\n      swap2\n      jump(tag_34)\n    tag_35:\n      dup3\n      add\n      swap2\n      swap1\n      0x00\n      mstore\n      keccak256(0x00, 0x20)\n      swap1\n    tag_36:\n      dup2\n      sload\n      dup2\n      mstore\n      swap1\n      0x01\n      add\n      swap1\n      0x20\n      add\n      dup1\n      dup4\n      gt\n      tag_36\n      jumpi\n      dup3\n      swap1\n      sub\n      0x1f\n      and\n      dup3\n      add\n      swap2\n    tag_34:\n      pop\n      pop\n      pop\n      pop\n      pop\n      dup2\n      mstore\n      0x20\n      add\n      0x02\n      dup3\n      add\n      0x00\n      swap1\n      sload\n      swap1\n      0x0100\n      exp\n      swap1\n      div\n      0xff\n      and\n      iszero\n      iszero\n      iszero\n      iszero\n      dup2\n      mstore\n      pop\n      pop\n      swap1\n      pop\n        /* \"todo.sol\":2244:2248  task */\n      dup1\n        /* \"todo.sol\":2244:2260  task.description */\n      0x20\n      add\n      mload\n        /* \"todo.sol\":2262:2266  task */\n      dup2\n        /* \"todo.sol\":2262:2278  task.isCompleted */\n      0x40\n      add\n      mload\n        /* \"todo.sol\":2236:2279  return (task.description, task.isCompleted) */\n      swap3\n      pop\n      swap3\n      pop\n      pop\n        /* \"todo.sol\":2026:2287  function getTask(... */\n      swap2\n      pop\n      swap2\n      jump\t// out\n        /* \"todo.sol\":682:1007  function addTask(string memory _description) external {... */\n    tag_17:\n        /* \"todo.sol\":767:890  Task({... */\n      mload(0x40)\n      dup1\n      0x60\n      add\n      0x40\n      mstore\n      dup1\n        /* \"todo.sol\":795:805  nextTaskId */\n      sload(0x02)\n        /* \"todo.sol\":767:890  Task({... */\n      dup2\n      mstore\n      0x20\n      add\n        /* \"todo.sol\":833:845  _description */\n      dup3\n        /* \"todo.sol\":767:890  Task({... */\n      dup2\n      mstore\n      0x20\n      add\n        /* \"todo.sol\":873:878  false */\n      0x00\n        /* \"todo.sol\":767:890  Task({... */\n      iszero\n      iszero\n      dup2\n      mstore\n      pop\n        /* \"todo.sol\":747:752  tasks */\n      0x00\n        /* \"todo.sol\":747:764  tasks[nextTaskId] */\n      dup1\n        /* \"todo.sol\":753:763  nextTaskId */\n      sload(0x02)\n        /* \"todo.sol\":747:764  tasks[nextTaskId] */\n      dup2\n      mstore\n      0x20\n      add\n      swap1\n      dup2\n      mstore\n      0x20\n      add\n      0x00\n      keccak256\n        /* \"todo.sol\":747:890  tasks[nextTaskId] = Task({... */\n      0x00\n      dup3\n      add\n      mload\n      dup2\n      0x00\n      add\n      sstore\n      0x20\n      dup3\n      add\n      mload\n      dup2\n      0x01\n      add\n      swap1\n      dup2\n      tag_38\n      swap2\n      swap1\n      tag_39\n      jump\t// in\n    tag_38:\n      pop\n      0x40\n      dup3\n      add\n      mload\n      dup2\n      0x02\n      add\n      exp(0x0100, 0x00)\n      dup2\n      sload\n      dup2\n      0xff\n      mul\n      not\n      and\n      swap1\n      dup4\n      iszero\n      iszero\n      mul\n      or\n      swap1\n      sstore\n      pop\n      swap1\n      pop\n      pop\n        /* \"todo.sol\":901:908  taskIds */\n      0x01\n        /* \"todo.sol\":914:924  nextTaskId */\n      sload(0x02)\n        /* \"todo.sol\":901:925  taskIds.push(nextTaskId) */\n      swap1\n      dup1\n      0x01\n      dup2\n      sload\n      add\n      dup1\n      dup3\n      sstore\n      dup1\n      swap2\n      pop\n      pop\n      0x01\n      swap1\n      sub\n      swap1\n      0x00\n      mstore\n      keccak256(0x00, 0x20)\n      add\n      0x00\n      swap1\n      swap2\n      swap1\n      swap2\n      swap1\n      swap2\n      pop\n      sstore\n        /* \"todo.sol\":941:976  TaskAdded(nextTaskId, _description) */\n      0x2ee7ce8bac091b03a0c391c07ee88a246bdd72bdc6b1ef1ce4d99220595d32c5\n        /* \"todo.sol\":951:961  nextTaskId */\n      sload(0x02)\n        /* \"todo.sol\":963:975  _description */\n      dup3\n        /* \"todo.sol\":941:976  TaskAdded(nextTaskId, _description) */\n      mload(0x40)\n      tag_41\n      swap3\n      swap2\n      swap1\n      tag_42\n      jump\t// in\n    tag_41:\n      mload(0x40)\n      dup1\n      swap2\n      sub\n      swap1\n      log1\n        /* \"todo.sol\":987:997  nextTaskId */\n      0x02\n      0x00\n        /* \"todo.sol\":987:999  nextTaskId++ */\n      dup2\n      sload\n      dup1\n      swap3\n      swap2\n      swap1\n      tag_43\n      swap1\n      tag_44\n      jump\t// in\n    tag_43:\n      swap2\n      swap1\n      pop\n      sstore\n      pop\n        /* \"todo.sol\":682:1007  function addTask(string memory _description) external {... */\n      pop\n      jump\t// out\n        /* \"todo.sol\":1872:1968  function getTaskIds() external view returns (uint256[] memory) {... */\n    tag_19:\n        /* \"todo.sol\":1917:1933  uint256[] memory */\n      0x60\n        /* \"todo.sol\":1953:1960  taskIds */\n      0x01\n        /* \"todo.sol\":1946:1960  return taskIds */\n      dup1\n      sload\n      dup1\n      0x20\n      mul\n      0x20\n      add\n      mload(0x40)\n      swap1\n      dup2\n      add\n      0x40\n      mstore\n      dup1\n      swap3\n      swap2\n      swap1\n      dup2\n      dup2\n      mstore\n      0x20\n      add\n      dup3\n      dup1\n      sload\n      dup1\n      iszero\n      tag_46\n      jumpi\n      0x20\n      mul\n      dup3\n      add\n      swap2\n      swap1\n      0x00\n      mstore\n      keccak256(0x00, 0x20)\n      swap1\n    tag_47:\n      dup2\n      sload\n      dup2\n      mstore\n      0x20\n      add\n      swap1\n      0x01\n      add\n      swap1\n      dup1\n      dup4\n      gt\n      tag_47\n      jumpi\n    tag_46:\n      pop\n      pop\n      pop\n      pop\n      pop\n      swap1\n      pop\n        /* \"todo.sol\":1872:1968  function getTaskIds() external view returns (uint256[] memory) {... */\n      swap1\n      jump\t// out\n        /* \"todo.sol\":1277:1819  function removeTask(uint256 _taskId) external {... */\n    tag_24:\n        /* \"todo.sol\":1334:1360  _ensureTaskExists(_taskId) */\n      tag_49\n        /* \"todo.sol\":1352:1359  _taskId */\n      dup2\n        /* \"todo.sol\":1334:1351  _ensureTaskExists */\n      tag_30\n        /* \"todo.sol\":1334:1360  _ensureTaskExists(_taskId) */\n      jump\t// in\n    tag_49:\n        /* \"todo.sol\":1378:1383  tasks */\n      0x00\n        /* \"todo.sol\":1378:1392  tasks[_taskId] */\n      dup1\n        /* \"todo.sol\":1384:1391  _taskId */\n      dup3\n        /* \"todo.sol\":1378:1392  tasks[_taskId] */\n      dup2\n      mstore\n      0x20\n      add\n      swap1\n      dup2\n      mstore\n      0x20\n      add\n      0x00\n      keccak256\n      0x00\n        /* \"todo.sol\":1371:1392  delete tasks[_taskId] */\n      dup1\n      dup3\n      add\n      0x00\n      swap1\n      sstore\n      0x01\n      dup3\n      add\n      0x00\n      tag_50\n      swap2\n      swap1\n      tag_51\n      jump\t// in\n    tag_50:\n      0x02\n      dup3\n      add\n      exp(0x0100, 0x00)\n      dup2\n      sload\n      swap1\n      0xff\n      mul\n      not\n      and\n      swap1\n      sstore\n      pop\n      pop\n        /* \"todo.sol\":1456:1465  uint256 i */\n      0x00\n        /* \"todo.sol\":1451:1774  for (uint256 i = 0; i < taskIds.length; i++) {... */\n    tag_52:\n        /* \"todo.sol\":1475:1482  taskIds */\n      0x01\n        /* \"todo.sol\":1475:1489  taskIds.length */\n      dup1\n      sload\n      swap1\n      pop\n        /* \"todo.sol\":1471:1472  i */\n      dup2\n        /* \"todo.sol\":1471:1489  i < taskIds.length */\n      lt\n        /* \"todo.sol\":1451:1774  for (uint256 i = 0; i < taskIds.length; i++) {... */\n      iszero\n      tag_53\n      jumpi\n        /* \"todo.sol\":1529:1536  _taskId */\n      dup2\n        /* \"todo.sol\":1515:1522  taskIds */\n      0x01\n        /* \"todo.sol\":1523:1524  i */\n      dup3\n        /* \"todo.sol\":1515:1525  taskIds[i] */\n      dup2\n      sload\n      dup2\n      lt\n      tag_55\n      jumpi\n      tag_56\n      tag_57\n      jump\t// in\n    tag_56:\n    tag_55:\n      swap1\n      0x00\n      mstore\n      keccak256(0x00, 0x20)\n      add\n      sload\n        /* \"todo.sol\":1515:1536  taskIds[i] == _taskId */\n      sub\n        /* \"todo.sol\":1511:1763  if (taskIds[i] == _taskId) {... */\n      tag_59\n      jumpi\n        /* \"todo.sol\":1597:1604  taskIds */\n      0x01\n        /* \"todo.sol\":1622:1623  1 */\n      dup1\n        /* \"todo.sol\":1605:1612  taskIds */\n      dup1\n        /* \"todo.sol\":1605:1619  taskIds.length */\n      dup1\n      sload\n      swap1\n      pop\n        /* \"todo.sol\":1605:1623  taskIds.length - 1 */\n      tag_60\n      swap2\n      swap1\n      tag_61\n      jump\t// in\n    tag_60:\n        /* \"todo.sol\":1597:1624  taskIds[taskIds.length - 1] */\n      dup2\n      sload\n      dup2\n      lt\n      tag_62\n      jumpi\n      tag_63\n      tag_57\n      jump\t// in\n    tag_63:\n    tag_62:\n      swap1\n      0x00\n      mstore\n      keccak256(0x00, 0x20)\n      add\n      sload\n        /* \"todo.sol\":1584:1591  taskIds */\n      0x01\n        /* \"todo.sol\":1592:1593  i */\n      dup3\n        /* \"todo.sol\":1584:1594  taskIds[i] */\n      dup2\n      sload\n      dup2\n      lt\n      tag_65\n      jumpi\n      tag_66\n      tag_57\n      jump\t// in\n    tag_66:\n    tag_65:\n      swap1\n      0x00\n      mstore\n      keccak256(0x00, 0x20)\n      add\n        /* \"todo.sol\":1584:1624  taskIds[i] = taskIds[taskIds.length - 1] */\n      dup2\n      swap1\n      sstore\n      pop\n        /* \"todo.sol\":1686:1693  taskIds */\n      0x01\n        /* \"todo.sol\":1686:1699  taskIds.pop() */\n      dup1\n      sload\n      dup1\n      tag_68\n      jumpi\n      tag_69\n      tag_70\n      jump\t// in\n    tag_69:\n    tag_68:\n      0x01\n      swap1\n      sub\n      dup2\n      dup2\n      swap1\n      0x00\n      mstore\n      keccak256(0x00, 0x20)\n      add\n      0x00\n      swap1\n      sstore\n      swap1\n      sstore\n        /* \"todo.sol\":1742:1747  break */\n      jump(tag_53)\n        /* \"todo.sol\":1511:1763  if (taskIds[i] == _taskId) {... */\n    tag_59:\n        /* \"todo.sol\":1491:1494  i++ */\n      dup1\n      dup1\n      0x01\n      add\n      swap2\n      pop\n      pop\n        /* \"todo.sol\":1451:1774  for (uint256 i = 0; i < taskIds.length; i++) {... */\n      jump(tag_52)\n    tag_53:\n      pop\n        /* \"todo.sol\":1791:1811  TaskRemoved(_taskId) */\n      0x36a2f40cfe61ace5baf26a6e4f86ffa75c62392fde263d354d42e0e718fa4bd1\n        /* \"todo.sol\":1803:1810  _taskId */\n      dup2\n        /* \"todo.sol\":1791:1811  TaskRemoved(_taskId) */\n      mload(0x40)\n      tag_72\n      swap2\n      swap1\n      tag_73\n      jump\t// in\n    tag_72:\n      mload(0x40)\n      dup1\n      swap2\n      sub\n      swap1\n      log1\n        /* \"todo.sol\":1277:1819  function removeTask(uint256 _taskId) external {... */\n      pop\n      jump\t// out\n        /* \"todo.sol\":1060:1235  function completeTask(uint256 _taskId) external {... */\n    tag_27:\n        /* \"todo.sol\":1119:1145  _ensureTaskExists(_taskId) */\n      tag_75\n        /* \"todo.sol\":1137:1144  _taskId */\n      dup2\n        /* \"todo.sol\":1119:1136  _ensureTaskExists */\n      tag_30\n        /* \"todo.sol\":1119:1145  _ensureTaskExists(_taskId) */\n      jump\t// in\n    tag_75:\n        /* \"todo.sol\":1185:1189  true */\n      0x01\n        /* \"todo.sol\":1156:1161  tasks */\n      0x00\n        /* \"todo.sol\":1156:1170  tasks[_taskId] */\n      dup1\n        /* \"todo.sol\":1162:1169  _taskId */\n      dup4\n        /* \"todo.sol\":1156:1170  tasks[_taskId] */\n      dup2\n      mstore\n      0x20\n      add\n      swap1\n      dup2\n      mstore\n      0x20\n      add\n      0x00\n      keccak256\n        /* \"todo.sol\":1156:1182  tasks[_taskId].isCompleted */\n      0x02\n      add\n      0x00\n        /* \"todo.sol\":1156:1189  tasks[_taskId].isCompleted = true */\n      0x0100\n      exp\n      dup2\n      sload\n      dup2\n      0xff\n      mul\n      not\n      and\n      swap1\n      dup4\n      iszero\n      iszero\n      mul\n      or\n      swap1\n      sstore\n      pop\n        /* \"todo.sol\":1205:1227  TaskCompleted(_taskId) */\n      0xc1fa7142cfb933d0855114a3bffde296944c30b727f297c14d0db4d553d3a5c7\n        /* \"todo.sol\":1219:1226  _taskId */\n      dup2\n        /* \"todo.sol\":1205:1227  TaskCompleted(_taskId) */\n      mload(0x40)\n      tag_76\n      swap2\n      swap1\n      tag_73\n      jump\t// in\n    tag_76:\n      mload(0x40)\n      dup1\n      swap2\n      sub\n      swap1\n      log1\n        /* \"todo.sol\":1060:1235  function completeTask(uint256 _taskId) external {... */\n      pop\n      jump\t// out\n        /* \"todo.sol\":2295:2459  function _ensureTaskExists(uint256 _taskId) internal view {... */\n    tag_30:\n        /* \"todo.sol\":2393:2394  0 */\n      0x00\n        /* \"todo.sol\":2368:2373  tasks */\n      dup1\n        /* \"todo.sol\":2368:2382  tasks[_taskId] */\n      0x00\n        /* \"todo.sol\":2374:2381  _taskId */\n      dup4\n        /* \"todo.sol\":2368:2382  tasks[_taskId] */\n      dup2\n      mstore\n      0x20\n      add\n      swap1\n      dup2\n      mstore\n      0x20\n      add\n      0x00\n      keccak256\n        /* \"todo.sol\":2368:2389  tasks[_taskId].taskId */\n      0x00\n      add\n      sload\n        /* \"todo.sol\":2368:2394  tasks[_taskId].taskId == 0 */\n      sub\n        /* \"todo.sol\":2364:2452  if (tasks[_taskId].taskId == 0) {... */\n      tag_78\n      jumpi\n        /* \"todo.sol\":2432:2439  _taskId */\n      dup1\n        /* \"todo.sol\":2418:2440  TaskNotExists(_taskId) */\n      mload(0x40)\n      0xc74fcd6b00000000000000000000000000000000000000000000000000000000\n      dup2\n      mstore\n      0x04\n      add\n      tag_79\n      swap2\n      swap1\n      tag_73\n      jump\t// in\n    tag_79:\n      mload(0x40)\n      dup1\n      swap2\n      sub\n      swap1\n      revert\n        /* \"todo.sol\":2364:2452  if (tasks[_taskId].taskId == 0) {... */\n    tag_78:\n        /* \"todo.sol\":2295:2459  function _ensureTaskExists(uint256 _taskId) internal view {... */\n      pop\n      jump\t// out\n    tag_51:\n      pop\n      dup1\n      sload\n      tag_80\n      swap1\n      tag_32\n      jump\t// in\n    tag_80:\n      0x00\n      dup3\n      sstore\n      dup1\n      0x1f\n      lt\n      tag_82\n      jumpi\n      pop\n      jump(tag_81)\n    tag_82:\n      0x1f\n      add\n      0x20\n      swap1\n      div\n      swap1\n      0x00\n      mstore\n      keccak256(0x00, 0x20)\n      swap1\n      dup2\n      add\n      swap1\n      tag_83\n      swap2\n      swap1\n      tag_84\n      jump\t// in\n    tag_83:\n    tag_81:\n      pop\n      jump\t// out\n    tag_84:\n    tag_85:\n      dup1\n      dup3\n      gt\n      iszero\n      tag_86\n      jumpi\n      0x00\n      dup2\n      0x00\n      swap1\n      sstore\n      pop\n      0x01\n      add\n      jump(tag_85)\n    tag_86:\n      pop\n      swap1\n      jump\t// out\n        /* \"#utility.yul\":7:82   */\n    tag_87:\n        /* \"#utility.yul\":40:46   */\n      0x00\n        /* \"#utility.yul\":73:75   */\n      0x40\n        /* \"#utility.yul\":67:76   */\n      mload\n        /* \"#utility.yul\":57:76   */\n      swap1\n      pop\n        /* \"#utility.yul\":7:82   */\n      swap1\n      jump\t// out\n        /* \"#utility.yul\":88:205   */\n    tag_88:\n        /* \"#utility.yul\":197:198   */\n      0x00\n        /* \"#utility.yul\":194:195   */\n      dup1\n        /* \"#utility.yul\":187:199   */\n      revert\n        /* \"#utility.yul\":211:328   */\n    tag_89:\n        /* \"#utility.yul\":320:321   */\n      0x00\n        /* \"#utility.yul\":317:318   */\n      dup1\n        /* \"#utility.yul\":310:322   */\n      revert\n        /* \"#utility.yul\":334:411   */\n    tag_90:\n        /* \"#utility.yul\":371:378   */\n      0x00\n        /* \"#utility.yul\":400:405   */\n      dup2\n        /* \"#utility.yul\":389:405   */\n      swap1\n      pop\n        /* \"#utility.yul\":334:411   */\n      swap2\n      swap1\n      pop\n      jump\t// out\n        /* \"#utility.yul\":417:539   */\n    tag_91:\n        /* \"#utility.yul\":490:514   */\n      tag_140\n        /* \"#utility.yul\":508:513   */\n      dup2\n        /* \"#utility.yul\":490:514   */\n      tag_90\n      jump\t// in\n    tag_140:\n        /* \"#utility.yul\":483:488   */\n      dup2\n        /* \"#utility.yul\":480:515   */\n      eq\n        /* \"#utility.yul\":470:533   */\n      tag_141\n      jumpi\n        /* \"#utility.yul\":529:530   */\n      0x00\n        /* \"#utility.yul\":526:527   */\n      dup1\n        /* \"#utility.yul\":519:531   */\n      revert\n        /* \"#utility.yul\":470:533   */\n    tag_141:\n        /* \"#utility.yul\":417:539   */\n      pop\n      jump\t// out\n        /* \"#utility.yul\":545:684   */\n    tag_92:\n        /* \"#utility.yul\":591:596   */\n      0x00\n        /* \"#utility.yul\":629:635   */\n      dup2\n        /* \"#utility.yul\":616:636   */\n      calldataload\n        /* \"#utility.yul\":607:636   */\n      swap1\n      pop\n        /* \"#utility.yul\":645:678   */\n      tag_143\n        /* \"#utility.yul\":672:677   */\n      dup2\n        /* \"#utility.yul\":645:678   */\n      tag_91\n      jump\t// in\n    tag_143:\n        /* \"#utility.yul\":545:684   */\n      swap3\n      swap2\n      pop\n      pop\n      jump\t// out\n        /* \"#utility.yul\":690:1019   */\n    tag_10:\n        /* \"#utility.yul\":749:755   */\n      0x00\n        /* \"#utility.yul\":798:800   */\n      0x20\n        /* \"#utility.yul\":786:795   */\n      dup3\n        /* \"#utility.yul\":777:784   */\n      dup5\n        /* \"#utility.yul\":773:796   */\n      sub\n        /* \"#utility.yul\":769:801   */\n      slt\n        /* \"#utility.yul\":766:885   */\n      iszero\n      tag_145\n      jumpi\n        /* \"#utility.yul\":804:883   */\n      tag_146\n      tag_88\n      jump\t// in\n    tag_146:\n        /* \"#utility.yul\":766:885   */\n    tag_145:\n        /* \"#utility.yul\":924:925   */\n      0x00\n        /* \"#utility.yul\":949:1002   */\n      tag_147\n        /* \"#utility.yul\":994:1001   */\n      dup5\n        /* \"#utility.yul\":985:991   */\n      dup3\n        /* \"#utility.yul\":974:983   */\n      dup6\n        /* \"#utility.yul\":970:992   */\n      add\n        /* \"#utility.yul\":949:1002   */\n      tag_92\n      jump\t// in\n    tag_147:\n        /* \"#utility.yul\":939:1002   */\n      swap2\n      pop\n        /* \"#utility.yul\":895:1012   */\n      pop\n        /* \"#utility.yul\":690:1019   */\n      swap3\n      swap2\n      pop\n      pop\n      jump\t// out\n        /* \"#utility.yul\":1025:1124   */\n    tag_93:\n        /* \"#utility.yul\":1077:1083   */\n      0x00\n        /* \"#utility.yul\":1111:1116   */\n      dup2\n        /* \"#utility.yul\":1105:1117   */\n      mload\n        /* \"#utility.yul\":1095:1117   */\n      swap1\n      pop\n        /* \"#utility.yul\":1025:1124   */\n      swap2\n      swap1\n      pop\n      jump\t// out\n        /* \"#utility.yul\":1130:1299   */\n    tag_94:\n        /* \"#utility.yul\":1214:1225   */\n      0x00\n        /* \"#utility.yul\":1248:1254   */\n      dup3\n        /* \"#utility.yul\":1243:1246   */\n      dup3\n        /* \"#utility.yul\":1236:1255   */\n      mstore\n        /* \"#utility.yul\":1288:1292   */\n      0x20\n        /* \"#utility.yul\":1283:1286   */\n      dup3\n        /* \"#utility.yul\":1279:1293   */\n      add\n        /* \"#utility.yul\":1264:1293   */\n      swap1\n      pop\n        /* \"#utility.yul\":1130:1299   */\n      swap3\n      swap2\n      pop\n      pop\n      jump\t// out\n        /* \"#utility.yul\":1305:1444   */\n    tag_95:\n        /* \"#utility.yul\":1394:1400   */\n      dup3\n        /* \"#utility.yul\":1389:1392   */\n      dup2\n        /* \"#utility.yul\":1384:1387   */\n      dup4\n        /* \"#utility.yul\":1378:1401   */\n      mcopy\n        /* \"#utility.yul\":1435:1436   */\n      0x00\n        /* \"#utility.yul\":1426:1432   */\n      dup4\n        /* \"#utility.yul\":1421:1424   */\n      dup4\n        /* \"#utility.yul\":1417:1433   */\n      add\n        /* \"#utility.yul\":1410:1437   */\n      mstore\n        /* \"#utility.yul\":1305:1444   */\n      pop\n      pop\n      pop\n      jump\t// out\n        /* \"#utility.yul\":1450:1552   */\n    tag_96:\n        /* \"#utility.yul\":1491:1497   */\n      0x00\n        /* \"#utility.yul\":1542:1544   */\n      0x1f\n        /* \"#utility.yul\":1538:1545   */\n      not\n        /* \"#utility.yul\":1533:1535   */\n      0x1f\n        /* \"#utility.yul\":1526:1531   */\n      dup4\n        /* \"#utility.yul\":1522:1536   */\n      add\n        /* \"#utility.yul\":1518:1546   */\n      and\n        /* \"#utility.yul\":1508:1546   */\n      swap1\n      pop\n        /* \"#utility.yul\":1450:1552   */\n      swap2\n      swap1\n      pop\n      jump\t// out\n        /* \"#utility.yul\":1558:1935   */\n    tag_97:\n        /* \"#utility.yul\":1646:1649   */\n      0x00\n        /* \"#utility.yul\":1674:1713   */\n      tag_153\n        /* \"#utility.yul\":1707:1712   */\n      dup3\n        /* \"#utility.yul\":1674:1713   */\n      tag_93\n      jump\t// in\n    tag_153:\n        /* \"#utility.yul\":1729:1800   */\n      tag_154\n        /* \"#utility.yul\":1793:1799   */\n      dup2\n        /* \"#utility.yul\":1788:1791   */\n      dup6\n        /* \"#utility.yul\":1729:1800   */\n      tag_94\n      jump\t// in\n    tag_154:\n        /* \"#utility.yul\":1722:1800   */\n      swap4\n      pop\n        /* \"#utility.yul\":1809:1874   */\n      tag_155\n        /* \"#utility.yul\":1867:1873   */\n      dup2\n        /* \"#utility.yul\":1862:1865   */\n      dup6\n        /* \"#utility.yul\":1855:1859   */\n      0x20\n        /* \"#utility.yul\":1848:1853   */\n      dup7\n        /* \"#utility.yul\":1844:1860   */\n      add\n        /* \"#utility.yul\":1809:1874   */\n      tag_95\n      jump\t// in\n    tag_155:\n        /* \"#utility.yul\":1899:1928   */\n      tag_156\n        /* \"#utility.yul\":1921:1927   */\n      dup2\n        /* \"#utility.yul\":1899:1928   */\n      tag_96\n      jump\t// in\n    tag_156:\n        /* \"#utility.yul\":1894:1897   */\n      dup5\n        /* \"#utility.yul\":1890:1929   */\n      add\n        /* \"#utility.yul\":1883:1929   */\n      swap2\n      pop\n        /* \"#utility.yul\":1650:1935   */\n      pop\n        /* \"#utility.yul\":1558:1935   */\n      swap3\n      swap2\n      pop\n      pop\n      jump\t// out\n        /* \"#utility.yul\":1941:2031   */\n    tag_98:\n        /* \"#utility.yul\":1975:1982   */\n      0x00\n        /* \"#utility.yul\":2018:2023   */\n      dup2\n        /* \"#utility.yul\":2011:2024   */\n      iszero\n        /* \"#utility.yul\":2004:2025   */\n      iszero\n        /* \"#utility.yul\":1993:2025   */\n      swap1\n      pop\n        /* \"#utility.yul\":1941:2031   */\n      swap2\n      swap1\n      pop\n      jump\t// out\n        /* \"#utility.yul\":2037:2146   */\n    tag_99:\n        /* \"#utility.yul\":2118:2139   */\n      tag_159\n        /* \"#utility.yul\":2133:2138   */\n      dup2\n        /* \"#utility.yul\":2118:2139   */\n      tag_98\n      jump\t// in\n    tag_159:\n        /* \"#utility.yul\":2113:2116   */\n      dup3\n        /* \"#utility.yul\":2106:2140   */\n      mstore\n        /* \"#utility.yul\":2037:2146   */\n      pop\n      pop\n      jump\t// out\n        /* \"#utility.yul\":2152:2563   */\n    tag_13:\n        /* \"#utility.yul\":2287:2291   */\n      0x00\n        /* \"#utility.yul\":2325:2327   */\n      0x40\n        /* \"#utility.yul\":2314:2323   */\n      dup3\n        /* \"#utility.yul\":2310:2328   */\n      add\n        /* \"#utility.yul\":2302:2328   */\n      swap1\n      pop\n        /* \"#utility.yul\":2374:2383   */\n      dup2\n        /* \"#utility.yul\":2368:2372   */\n      dup2\n        /* \"#utility.yul\":2364:2384   */\n      sub\n        /* \"#utility.yul\":2360:2361   */\n      0x00\n        /* \"#utility.yul\":2349:2358   */\n      dup4\n        /* \"#utility.yul\":2345:2362   */\n      add\n        /* \"#utility.yul\":2338:2385   */\n      mstore\n        /* \"#utility.yul\":2402:2480   */\n      tag_161\n        /* \"#utility.yul\":2475:2479   */\n      dup2\n        /* \"#utility.yul\":2466:2472   */\n      dup6\n        /* \"#utility.yul\":2402:2480   */\n      tag_97\n      jump\t// in\n    tag_161:\n        /* \"#utility.yul\":2394:2480   */\n      swap1\n      pop\n        /* \"#utility.yul\":2490:2556   */\n      tag_162\n        /* \"#utility.yul\":2552:2554   */\n      0x20\n        /* \"#utility.yul\":2541:2550   */\n      dup4\n        /* \"#utility.yul\":2537:2555   */\n      add\n        /* \"#utility.yul\":2528:2534   */\n      dup5\n        /* \"#utility.yul\":2490:2556   */\n      tag_99\n      jump\t// in\n    tag_162:\n        /* \"#utility.yul\":2152:2563   */\n      swap4\n      swap3\n      pop\n      pop\n      pop\n      jump\t// out\n        /* \"#utility.yul\":2569:2686   */\n    tag_100:\n        /* \"#utility.yul\":2678:2679   */\n      0x00\n        /* \"#utility.yul\":2675:2676   */\n      dup1\n        /* \"#utility.yul\":2668:2680   */\n      revert\n        /* \"#utility.yul\":2692:2809   */\n    tag_101:\n        /* \"#utility.yul\":2801:2802   */\n      0x00\n        /* \"#utility.yul\":2798:2799   */\n      dup1\n        /* \"#utility.yul\":2791:2803   */\n      revert\n        /* \"#utility.yul\":2815:2995   */\n    tag_102:\n        /* \"#utility.yul\":2863:2940   */\n      0x4e487b7100000000000000000000000000000000000000000000000000000000\n        /* \"#utility.yul\":2860:2861   */\n      0x00\n        /* \"#utility.yul\":2853:2941   */\n      mstore\n        /* \"#utility.yul\":2960:2964   */\n      0x41\n        /* \"#utility.yul\":2957:2958   */\n      0x04\n        /* \"#utility.yul\":2950:2965   */\n      mstore\n        /* \"#utility.yul\":2984:2988   */\n      0x24\n        /* \"#utility.yul\":2981:2982   */\n      0x00\n        /* \"#utility.yul\":2974:2989   */\n      revert\n        /* \"#utility.yul\":3001:3282   */\n    tag_103:\n        /* \"#utility.yul\":3084:3111   */\n      tag_167\n        /* \"#utility.yul\":3106:3110   */\n      dup3\n        /* \"#utility.yul\":3084:3111   */\n      tag_96\n      jump\t// in\n    tag_167:\n        /* \"#utility.yul\":3076:3082   */\n      dup2\n        /* \"#utility.yul\":3072:3112   */\n      add\n        /* \"#utility.yul\":3214:3220   */\n      dup2\n        /* \"#utility.yul\":3202:3212   */\n      dup2\n        /* \"#utility.yul\":3199:3221   */\n      lt\n        /* \"#utility.yul\":3178:3196   */\n      0xffffffffffffffff\n        /* \"#utility.yul\":3166:3176   */\n      dup3\n        /* \"#utility.yul\":3163:3197   */\n      gt\n        /* \"#utility.yul\":3160:3222   */\n      or\n        /* \"#utility.yul\":3157:3245   */\n      iszero\n      tag_168\n      jumpi\n        /* \"#utility.yul\":3225:3243   */\n      tag_169\n      tag_102\n      jump\t// in\n    tag_169:\n        /* \"#utility.yul\":3157:3245   */\n    tag_168:\n        /* \"#utility.yul\":3265:3275   */\n      dup1\n        /* \"#utility.yul\":3261:3263   */\n      0x40\n        /* \"#utility.yul\":3254:3276   */\n      mstore\n        /* \"#utility.yul\":3044:3282   */\n      pop\n        /* \"#utility.yul\":3001:3282   */\n      pop\n      pop\n      jump\t// out\n        /* \"#utility.yul\":3288:3417   */\n    tag_104:\n        /* \"#utility.yul\":3322:3328   */\n      0x00\n        /* \"#utility.yul\":3349:3369   */\n      tag_171\n      tag_87\n      jump\t// in\n    tag_171:\n        /* \"#utility.yul\":3339:3369   */\n      swap1\n      pop\n        /* \"#utility.yul\":3378:3411   */\n      tag_172\n        /* \"#utility.yul\":3406:3410   */\n      dup3\n        /* \"#utility.yul\":3398:3404   */\n      dup3\n        /* \"#utility.yul\":3378:3411   */\n      tag_103\n      jump\t// in\n    tag_172:\n        /* \"#utility.yul\":3288:3417   */\n      swap2\n      swap1\n      pop\n      jump\t// out\n        /* \"#utility.yul\":3423:3731   */\n    tag_105:\n        /* \"#utility.yul\":3485:3489   */\n      0x00\n        /* \"#utility.yul\":3575:3593   */\n      0xffffffffffffffff\n        /* \"#utility.yul\":3567:3573   */\n      dup3\n        /* \"#utility.yul\":3564:3594   */\n      gt\n        /* \"#utility.yul\":3561:3617   */\n      iszero\n      tag_174\n      jumpi\n        /* \"#utility.yul\":3597:3615   */\n      tag_175\n      tag_102\n      jump\t// in\n    tag_175:\n        /* \"#utility.yul\":3561:3617   */\n    tag_174:\n        /* \"#utility.yul\":3635:3664   */\n      tag_176\n        /* \"#utility.yul\":3657:3663   */\n      dup3\n        /* \"#utility.yul\":3635:3664   */\n      tag_96\n      jump\t// in\n    tag_176:\n        /* \"#utility.yul\":3627:3664   */\n      swap1\n      pop\n        /* \"#utility.yul\":3719:3723   */\n      0x20\n        /* \"#utility.yul\":3713:3717   */\n      dup2\n        /* \"#utility.yul\":3709:3724   */\n      add\n        /* \"#utility.yul\":3701:3724   */\n      swap1\n      pop\n        /* \"#utility.yul\":3423:3731   */\n      swap2\n      swap1\n      pop\n      jump\t// out\n        /* \"#utility.yul\":3737:3885   */\n    tag_106:\n        /* \"#utility.yul\":3835:3841   */\n      dup3\n        /* \"#utility.yul\":3830:3833   */\n      dup2\n        /* \"#utility.yul\":3825:3828   */\n      dup4\n        /* \"#utility.yul\":3812:3842   */\n      calldatacopy\n        /* \"#utility.yul\":3876:3877   */\n      0x00\n        /* \"#utility.yul\":3867:3873   */\n      dup4\n        /* \"#utility.yul\":3862:3865   */\n      dup4\n        /* \"#utility.yul\":3858:3874   */\n      add\n        /* \"#utility.yul\":3851:3878   */\n      mstore\n        /* \"#utility.yul\":3737:3885   */\n      pop\n      pop\n      pop\n      jump\t// out\n        /* \"#utility.yul\":3891:4316   */\n    tag_107:\n        /* \"#utility.yul\":3969:3974   */\n      0x00\n        /* \"#utility.yul\":3994:4060   */\n      tag_179\n        /* \"#utility.yul\":4010:4059   */\n      tag_180\n        /* \"#utility.yul\":4052:4058   */\n      dup5\n        /* \"#utility.yul\":4010:4059   */\n      tag_105\n      jump\t// in\n    tag_180:\n        /* \"#utility.yul\":3994:4060   */\n      tag_104\n      jump\t// in\n    tag_179:\n        /* \"#utility.yul\":3985:4060   */\n      swap1\n      pop\n        /* \"#utility.yul\":4083:4089   */\n      dup3\n        /* \"#utility.yul\":4076:4081   */\n      dup2\n        /* \"#utility.yul\":4069:4090   */\n      mstore\n        /* \"#utility.yul\":4121:4125   */\n      0x20\n        /* \"#utility.yul\":4114:4119   */\n      dup2\n        /* \"#utility.yul\":4110:4126   */\n      add\n        /* \"#utility.yul\":4159:4162   */\n      dup5\n        /* \"#utility.yul\":4150:4156   */\n      dup5\n        /* \"#utility.yul\":4145:4148   */\n      dup5\n        /* \"#utility.yul\":4141:4157   */\n      add\n        /* \"#utility.yul\":4138:4163   */\n      gt\n        /* \"#utility.yul\":4135:4247   */\n      iszero\n      tag_181\n      jumpi\n        /* \"#utility.yul\":4166:4245   */\n      tag_182\n      tag_101\n      jump\t// in\n    tag_182:\n        /* \"#utility.yul\":4135:4247   */\n    tag_181:\n        /* \"#utility.yul\":4256:4310   */\n      tag_183\n        /* \"#utility.yul\":4303:4309   */\n      dup5\n        /* \"#utility.yul\":4298:4301   */\n      dup3\n        /* \"#utility.yul\":4293:4296   */\n      dup6\n        /* \"#utility.yul\":4256:4310   */\n      tag_106\n      jump\t// in\n    tag_183:\n        /* \"#utility.yul\":3975:4316   */\n      pop\n        /* \"#utility.yul\":3891:4316   */\n      swap4\n      swap3\n      pop\n      pop\n      pop\n      jump\t// out\n        /* \"#utility.yul\":4336:4676   */\n    tag_108:\n        /* \"#utility.yul\":4392:4397   */\n      0x00\n        /* \"#utility.yul\":4441:4444   */\n      dup3\n        /* \"#utility.yul\":4434:4438   */\n      0x1f\n        /* \"#utility.yul\":4426:4432   */\n      dup4\n        /* \"#utility.yul\":4422:4439   */\n      add\n        /* \"#utility.yul\":4418:4445   */\n      slt\n        /* \"#utility.yul\":4408:4530   */\n      tag_185\n      jumpi\n        /* \"#utility.yul\":4449:4528   */\n      tag_186\n      tag_100\n      jump\t// in\n    tag_186:\n        /* \"#utility.yul\":4408:4530   */\n    tag_185:\n        /* \"#utility.yul\":4566:4572   */\n      dup2\n        /* \"#utility.yul\":4553:4573   */\n      calldataload\n        /* \"#utility.yul\":4591:4670   */\n      tag_187\n        /* \"#utility.yul\":4666:4669   */\n      dup5\n        /* \"#utility.yul\":4658:4664   */\n      dup3\n        /* \"#utility.yul\":4651:4655   */\n      0x20\n        /* \"#utility.yul\":4643:4649   */\n      dup7\n        /* \"#utility.yul\":4639:4656   */\n      add\n        /* \"#utility.yul\":4591:4670   */\n      tag_107\n      jump\t// in\n    tag_187:\n        /* \"#utility.yul\":4582:4670   */\n      swap2\n      pop\n        /* \"#utility.yul\":4398:4676   */\n      pop\n        /* \"#utility.yul\":4336:4676   */\n      swap3\n      swap2\n      pop\n      pop\n      jump\t// out\n        /* \"#utility.yul\":4682:5191   */\n    tag_16:\n        /* \"#utility.yul\":4751:4757   */\n      0x00\n        /* \"#utility.yul\":4800:4802   */\n      0x20\n        /* \"#utility.yul\":4788:4797   */\n      dup3\n        /* \"#utility.yul\":4779:4786   */\n      dup5\n        /* \"#utility.yul\":4775:4798   */\n      sub\n        /* \"#utility.yul\":4771:4803   */\n      slt\n        /* \"#utility.yul\":4768:4887   */\n      iszero\n      tag_189\n      jumpi\n        /* \"#utility.yul\":4806:4885   */\n      tag_190\n      tag_88\n      jump\t// in\n    tag_190:\n        /* \"#utility.yul\":4768:4887   */\n    tag_189:\n        /* \"#utility.yul\":4954:4955   */\n      0x00\n        /* \"#utility.yul\":4943:4952   */\n      dup3\n        /* \"#utility.yul\":4939:4956   */\n      add\n        /* \"#utility.yul\":4926:4957   */\n      calldataload\n        /* \"#utility.yul\":4984:5002   */\n      0xffffffffffffffff\n        /* \"#utility.yul\":4976:4982   */\n      dup2\n        /* \"#utility.yul\":4973:5003   */\n      gt\n        /* \"#utility.yul\":4970:5087   */\n      iszero\n      tag_191\n      jumpi\n        /* \"#utility.yul\":5006:5085   */\n      tag_192\n      tag_89\n      jump\t// in\n    tag_192:\n        /* \"#utility.yul\":4970:5087   */\n    tag_191:\n        /* \"#utility.yul\":5111:5174   */\n      tag_193\n        /* \"#utility.yul\":5166:5173   */\n      dup5\n        /* \"#utility.yul\":5157:5163   */\n      dup3\n        /* \"#utility.yul\":5146:5155   */\n      dup6\n        /* \"#utility.yul\":5142:5164   */\n      add\n        /* \"#utility.yul\":5111:5174   */\n      tag_108\n      jump\t// in\n    tag_193:\n        /* \"#utility.yul\":5101:5174   */\n      swap2\n      pop\n        /* \"#utility.yul\":4897:5184   */\n      pop\n        /* \"#utility.yul\":4682:5191   */\n      swap3\n      swap2\n      pop\n      pop\n      jump\t// out\n        /* \"#utility.yul\":5197:5311   */\n    tag_109:\n        /* \"#utility.yul\":5264:5270   */\n      0x00\n        /* \"#utility.yul\":5298:5303   */\n      dup2\n        /* \"#utility.yul\":5292:5304   */\n      mload\n        /* \"#utility.yul\":5282:5304   */\n      swap1\n      pop\n        /* \"#utility.yul\":5197:5311   */\n      swap2\n      swap1\n      pop\n      jump\t// out\n        /* \"#utility.yul\":5317:5501   */\n    tag_110:\n        /* \"#utility.yul\":5416:5427   */\n      0x00\n        /* \"#utility.yul\":5450:5456   */\n      dup3\n        /* \"#utility.yul\":5445:5448   */\n      dup3\n        /* \"#utility.yul\":5438:5457   */\n      mstore\n        /* \"#utility.yul\":5490:5494   */\n      0x20\n        /* \"#utility.yul\":5485:5488   */\n      dup3\n        /* \"#utility.yul\":5481:5495   */\n      add\n        /* \"#utility.yul\":5466:5495   */\n      swap1\n      pop\n        /* \"#utility.yul\":5317:5501   */\n      swap3\n      swap2\n      pop\n      pop\n      jump\t// out\n        /* \"#utility.yul\":5507:5639   */\n    tag_111:\n        /* \"#utility.yul\":5574:5578   */\n      0x00\n        /* \"#utility.yul\":5597:5600   */\n      dup2\n        /* \"#utility.yul\":5589:5600   */\n      swap1\n      pop\n        /* \"#utility.yul\":5627:5631   */\n      0x20\n        /* \"#utility.yul\":5622:5625   */\n      dup3\n        /* \"#utility.yul\":5618:5632   */\n      add\n        /* \"#utility.yul\":5610:5632   */\n      swap1\n      pop\n        /* \"#utility.yul\":5507:5639   */\n      swap2\n      swap1\n      pop\n      jump\t// out\n        /* \"#utility.yul\":5645:5753   */\n    tag_112:\n        /* \"#utility.yul\":5722:5746   */\n      tag_198\n        /* \"#utility.yul\":5740:5745   */\n      dup2\n        /* \"#utility.yul\":5722:5746   */\n      tag_90\n      jump\t// in\n    tag_198:\n        /* \"#utility.yul\":5717:5720   */\n      dup3\n        /* \"#utility.yul\":5710:5747   */\n      mstore\n        /* \"#utility.yul\":5645:5753   */\n      pop\n      pop\n      jump\t// out\n        /* \"#utility.yul\":5759:5938   */\n    tag_113:\n        /* \"#utility.yul\":5828:5838   */\n      0x00\n        /* \"#utility.yul\":5849:5895   */\n      tag_200\n        /* \"#utility.yul\":5891:5894   */\n      dup4\n        /* \"#utility.yul\":5883:5889   */\n      dup4\n        /* \"#utility.yul\":5849:5895   */\n      tag_112\n      jump\t// in\n    tag_200:\n        /* \"#utility.yul\":5927:5931   */\n      0x20\n        /* \"#utility.yul\":5922:5925   */\n      dup4\n        /* \"#utility.yul\":5918:5932   */\n      add\n        /* \"#utility.yul\":5904:5932   */\n      swap1\n      pop\n        /* \"#utility.yul\":5759:5938   */\n      swap3\n      swap2\n      pop\n      pop\n      jump\t// out\n        /* \"#utility.yul\":5944:6057   */\n    tag_114:\n        /* \"#utility.yul\":6014:6018   */\n      0x00\n        /* \"#utility.yul\":6046:6050   */\n      0x20\n        /* \"#utility.yul\":6041:6044   */\n      dup3\n        /* \"#utility.yul\":6037:6051   */\n      add\n        /* \"#utility.yul\":6029:6051   */\n      swap1\n      pop\n        /* \"#utility.yul\":5944:6057   */\n      swap2\n      swap1\n      pop\n      jump\t// out\n        /* \"#utility.yul\":6093:6825   */\n    tag_115:\n        /* \"#utility.yul\":6212:6215   */\n      0x00\n        /* \"#utility.yul\":6241:6295   */\n      tag_203\n        /* \"#utility.yul\":6289:6294   */\n      dup3\n        /* \"#utility.yul\":6241:6295   */\n      tag_109\n      jump\t// in\n    tag_203:\n        /* \"#utility.yul\":6311:6397   */\n      tag_204\n        /* \"#utility.yul\":6390:6396   */\n      dup2\n        /* \"#utility.yul\":6385:6388   */\n      dup6\n        /* \"#utility.yul\":6311:6397   */\n      tag_110\n      jump\t// in\n    tag_204:\n        /* \"#utility.yul\":6304:6397   */\n      swap4\n      pop\n        /* \"#utility.yul\":6421:6477   */\n      tag_205\n        /* \"#utility.yul\":6471:6476   */\n      dup4\n        /* \"#utility.yul\":6421:6477   */\n      tag_111\n      jump\t// in\n    tag_205:\n        /* \"#utility.yul\":6500:6507   */\n      dup1\n        /* \"#utility.yul\":6531:6532   */\n      0x00\n        /* \"#utility.yul\":6516:6800   */\n    tag_206:\n        /* \"#utility.yul\":6541:6547   */\n      dup4\n        /* \"#utility.yul\":6538:6539   */\n      dup2\n        /* \"#utility.yul\":6535:6548   */\n      lt\n        /* \"#utility.yul\":6516:6800   */\n      iszero\n      tag_208\n      jumpi\n        /* \"#utility.yul\":6617:6623   */\n      dup2\n        /* \"#utility.yul\":6611:6624   */\n      mload\n        /* \"#utility.yul\":6644:6707   */\n      tag_209\n        /* \"#utility.yul\":6703:6706   */\n      dup9\n        /* \"#utility.yul\":6688:6701   */\n      dup3\n        /* \"#utility.yul\":6644:6707   */\n      tag_113\n      jump\t// in\n    tag_209:\n        /* \"#utility.yul\":6637:6707   */\n      swap8\n      pop\n        /* \"#utility.yul\":6730:6790   */\n      tag_210\n        /* \"#utility.yul\":6783:6789   */\n      dup4\n        /* \"#utility.yul\":6730:6790   */\n      tag_114\n      jump\t// in\n    tag_210:\n        /* \"#utility.yul\":6720:6790   */\n      swap3\n      pop\n        /* \"#utility.yul\":6576:6800   */\n      pop\n        /* \"#utility.yul\":6563:6564   */\n      0x01\n        /* \"#utility.yul\":6560:6561   */\n      dup2\n        /* \"#utility.yul\":6556:6565   */\n      add\n        /* \"#utility.yul\":6551:6565   */\n      swap1\n      pop\n        /* \"#utility.yul\":6516:6800   */\n      jump(tag_206)\n    tag_208:\n        /* \"#utility.yul\":6520:6534   */\n      pop\n        /* \"#utility.yul\":6816:6819   */\n      dup6\n        /* \"#utility.yul\":6809:6819   */\n      swap4\n      pop\n        /* \"#utility.yul\":6217:6825   */\n      pop\n      pop\n      pop\n        /* \"#utility.yul\":6093:6825   */\n      swap3\n      swap2\n      pop\n      pop\n      jump\t// out\n        /* \"#utility.yul\":6831:7204   */\n    tag_21:\n        /* \"#utility.yul\":6974:6978   */\n      0x00\n        /* \"#utility.yul\":7012:7014   */\n      0x20\n        /* \"#utility.yul\":7001:7010   */\n      dup3\n        /* \"#utility.yul\":6997:7015   */\n      add\n        /* \"#utility.yul\":6989:7015   */\n      swap1\n      pop\n        /* \"#utility.yul\":7061:7070   */\n      dup2\n        /* \"#utility.yul\":7055:7059   */\n      dup2\n        /* \"#utility.yul\":7051:7071   */\n      sub\n        /* \"#utility.yul\":7047:7048   */\n      0x00\n        /* \"#utility.yul\":7036:7045   */\n      dup4\n        /* \"#utility.yul\":7032:7049   */\n      add\n        /* \"#utility.yul\":7025:7072   */\n      mstore\n        /* \"#utility.yul\":7089:7197   */\n      tag_212\n        /* \"#utility.yul\":7192:7196   */\n      dup2\n        /* \"#utility.yul\":7183:7189   */\n      dup5\n        /* \"#utility.yul\":7089:7197   */\n      tag_115\n      jump\t// in\n    tag_212:\n        /* \"#utility.yul\":7081:7197   */\n      swap1\n      pop\n        /* \"#utility.yul\":6831:7204   */\n      swap3\n      swap2\n      pop\n      pop\n      jump\t// out\n        /* \"#utility.yul\":7210:7390   */\n    tag_116:\n        /* \"#utility.yul\":7258:7335   */\n      0x4e487b7100000000000000000000000000000000000000000000000000000000\n        /* \"#utility.yul\":7255:7256   */\n      0x00\n        /* \"#utility.yul\":7248:7336   */\n      mstore\n        /* \"#utility.yul\":7355:7359   */\n      0x22\n        /* \"#utility.yul\":7352:7353   */\n      0x04\n        /* \"#utility.yul\":7345:7360   */\n      mstore\n        /* \"#utility.yul\":7379:7383   */\n      0x24\n        /* \"#utility.yul\":7376:7377   */\n      0x00\n        /* \"#utility.yul\":7369:7384   */\n      revert\n        /* \"#utility.yul\":7396:7716   */\n    tag_32:\n        /* \"#utility.yul\":7440:7446   */\n      0x00\n        /* \"#utility.yul\":7477:7478   */\n      0x02\n        /* \"#utility.yul\":7471:7475   */\n      dup3\n        /* \"#utility.yul\":7467:7479   */\n      div\n        /* \"#utility.yul\":7457:7479   */\n      swap1\n      pop\n        /* \"#utility.yul\":7524:7525   */\n      0x01\n        /* \"#utility.yul\":7518:7522   */\n      dup3\n        /* \"#utility.yul\":7514:7526   */\n      and\n        /* \"#utility.yul\":7545:7563   */\n      dup1\n        /* \"#utility.yul\":7535:7616   */\n      tag_215\n      jumpi\n        /* \"#utility.yul\":7601:7605   */\n      0x7f\n        /* \"#utility.yul\":7593:7599   */\n      dup3\n        /* \"#utility.yul\":7589:7606   */\n      and\n        /* \"#utility.yul\":7579:7606   */\n      swap2\n      pop\n        /* \"#utility.yul\":7535:7616   */\n    tag_215:\n        /* \"#utility.yul\":7663:7665   */\n      0x20\n        /* \"#utility.yul\":7655:7661   */\n      dup3\n        /* \"#utility.yul\":7652:7666   */\n      lt\n        /* \"#utility.yul\":7632:7650   */\n      dup2\n        /* \"#utility.yul\":7629:7667   */\n      sub\n        /* \"#utility.yul\":7626:7710   */\n      tag_216\n      jumpi\n        /* \"#utility.yul\":7682:7700   */\n      tag_217\n      tag_116\n      jump\t// in\n    tag_217:\n        /* \"#utility.yul\":7626:7710   */\n    tag_216:\n        /* \"#utility.yul\":7447:7716   */\n      pop\n        /* \"#utility.yul\":7396:7716   */\n      swap2\n      swap1\n      pop\n      jump\t// out\n        /* \"#utility.yul\":7722:7863   */\n    tag_117:\n        /* \"#utility.yul\":7771:7775   */\n      0x00\n        /* \"#utility.yul\":7794:7797   */\n      dup2\n        /* \"#utility.yul\":7786:7797   */\n      swap1\n      pop\n        /* \"#utility.yul\":7817:7820   */\n      dup2\n        /* \"#utility.yul\":7814:7815   */\n      0x00\n        /* \"#utility.yul\":7807:7821   */\n      mstore\n        /* \"#utility.yul\":7851:7855   */\n      0x20\n        /* \"#utility.yul\":7848:7849   */\n      0x00\n        /* \"#utility.yul\":7838:7856   */\n      keccak256\n        /* \"#utility.yul\":7830:7856   */\n      swap1\n      pop\n        /* \"#utility.yul\":7722:7863   */\n      swap2\n      swap1\n      pop\n      jump\t// out\n        /* \"#utility.yul\":7869:7962   */\n    tag_118:\n        /* \"#utility.yul\":7906:7912   */\n      0x00\n        /* \"#utility.yul\":7953:7955   */\n      0x20\n        /* \"#utility.yul\":7948:7950   */\n      0x1f\n        /* \"#utility.yul\":7941:7946   */\n      dup4\n        /* \"#utility.yul\":7937:7951   */\n      add\n        /* \"#utility.yul\":7933:7956   */\n      div\n        /* \"#utility.yul\":7923:7956   */\n      swap1\n      pop\n        /* \"#utility.yul\":7869:7962   */\n      swap2\n      swap1\n      pop\n      jump\t// out\n        /* \"#utility.yul\":7968:8075   */\n    tag_119:\n        /* \"#utility.yul\":8012:8020   */\n      0x00\n        /* \"#utility.yul\":8062:8067   */\n      dup3\n        /* \"#utility.yul\":8056:8060   */\n      dup3\n        /* \"#utility.yul\":8052:8068   */\n      shl\n        /* \"#utility.yul\":8031:8068   */\n      swap1\n      pop\n        /* \"#utility.yul\":7968:8075   */\n      swap3\n      swap2\n      pop\n      pop\n      jump\t// out\n        /* \"#utility.yul\":8081:8474   */\n    tag_120:\n        /* \"#utility.yul\":8150:8156   */\n      0x00\n        /* \"#utility.yul\":8200:8201   */\n      0x08\n        /* \"#utility.yul\":8188:8198   */\n      dup4\n        /* \"#utility.yul\":8184:8202   */\n      mul\n        /* \"#utility.yul\":8223:8320   */\n      tag_222\n        /* \"#utility.yul\":8253:8319   */\n      0xffffffffffffffffffffffffffffffffffffffffffffffffffffffffffffffff\n        /* \"#utility.yul\":8242:8251   */\n      dup3\n        /* \"#utility.yul\":8223:8320   */\n      tag_119\n      jump\t// in\n    tag_222:\n        /* \"#utility.yul\":8341:8380   */\n      tag_223\n        /* \"#utility.yul\":8371:8379   */\n      dup7\n        /* \"#utility.yul\":8360:8369   */\n      dup4\n        /* \"#utility.yul\":8341:8380   */\n      tag_119\n      jump\t// in\n    tag_223:\n        /* \"#utility.yul\":8329:8380   */\n      swap6\n      pop\n        /* \"#utility.yul\":8413:8417   */\n      dup1\n        /* \"#utility.yul\":8409:8418   */\n      not\n        /* \"#utility.yul\":8402:8407   */\n      dup5\n        /* \"#utility.yul\":8398:8419   */\n      and\n        /* \"#utility.yul\":8389:8419   */\n      swap4\n      pop\n        /* \"#utility.yul\":8462:8466   */\n      dup1\n        /* \"#utility.yul\":8452:8460   */\n      dup7\n        /* \"#utility.yul\":8448:8467   */\n      and\n        /* \"#utility.yul\":8441:8446   */\n      dup5\n        /* \"#utility.yul\":8438:8468   */\n      or\n        /* \"#utility.yul\":8428:8468   */\n      swap3\n      pop\n        /* \"#utility.yul\":8157:8474   */\n      pop\n      pop\n        /* \"#utility.yul\":8081:8474   */\n      swap4\n      swap3\n      pop\n      pop\n      pop\n      jump\t// out\n        /* \"#utility.yul\":8480:8540   */\n    tag_121:\n        /* \"#utility.yul\":8508:8511   */\n      0x00\n        /* \"#utility.yul\":8529:8534   */\n      dup2\n        /* \"#utility.yul\":8522:8534   */\n      swap1\n      pop\n        /* \"#utility.yul\":8480:8540   */\n      swap2\n      swap1\n      pop\n      jump\t// out\n        /* \"#utility.yul\":8546:8688   */\n    tag_122:\n        /* \"#utility.yul\":8596:8605   */\n      0x00\n        /* \"#utility.yul\":8629:8682   */\n      tag_226\n        /* \"#utility.yul\":8647:8681   */\n      tag_227\n        /* \"#utility.yul\":8656:8680   */\n      tag_228\n        /* \"#utility.yul\":8674:8679   */\n      dup5\n        /* \"#utility.yul\":8656:8680   */\n      tag_90\n      jump\t// in\n    tag_228:\n        /* \"#utility.yul\":8647:8681   */\n      tag_121\n      jump\t// in\n    tag_227:\n        /* \"#utility.yul\":8629:8682   */\n      tag_90\n      jump\t// in\n    tag_226:\n        /* \"#utility.yul\":8616:8682   */\n      swap1\n      pop\n        /* \"#utility.yul\":8546:8688   */\n      swap2\n      swap1\n      pop\n      jump\t// out\n        /* \"#utility.yul\":8694:8769   */\n    tag_123:\n        /* \"#utility.yul\":8737:8740   */\n      0x00\n        /* \"#utility.yul\":8758:8763   */\n      dup2\n        /* \"#utility.yul\":8751:8763   */\n      swap1\n      pop\n        /* \"#utility.yul\":8694:8769   */\n      swap2\n      swap1\n      pop\n      jump\t// out\n        /* \"#utility.yul\":8775:9044   */\n    tag_124:\n        /* \"#utility.yul\":8885:8924   */\n      tag_231\n        /* \"#utility.yul\":8916:8923   */\n      dup4\n        /* \"#utility.yul\":8885:8924   */\n      tag_122\n      jump\t// in\n    tag_231:\n        /* \"#utility.yul\":8946:9037   */\n      tag_232\n        /* \"#utility.yul\":8995:9036   */\n      tag_233\n        /* \"#utility.yul\":9019:9035   */\n      dup3\n        /* \"#utility.yul\":8995:9036   */\n      tag_123\n      jump\t// in\n    tag_233:\n        /* \"#utility.yul\":8987:8993   */\n      dup5\n        /* \"#utility.yul\":8980:8984   */\n      dup5\n        /* \"#utility.yul\":8974:8985   */\n      sload\n        /* \"#utility.yul\":8946:9037   */\n      tag_120\n      jump\t// in\n    tag_232:\n        /* \"#utility.yul\":8940:8944   */\n      dup3\n        /* \"#utility.yul\":8933:9038   */\n      sstore\n        /* \"#utility.yul\":8851:9044   */\n      pop\n        /* \"#utility.yul\":8775:9044   */\n      pop\n      pop\n      pop\n      jump\t// out\n        /* \"#utility.yul\":9050:9123   */\n    tag_125:\n        /* \"#utility.yul\":9095:9098   */\n      0x00\n        /* \"#utility.yul\":9050:9123   */\n      swap1\n      jump\t// out\n        /* \"#utility.yul\":9129:9318   */\n    tag_126:\n        /* \"#utility.yul\":9206:9238   */\n      tag_236\n      tag_125\n      jump\t// in\n    tag_236:\n        /* \"#utility.yul\":9247:9312   */\n      tag_237\n        /* \"#utility.yul\":9305:9311   */\n      dup2\n        /* \"#utility.yul\":9297:9303   */\n      dup5\n        /* \"#utility.yul\":9291:9295   */\n      dup5\n        /* \"#utility.yul\":9247:9312   */\n      tag_124\n      jump\t// in\n    tag_237:\n        /* \"#utility.yul\":9182:9318   */\n      pop\n        /* \"#utility.yul\":9129:9318   */\n      pop\n      pop\n      jump\t// out\n        /* \"#utility.yul\":9324:9510   */\n    tag_127:\n        /* \"#utility.yul\":9384:9504   */\n    tag_239:\n        /* \"#utility.yul\":9401:9404   */\n      dup2\n        /* \"#utility.yul\":9394:9399   */\n      dup2\n        /* \"#utility.yul\":9391:9405   */\n      lt\n        /* \"#utility.yul\":9384:9504   */\n      iszero\n      tag_241\n      jumpi\n        /* \"#utility.yul\":9455:9494   */\n      tag_242\n        /* \"#utility.yul\":9492:9493   */\n      0x00\n        /* \"#utility.yul\":9485:9490   */\n      dup3\n        /* \"#utility.yul\":9455:9494   */\n      tag_126\n      jump\t// in\n    tag_242:\n        /* \"#utility.yul\":9428:9429   */\n      0x01\n        /* \"#utility.yul\":9421:9426   */\n      dup2\n        /* \"#utility.yul\":9417:9430   */\n      add\n        /* \"#utility.yul\":9408:9430   */\n      swap1\n      pop\n        /* \"#utility.yul\":9384:9504   */\n      jump(tag_239)\n    tag_241:\n        /* \"#utility.yul\":9324:9510   */\n      pop\n      pop\n      jump\t// out\n        /* \"#utility.yul\":9516:10059   */\n    tag_128:\n        /* \"#utility.yul\":9617:9619   */\n      0x1f\n        /* \"#utility.yul\":9612:9615   */\n      dup3\n        /* \"#utility.yul\":9609:9620   */\n      gt\n        /* \"#utility.yul\":9606:10052   */\n      iszero\n      tag_244\n      jumpi\n        /* \"#utility.yul\":9651:9689   */\n      tag_245\n        /* \"#utility.yul\":9683:9688   */\n      dup2\n        /* \"#utility.yul\":9651:9689   */\n      tag_117\n      jump\t// in\n    tag_245:\n        /* \"#utility.yul\":9735:9764   */\n      tag_246\n        /* \"#utility.yul\":9753:9763   */\n      dup5\n        /* \"#utility.yul\":9735:9764   */\n      tag_118\n      jump\t// in\n    tag_246:\n        /* \"#utility.yul\":9725:9733   */\n      dup2\n        /* \"#utility.yul\":9721:9765   */\n      add\n        /* \"#utility.yul\":9918:9920   */\n      0x20\n        /* \"#utility.yul\":9906:9916   */\n      dup6\n        /* \"#utility.yul\":9903:9921   */\n      lt\n        /* \"#utility.yul\":9900:9949   */\n      iszero\n      tag_247\n      jumpi\n        /* \"#utility.yul\":9939:9947   */\n      dup2\n        /* \"#utility.yul\":9924:9947   */\n      swap1\n      pop\n        /* \"#utility.yul\":9900:9949   */\n    tag_247:\n        /* \"#utility.yul\":9962:10042   */\n      tag_248\n        /* \"#utility.yul\":10018:10040   */\n      tag_249\n        /* \"#utility.yul\":10036:10039   */\n      dup6\n        /* \"#utility.yul\":10018:10040   */\n      tag_118\n      jump\t// in\n    tag_249:\n        /* \"#utility.yul\":10008:10016   */\n      dup4\n        /* \"#utility.yul\":10004:10041   */\n      add\n        /* \"#utility.yul\":9991:10002   */\n      dup3\n        /* \"#utility.yul\":9962:10042   */\n      tag_127\n      jump\t// in\n    tag_248:\n        /* \"#utility.yul\":9621:10052   */\n      pop\n      pop\n        /* \"#utility.yul\":9606:10052   */\n    tag_244:\n        /* \"#utility.yul\":9516:10059   */\n      pop\n      pop\n      pop\n      jump\t// out\n        /* \"#utility.yul\":10065:10182   */\n    tag_129:\n        /* \"#utility.yul\":10119:10127   */\n      0x00\n        /* \"#utility.yul\":10169:10174   */\n      dup3\n        /* \"#utility.yul\":10163:10167   */\n      dup3\n        /* \"#utility.yul\":10159:10175   */\n      shr\n        /* \"#utility.yul\":10138:10175   */\n      swap1\n      pop\n        /* \"#utility.yul\":10065:10182   */\n      swap3\n      swap2\n      pop\n      pop\n      jump\t// out\n        /* \"#utility.yul\":10188:10357   */\n    tag_130:\n        /* \"#utility.yul\":10232:10238   */\n      0x00\n        /* \"#utility.yul\":10265:10316   */\n      tag_252\n        /* \"#utility.yul\":10313:10314   */\n      0x00\n        /* \"#utility.yul\":10309:10315   */\n      not\n        /* \"#utility.yul\":10301:10306   */\n      dup5\n        /* \"#utility.yul\":10298:10299   */\n      0x08\n        /* \"#utility.yul\":10294:10307   */\n      mul\n        /* \"#utility.yul\":10265:10316   */\n      tag_129\n      jump\t// in\n    tag_252:\n        /* \"#utility.yul\":10261:10317   */\n      not\n        /* \"#utility.yul\":10346:10350   */\n      dup1\n        /* \"#utility.yul\":10340:10344   */\n      dup4\n        /* \"#utility.yul\":10336:10351   */\n      and\n        /* \"#utility.yul\":10326:10351   */\n      swap2\n      pop\n        /* \"#utility.yul\":10239:10357   */\n      pop\n        /* \"#utility.yul\":10188:10357   */\n      swap3\n      swap2\n      pop\n      pop\n      jump\t// out\n        /* \"#utility.yul\":10362:10657   */\n    tag_131:\n        /* \"#utility.yul\":10438:10442   */\n      0x00\n        /* \"#utility.yul\":10584:10613   */\n      tag_254\n        /* \"#utility.yul\":10609:10612   */\n      dup4\n        /* \"#utility.yul\":10603:10607   */\n      dup4\n        /* \"#utility.yul\":10584:10613   */\n      tag_130\n      jump\t// in\n    tag_254:\n        /* \"#utility.yul\":10576:10613   */\n      swap2\n      pop\n        /* \"#utility.yul\":10646:10649   */\n      dup3\n        /* \"#utility.yul\":10643:10644   */\n      0x02\n        /* \"#utility.yul\":10639:10650   */\n      mul\n        /* \"#utility.yul\":10633:10637   */\n      dup3\n        /* \"#utility.yul\":10630:10651   */\n      or\n        /* \"#utility.yul\":10622:10651   */\n      swap1\n      pop\n        /* \"#utility.yul\":10362:10657   */\n      swap3\n      swap2\n      pop\n      pop\n      jump\t// out\n        /* \"#utility.yul\":10662:12057   */\n    tag_39:\n        /* \"#utility.yul\":10779:10816   */\n      tag_256\n        /* \"#utility.yul\":10812:10815   */\n      dup3\n        /* \"#utility.yul\":10779:10816   */\n      tag_93\n      jump\t// in\n    tag_256:\n        /* \"#utility.yul\":10881:10899   */\n      0xffffffffffffffff\n        /* \"#utility.yul\":10873:10879   */\n      dup2\n        /* \"#utility.yul\":10870:10900   */\n      gt\n        /* \"#utility.yul\":10867:10923   */\n      iszero\n      tag_257\n      jumpi\n        /* \"#utility.yul\":10903:10921   */\n      tag_258\n      tag_102\n      jump\t// in\n    tag_258:\n        /* \"#utility.yul\":10867:10923   */\n    tag_257:\n        /* \"#utility.yul\":10947:10985   */\n      tag_259\n        /* \"#utility.yul\":10979:10983   */\n      dup3\n        /* \"#utility.yul\":10973:10984   */\n      sload\n        /* \"#utility.yul\":10947:10985   */\n      tag_32\n      jump\t// in\n    tag_259:\n        /* \"#utility.yul\":11032:11099   */\n      tag_260\n        /* \"#utility.yul\":11092:11098   */\n      dup3\n        /* \"#utility.yul\":11084:11090   */\n      dup3\n        /* \"#utility.yul\":11078:11082   */\n      dup6\n        /* \"#utility.yul\":11032:11099   */\n      tag_128\n      jump\t// in\n    tag_260:\n        /* \"#utility.yul\":11126:11127   */\n      0x00\n        /* \"#utility.yul\":11150:11154   */\n      0x20\n        /* \"#utility.yul\":11137:11154   */\n      swap1\n      pop\n        /* \"#utility.yul\":11182:11184   */\n      0x1f\n        /* \"#utility.yul\":11174:11180   */\n      dup4\n        /* \"#utility.yul\":11171:11185   */\n      gt\n        /* \"#utility.yul\":11199:11200   */\n      0x01\n        /* \"#utility.yul\":11194:11812   */\n      dup2\n      eq\n      tag_262\n      jumpi\n        /* \"#utility.yul\":11856:11857   */\n      0x00\n        /* \"#utility.yul\":11873:11879   */\n      dup5\n        /* \"#utility.yul\":11870:11947   */\n      iszero\n      tag_263\n      jumpi\n        /* \"#utility.yul\":11922:11931   */\n      dup3\n        /* \"#utility.yul\":11917:11920   */\n      dup8\n        /* \"#utility.yul\":11913:11932   */\n      add\n        /* \"#utility.yul\":11907:11933   */\n      mload\n        /* \"#utility.yul\":11898:11933   */\n      swap1\n      pop\n        /* \"#utility.yul\":11870:11947   */\n    tag_263:\n        /* \"#utility.yul\":11973:12040   */\n      tag_264\n        /* \"#utility.yul\":12033:12039   */\n      dup6\n        /* \"#utility.yul\":12026:12031   */\n      dup3\n        /* \"#utility.yul\":11973:12040   */\n      tag_131\n      jump\t// in\n    tag_264:\n        /* \"#utility.yul\":11967:11971   */\n      dup7\n        /* \"#utility.yul\":11960:12041   */\n      sstore\n        /* \"#utility.yul\":11829:12051   */\n      pop\n        /* \"#utility.yul\":11164:12051   */\n      jump(tag_261)\n        /* \"#utility.yul\":11194:11812   */\n    tag_262:\n        /* \"#utility.yul\":11246:11250   */\n      0x1f\n        /* \"#utility.yul\":11242:11251   */\n      not\n        /* \"#utility.yul\":11234:11240   */\n      dup5\n        /* \"#utility.yul\":11230:11252   */\n      and\n        /* \"#utility.yul\":11280:11317   */\n      tag_265\n        /* \"#utility.yul\":11312:11316   */\n      dup7\n        /* \"#utility.yul\":11280:11317   */\n      tag_117\n      jump\t// in\n    tag_265:\n        /* \"#utility.yul\":11339:11340   */\n      0x00\n        /* \"#utility.yul\":11353:11561   */\n    tag_266:\n        /* \"#utility.yul\":11367:11374   */\n      dup3\n        /* \"#utility.yul\":11364:11365   */\n      dup2\n        /* \"#utility.yul\":11361:11375   */\n      lt\n        /* \"#utility.yul\":11353:11561   */\n      iszero\n      tag_268\n      jumpi\n        /* \"#utility.yul\":11446:11455   */\n      dup5\n        /* \"#utility.yul\":11441:11444   */\n      dup10\n        /* \"#utility.yul\":11437:11456   */\n      add\n        /* \"#utility.yul\":11431:11457   */\n      mload\n        /* \"#utility.yul\":11423:11429   */\n      dup3\n        /* \"#utility.yul\":11416:11458   */\n      sstore\n        /* \"#utility.yul\":11497:11498   */\n      0x01\n        /* \"#utility.yul\":11489:11495   */\n      dup3\n        /* \"#utility.yul\":11485:11499   */\n      add\n        /* \"#utility.yul\":11475:11499   */\n      swap2\n      pop\n        /* \"#utility.yul\":11544:11546   */\n      0x20\n        /* \"#utility.yul\":11533:11542   */\n      dup6\n        /* \"#utility.yul\":11529:11547   */\n      add\n        /* \"#utility.yul\":11516:11547   */\n      swap5\n      pop\n        /* \"#utility.yul\":11390:11394   */\n      0x20\n        /* \"#utility.yul\":11387:11388   */\n      dup2\n        /* \"#utility.yul\":11383:11395   */\n      add\n        /* \"#utility.yul\":11378:11395   */\n      swap1\n      pop\n        /* \"#utility.yul\":11353:11561   */\n      jump(tag_266)\n    tag_268:\n        /* \"#utility.yul\":11589:11595   */\n      dup7\n        /* \"#utility.yul\":11580:11587   */\n      dup4\n        /* \"#utility.yul\":11577:11596   */\n      lt\n        /* \"#utility.yul\":11574:11753   */\n      iszero\n      tag_269\n      jumpi\n        /* \"#utility.yul\":11647:11656   */\n      dup5\n        /* \"#utility.yul\":11642:11645   */\n      dup10\n        /* \"#utility.yul\":11638:11657   */\n      add\n        /* \"#utility.yul\":11632:11658   */\n      mload\n        /* \"#utility.yul\":11690:11738   */\n      tag_270\n        /* \"#utility.yul\":11732:11736   */\n      0x1f\n        /* \"#utility.yul\":11724:11730   */\n      dup10\n        /* \"#utility.yul\":11720:11737   */\n      and\n        /* \"#utility.yul\":11709:11718   */\n      dup3\n        /* \"#utility.yul\":11690:11738   */\n      tag_130\n      jump\t// in\n    tag_270:\n        /* \"#utility.yul\":11682:11688   */\n      dup4\n        /* \"#utility.yul\":11675:11739   */\n      sstore\n        /* \"#utility.yul\":11597:11753   */\n      pop\n        /* \"#utility.yul\":11574:11753   */\n    tag_269:\n        /* \"#utility.yul\":11799:11800   */\n      0x01\n        /* \"#utility.yul\":11795:11796   */\n      0x02\n        /* \"#utility.yul\":11787:11793   */\n      dup9\n        /* \"#utility.yul\":11783:11797   */\n      mul\n        /* \"#utility.yul\":11779:11801   */\n      add\n        /* \"#utility.yul\":11773:11777   */\n      dup9\n        /* \"#utility.yul\":11766:11802   */\n      sstore\n        /* \"#utility.yul\":11201:11812   */\n      pop\n      pop\n      pop\n        /* \"#utility.yul\":11164:12051   */\n    tag_261:\n      pop\n        /* \"#utility.yul\":10754:12057   */\n      pop\n      pop\n      pop\n        /* \"#utility.yul\":10662:12057   */\n      pop\n      pop\n      jump\t// out\n        /* \"#utility.yul\":12063:12181   */\n    tag_132:\n        /* \"#utility.yul\":12150:12174   */\n      tag_272\n        /* \"#utility.yul\":12168:12173   */\n      dup2\n        /* \"#utility.yul\":12150:12174   */\n      tag_90\n      jump\t// in\n    tag_272:\n        /* \"#utility.yul\":12145:12148   */\n      dup3\n        /* \"#utility.yul\":12138:12175   */\n      mstore\n        /* \"#utility.yul\":12063:12181   */\n      pop\n      pop\n      jump\t// out\n        /* \"#utility.yul\":12187:12610   */\n    tag_42:\n        /* \"#utility.yul\":12328:12332   */\n      0x00\n        /* \"#utility.yul\":12366:12368   */\n      0x40\n        /* \"#utility.yul\":12355:12364   */\n      dup3\n        /* \"#utility.yul\":12351:12369   */\n      add\n        /* \"#utility.yul\":12343:12369   */\n      swap1\n      pop\n        /* \"#utility.yul\":12379:12450   */\n      tag_274\n        /* \"#utility.yul\":12447:12448   */\n      0x00\n        /* \"#utility.yul\":12436:12445   */\n      dup4\n        /* \"#utility.yul\":12432:12449   */\n      add\n        /* \"#utility.yul\":12423:12429   */\n      dup6\n        /* \"#utility.yul\":12379:12450   */\n      tag_132\n      jump\t// in\n    tag_274:\n        /* \"#utility.yul\":12497:12506   */\n      dup2\n        /* \"#utility.yul\":12491:12495   */\n      dup2\n        /* \"#utility.yul\":12487:12507   */\n      sub\n        /* \"#utility.yul\":12482:12484   */\n      0x20\n        /* \"#utility.yul\":12471:12480   */\n      dup4\n        /* \"#utility.yul\":12467:12485   */\n      add\n        /* \"#utility.yul\":12460:12508   */\n      mstore\n        /* \"#utility.yul\":12525:12603   */\n      tag_275\n        /* \"#utility.yul\":12598:12602   */\n      dup2\n        /* \"#utility.yul\":12589:12595   */\n      dup5\n        /* \"#utility.yul\":12525:12603   */\n      tag_97\n      jump\t// in\n    tag_275:\n        /* \"#utility.yul\":12517:12603   */\n      swap1\n      pop\n        /* \"#utility.yul\":12187:12610   */\n      swap4\n      swap3\n      pop\n      pop\n      pop\n      jump\t// out\n        /* \"#utility.yul\":12616:12796   */\n    tag_133:\n        /* \"#utility.yul\":12664:12741   */\n      0x4e487b7100000000000000000000000000000000000000000000000000000000\n        /* \"#utility.yul\":12661:12662   */\n      0x00\n        /* \"#utility.yul\":12654:12742   */\n      mstore\n        /* \"#utility.yul\":12761:12765   */\n      0x11\n        /* \"#utility.yul\":12758:12759   */\n      0x04\n        /* \"#utility.yul\":12751:12766   */\n      mstore\n        /* \"#utility.yul\":12785:12789   */\n      0x24\n        /* \"#utility.yul\":12782:12783   */\n      0x00\n        /* \"#utility.yul\":12775:12790   */\n      revert\n        /* \"#utility.yul\":12802:13035   */\n    tag_44:\n        /* \"#utility.yul\":12841:12844   */\n      0x00\n        /* \"#utility.yul\":12864:12888   */\n      tag_278\n        /* \"#utility.yul\":12882:12887   */\n      dup3\n        /* \"#utility.yul\":12864:12888   */\n      tag_90\n      jump\t// in\n    tag_278:\n        /* \"#utility.yul\":12855:12888   */\n      swap2\n      pop\n        /* \"#utility.yul\":12910:12976   */\n      0xffffffffffffffffffffffffffffffffffffffffffffffffffffffffffffffff\n        /* \"#utility.yul\":12903:12908   */\n      dup3\n        /* \"#utility.yul\":12900:12977   */\n      sub\n        /* \"#utility.yul\":12897:13000   */\n      tag_279\n      jumpi\n        /* \"#utility.yul\":12980:12998   */\n      tag_280\n      tag_133\n      jump\t// in\n    tag_280:\n        /* \"#utility.yul\":12897:13000   */\n    tag_279:\n        /* \"#utility.yul\":13027:13028   */\n      0x01\n        /* \"#utility.yul\":13020:13025   */\n      dup3\n        /* \"#utility.yul\":13016:13029   */\n      add\n        /* \"#utility.yul\":13009:13029   */\n      swap1\n      pop\n        /* \"#utility.yul\":12802:13035   */\n      swap2\n      swap1\n      pop\n      jump\t// out\n        /* \"#utility.yul\":13041:13221   */\n    tag_57:\n        /* \"#utility.yul\":13089:13166   */\n      0x4e487b7100000000000000000000000000000000000000000000000000000000\n        /* \"#utility.yul\":13086:13087   */\n      0x00\n        /* \"#utility.yul\":13079:13167   */\n      mstore\n        /* \"#utility.yul\":13186:13190   */\n      0x32\n        /* \"#utility.yul\":13183:13184   */\n      0x04\n        /* \"#utility.yul\":13176:13191   */\n      mstore\n        /* \"#utility.yul\":13210:13214   */\n      0x24\n        /* \"#utility.yul\":13207:13208   */\n      0x00\n        /* \"#utility.yul\":13200:13215   */\n      revert\n        /* \"#utility.yul\":13227:13421   */\n    tag_61:\n        /* \"#utility.yul\":13267:13271   */\n      0x00\n        /* \"#utility.yul\":13287:13307   */\n      tag_283\n        /* \"#utility.yul\":13305:13306   */\n      dup3\n        /* \"#utility.yul\":13287:13307   */\n      tag_90\n      jump\t// in\n    tag_283:\n        /* \"#utility.yul\":13282:13307   */\n      swap2\n      pop\n        /* \"#utility.yul\":13321:13341   */\n      tag_284\n        /* \"#utility.yul\":13339:13340   */\n      dup4\n        /* \"#utility.yul\":13321:13341   */\n      tag_90\n      jump\t// in\n    tag_284:\n        /* \"#utility.yul\":13316:13341   */\n      swap3\n      pop\n        /* \"#utility.yul\":13365:13366   */\n      dup3\n        /* \"#utility.yul\":13362:13363   */\n      dup3\n        /* \"#utility.yul\":13358:13367   */\n      sub\n        /* \"#utility.yul\":13350:13367   */\n      swap1\n      pop\n        /* \"#utility.yul\":13389:13390   */\n      dup2\n        /* \"#utility.yul\":13383:13387   */\n      dup2\n        /* \"#utility.yul\":13380:13391   */\n      gt\n        /* \"#utility.yul\":13377:13414   */\n      iszero\n      tag_285\n      jumpi\n        /* \"#utility.yul\":13394:13412   */\n      tag_286\n      tag_133\n      jump\t// in\n    tag_286:\n        /* \"#utility.yul\":13377:13414   */\n    tag_285:\n        /* \"#utility.yul\":13227:13421   */\n      swap3\n      swap2\n      pop\n      pop\n      jump\t// out\n        /* \"#utility.yul\":13427:13607   */\n    tag_70:\n        /* \"#utility.yul\":13475:13552   */\n      0x4e487b7100000000000000000000000000000000000000000000000000000000\n        /* \"#utility.yul\":13472:13473   */\n      0x00\n        /* \"#utility.yul\":13465:13553   */\n      mstore\n        /* \"#utility.yul\":13572:13576   */\n      0x31\n        /* \"#utility.yul\":13569:13570   */\n      0x04\n        /* \"#utility.yul\":13562:13577   */\n      mstore\n        /* \"#utility.yul\":13596:13600   */\n      0x24\n        /* \"#utility.yul\":13593:13594   */\n      0x00\n        /* \"#utility.yul\":13586:13601   */\n      revert\n        /* \"#utility.yul\":13613:13835   */\n    tag_73:\n        /* \"#utility.yul\":13706:13710   */\n      0x00\n        /* \"#utility.yul\":13744:13746   */\n      0x20\n        /* \"#utility.yul\":13733:13742   */\n      dup3\n        /* \"#utility.yul\":13729:13747   */\n      add\n        /* \"#utility.yul\":13721:13747   */\n      swap1\n      pop\n        /* \"#utility.yul\":13757:13828   */\n      tag_289\n        /* \"#utility.yul\":13825:13826   */\n      0x00\n        /* \"#utility.yul\":13814:13823   */\n      dup4\n        /* \"#utility.yul\":13810:13827   */\n      add\n        /* \"#utility.yul\":13801:13807   */\n      dup5\n        /* \"#utility.yul\":13757:13828   */\n      tag_132\n      jump\t// in\n    tag_289:\n        /* \"#utility.yul\":13613:13835   */\n      swap3\n      swap2\n      pop\n      pop\n      jump\t// out\n\n    auxdata: 0xa2646970667358221220d4747d8b137c130198914b34538b9c55b3fc71975c34669963217ea842bb6b1264736f6c634300081a0033\n}\n",
				"bytecode": {
					"linkReferences": {},
					"object": "608060405260016002553480156013575f80fd5b50610d4b806100215f395ff3fe608060405234801561000f575f80fd5b5060043610610055575f3560e01c80631d65e77e14610059578063672385621461008a578063bcd14805146100a6578063c3084117146100c4578063e1e29558146100e0575b5f80fd5b610073600480360381019061006e91906105c8565b6100fc565b60405161008192919061067d565b60405180910390f35b6100a4600480360381019061009f91906107d7565b6101ed565b005b6100ae6102db565b6040516100bb91906108d5565b60405180910390f35b6100de60048036038101906100d991906105c8565b610331565b005b6100fa60048036038101906100f591906105c8565b610465565b005b60605f610108836104d3565b5f805f8581526020019081526020015f206040518060600160405290815f820154815260200160018201805461013d90610922565b80601f016020809104026020016040519081016040528092919081815260200182805461016990610922565b80156101b45780601f1061018b576101008083540402835291602001916101b4565b820191905f5260205f20905b81548152906001019060200180831161019757829003601f168201915b50505050508152602001600282015f9054906101000a900460ff1615151515815250509050806020015181604001519250925050915091565b604051806060016040528060025481526020018281526020015f15158152505f8060025481526020019081526020015f205f820151815f0155602082015181600101908161023b9190610aef565b506040820151816002015f6101000a81548160ff0219169083151502179055509050506001600254908060018154018082558091505060019003905f5260205f20015f90919091909150557f2ee7ce8bac091b03a0c391c07ee88a246bdd72bdc6b1ef1ce4d99220595d32c5600254826040516102b9929190610bcd565b60405180910390a160025f8154809291906102d390610c28565b919050555050565b6060600180548060200260200160405190810160405280929190818152602001828054801561032757602002820191905f5260205f20905b815481526020019060010190808311610313575b5050505050905090565b61033a816104d3565b5f808281526020019081526020015f205f8082015f9055600182015f610360919061052c565b600282015f6101000a81549060ff021916905550505f5b60018054905081101561042a57816001828154811061039957610398610c6f565b5b905f5260205f2001540361041d5760018080805490506103b99190610c9c565b815481106103ca576103c9610c6f565b5b905f5260205f200154600182815481106103e7576103e6610c6f565b5b905f5260205f200181905550600180548061040557610404610ccf565b5b600190038181905f5260205f20015f9055905561042a565b8080600101915050610377565b507f36a2f40cfe61ace5baf26a6e4f86ffa75c62392fde263d354d42e0e718fa4bd18160405161045a9190610cfc565b60405180910390a150565b61046e816104d3565b60015f808381526020019081526020015f206002015f6101000a81548160ff0219169083151502179055507fc1fa7142cfb933d0855114a3bffde296944c30b727f297c14d0db4d553d3a5c7816040516104c89190610cfc565b60405180910390a150565b5f805f8381526020019081526020015f205f01540361052957806040517fc74fcd6b0000000000000000000000000000000000000000000000000000000081526004016105209190610cfc565b60405180910390fd5b50565b50805461053890610922565b5f825580601f106105495750610566565b601f0160209004905f5260205f20908101906105659190610569565b5b50565b5b80821115610580575f815f90555060010161056a565b5090565b5f604051905090565b5f80fd5b5f80fd5b5f819050919050565b6105a781610595565b81146105b1575f80fd5b50565b5f813590506105c28161059e565b92915050565b5f602082840312156105dd576105dc61058d565b5b5f6105ea848285016105b4565b91505092915050565b5f81519050919050565b5f82825260208201905092915050565b8281835e5f83830152505050565b5f601f19601f8301169050919050565b5f610635826105f3565b61063f81856105fd565b935061064f81856020860161060d565b6106588161061b565b840191505092915050565b5f8115159050919050565b61067781610663565b82525050565b5f6040820190508181035f830152610695818561062b565b90506106a4602083018461066e565b9392505050565b5f80fd5b5f80fd5b7f4e487b71000000000000000000000000000000000000000000000000000000005f52604160045260245ffd5b6106e98261061b565b810181811067ffffffffffffffff82111715610708576107076106b3565b5b80604052505050565b5f61071a610584565b905061072682826106e0565b919050565b5f67ffffffffffffffff821115610745576107446106b3565b5b61074e8261061b565b9050602081019050919050565b828183375f83830152505050565b5f61077b6107768461072b565b610711565b905082815260208101848484011115610797576107966106af565b5b6107a284828561075b565b509392505050565b5f82601f8301126107be576107bd6106ab565b5b81356107ce848260208601610769565b91505092915050565b5f602082840312156107ec576107eb61058d565b5b5f82013567ffffffffffffffff81111561080957610808610591565b5b610815848285016107aa565b91505092915050565b5f81519050919050565b5f82825260208201905092915050565b5f819050602082019050919050565b61085081610595565b82525050565b5f6108618383610847565b60208301905092915050565b5f602082019050919050565b5f6108838261081e565b61088d8185610828565b935061089883610838565b805f5b838110156108c85781516108af8882610856565b97506108ba8361086d565b92505060018101905061089b565b5085935050505092915050565b5f6020820190508181035f8301526108ed8184610879565b905092915050565b7f4e487b71000000000000000000000000000000000000000000000000000000005f52602260045260245ffd5b5f600282049050600182168061093957607f821691505b60208210810361094c5761094b6108f5565b5b50919050565b5f819050815f5260205f209050919050565b5f6020601f8301049050919050565b5f82821b905092915050565b5f600883026109ae7fffffffffffffffffffffffffffffffffffffffffffffffffffffffffffffffff82610973565b6109b88683610973565b95508019841693508086168417925050509392505050565b5f819050919050565b5f6109f36109ee6109e984610595565b6109d0565b610595565b9050919050565b5f819050919050565b610a0c836109d9565b610a20610a18826109fa565b84845461097f565b825550505050565b5f90565b610a34610a28565b610a3f818484610a03565b505050565b5b81811015610a6257610a575f82610a2c565b600181019050610a45565b5050565b601f821115610aa757610a7881610952565b610a8184610964565b81016020851015610a90578190505b610aa4610a9c85610964565b830182610a44565b50505b505050565b5f82821c905092915050565b5f610ac75f1984600802610aac565b1980831691505092915050565b5f610adf8383610ab8565b9150826002028217905092915050565b610af8826105f3565b67ffffffffffffffff811115610b1157610b106106b3565b5b610b1b8254610922565b610b26828285610a66565b5f60209050601f831160018114610b57575f8415610b45578287015190505b610b4f8582610ad4565b865550610bb6565b601f198416610b6586610952565b5f5b82811015610b8c57848901518255600182019150602085019450602081019050610b67565b86831015610ba95784890151610ba5601f891682610ab8565b8355505b6001600288020188555050505b505050505050565b610bc781610595565b82525050565b5f604082019050610be05f830185610bbe565b8181036020830152610bf2818461062b565b90509392505050565b7f4e487b71000000000000000000000000000000000000000000000000000000005f52601160045260245ffd5b5f610c3282610595565b91507fffffffffffffffffffffffffffffffffffffffffffffffffffffffffffffffff8203610c6457610c63610bfb565b5b600182019050919050565b7f4e487b71000000000000000000000000000000000000000000000000000000005f52603260045260245ffd5b5f610ca682610595565b9150610cb183610595565b9250828203905081811115610cc957610cc8610bfb565b5b92915050565b7f4e487b71000000000000000000000000000000000000000000000000000000005f52603160045260245ffd5b5f602082019050610d0f5f830184610bbe565b9291505056fea2646970667358221220d4747d8b137c130198914b34538b9c55b3fc71975c34669963217ea842bb6b1264736f6c634300081a0033",
					"opcodes": "PUSH1 0x80 PUSH1 0x40 MSTORE PUSH1 0x1 PUSH1 0x2 SSTORE CALLVALUE DUP1 ISZERO PUSH1 0x13 JUMPI PUSH0 DUP1 REVERT JUMPDEST POP PUSH2 0xD4B DUP1 PUSH2 0x21 PUSH0 CODECOPY PUSH0 RETURN INVALID PUSH1 0x80 PUSH1 0x40 MSTORE CALLVALUE DUP1 ISZERO PUSH2 0xF JUMPI PUSH0 DUP1 REVERT JUMPDEST POP PUSH1 0x4 CALLDATASIZE LT PUSH2 0x55 JUMPI PUSH0 CALLDATALOAD PUSH1 0xE0 SHR DUP1 PUSH4 0x1D65E77E EQ PUSH2 0x59 JUMPI DUP1 PUSH4 0x67238562 EQ PUSH2 0x8A JUMPI DUP1 PUSH4 0xBCD14805 EQ PUSH2 0xA6 JUMPI DUP1 PUSH4 0xC3084117 EQ PUSH2 0xC4 JUMPI DUP1 PUSH4 0xE1E29558 EQ PUSH2 0xE0 JUMPI JUMPDEST PUSH0 DUP1 REVERT JUMPDEST PUSH2 0x73 PUSH1 0x4 DUP1 CALLDATASIZE SUB DUP2 ADD SWAP1 PUSH2 0x6E SWAP2 SWAP1 PUSH2 0x5C8 JUMP JUMPDEST PUSH2 0xFC JUMP JUMPDEST PUSH1 0x40 MLOAD PUSH2 0x81 SWAP3 SWAP2 SWAP1 PUSH2 0x67D JUMP JUMPDEST PUSH1 0x40 MLOAD DUP1 SWAP2 SUB SWAP1 RETURN JUMPDEST PUSH2 0xA4 PUSH1 0x4 DUP1 CALLDATASIZE SUB DUP2 ADD SWAP1 PUSH2 0x9F SWAP2 SWAP1 PUSH2 0x7D7 JUMP JUMPDEST PUSH2 0x1ED JUMP JUMPDEST STOP JUMPDEST PUSH2 0xAE PUSH2 0x2DB JUMP JUMPDEST PUSH1 0x40 MLOAD PUSH2 0xBB SWAP2 SWAP1 PUSH2 0x8D5 JUMP JUMPDEST PUSH1 0x40 MLOAD DUP1 SWAP2 SUB SWAP1 RETURN JUMPDEST PUSH2 0xDE PUSH1 0x4 DUP1 CALLDATASIZE SUB DUP2 ADD SWAP1 PUSH2 0xD9 SWAP2 SWAP1 PUSH2 0x5C8 JUMP JUMPDEST PUSH2 0x331 JUMP JUMPDEST STOP JUMPDEST PUSH2 0xFA PUSH1 0x4 DUP1 CALLDATASIZE SUB DUP2 ADD SWAP1 PUSH2 0xF5 SWAP2 SWAP1 PUSH2 0x5C8 JUMP JUMPDEST PUSH2 0x465 JUMP JUMPDEST STOP JUMPDEST PUSH1 0x60 PUSH0 PUSH2 0x108 DUP4 PUSH2 0x4D3 JUMP JUMPDEST PUSH0 DUP1 PUSH0 DUP6 DUP2 MSTORE PUSH1 0x20 ADD SWAP1 DUP2 MSTORE PUSH1 0x20 ADD PUSH0 KECCAK256 PUSH1 0x40 MLOAD DUP1 PUSH1 0x60 ADD PUSH1 0x40 MSTORE SWAP1 DUP2 PUSH0 DUP3 ADD SLOAD DUP2 MSTORE PUSH1 0x20 ADD PUSH1 0x1 DUP3 ADD DUP1 SLOAD PUSH2 0x13D SWAP1 PUSH2 0x922 JUMP JUMPDEST DUP1 PUSH1 0x1F ADD PUSH1 0x20 DUP1 SWAP2 DIV MUL PUSH1 0x20 ADD PUSH1 0x40 MLOAD SWAP1 DUP2 ADD PUSH1 0x40 MSTORE DUP1 SWAP3 SWAP2 SWAP1 DUP2 DUP2 MSTORE PUSH1 0x20 ADD DUP3 DUP1 SLOAD PUSH2 0x169 SWAP1 PUSH2 0x922 JUMP JUMPDEST DUP1 ISZERO PUSH2 0x1B4 JUMPI DUP1 PUSH1 0x1F LT PUSH2 0x18B JUMPI PUSH2 0x100 DUP1 DUP4 SLOAD DIV MUL DUP4 MSTORE SWAP2 PUSH1 0x20 ADD SWAP2 PUSH2 0x1B4 JUMP JUMPDEST DUP3 ADD SWAP2 SWAP1 PUSH0 MSTORE PUSH1 0x20 PUSH0 KECCAK256 SWAP1 JUMPDEST DUP2 SLOAD DUP2 MSTORE SWAP1 PUSH1 0x1 ADD SWAP1 PUSH1 0x20 ADD DUP1 DUP4 GT PUSH2 0x197 JUMPI DUP3 SWAP1 SUB PUSH1 0x1F AND DUP3 ADD SWAP2 JUMPDEST POP POP POP POP POP DUP2 MSTORE PUSH1 0x20 ADD PUSH1 0x2 DUP3 ADD PUSH0 SWAP1 SLOAD SWAP1 PUSH2 0x100 EXP SWAP1 DIV PUSH1 0xFF AND ISZERO ISZERO ISZERO ISZERO DUP2 MSTORE POP POP SWAP1 POP DUP1 PUSH1 0x20 ADD MLOAD DUP2 PUSH1 0x40 ADD MLOAD SWAP3 POP SWAP3 POP POP SWAP2 POP SWAP2 JUMP JUMPDEST PUSH1 0x40 MLOAD DUP1 PUSH1 0x60 ADD PUSH1 0x40 MSTORE DUP1 PUSH1 0x2 SLOAD DUP2 MSTORE PUSH1 0x20 ADD DUP3 DUP2 MSTORE PUSH1 0x20 ADD PUSH0 ISZERO ISZERO DUP2 MSTORE POP PUSH0 DUP1 PUSH1 0x2 SLOAD DUP2 MSTORE PUSH1 0x20 ADD SWAP1 DUP2 MSTORE PUSH1 0x20 ADD PUSH0 KECCAK256 PUSH0 DUP3 ADD MLOAD DUP2 PUSH0 ADD SSTORE PUSH1 0x20 DUP3 ADD MLOAD DUP2 PUSH1 0x1 ADD SWAP1 DUP2 PUSH2 0x23B SWAP2 SWAP1 PUSH2 0xAEF JUMP JUMPDEST POP PUSH1 0x40 DUP3 ADD MLOAD DUP2 PUSH1 0x2 ADD PUSH0 PUSH2 0x100 EXP DUP2 SLOAD DUP2 PUSH1 0xFF MUL NOT AND SWAP1 DUP4 ISZERO ISZERO MUL OR SWAP1 SSTORE POP SWAP1 POP POP PUSH1 0x1 PUSH1 0x2 SLOAD SWAP1 DUP1 PUSH1 0x1 DUP2 SLOAD ADD DUP1 DUP3 SSTORE DUP1 SWAP2 POP POP PUSH1 0x1 SWAP1 SUB SWAP1 PUSH0 MSTORE PUSH1 0x20 PUSH0 KECCAK256 ADD PUSH0 SWAP1 SWAP2 SWAP1 SWAP2 SWAP1 SWAP2 POP SSTORE PUSH32 0x2EE7CE8BAC091B03A0C391C07EE88A246BDD72BDC6B1EF1CE4D99220595D32C5 PUSH1 0x2 SLOAD DUP3 PUSH1 0x40 MLOAD PUSH2 0x2B9 SWAP3 SWAP2 SWAP1 PUSH2 0xBCD JUMP JUMPDEST PUSH1 0x40 MLOAD DUP1 SWAP2 SUB SWAP1 LOG1 PUSH1 0x2 PUSH0 DUP2 SLOAD DUP1 SWAP3 SWAP2 SWAP1 PUSH2 0x2D3 SWAP1 PUSH2 0xC28 JUMP JUMPDEST SWAP2 SWAP1 POP SSTORE POP POP JUMP JUMPDEST PUSH1 0x60 PUSH1 0x1 DUP1 SLOAD DUP1 PUSH1 0x20 MUL PUSH1 0x20 ADD PUSH1 0x40 MLOAD SWAP1 DUP2 ADD PUSH1 0x40 MSTORE DUP1 SWAP3 SWAP2 SWAP1 DUP2 DUP2 MSTORE PUSH1 0x20 ADD DUP3 DUP1 SLOAD DUP1 ISZERO PUSH2 0x327 JUMPI PUSH1 0x20 MUL DUP3 ADD SWAP2 SWAP1 PUSH0 MSTORE PUSH1 0x20 PUSH0 KECCAK256 SWAP1 JUMPDEST DUP2 SLOAD DUP2 MSTORE PUSH1 0x20 ADD SWAP1 PUSH1 0x1 ADD SWAP1 DUP1 DUP4 GT PUSH2 0x313 JUMPI JUMPDEST POP POP POP POP POP SWAP1 POP SWAP1 JUMP JUMPDEST PUSH2 0x33A DUP2 PUSH2 0x4D3 JUMP JUMPDEST PUSH0 DUP1 DUP3 DUP2 MSTORE PUSH1 0x20 ADD SWAP1 DUP2 MSTORE PUSH1 0x20 ADD PUSH0 KECCAK256 PUSH0 DUP1 DUP3 ADD PUSH0 SWAP1 SSTORE PUSH1 0x1 DUP3 ADD PUSH0 PUSH2 0x360 SWAP2 SWAP1 PUSH2 0x52C JUMP JUMPDEST PUSH1 0x2 DUP3 ADD PUSH0 PUSH2 0x100 EXP DUP2 SLOAD SWAP1 PUSH1 0xFF MUL NOT AND SWAP1 SSTORE POP POP PUSH0 JUMPDEST PUSH1 0x1 DUP1 SLOAD SWAP1 POP DUP2 LT ISZERO PUSH2 0x42A JUMPI DUP2 PUSH1 0x1 DUP3 DUP2 SLOAD DUP2 LT PUSH2 0x399 JUMPI PUSH2 0x398 PUSH2 0xC6F JUMP JUMPDEST JUMPDEST SWAP1 PUSH0 MSTORE PUSH1 0x20 PUSH0 KECCAK256 ADD SLOAD SUB PUSH2 0x41D JUMPI PUSH1 0x1 DUP1 DUP1 DUP1 SLOAD SWAP1 POP PUSH2 0x3B9 SWAP2 SWAP1 PUSH2 0xC9C JUMP JUMPDEST DUP2 SLOAD DUP2 LT PUSH2 0x3CA JUMPI PUSH2 0x3C9 PUSH2 0xC6F JUMP JUMPDEST JUMPDEST SWAP1 PUSH0 MSTORE PUSH1 0x20 PUSH0 KECCAK256 ADD SLOAD PUSH1 0x1 DUP3 DUP2 SLOAD DUP2 LT PUSH2 0x3E7 JUMPI PUSH2 0x3E6 PUSH2 0xC6F JUMP JUMPDEST JUMPDEST SWAP1 PUSH0 MSTORE PUSH1 0x20 PUSH0 KECCAK256 ADD DUP2 SWAP1 SSTORE POP PUSH1 0x1 DUP1 SLOAD DUP1 PUSH2 0x405 JUMPI PUSH2 0x404 PUSH2 0xCCF JUMP JUMPDEST JUMPDEST PUSH1 0x1 SWAP1 SUB DUP2 DUP2 SWAP1 PUSH0 MSTORE PUSH1 0x20 PUSH0 KECCAK256 ADD PUSH0 SWAP1 SSTORE SWAP1 SSTORE PUSH2 0x42A JUMP JUMPDEST DUP1 DUP1 PUSH1 0x1 ADD SWAP2 POP POP PUSH2 0x377 JUMP JUMPDEST POP PUSH32 0x36A2F40CFE61ACE5BAF26A6E4F86FFA75C62392FDE263D354D42E0E718FA4BD1 DUP2 PUSH1 0x40 MLOAD PUSH2 0x45A SWAP2 SWAP1 PUSH2 0xCFC JUMP JUMPDEST PUSH1 0x40 MLOAD DUP1 SWAP2 SUB SWAP1 LOG1 POP JUMP JUMPDEST PUSH2 0x46E DUP2 PUSH2 0x4D3 JUMP JUMPDEST PUSH1 0x1 PUSH0 DUP1 DUP4 DUP2 MSTORE PUSH1 0x20 ADD SWAP1 DUP2 MSTORE PUSH1 0x20 ADD PUSH0 KECCAK256 PUSH1 0x2 ADD PUSH0 PUSH2 0x100 EXP DUP2 SLOAD DUP2 PUSH1 0xFF MUL NOT AND SWAP1 DUP4 ISZERO ISZERO MUL OR SWAP1 SSTORE POP PUSH32 0xC1FA7142CFB933D0855114A3BFFDE296944C30B727F297C14D0DB4D553D3A5C7 DUP2 PUSH1 0x40 MLOAD PUSH2 0x4C8 SWAP2 SWAP1 PUSH2 0xCFC JUMP JUMPDEST PUSH1 0x40 MLOAD DUP1 SWAP2 SUB SWAP1 LOG1 POP JUMP JUMPDEST PUSH0 DUP1 PUSH0 DUP4 DUP2 MSTORE PUSH1 0x20 ADD SWAP1 DUP2 MSTORE PUSH1 0x20 ADD PUSH0 KECCAK256 PUSH0 ADD SLOAD SUB PUSH2 0x529 JUMPI DUP1 PUSH1 0x40 MLOAD PUSH32 0xC74FCD6B00000000000000000000000000000000000000000000000000000000 DUP2 MSTORE PUSH1 0x4 ADD PUSH2 0x520 SWAP2 SWAP1 PUSH2 0xCFC JUMP JUMPDEST PUSH1 0x40 MLOAD DUP1 SWAP2 SUB SWAP1 REVERT JUMPDEST POP JUMP JUMPDEST POP DUP1 SLOAD PUSH2 0x538 SWAP1 PUSH2 0x922 JUMP JUMPDEST PUSH0 DUP3 SSTORE DUP1 PUSH1 0x1F LT PUSH2 0x549 JUMPI POP PUSH2 0x566 JUMP JUMPDEST PUSH1 0x1F ADD PUSH1 0x20 SWAP1 DIV SWAP1 PUSH0 MSTORE PUSH1 0x20 PUSH0 KECCAK256 SWAP1 DUP2 ADD SWAP1 PUSH2 0x565 SWAP2 SWAP1 PUSH2 0x569 JUMP JUMPDEST JUMPDEST POP JUMP JUMPDEST JUMPDEST DUP1 DUP3 GT ISZERO PUSH2 0x580 JUMPI PUSH0 DUP2 PUSH0 SWAP1 SSTORE POP PUSH1 0x1 ADD PUSH2 0x56A JUMP JUMPDEST POP SWAP1 JUMP JUMPDEST PUSH0 PUSH1 0x40 MLOAD SWAP1 POP SWAP1 JUMP JUMPDEST PUSH0 DUP1 REVERT JUMPDEST PUSH0 DUP1 REVERT JUMPDEST PUSH0 DUP2 SWAP1 POP SWAP2 SWAP1 POP JUMP JUMPDEST PUSH2 0x5A7 DUP2 PUSH2 0x595 JUMP JUMPDEST DUP2 EQ PUSH2 0x5B1 JUMPI PUSH0 DUP1 REVERT JUMPDEST POP JUMP JUMPDEST PUSH0 DUP2 CALLDATALOAD SWAP1 POP PUSH2 0x5C2 DUP2 PUSH2 0x59E JUMP JUMPDEST SWAP3 SWAP2 POP POP JUMP JUMPDEST PUSH0 PUSH1 0x20 DUP3 DUP5 SUB SLT ISZERO PUSH2 0x5DD JUMPI PUSH2 0x5DC PUSH2 0x58D JUMP JUMPDEST JUMPDEST PUSH0 PUSH2 0x5EA DUP5 DUP3 DUP6 ADD PUSH2 0x5B4 JUMP JUMPDEST SWAP2 POP POP SWAP3 SWAP2 POP POP JUMP JUMPDEST PUSH0 DUP2 MLOAD SWAP1 POP SWAP2 SWAP1 POP JUMP JUMPDEST PUSH0 DUP3 DUP3 MSTORE PUSH1 0x20 DUP3 ADD SWAP1 POP SWAP3 SWAP2 POP POP JUMP JUMPDEST DUP3 DUP2 DUP4 MCOPY PUSH0 DUP4 DUP4 ADD MSTORE POP POP POP JUMP JUMPDEST PUSH0 PUSH1 0x1F NOT PUSH1 0x1F DUP4 ADD AND SWAP1 POP SWAP2 SWAP1 POP JUMP JUMPDEST PUSH0 PUSH2 0x635 DUP3 PUSH2 0x5F3 JUMP JUMPDEST PUSH2 0x63F DUP2 DUP6 PUSH2 0x5FD JUMP JUMPDEST SWAP4 POP PUSH2 0x64F DUP2 DUP6 PUSH1 0x20 DUP7 ADD PUSH2 0x60D JUMP JUMPDEST PUSH2 0x658 DUP2 PUSH2 0x61B JUMP JUMPDEST DUP5 ADD SWAP2 POP POP SWAP3 SWAP2 POP POP JUMP JUMPDEST PUSH0 DUP2 ISZERO ISZERO SWAP1 POP SWAP2 SWAP1 POP JUMP JUMPDEST PUSH2 0x677 DUP2 PUSH2 0x663 JUMP JUMPDEST DUP3 MSTORE POP POP JUMP JUMPDEST PUSH0 PUSH1 0x40 DUP3 ADD SWAP1 POP DUP2 DUP2 SUB PUSH0 DUP4 ADD MSTORE PUSH2 0x695 DUP2 DUP6 PUSH2 0x62B JUMP JUMPDEST SWAP1 POP PUSH2 0x6A4 PUSH1 0x20 DUP4 ADD DUP5 PUSH2 0x66E JUMP JUMPDEST SWAP4 SWAP3 POP POP POP JUMP JUMPDEST PUSH0 DUP1 REVERT JUMPDEST PUSH0 DUP1 REVERT JUMPDEST PUSH32 0x4E487B7100000000000000000000000000000000000000000000000000000000 PUSH0 MSTORE PUSH1 0x41 PUSH1 0x4 MSTORE PUSH1 0x24 PUSH0 REVERT JUMPDEST PUSH2 0x6E9 DUP3 PUSH2 0x61B JUMP JUMPDEST DUP2 ADD DUP2 DUP2 LT PUSH8 0xFFFFFFFFFFFFFFFF DUP3 GT OR ISZERO PUSH2 0x708 JUMPI PUSH2 0x707 PUSH2 0x6B3 JUMP JUMPDEST JUMPDEST DUP1 PUSH1 0x40 MSTORE POP POP POP JUMP JUMPDEST PUSH0 PUSH2 0x71A PUSH2 0x584 JUMP JUMPDEST SWAP1 POP PUSH2 0x726 DUP3 DUP3 PUSH2 0x6E0 JUMP JUMPDEST SWAP2 SWAP1 POP JUMP JUMPDEST PUSH0 PUSH8 0xFFFFFFFFFFFFFFFF DUP3 GT ISZERO PUSH2 0x745 JUMPI PUSH2 0x744 PUSH2 0x6B3 JUMP JUMPDEST JUMPDEST PUSH2 0x74E DUP3 PUSH2 0x61B JUMP JUMPDEST SWAP1 POP PUSH1 0x20 DUP2 ADD SWAP1 POP SWAP2 SWAP1 POP JUMP JUMPDEST DUP3 DUP2 DUP4 CALLDATACOPY PUSH0 DUP4 DUP4 ADD MSTORE POP POP POP JUMP JUMPDEST PUSH0 PUSH2 0x77B PUSH2 0x776 DUP5 PUSH2 0x72B JUMP JUMPDEST PUSH2 0x711 JUMP JUMPDEST SWAP1 POP DUP3 DUP2 MSTORE PUSH1 0x20 DUP2 ADD DUP5 DUP5 DUP5 ADD GT ISZERO PUSH2 0x797 JUMPI PUSH2 0x796 PUSH2 0x6AF JUMP JUMPDEST JUMPDEST PUSH2 0x7A2 DUP5 DUP3 DUP6 PUSH2 0x75B JUMP JUMPDEST POP SWAP4 SWAP3 POP POP POP JUMP JUMPDEST PUSH0 DUP3 PUSH1 0x1F DUP4 ADD SLT PUSH2 0x7BE JUMPI PUSH2 0x7BD PUSH2 0x6AB JUMP JUMPDEST JUMPDEST DUP2 CALLDATALOAD PUSH2 0x7CE DUP5 DUP3 PUSH1 0x20 DUP7 ADD PUSH2 0x769 JUMP JUMPDEST SWAP2 POP POP SWAP3 SWAP2 POP POP JUMP JUMPDEST PUSH0 PUSH1 0x20 DUP3 DUP5 SUB SLT ISZERO PUSH2 0x7EC JUMPI PUSH2 0x7EB PUSH2 0x58D JUMP JUMPDEST JUMPDEST PUSH0 DUP3 ADD CALLDATALOAD PUSH8 0xFFFFFFFFFFFFFFFF DUP2 GT ISZERO PUSH2 0x809 JUMPI PUSH2 0x808 PUSH2 0x591 JUMP JUMPDEST JUMPDEST PUSH2 0x815 DUP5 DUP3 DUP6 ADD PUSH2 0x7AA JUMP JUMPDEST SWAP2 POP POP SWAP3 SWAP2 POP POP JUMP JUMPDEST PUSH0 DUP2 MLOAD SWAP1 POP SWAP2 SWAP1 POP JUMP JUMPDEST PUSH0 DUP3 DUP3 MSTORE PUSH1 0x20 DUP3 ADD SWAP1 POP SWAP3 SWAP2 POP POP JUMP JUMPDEST PUSH0 DUP2 SWAP1 POP PUSH1 0x20 DUP3 ADD SWAP1 POP SWAP2 SWAP1 POP JUMP JUMPDEST PUSH2 0x850 DUP2 PUSH2 0x595 JUMP JUMPDEST DUP3 MSTORE POP POP JUMP JUMPDEST PUSH0 PUSH2 0x861 DUP4 DUP4 PUSH2 0x847 JUMP JUMPDEST PUSH1 0x20 DUP4 ADD SWAP1 POP SWAP3 SWAP2 POP POP JUMP JUMPDEST PUSH0 PUSH1 0x20 DUP3 ADD SWAP1 POP SWAP2 SWAP1 POP JUMP JUMPDEST PUSH0 PUSH2 0x883 DUP3 PUSH2 0x81E JUMP JUMPDEST PUSH2 0x88D DUP2 DUP6 PUSH2 0x828 JUMP JUMPDEST SWAP4 POP PUSH2 0x898 DUP4 PUSH2 0x838 JUMP JUMPDEST DUP1 PUSH0 JUMPDEST DUP4 DUP2 LT ISZERO PUSH2 0x8C8 JUMPI DUP2 MLOAD PUSH2 0x8AF DUP9 DUP3 PUSH2 0x856 JUMP JUMPDEST SWAP8 POP PUSH2 0x8BA DUP4 PUSH2 0x86D JUMP JUMPDEST SWAP3 POP POP PUSH1 0x1 DUP2 ADD SWAP1 POP PUSH2 0x89B JUMP JUMPDEST POP DUP6 SWAP4 POP POP POP POP SWAP3 SWAP2 POP POP JUMP JUMPDEST PUSH0 PUSH1 0x20 DUP3 ADD SWAP1 POP DUP2 DUP2 SUB PUSH0 DUP4 ADD MSTORE PUSH2 0x8ED DUP2 DUP5 PUSH2 0x879 JUMP JUMPDEST SWAP1 POP SWAP3 SWAP2 POP POP JUMP JUMPDEST PUSH32 0x4E487B7100000000000000000000000000000000000000000000000000000000 PUSH0 MSTORE PUSH1 0x22 PUSH1 0x4 MSTORE PUSH1 0x24 PUSH0 REVERT JUMPDEST PUSH0 PUSH1 0x2 DUP3 DIV SWAP1 POP PUSH1 0x1 DUP3 AND DUP1 PUSH2 0x939 JUMPI PUSH1 0x7F DUP3 AND SWAP2 POP JUMPDEST PUSH1 0x20 DUP3 LT DUP2 SUB PUSH2 0x94C JUMPI PUSH2 0x94B PUSH2 0x8F5 JUMP JUMPDEST JUMPDEST POP SWAP2 SWAP1 POP JUMP JUMPDEST PUSH0 DUP2 SWAP1 POP DUP2 PUSH0 MSTORE PUSH1 0x20 PUSH0 KECCAK256 SWAP1 POP SWAP2 SWAP1 POP JUMP JUMPDEST PUSH0 PUSH1 0x20 PUSH1 0x1F DUP4 ADD DIV SWAP1 POP SWAP2 SWAP1 POP JUMP JUMPDEST PUSH0 DUP3 DUP3 SHL SWAP1 POP SWAP3 SWAP2 POP POP JUMP JUMPDEST PUSH0 PUSH1 0x8 DUP4 MUL PUSH2 0x9AE PUSH32 0xFFFFFFFFFFFFFFFFFFFFFFFFFFFFFFFFFFFFFFFFFFFFFFFFFFFFFFFFFFFFFFFF DUP3 PUSH2 0x973 JUMP JUMPDEST PUSH2 0x9B8 DUP7 DUP4 PUSH2 0x973 JUMP JUMPDEST SWAP6 POP DUP1 NOT DUP5 AND SWAP4 POP DUP1 DUP7 AND DUP5 OR SWAP3 POP POP POP SWAP4 SWAP3 POP POP POP JUMP JUMPDEST PUSH0 DUP2 SWAP1 POP SWAP2 SWAP1 POP JUMP JUMPDEST PUSH0 PUSH2 0x9F3 PUSH2 0x9EE PUSH2 0x9E9 DUP5 PUSH2 0x595 JUMP JUMPDEST PUSH2 0x9D0 JUMP JUMPDEST PUSH2 0x595 JUMP JUMPDEST SWAP1 POP SWAP2 SWAP1 POP JUMP JUMPDEST PUSH0 DUP2 SWAP1 POP SWAP2 SWAP1 POP JUMP JUMPDEST PUSH2 0xA0C DUP4 PUSH2 0x9D9 JUMP JUMPDEST PUSH2 0xA20 PUSH2 0xA18 DUP3 PUSH2 0x9FA JUMP JUMPDEST DUP5 DUP5 SLOAD PUSH2 0x97F JUMP JUMPDEST DUP3 SSTORE POP POP POP POP JUMP JUMPDEST PUSH0 SWAP1 JUMP JUMPDEST PUSH2 0xA34 PUSH2 0xA28 JUMP JUMPDEST PUSH2 0xA3F DUP2 DUP5 DUP5 PUSH2 0xA03 JUMP JUMPDEST POP POP POP JUMP JUMPDEST JUMPDEST DUP2 DUP2 LT ISZERO PUSH2 0xA62 JUMPI PUSH2 0xA57 PUSH0 DUP3 PUSH2 0xA2C JUMP JUMPDEST PUSH1 0x1 DUP2 ADD SWAP1 POP PUSH2 0xA45 JUMP JUMPDEST POP POP JUMP JUMPDEST PUSH1 0x1F DUP3 GT ISZERO PUSH2 0xAA7 JUMPI PUSH2 0xA78 DUP2 PUSH2 0x952 JUMP JUMPDEST PUSH2 0xA81 DUP5 PUSH2 0x964 JUMP JUMPDEST DUP2 ADD PUSH1 0x20 DUP6 LT ISZERO PUSH2 0xA90 JUMPI DUP2 SWAP1 POP JUMPDEST PUSH2 0xAA4 PUSH2 0xA9C DUP6 PUSH2 0x964 JUMP JUMPDEST DUP4 ADD DUP3 PUSH2 0xA44 JUMP JUMPDEST POP POP JUMPDEST POP POP POP JUMP JUMPDEST PUSH0 DUP3 DUP3 SHR SWAP1 POP SWAP3 SWAP2 POP POP JUMP JUMPDEST PUSH0 PUSH2 0xAC7 PUSH0 NOT DUP5 PUSH1 0x8 MUL PUSH2 0xAAC JUMP JUMPDEST NOT DUP1 DUP4 AND SWAP2 POP POP SWAP3 SWAP2 POP POP JUMP JUMPDEST PUSH0 PUSH2 0xADF DUP4 DUP4 PUSH2 0xAB8 JUMP JUMPDEST SWAP2 POP DUP3 PUSH1 0x2 MUL DUP3 OR SWAP1 POP SWAP3 SWAP2 POP POP JUMP JUMPDEST PUSH2 0xAF8 DUP3 PUSH2 0x5F3 JUMP JUMPDEST PUSH8 0xFFFFFFFFFFFFFFFF DUP2 GT ISZERO PUSH2 0xB11 JUMPI PUSH2 0xB10 PUSH2 0x6B3 JUMP JUMPDEST JUMPDEST PUSH2 0xB1B DUP3 SLOAD PUSH2 0x922 JUMP JUMPDEST PUSH2 0xB26 DUP3 DUP3 DUP6 PUSH2 0xA66 JUMP JUMPDEST PUSH0 PUSH1 0x20 SWAP1 POP PUSH1 0x1F DUP4 GT PUSH1 0x1 DUP2 EQ PUSH2 0xB57 JUMPI PUSH0 DUP5 ISZERO PUSH2 0xB45 JUMPI DUP3 DUP8 ADD MLOAD SWAP1 POP JUMPDEST PUSH2 0xB4F DUP6 DUP3 PUSH2 0xAD4 JUMP JUMPDEST DUP7 SSTORE POP PUSH2 0xBB6 JUMP JUMPDEST PUSH1 0x1F NOT DUP5 AND PUSH2 0xB65 DUP7 PUSH2 0x952 JUMP JUMPDEST PUSH0 JUMPDEST DUP3 DUP2 LT ISZERO PUSH2 0xB8C JUMPI DUP5 DUP10 ADD MLOAD DUP3 SSTORE PUSH1 0x1 DUP3 ADD SWAP2 POP PUSH1 0x20 DUP6 ADD SWAP5 POP PUSH1 0x20 DUP2 ADD SWAP1 POP PUSH2 0xB67 JUMP JUMPDEST DUP7 DUP4 LT ISZERO PUSH2 0xBA9 JUMPI DUP5 DUP10 ADD MLOAD PUSH2 0xBA5 PUSH1 0x1F DUP10 AND DUP3 PUSH2 0xAB8 JUMP JUMPDEST DUP4 SSTORE POP JUMPDEST PUSH1 0x1 PUSH1 0x2 DUP9 MUL ADD DUP9 SSTORE POP POP POP JUMPDEST POP POP POP POP POP POP JUMP JUMPDEST PUSH2 0xBC7 DUP2 PUSH2 0x595 JUMP JUMPDEST DUP3 MSTORE POP POP JUMP JUMPDEST PUSH0 PUSH1 0x40 DUP3 ADD SWAP1 POP PUSH2 0xBE0 PUSH0 DUP4 ADD DUP6 PUSH2 0xBBE JUMP JUMPDEST DUP2 DUP2 SUB PUSH1 0x20 DUP4 ADD MSTORE PUSH2 0xBF2 DUP2 DUP5 PUSH2 0x62B JUMP JUMPDEST SWAP1 POP SWAP4 SWAP3 POP POP POP JUMP JUMPDEST PUSH32 0x4E487B7100000000000000000000000000000000000000000000000000000000 PUSH0 MSTORE PUSH1 0x11 PUSH1 0x4 MSTORE PUSH1 0x24 PUSH0 REVERT JUMPDEST PUSH0 PUSH2 0xC32 DUP3 PUSH2 0x595 JUMP JUMPDEST SWAP2 POP PUSH32 0xFFFFFFFFFFFFFFFFFFFFFFFFFFFFFFFFFFFFFFFFFFFFFFFFFFFFFFFFFFFFFFFF DUP3 SUB PUSH2 0xC64 JUMPI PUSH2 0xC63 PUSH2 0xBFB JUMP JUMPDEST JUMPDEST PUSH1 0x1 DUP3 ADD SWAP1 POP SWAP2 SWAP1 POP JUMP JUMPDEST PUSH32 0x4E487B7100000000000000000000000000000000000000000000000000000000 PUSH0 MSTORE PUSH1 0x32 PUSH1 0x4 MSTORE PUSH1 0x24 PUSH0 REVERT JUMPDEST PUSH0 PUSH2 0xCA6 DUP3 PUSH2 0x595 JUMP JUMPDEST SWAP2 POP PUSH2 0xCB1 DUP4 PUSH2 0x595 JUMP JUMPDEST SWAP3 POP DUP3 DUP3 SUB SWAP1 POP DUP2 DUP2 GT ISZERO PUSH2 0xCC9 JUMPI PUSH2 0xCC8 PUSH2 0xBFB JUMP JUMPDEST JUMPDEST SWAP3 SWAP2 POP POP JUMP JUMPDEST PUSH32 0x4E487B7100000000000000000000000000000000000000000000000000000000 PUSH0 MSTORE PUSH1 0x31 PUSH1 0x4 MSTORE PUSH1 0x24 PUSH0 REVERT JUMPDEST PUSH0 PUSH1 0x20 DUP3 ADD SWAP1 POP PUSH2 0xD0F PUSH0 DUP4 ADD DUP5 PUSH2 0xBBE JUMP JUMPDEST SWAP3 SWAP2 POP POP JUMP INVALID LOG2 PUSH5 0x6970667358 0x22 SLT KECCAK256 0xD4 PUSH21 0x7D8B137C130198914B34538B9C55B3FC71975C3466 SWAP10 PUSH4 0x217EA842 0xBB PUSH12 0x1264736F6C634300081A0033 "
				},
				"gasEstimates": {
					"creation": {
						"codeDepositCost": "680600",
						"executionCost": "22819",
						"totalCost": "703419"
					},
					"external": {
						"addTask(string)": "infinite",
						"completeTask(uint256)": "infinite",
						"getTask(uint256)": "infinite",
						"getTaskIds()": "infinite",
						"removeTask(uint256)": "infinite"
					},
					"internal": {
						"_ensureTaskExists(uint256)": "infinite"
					}
				},
				"methodIdentifiers": {
					"addTask(string)": "67238562",
					"completeTask(uint256)": "e1e29558",
					"getTask(uint256)": "1d65e77e",
					"getTaskIds()": "bcd14805",
					"removeTask(uint256)": "c3084117"
				}
			},
			"storageLayout": {
				"storage": [
					{
						"astId": 13,
						"contract": "todo.sol:ToDoList",
						"label": "tasks",
						"offset": 0,
						"slot": "0",
						"type": "t_mapping(t_uint256,t_struct(Task)8_storage)"
					},
					{
						"astId": 16,
						"contract": "todo.sol:ToDoList",
						"label": "taskIds",
						"offset": 0,
						"slot": "1",
						"type": "t_array(t_uint256)dyn_storage"
					},
					{
						"astId": 19,
						"contract": "todo.sol:ToDoList",
						"label": "nextTaskId",
						"offset": 0,
						"slot": "2",
						"type": "t_uint256"
					}
				],
				"types": {
					"t_array(t_uint256)dyn_storage": {
						"base": "t_uint256",
						"encoding": "dynamic_array",
						"label": "uint256[]",
						"numberOfBytes": "32"
					},
					"t_bool": {
						"encoding": "inplace",
						"label": "bool",
						"numberOfBytes": "1"
					},
					"t_mapping(t_uint256,t_struct(Task)8_storage)": {
						"encoding": "mapping",
						"key": "t_uint256",
						"label": "mapping(uint256 => struct ToDoList.Task)",
						"numberOfBytes": "32",
						"value": "t_struct(Task)8_storage"
					},
					"t_string_storage": {
						"encoding": "bytes",
						"label": "string",
						"numberOfBytes": "32"
					},
					"t_struct(Task)8_storage": {
						"encoding": "inplace",
						"label": "struct ToDoList.Task",
						"members": [
							{
								"astId": 3,
								"contract": "todo.sol:ToDoList",
								"label": "taskId",
								"offset": 0,
								"slot": "0",
								"type": "t_uint256"
							},
							{
								"astId": 5,
								"contract": "todo.sol:ToDoList",
								"label": "description",
								"offset": 0,
								"slot": "1",
								"type": "t_string_storage"
							},
							{
								"astId": 7,
								"contract": "todo.sol:ToDoList",
								"label": "isCompleted",
								"offset": 0,
								"slot": "2",
								"type": "t_bool"
							}
						],
						"numberOfBytes": "96"
					},
					"t_uint256": {
						"encoding": "inplace",
						"label": "uint256",
						"numberOfBytes": "32"
					}
				}
			},
			"userdoc": {
				"kind": "user",
				"methods": {},
				"version": 1
			}
		}
	}
}